:020000040800F2
:10000000402F0020F52100086BCE0008E1210008F8
:10001000E1210008E1210008E121000800000000C2
:10002000000000000000000000000000B5220008F1
:10003000E12100080000000055220008D5A50008B5
:100040002D2400082D2400082D2400082D2400084C
:100050002D2400082D2400082D2400082D2400083C
:100060002D2400082D2400082D2400082D2400082C
:100070002D2400082D2400082D2400082D2400081C
:100080002D2400082D2400082D2400082D2400080C
:100090002D2400082D2400082D2400082D240008FC
:1000A0002D2400082D2400082D2400082D240008EC
:1000B0002D2400082D2400082D2400082D240008DC
:1000C0002D2400082D2400082D2400082D240008CC
:1000D0002D2400082D2400082D2400082D240008BC
:1000E0002D2400082D2400082D2400082D240008AC
:1000F0002D2400082D2400082D2400082D2400089C
:100100002D2400082D2400082D2400082D2400088B
:100110002D2400082D2400082D2400082D2400087B
:100120002D2400082D2400082D2400082D2400086B
:080130002D2400082D24000815
:1001380080F0004002E000BF81F0004142001FBF94
:100148005FEA410392EA030F7FEA226C7FEA236C9D
:100158006AD04FEA1262D2EB1363C1BFD218414092
:1001680048404140B8BF5B42192B88BF704710F028
:10017800004F40F4000020F07F4018BF404211F0CB
:10018800004F41F4000121F07F4118BF494292EA33
:10019800030F3FD0A2F1010241FA03FC10EB0C005F
:1001A800C3F1200301FA03F100F0004302D54942EC
:1001B80060EB4000B0F5000F13D3B0F1807F06D399
:1001C80040084FEA310102F10102FE2A51D2B1F191
:1001D800004F40EBC25008BF20F0010040EA030086
:1001E8007047490040EB0000013A28BFB0F5000F06
:1001F800EDD2B0FA80FCACF1080CB2EB0C0200FABC
:100208000CF0AABF00EBC25052421843BCBFD0400A
:100218001843704792F0000F81F4000106BF80F484
:1002280000000132013BB5E74FEA41037FEA226C47
:1002380018BF7FEA236C21D092EA030F04D092F012
:10024800000F08BF0846704790EA010F1CBF002046
:10025800704712F07F4F04D1400028BF40F00040A3
:10026800704712F100723CBF00F50000704700F0C3
:10027800004343F0FE4040F4000070477FEA2262EA
:1002880016BF08467FEA23630146420206BF5FEABB
:10029800412390EA010F40F4800070474FF00003BB
:1002A80004E000BF10F0004348BF40425FEA000C82
:1002B80008BF704743F0964301464FF000001CE02A
:1002C80050EA010208BF70474FF000030AE000BF80
:1002D80050EA010208BF704711F0004302D54042BE
:1002E80061EB41015FEA010C02BF84460146002030
:1002F80043F0B64308BFA3F18053A3F50003BCFA4B
:100308008CF2083AA3EBC25310DB01FA02FC6344F7
:1003180000FA02FCC2F12002BCF1004F20FA02F2FE
:1003280043EB020008BF20F00100704702F12002F1
:1003380001FA02FCC2F1200250EA4C0021FA02F252
:1003480043EB020008BF20EADC7070474FEA400226
:10035800B2F1FE4F0FD34FF09E03B3EB12620DD9EB
:100368004FEA002343F0004310F0004F23FA02F055
:1003780018BF404270474FF00000704712F1610FFC
:1003880001D1420205D110F0004008BF6FF00040D3
:1003980070474FF0000070477BB972B90029BEBFA3
:1003A80000204FF0004106E008BF00281CBF6FF096
:1003B80000414FF0FF3000F057B8ADF1080C6DE97F
:1003C80004CE002909DB002B1ADB00F057F8DDF812
:1003D80004E0DDE9022304B07047404261EB4101CB
:1003E800002B1BDB00F04AF8DDF804E0DDE902230E
:1003F80004B0404261EB4101524263EB4303704752
:10040800524263EB430300F039F8DDF804E0DDE91C
:10041800022304B0404261EB41017047524263EB52
:10042800430300F02BF8DDF804E0DDE9022304B013
:10043800524263EB4303704753B94AB9002908BFD6
:1004480000281CBF4FF0FF314FF0FF3000F00CB810
:10045800ADF1080C6DE904CE00F010F8DDF804E009
:10046800DDE9022304B07047704700BF034613F864
:10047800012B002AFBD1181A013870472DE9F047E3
:1004880086468C460846089E154674461946002B33
:1004980040F0C2808542B2FA82F245D94AB1C2F12F
:1004A800200300FA02FC2EFA03F3954043EA0C0CF1
:1004B80094404FEA154EA8B2BCFBFEF8230C0EFB85
:1004C80018CC08FB00F943EA0C43994528D9EB18E6
:1004D80008F1FF3704D2994502D9A8F102072B4445
:1004E800A3EB0903A4B2B3FBFEFC0EFB1C330CFB0D
:1004F80000F044EA0344A04214D92C190CF1FF334C
:1005080004D2A04202D9ACF102032C44241A43EAD3
:1005180007401EB1D440002334607360BDE8F08703
:100528004746DDE76346F1E792BB431B01214FEAEB
:10053800154EAFB2B3FBFEFC200C0EFB1C330CFBBC
:1005480007F840EA0343984562D9EB180CF1FF30ED
:1005580004D2984502D9ACF102002B44A3EB08035E
:10056800A4B2B3FBFEFC0EFB1C330CFB07F744EAFA
:100578000344A7424ED92C190CF1FF3304D2A742E9
:1005880002D9ACF102032C44E41B43EA0040C0E763
:10059800C2F1200320FA03F1954090402EFA03F3AC
:1005A80003434FEA154EAFB2B1FBFEFC0EFB1C1025
:1005B800190C0CFB07F841EA0041884504FA02F4DB
:1005C80022D969180CF1FF3004D2884502D9ACF160
:1005D80002002944A1EB08019BB2B1FBFEFC0EFB13
:1005E8001C110CFB07F743EA01439F420ED9EB1895
:1005F8000CF1FF3104D29F4202D9ACF102012B4425
:10060800DB1B41EA004192E76046E3E76146F7E712
:100618006046A3E76346B7E7834206D916B90021C7
:1006280008467BE7C6E900E0F9E7B3FA83F78FB934
:10063800834201D3724508D8BEEB020460EB030382
:1006480001209C461EB9002168E73846FAE7C6E94A
:10065800004CF8E7C7F1200CBB4022FA0CF41C430D
:100668002EFA0CF120FA0CF3B84001434FEA144972
:100678000EFA07F5B3FBF9F81FFA84FE09FB1830E8
:100688000B0C08FB0EFA43EA00439A4502FA07F2FC
:1006980040D9E31808F1FF3004D29A4502D9A8F1ED
:1006A80002002344A3EB0A0389B2B3FBF9F809FB60
:1006B800183308FB0EFE41EA03418E452CD9611818
:1006C80008F1FF3304D28E4502D9A8F10203214470
:1006D80043EA0040A0FB0298A1EB0E014145CE463B
:1006E800434602D306D14D4504D2B9EB020E68EB5E
:1006F80004030138002EA6D0B5EB0E0261EB03010E
:1007080001FA0CFC22FA07F34CEA0303F940C6E9A4
:10071800003198E74046C5E74346D9E71FB5044688
:100728000DF10F010DF10E000CF0EBFB9DF80F30F1
:10073800044A00930448234603210CF0D0FA04B07D
:1007480010BD00BFC807010840010108F8B500AF97
:100758006D468CB0FE696C46DFF85CC06362C4E924
:1007680005C001F00100C4E907022246C1F34001B7
:100778000723A16242F8103F104800234FF4635149
:1007880000F0BEFFAD46A6B188B06A460C4B536177
:10079800397E0C4B93614FF40073938309050A4B20
:1007A80042F8103F41F4E6510448334600F0A8FFF0
:1007B800AD46BD46F8BD00BFEC0701084001010881
:1007C800C10F01081F08010803000001F0B5484ADD
:1007D80093B010685168474A00AF3B1D03C31068C7
:1007E800516807F10C0303C3434B07F1200203F1DF
:1007F8001006154618685968144603C40833B342EE
:100808002246F7D14FF6FF730024BB823B4BC7F853
:100818001640C7F81A40FC83BB61394E30460EF0CB
:10082800D7FE0346B0B96C4688B031686A46354889
:10083800C2E905014FF400719183334942F8101F52
:1008480032484FF4E25100F05BFFA54600204C37D8
:10085800BD46F0BD02F09AFA031E05DA2C4A2B4871
:1008680001210CF032FAF1E707F1140002F078FAEE
:10087800284802F085FA3B1D3B6407F10C03C7E9E1
:100888000D5587F844403B63BC87234A1F48032122
:100898000CF012FA07F1300002F0DEF8031E01DA5C
:1008A8001E4ADCE71E4A19481E4E1F4D174C0321ED
:1008B8000CF002FA01230A223146022002F0C6F99E
:1008C80010F10B0F034609D1184A012120460CF0FC
:1008D800FCF9002116480EF0AEFFEBE7002801DA1C
:1008E800144ABCE703212A4620460CF0E5F9F0E754
:1008F800EC080108F0010108F5080108550700088F
:1009080068FE0008290801080300000140010108E9
:100918003F0801082507000858080108720801085F
:10092800920801082C010020E1080108A20801082A
:10093800A0860100C90801082DE9F04F91B084078D
:10094800009302F004030293C2F3C20303F101030C
:10095800DDF86880039205460E46059340F0BA819B
:10096800041D30B1072909D86FF01B0011B0BDE88C
:10097800F08F01F007063444C6F10806009B4FF0DB
:100988000009591E4FF0040A4FF0FF330193CDF8C8
:1009980010904F46CB4653460DB1009A22600598F9
:1009A800002800F3E8809848009A824203D39748C9
:1009B8008242C0F0E080039AA4EB050E92074FEA4A
:1009C8009E0000F103810F2F00F2B180002D00F08E
:1009D800058107F140020DEB020C019A0CF8200C7E
:1009E8000CF8102C049801300490E7E07A285DD8C0
:1009F8004B280ED8472859D829282DD8252852D031
:100A080054D820287AD02338D0F1000B4BEB000BB8
:100A180074E04C382E2849D8DFE800F07048484880
:100A280048484848484848484B484848484848483B
:100A38004859484B4B595959704B6D487048184B99
:100A4800184848827F4B48484B487F0000204FF0A9
:100A5800000B4FF0040A38E02A38C0B2012202FA2B
:100A680000F010EA0E0F49D110F0625C2FD110EAA5
:100A7800020B43D06046013C5444B4FBFAF40AFB31
:100A880004F4002D61D0A3EB050CA444B4453FF653
:100A98006BAF002868D1042B47D158F8043B23607A
:100AA800043404232AE0019A013A01924FF0000B22
:100AB80024E011F8010C6C2834D111F8023C002014
:100AC8006C2B8346C5D14FF0080A5346D3E708F18B
:100AD800070828F007080734F8E802AB24F00704F1
:100AE80035B106982044B0423FF63EAFC4E900ABAA
:100AF80008344FF0000B4FF0080A534611F8010F65
:100B0800002878D0BBF1000F7FF470AF2528F5D10D
:100B1800019B013301934FF0010B4FF0040AECE7FE
:100B2800584694E700208346A5E7082B02D06FF0CB
:100B380015001BE708F1070828F00708F8E8022362
:100B4800C4E9002308340823D8E768B9042B02D184
:100B580008F10408A4E7082BE9D108F1070828F0F0
:100B6800070808F10808EDE7059A013A059258F8D0
:100B7800042B009210E7039A900720D5A4EB050EEA
:100B88004FEA9E004FF0010CBEF5007FCFD20F2F29
:100B9800CDD8F5B107F140020DEB020EC0B2019AB3
:100BA8000EF8200C0EF8102CBCF1000F3FF41AAF11
:100BB80060F07F000EF8200C09F101090137C5F13A
:100BC8000802043406924FF6DA7E97E74FF0000CDD
:100BD800DAE7BCF1000F01D00136EFE702980236E0
:100BE8000028EBD10098CDE90631FFF73FFCDDE99D
:100BF80006310644E2E7631BB3F5806F97D23DB92F
:100C0800A6F10804E018B1E6E0FC0008E41B0108BE
:100C1800029A28609B082B709DF81030C2B1EB70C7
:100C280085F80290B9F1000F05D008A80022C5F197
:100C3800010C97420ED1C5F101030DF120084FF0C8
:100C4800000A01930DF1300B574512D1601B8DE658
:100C58006B70E5E710F8013B190608D50CEB040E9C
:100C6800B64503F07F033FF67FAE04F8013B01323F
:100C7800DFE7B9F1000F03D098F90020002A17DB4D
:100C8800029BD3B11AF80B2004F8012B0022019B18
:100C980018191044B0423FF667AE98F8000004F8FF
:100CA800010B0099039220460EF08BFF039A14441F
:100CB8000AF1010A08F10108C6E798F8002055F87A
:100CC80022300093029B45F822300098FFF7CEFBB4
:100CD800421CDCE76FF00D0048E600BF2DE9F04F3D
:100CE80097B000AF90F802A0D7F880B03B62CBF382
:100CF800C0030446FA62BB61894641B94578007869
:100D08000AEB800020444D4517D8A0EB0409E3788E
:100D1800FB61BAF1000F02D01BF0010F16D1FB697D
:100D280053BBFB6A1BB13A6A4946204698474D4671
:100D380028465C37BD46BDE8F08F461C3046FFF7B5
:100D480095FB0130304409F10109DCE7237862683A
:100D58007A62FA6A9900796104EB8301002A40F00B
:100D680000814D460E4601EB0A094FF000084E453A
:100D78004CD101EB0A0610E01BF0020FD1D023780A
:100D88009A007A6162687A62FA6A04EB8301002A3F
:100D980077D14D4601EB0A0690461BF0050F0CBFB4
:100DA80002230123FB62FB6906EB430A0BF00203F3
:100DB800BB625645BCD016F8021B16F8013C54F825
:100DC8002390994B994502D3984B994536D3BB69E3
:100DD800002B40D0786A0BF026FC00283BD0E9466F
:100DE8008AB06A46924B53617B6AC2E906314FF476
:100DF800007313848F4B42F8103F8F4800234FF441
:100E0800125100F07DFC023DCD46D2E716F8013BB9
:100E1800F96254F82300FFF729FBD7F88430F96A00
:100E280001304BB1D7F8883098453EBFD7F88430A9
:100E380023F8180008F10108054498E7BB6923B1B5
:100E4800786A0BF0F0FB0028C9D11BF0010F05D11F
:100E5800FB6AED1AADE7BB6A002BAAD04846FFF73C
:100E680005FBD7F8843053B1D7F8883098453FBF91
:100E7800D7F88420431C22F8183008F101080544EB
:100E880097E7BAF1000F72D01BF0040672D0D04673
:100E9800002607F1480052463B61B9620EF091FE08
:100EA800B96A3B6901EB0A02BA62FA69F969520048
:100EB800FA60BA6A02EB41023A610BF00202BA60C8
:100EC8003A69B96A8A4257D162787A621BF0020F8E
:100ED80032440CBF4FEA580100211BF0010FD2B277
:100EE80040F09F801BF0040F14BF40460020BB61F8
:100EF8006270A070E1703A6A7969FB6A2046984787
:100F0800051EFFF615AFBB6923707B6A6370FB692A
:100F1800E37041463A6AFB6A84F802A007F1480088
:100F28009847B0F10008C0F2BB807B693A6AA9EB28
:100F38000A01C91AFB68C91AD7E90A0398470028A1
:100F4800C0F2B080A84408EB00054FF0000B07F191
:100F5800380AB34572D300213A6AFB6A08469847B3
:100F6800E6E656464FF0000807F1380093E7564684
:100F7800D04697E7B04695E7BA6A12F8021BBA62FC
:100F880012F8015C284A54F82500904202D3274AF7
:100F980090421ED3BA6932B1786A7B600BF043FB8A
:100FA8007B6800288CD1BA6802BB08F1280207F1D7
:100FB800300C08F10100944407F1580252FA80F00D
:100FC80008F102080CF8101C5FFA88F800F8105CA9
:100FD80076E7BA693AB1786A7B600BF024FB7B68E4
:100FE80000287FF46DAF1BF0010F09D006F128022D
:100FF80007F13000711C161806F8205CCEB25FE7C6
:101008001BF0040F3FF45CAF08F1280207F1300031
:1010180008F1010102EB000808F8105C5FFA81F89A
:101028004EE7002063E700BFE0FC0008E41B01086E
:101038001609010804000001180101081BF80A300C
:1010480087F8373054F82390D7F884302BB3D7F883
:1010580088309B4521D2D7F8843033F81B803A6A10
:10106800FB6A012107F13700984700281ADB05447D
:10107800B8F1000F06D14846FFF7F8F900F101086A
:101088001FFA88F83A6AFB6A41464846984700289A
:1010980008DB05440BF1010B5BE74FF00008DEE7C6
:1010A800454645E6054643E6014B1860704700BFD4
:1010B8000000002080B505460E46174698460AF0FF
:1010C80049FB03460EF0FEFDDFF81890044649F888
:1010D8000030424630463946A84754F8090001F026
:1010E8009FF800BF08000000034A536823F002037A
:1010F80053600020704700BF002004E0EFF3118028
:10110800102383F31288BFF36F8F094B1A683AB91B
:10111800084A116841F4807111601168C905FCD54D
:101128001A6801321A6080F31188BFF36F8F704715
:10113800600900200004005838B5EFF3118510232A
:1011480083F31288BFF36F8F0E4B1A6872B90E4C77
:10115800237833B90D4A0E4802210BF0ADFD012367
:10116800237085F31188BFF36F8F38BD012A01BF43
:1011780008490A6822F480720A601A68013A1A60FB
:10118800EFE700BF600900203E190020CA090108E6
:101198007001010800040058084B1A6842F40072F4
:1011A8001A601A6842F480621A601A6842F48072FF
:1011B8001A60034B034A1A60704700BF004000588A
:1011C8001401002000093D002DE9F047DFF85880A0
:1011D800044607464FF0010914B93846BDE8F087C0
:1011E80094FAA4F5B5FA85F509FA05F32E0108EB8A
:1011F80005156FEA030A24EA03042B7B002BEBD0C6
:1012080058F806301B694BB94644042273682846CF
:10121800196807EA0A070BF0DFFCDDE7284698475C
:101228000028D9D1F0E700BF9001010830B5104976
:10123800104889B000220EF08DFB0F4D0F49002297
:101248000023CDE9062300240E23CDE90334CDE99C
:1012580001440B4B00944FF44072284609F0BAFF42
:10126800084928460EF049FA204609B030BD00BFAB
:1012780091120008E806002060020020801A002071
:10128800AD1500080B0A0108014809F0AFBD00BF01
:10129800180200202DE9F047804620480F460BF041
:1012A80073FC0646002832D000252846BDE8F087A2
:1012B800237B83B12368DB680BB1204698476368BA
:1012C80083F8069023681B69CBB963680422196800
:1012D80020460BF081FC013610345445E8D3B8F1B0
:1012E800000FE2D0002DDFD02846FFF76DFF05463E
:1012F800002FF7D0002164200EF09DFAF2E7204677
:1013080098470028E1D009FA06F31D43E3E7044CA7
:10131800DFF810A005464FF00109DEE77409002048
:1013280090010108A0010108014B53F82000704703
:101338002802010808B5034608462BB1044A136081
:1013480000F074FC002008BD6FF01500FBE700BF3B
:101358000400002010B5044C237813B9034809F0A1
:1013680045FD0123237010BD3F19002018020020FD
:1013780010B504460B480BF007FC5CB1BFF35B8F5C
:10138800094B53E8001F013943E80012002AF8D13D
:10139800BFF35B8F05480EF0E9FA0548BDE8104039
:1013A80009F024BD6C09002070090020E80600201F
:1013B800180200200020064BBFF35B8F014653E85C
:1013C800000F43E80012002AF9D1BFF35B8F704782
:1013D8006C09002070B5FFF7EDFF084C084E054674
:1013E800B44200D370BD63685B792BB123685B6836
:1013F80013B12946204698471034F1E790010108B7
:10140800A001010810B5044C044920460BF042FA2B
:10141800034B1C6010BD00BF7401002014020108BA
:10142800640900200D4A0E48002310B513700D4AB8
:1014380013600D4A4FF47A711360FFF77BFFFFF7D3
:10144800E1FF0A4B0A4918468B4200D310BD1A1A0D
:101458005C681211013222711033F5E7401900203F
:10146800ABCB00086C09002070090020900101082E
:10147800A001010801460022014800230BF02BBA05
:101488007401002001480BF0C4BA00BF74010020A9
:10149800024B014618680BF010BB00BF640900201E
:1014A80001480BF045BB00BF7401002070B5264B06
:1014B8001878002846D0FFF7E5FF054600283ED1FA
:1014C800224B234C1B68002B12DD0EF041FA0A2236
:1014D8000023FEF7B1FFD4E90032C01A40F2E93325
:1014E80061EB0201984271F1000101D3FFF772FF2D
:1014F800D4E9003213F57A7342F10002C4E90032EC
:10150800BDE87040FFF7CCBF63685B7923B12368FF
:1015180029461B68204698471034B442F4D328461D
:10152800FFF7B6FFBFF35B8F0A4B53E8001F013983
:1015380043E80012002AF8D1BFF35B8FC0E7064CDE
:10154800064EEAE770BD00BF3F1900206C09002075
:10155800E00600207009002090010108A0010108A0
:1015680070B50D4D297861B90120FFF793FE0B4C3A
:101578000B4EB44206D3FFF799FF0028FBD1012395
:101588002B7070BD63685B791BB1236820469B682C
:1015980098471034EDE700BF40190020900101087A
:1015A800A001010800212DE9F0470846FFF772FE67
:1015B800044658B34FF4FA784FF000090EF082FB56
:1015C8001B4B1C4A1B58136033B11B4B1B68092B60
:1015D80002DD1A4809F00AFC194FDFF860A000255F
:1015E80044B12046FFF7F0FD044618B94FF0FF3824
:1015F8004FF0FF39FFF75AFF064628B9B5B94246FA
:101608004B46504609F02CFC3546E9E74FF0FF38C9
:101618004FF0FF39D2E72B689B691BB100221146B6
:10162800284698471035BD42F5D3E8E7054DFAE757
:101638000800000068090020700900201802002036
:10164800A00101089001010813B518480BF09CFA95
:10165800174B1B7873B1EFF31184102383F31288AF
:10166800BFF36F8FFFF722FF84F31188BFF36F8FEB
:1016780002B010BD0F4B1B68002BF9D050B90022E7
:101688000023CDE900230C4842F2107200230AF02F
:1016980075FBEDE70928EBD107480EF067F9074815
:1016A80002B0BDE8104009F0A1BB00BF70090020DE
:1016B8004019002068090020E806002018020020D0
:1016C80010B5064B1B68044698472146A06004489D
:1016D8000BF080F9BDE81040FFF7B6BF040000200A
:1016E80074010020044A054B9B1AB1EBD30F34BF99
:1016F80052F83100002070471801010890010108D4
:101708002DE9F04F8FB004AFC1F34A28B8600D46F9
:1017180091467B600C0DB8F1000F63D0002607F1ED
:1017280014034FF0040B4FF00A0AC7F80C80C7E9FE
:1017380007667E620193CDF808B0CDF800A007F1E6
:101748001C03F96832464846FFF7C8FAB0F5006F3F
:1017580003461CD36C468AB0D9F8041004AB26485B
:10176800C3E9050140F2FF71D9611A464FF40071CF
:101778001984224B42F8103F214833464FF4125146
:10178800FFF7BEFFA5462C37BD46BDE8F08FC0F376
:101798000A0804F11700184420F0070080083B608D
:1017A800FFF768FE68F35325044690B13B68154A75
:1017B800C7E9083600F1100107F11403F961CDE912
:1017C80000A3CDF808B0F96807F11C034846FFF7F5
:1017D80085FA68F353257B68B9682A4620460BF0DA
:1017E8001BFAD0E704F1170020F007008008FFF784
:1017F80041FE0446EDE700BF200A0108040000018D
:1018080020010108F3CB00082DE9F04F87B0DDE98E
:101818001279DDE9105A0446039193469846BFB100
:10182800CDF800903B46524610210020CDF8149088
:10183800FFF782F8B0F5006F06460AD3184A194830
:1018480040F2FF73022107B0BDE8F04F0BF03DBA3C
:101858003E4605F11700304420F0070004F0070465
:101868008008FFF707FE0BF0070BE40044EA8B142F
:1018780044EA462444EA0554054640B13FB1CDF850
:1018880000903B46524631461030FFF755F8039911
:1018980043462246284607B0BDE8F04F0BF0BCB9D6
:1018A8005F0A010820010108406820B1034BC01AF3
:1018B80040F3CF0070474FF0FF3070471801010820
:1018C8000EB403B503AB014653F8042B0448019347
:1018D80000F02EFF02B05DF804EB03B0704700BFC4
:1018E80035CD0008CA0605D48B064CBF024903490A
:1018F800FFF7E6BF704700BF980A0108970A01087A
:101908002DE9F04F89B09B46149B06939DF84CA097
:10191800159B0593169B179E049304460D46904607
:10192800BAF1000F00F09D8006F4807307930BF066
:1019380051F906F00209024600283ED09149204696
:10194800FFF7BEFF0746B9F1000F08D016F0440FA5
:1019580035D18D492A462046FFF7B2FF074406F0E5
:10196800010353B1894B8A4953F82A20894B2046F1
:10197800002A08BF1A46FFF7A3FF06F48073002B5E
:1019880049D006F00803002B63D1B8F1000F66D0E8
:10199800814942462046FFF793FF0546069B3D4492
:1019A800002B6DD1049B002B73D1F30700F1E48069
:1019B80031462046FFF796FFD8E00746C3E7774B46
:1019C80018680028CAD0764B4FF47A791B68B5FBA3
:1019D800F3F54FF46163B5FBF0F100FB115509FB1A
:1019E80005F54FF03C0CB1FBF3F203FB1211B5FB0C
:1019F800F0FEB1FBFCF300FB1E550CFB131109FBB9
:101A080005F50091B5FBF0F56649CDE901E52046FD
:101A1800FFF756FFA2E706F00803EBB1624B6349F4
:101A280053F82A202046FFF74BFF0546B8F1000F70
:101A380005D0594942462046FFF742FF0544BBF10D
:101A4800000FABD05A495A462046FFF739FF0544E4
:101A5800A4E74FF0000BE1E706F00805E6E7454686
:101A68009CE7BBF1010F069B06D1002B64D1049BB8
:101A7800002B7BD000250CE0002BF8D04D485CE013
:101A88004D48069B4D4922460AF09CFD049B002BBD
:101A980068D0DFF82C81DFF82C91049F3146102F95
:101AA800204628BF1027FFF71DFF4FF0000B5D45AC
:101AB80045DC059B49461A782046FFF701FF4FF0A1
:101AC800010B1BF0070F03D141462046FFF7F8FE34
:101AD8005F453BD9059B494613F80B202046FFF785
:101AE800EFFE0BF1010BBBF1100FEAD1364920468E
:101AF8004FF0000BFFF7E4FE5A46059B9A5CA2F1F3
:101B080020015F2928BF2E2230492046FFF7D8FE42
:101B18000BF1010BBBF1100F1DD01BF0070F03D108
:101B280041462046FFF7CCFE5F455A46E5D8414678
:101B38002046FFF7C5FEEBE71F485546A1E741469B
:101B48002046FFF7BDFE0BF1010BB0E72049204608
:101B5800FFF7B6FEC5E7059B3B440593049BDB1BDB
:101B680004939AD1BAF1000F7FF41FAF204609B051
:101B7800BDE8F04F0BF0CDB8064A05492046FFF7FF
:101B88009FFE15E79F0A0108A30A01083802010809
:101B9800C10F01089A0A0108C80A01087C09002037
:101BA80078090020AC0A01084C020108CC0A010897
:101BB800D20A01086BCD000835CD00083927000886
:101BC800DF0A0108D70A0108E10A0108E30A010847
:101BD800DD0A010873B542F20F738B4228BF0B462A
:101BE80005680F4A0446052168460AF0CBF9636880
:101BF8000C495B6806460B2228460BF07CF86368A4
:101C08003246694628465B680BF075F863680649F2
:101C18005B681B2228460BF06EF802B070BD00BF4F
:101C28008B130108020B0108E60A0108074A002184
:101C38000123904206D8064A01B901231360054BD7
:101C48001860704740085B000121F2E740420F002E
:101C5800780900207C090020F8B5074F0D46044696
:101C68004618B44201D12846F8BD14F8011BBB68D8
:101C780001485B689847F4E708FE0008014B0360D9
:101C880000207047940201082DE9F047064600AF8E
:101C98000C46002936D0E9468AB0D1E90012A3687B
:101CA8006D462148A8464FF0050AC5E90501C5E972
:101CB800072348F810AF1D48424600234FF421512E
:101CC800FFF71EFDCD46D4E903126369AD461848F7
:101CD800C5F810A0C5E90501C5E907231348002385
:101CE80042464FF42151FFF70BFDCD46E369114AF7
:101CF8000E4801210AF0E9FFA3690F4A0B480121A8
:101D08000AF0E3FF012E07D1EFF305830B4A0748DA
:101D1800103B31460AF0D9FF2146304608F0F8FD5D
:101D2800BD46BDE8F08700BF480B01085001010817
:101D3800770B0108A60B0108B50B0108E30B010896
:101D480030BFFFF7FDBF00BF2DE9F0410B4EDFF8B4
:101D5800308006EB0807CC1B054632460949204669
:101D68000DF02FFFA01942460021083C0DF037FF67
:101D78006C6707F10800BDE8F08100BF00000000B3
:101D880004000000A0010108054B5A699B689A42AB
:101D98001FBF044A536843F080535360704700BF25
:101DA8000819002000ED00E070B5244C06460D46E9
:101DB800234824490BF05CF8A36AD9043CD5204891
:101DC80021490BF055F81720A36A1A0504D51C48B9
:101DD8001E490BF04DF81820184CA36A9B0512D524
:101DE8001B4917480BF044F8A36BA26A110409D5E4
:101DF800184A134801210AF068FF1EB1A36A23F4A8
:101E08000043A36219200D4CA36A5A0504D50C4857
:101E180011490BF02DF81A20A36ADB0504D50848F0
:101E28000E490BF025F81B20044A936A43F47F43BC
:101E3800936200232B7070BD1620C5E700ED00E00B
:101E480050010108F60B01080C0C01081D0C0108D3
:101E5800300C0108490C01085E0C0108790C0108D6
:101E680010B5204C204921480BF002F8A36A9901CB
:101E780036D51E481E490AF0FBFF1E20A36ADA0168
:101E880004D51A481B490AF0F3FF1F20154CA36A12
:101E98001B0304D5154818490AF0EAFF2120A36A54
:101EA800590304D5114815490AF0E2FF22200D4CC8
:101EB800A36A9A0304D50D4811490AF0D9FF2320D3
:101EC800A36ADB0304D509480E490AF0D1FF242090
:101ED800044A936A6FEA03436FEA1343936210BD9F
:101EE8001D20CBE700ED00E0910C0108500101082E
:101EF800A90C0108BC0C0108D60C0108F40C010857
:101F0800190D0108330D01082DE9F8432F4D8046BE
:101F180089462F482F4917460AF0AAFFAB6ADA0606
:101F280027D52D492A480AF0A3FF1124AB6A1B07BD
:101F380004D52A4926480AF09BFF1224234DAB6A90
:101F48009E0718D5264922480AF092FF6E6BAB6AA5
:101F58001C0637D5234A1E48334601210AF0B5FE30
:101F6800B9F1000F03D0AB6A23F08003AB621324EE
:101F780003E01024DAE76FF01506144DAB6AD807B2
:101F880004D5194912480AF073FF1424AB6AD9061C
:101F980002D4AB6A9A070BD50C4B5B681B0507D5B7
:101FA8004146304600F0F8F910B180F30988022460
:101FB800064A936A43F0FF03936200233B7020466E
:101FC800BDE8F8836FF01506D1E700BF00ED00E02B
:101FD800500101085E0D0108740D01081D0C01086F
:101FE800A70D0108BF0D0108D50D01082DE9F04125
:101FF800664B8AB0D3F8048000AF0446C8F30805DE
:10200800002686F31188BFF36F8F02F07F43B3F188
:102018007F4F07D102F00C03082B12D15C495D48B1
:102028000AF026FF002634460023FB71EB1E092B1D
:1020380000F28A80DFE803F00A80837C8888888839
:10204800888610074CBF0C460126EDE752495148D7
:102058004E4D0AF00DFF0023FB71EB6A9A0705D578
:102068004E494C480AF004FF002332E0EB6A002B8B
:1020780001DA4B49F5E7EB6A5B00F5D54949454874
:102088000AF0F6FE6B69A26943F480736B61BFF3D3
:102098004F8FBFF36F8F6B6932F8022C23F4807374
:1020A8006B61BFF34F8FBFF36F8F4DF602739A4288
:1020B80008D0AB6ADBB273B3FA1D01212046FFF7E3
:1020C80023FF37E02368384A324801210AF0FDFD32
:1020D8002368FA79DAB907F1080504F1200C2068B9
:1020E80061682A4603C2083464451546F7D17A6AFE
:1020F800002E45D0C2F3080121B96FEA52226FEAD7
:1021080042227A6207F108011846FFF7BDFD283719
:10211800BD46BDE8F081AB6A13F47F4F04D0F91DCA
:102128000120FFF741FE05E0AB6AB3F5803F9BD382
:10213800FFF796FE0346CCE7FA1D0021BEE7F91D1E
:102148000020EEE719498CE7194A1A4B18F4F87F72
:10215800E8468AB018BF13466A461749C2E905130C
:102168004FF400731384103D144BD56142F8103FAF
:10217800084800234FF41151FFF7C2FAC54673E728
:1021880022F4FF7222F00102BBE700BF00ED00E07D
:10219800220E0108500101084D0E0108640E0108C5
:1021A800850E0108930E0108B20E0108CE0E010833
:1021B800090E0108F40D0108F20E010804000001DF
:1021C800044B5A6942F010025A615A6922F0080217
:1021D8005A61704700ED00E0EFF30880EFF30981E2
:1021E80001B57246FFF702FF01BD00BF0A4880F340
:1021F8000888102080F3118808484FF404614018BB
:1022080080F30988EFF314800221084380F31488CF
:10221800BFF36F8F0AF034FE402F0020C01D00204E
:10222800084B9B6883420BD1EFF3058343B1064B00
:102238005A6842F080525A605A6A22F400425A623E
:1022480009F08EBA0819002000ED00E014498A68E8
:102258004FF030001044EFF3098C80E8F01F102095
:1022680080F31288BFF36F8F0E4F4FF000664A69F4
:102278008A603E60506F0C4C2060906F002393671B
:1022880080F3118804B5104600F0EAF8BDE8044070
:1022980002F1300090E8F01F8CF3098870470000C5
:1022A8000819002004ED00E0AC0900201EF0040F1E
:1022B8000CBFEFF30880EFF30980816911F8021C65
:1022C8000229FFD001B572460AF0C7FD01BD00BF63
:1022D80040B2002807DB044A4109012300F01F002F
:1022E800834042F82130704700E100E040B2002806
:1022F8000CDB4309064900F01F002033012282400D
:1023080041F82320BFF34F8FBFF36F8F704700BF93
:1023180000E100E040B20028A8BF00F1604001F1F0
:102328000101B8BF064B4FEA0111ACBF00F561408F
:1023380000F00F00C9B2B4BF195480F800137047F9
:1023480014ED00E0044B054A23F07F039360BFF3CC
:102358004F8FBFF36F8F70470000000800ED00E05B
:1023680042F8203C009B42F81C3C0A49019B42F879
:10237800183C029B42F8143C21F001014FF0807395
:1023880042F8043C42F8081C0023203A026583679F
:10239800704700BFBD100008094A0346906870B135
:1023A80013F1160F406E05D0A0F140029A4205D8ED
:1023B800834203D2814228BF002070470020704723
:1023C8000819002008B51546094A0A4B9060426F63
:1023D8001A600E4600F044F82C4686F3098800205F
:1023E800054B98472046002100220023034C204734
:1023F80008190020AC0900209FCE0008BD10000875
:10240800014B10221A61704700ED00E004480023D8
:102418001021C21801333E2B82F80013F9D17047FE
:1024280000E100E008B5EFF30583064A103B02EB34
:10243800C30152F8330049688847BDE80840FFF7F0
:10244800A3BC00BFA4FE0008024B034A03480121B5
:1024580000F08AB800000120000000209402010862
:10246800426E054B403A1A60044A4021C3E9011202
:102478001846012100F082B8B009002000000B15B1
:1024880008B503461048D0F89020C2F30722013A55
:10249800934207D90D480E4A01210AF016FC6FF045
:1024A800150008BDC0F898300A6822F01F021A43C8
:1024B80042F01002C0F89C208A6842F00102C0F87D
:1024C800A0201846EDE700BF00ED00E04801010834
:1024D800090F0108F0B50E4685B01F4604460025D1
:1024E800B5420DDA606810B397B1431E18420AD09E
:1024F800104A11482B4601210AF0E7FB6FF015023C
:10250800104605B0F0BD1F28F2D921680B42EFD163
:10251800236801930AF0D3FCA36801A90343D0B24E
:102528000393FFF7ADFF10F1160FE7D0421C0135FA
:102538000C34D5E72F0F010848010108044B052288
:10254800C3F89420BFF34F8FBFF36F8F704700BF5E
:1025580000ED00E0BFF35F8F024B0022C3F8942028
:10256800704700BF00ED00E010B5034C012322784E
:10257800FFF7B0FF207010BD4219002008B50B4AC4
:1025880000231278FFF7A6FF10F1160F07D0084AAC
:102598000021D2F89030C3F30723984200DB08BD2E
:1025A800C2F89800C2F8A0100130F2E742190020E2
:1025B80000ED00E02DE9F04357485849D0F8903035
:1025C8000D68C3F307239D4285B000F2A180FFF791
:1025D800C1FF49680022954201F10C011AD1504C03
:1025E800504F25706846FFF749FBDFF83C81DFF85C
:1025F8003C9106460025AE421FD12378464900206B
:10260800D1F89020C2F3072293427BDBFFF796FFB5
:1026180000204CE0C0F8982051F80C3C23F01F0330
:10262800134343F01003C0F89C3051F8043C43F0C6
:102638000103C0F8A0300132CDE7009800EB051186
:102648004FEA051CCB683B40B3F5000F44D00AD8CD
:10265800B3F5001F2ED0B3F5800F34D0B3F5801F2B
:1026680010D00135C7E7B3F1807F3ED0B3F1007FCA
:10267800F7D150F80C3088684A680AF020FC40F41A
:10268800802009E050F80C3088684A680AF017FC86
:1026980040F0885040F43020039001A92078CDE91B
:1026A8000123FFF7EDFE002828DA6FF0150005B0CA
:1026B800BDE8F08350F80C3088684A680AF0FFFBE0
:1026C80040EA0800E8E750F80C3088684A680AF0E1
:1026D800F6FB40EA0900DFE750F80C3088684A68E2
:1026E8000AF0EDFB40F08270D6E750F80C308868AD
:1026F8004A680AF0E4FB40F08870CDE7237801339C
:102708002370AEE7C1F89830C1F8A000013377E72D
:102718004FF0FF30CBE700BF00ED00E0A00201085A
:10272800421900200000F0FF000008110000020616
:10273800F0B587B007460E461446002110226846B9
:102748001D460DF04CFA02238DF802302A46054B3F
:10275800019321466846CDE9047609F03DFC07B0AF
:10276800F0BD00BFE7CE000808B5024B1B689847CC
:10277800002008BDBC090020034B044A1860937868
:1027880043F0020393707047BC090020100000203A
:1027980008B50649064821F00701C1F1005202F5C3
:1027A800803209F0D2FE002008BD00BFC7370020E4
:1027B800C0090020024B1B6803B11847FF2070476F
:1027C800D40900200A4B0B4A0020C3E900000A4B39
:1027D8001A600A4A5A600A4A9A600A4ADA600A4B38
:1027E8000A4A9860C3E90020094ADA60704700BFC6
:1027F800F809002051290008E80900207D28000870
:10280800B5290008FDCE0008D8090020BD2700081A
:10281800FFCE000830B50E4C8BB02D230546684618
:102828008DF8003003F03CFF9DF904302278934284
:1028380000D15DB1D8B2074B20701B6803B198472F
:102848002378054A054803210AF03FFA0BB030BD4A
:1028580045190020D0090020610F0108380101083E
:10286800034BBFF35B8F1868BFF35B8F704700BFE4
:10287800000A00202DE9F04383B0427802AF0446F5
:10288800C2B1104600F0E4FA6C4688B002AA294B9F
:10289800C2E905304FF400739383274B42F8103F89
:1028A80026484FF4E2510AF028FBA5460437BD46F6
:1028B800BDE8F083FFF7D4FFC00702D51046FFF745
:1028C800A9FFFFF7CDFF81070ED4237F63B1BFF3C4
:1028D8005B8F1B4B53E8001F41F0020143E80012D5
:1028E800002AF7D1BFF35B8F6179237F4A1E5142DB
:1028F800514141EA4301134B1D685FFA81F8002DED
:10290800D4D0083D4FF6FF792B88E0784B4501D0AD
:1029180083420AD1A16894F91030B4F90E200191CC
:10292800217B00916E684146B047AD68002DBDD04F
:10293800083DE9E7790F01080300000138010108A3
:10294800000A0020F8090020B0B50446407800AF1E
:1029580098B100F07DFA6D4688B06A460E4BC2E920
:1029680005304FF4007393830C4B42F8103F0C482A
:102978004FF4E2510AF0C1FAAD46FFF771FFC30701
:1029880002D50020FFF746FF064B62781A7006480A
:1029980008F02CFABD46B0BD940F010803000001F1
:1029A800380101084419002030020020B0B58AB06F
:1029B8000446407800AFE0B100F04AFA6D4688B0AE
:1029C8006A461C4BC2E905304FF4007393831A4BD7
:1029D80042F8103F19484FF4E2510AF08EFAAD461A
:1029E800174B62781A70174808F000FA2837BD4666
:1029F800B0BD2378052B0FD0092B19D0012BEFD1AF
:102A0800072338463B7003F04BFE7B680E4A0B48A1
:102A180003210AF05AF9E3E70C4B1B6813B1617AFA
:102A2800207A98470A4A054803210AF045F9D7E76A
:102A3800084AF8E7AC0F0108030000013801010853
:102A48004319002048020020C40F0108CC090020C7
:102A5800E20F0108F20F0108F0B59BB0044600AF81
:102A68004FF0FF324FF0FF336F4808F0F7F80126B8
:102A78001D2307F118003B763E7703F029FF257DDB
:102A8800002D70D1694B3E711B787B72342302256F
:102A980087F8403007F140003D7203F001FE40B373
:102AA800634A644831460AF007F9EA24204600F0F0
:102AB800C3F96D4688B06A465F4BC2E905304FF4EA
:102AC800007393835D4B5B4842F8103F4FF4E2512B
:102AD8000AF013FA2046AD4600F0C6F9044600286D
:102AE80000F08A80504808F031F920466C37BD461E
:102AF800F0BD7B6CA2899A8023697B6487F840507B
:102B080007F1400003F0E4FE032387F84030236810
:102B18007B6407F1400003F0DBFE092387F84030AF
:102B280063687B6407F1400003F0D2FE082387F84E
:102B38004030A3687B6407F1400003F0C9FE381DEC
:102B480004F0EAF904460028B0D14FF0FF333C48BE
:102B58004FF0FF3208F084F93A4B187800284BD030
:102B680000F094F9BAE7012D5AD1352387F840309F
:102B7800354B7B6407F1400003F0AAFE062387F873
:102B8800403000237B6407F1400003F0A1FE0723D7
:102B980087F8403023687B6407F1400003F098FE13
:102BA8000C2387F84030A3687B6407F1400003F0EA
:102BB8008FFE0D2387F84030A3687B6407F140003F
:102BC80003F086FE0E2387F84030A3687B6407F184
:102BD800400003F07DFE0F2387F8403063687B6474
:102BE80007F1400003F074FE87F8405087F844501E
:102BF80007F1400003F06CFEFFF732FEC3070AD46A
:102C08002D2387F84030094B1B7887F8443007F1AB
:102C1800400003F05DFE0120FFF7FCFD002461E7A2
:102C28006FF015045EE700BFF00100204619002090
:102C380002100108380101081C10010803000001F6
:102C48004802002043190020000300012DE9F0414B
:102C580086B0804600AF15461C460E4609B9002AC4
:102C68006BD137484FF0FF324FF0FF3307F0F6FFD4
:102C78003946284603F0B2FC00283ED000F0DCF8C4
:102C88006C4688B06A462F4BC2E905304FF4007392
:102C980093832D4B42F8103F2C484FF4E2510AF031
:102CA8002CF90023A5463B71FB603B820125381DAA
:102CB800BB7405F013F8044668B300F0BDF86D4620
:102CC80088B06A46224BC2E905304FF400739383FB
:102CD8001D4B42F8103F1D484FF4E2510AF00DF920
:102CE8002046AD4600F0C0F80446154808F02EF816
:102CF80020461837BD46BDE8F08154B1012C08D0F4
:102D0800144B3D8293F9003087F80880FE60002557
:102D1800CDE73C71F4E74FF0FF330F484FF0FF3237
:102D280008F09EF80D4B187808B100F0AFF8002DA8
:102D3800044618BF6FF00A04D7E76FF01504D7E709
:102D480004020020311001080300000138010108C5
:102D580056100108451900203002002044190020AF
:102D680000238360054B596800F1080211B9C3E9D3
:102D7800002270470A605A60704700BFF8090020B7
:102D8800014B1860704700BFD0090020B0B5214D35
:102D9800214922488EB02A7800AF03F055FAC0B115
:102DA80000F04AF86C4688B06A461D4BC2E9053007
:102DB8004FF4007393831B4B1B4842F8103F4FF4AA
:102DC800E2510AF09AF86FF01500A5463837BD466B
:102DD800B0BD03F0F9FB044630B100F02DF86C46A5
:102DE80088B06A46114BE1E7062307F10801287805
:102DF8003B720BF09DFB0E4BC0B218700D4B187058
:102E080030233B7407F1100014237B6103F060FD4D
:102E18002046DBE736010020D8090020E809002019
:102E28006E10010803000001380101088F10010825
:102E3800461900204519002017289ABF024B53F85D
:102E480020000248704700BF9C030108BD1001081C
:102E58000F289ABF024B53F820000248704700BF62
:102E68005C030108CD1001081628034608D8064A55
:102E780052F8200030B9002B18BF6FF015007047CA
:102E88006FF01500704700BF000301080F280346C4
:102E980008D8064A52F8200030B9002B18BF6FF046
:102EA800150070476FF01500704700BFC002010899
:102EB800014808F0FDB800BF20000020014B186051
:102EC80059607047040A0020024B1A685B68026068
:102ED8000B607047040A002008B50AF023F8024B7B
:102EE8001B68C01A08BD00BF0C0A002001480CF07E
:102EF8003DBD00BFB80100200A2307B5A0FB03238E
:102F080000210020CDE90001024808F037FF03B096
:102F18005DF804FBB801002008B50AF003F8014B7E
:102F2800186008BD0C0A0020014B1868704700BFE4
:102F38000C0A002010B5124CBFF35B8F022354E833
:102F4800002F012A03D144E800310029F7D1BFF34B
:102F58005B8F0CBF0120002010D10A4BDB6A984719
:102F6800002344F8403CBFF35B8F54E8002F44E84B
:102F780000310029F9D1BFF35B8F012010BD00BFDC
:102F8800540A00200005010810B5064B5C68FFF7DD
:102F9800D1FF30B12CB100212046BDE8104008F027
:102FA800ADBF10BD100A002013B50D4BD3E9014386
:102FB8003BB10C4B5B6B0193002002B0BDE81040A5
:102FC8001847FFF7B7FF40B13CB16FF00401204646
:102FD80002B0BDE8104008F091BF02B010BD00BFBC
:102FE800100A0020000501082DE9F347284C9A46ED
:102FF800D4E9019307460D46164683B1254B0020B8
:103008005B6B9847E368CDE900A32A46D4F80880AB
:10301800206833463946C04702B0BDE8F08704F15E
:1030280044020223BFF35B8F52E8001F012903D13A
:1030380042E800300028F7D1BFF35B8F9046EBD110
:10304800E36C1A78AA4288BF1D70E36CA06C1A78EA
:1030580039460CF0B6FD236D03B11E80636D0BB1CC
:1030680083F800A00B4BDB6A984700216160BFF32F
:103078005B8F58E8003F48E80012002AF9D1BFF3F7
:103088005B8F484602B0BDE8F04708F037BF00BF85
:10309800100A002000050108F8B5044600AF0068D2
:1030A8000D460CF095FA03462068BBB96C4688B00B
:1030B80001686A462748C2E905014FF40071918307
:1030C800254942F8101F25484FF4E251FEF718FB36
:1030D8006FF01205A5462846BD46F8BDE38821795C
:1030E8002B43DD02D0F808E0D0F810C006D513F461
:1030F800402F03D0DA0748BF83F44023DCF80050A0
:10310800012623F480128E40DB074CBF3543B543BC
:10311800CCF80050DEF80030984705460028DAD091
:103128002368196823796C468AB06A460C48C2E954
:1031380007354FF4007393840A4BC2E9050142F83E
:10314800103F064800234FF43151FEF7D9FAA5463F
:10315800C1E700BF55130108030000018001010801
:103168006E1301080500000170B50D460F49BFF345
:103178005B8F012051E8004F002C03D141E8000685
:10318800002EF7D1BFF35B8F0CD1094E41F8403CBC
:10319800D4B2736D214698472846B36A21469847AA
:1031A800002070BD6FF00F00FBE700BF540A00203D
:1031B800000501082DE9F0474FF000088EB005AC76
:1031C800264F81468A4616464146102209A80125FF
:1031D800CDE90544CDE907880CF001FD8DF83150A3
:1031E8007B6B0D94002B35D023463246514648461A
:1031F800FFF7BAFF041E29DBF6B2CDE90186039575
:10320800BB8F174C009397F83A3097F8392097F806
:103218003810646A2846A0470A23A840A0FB032365
:10322800294609A808F012FE041E0FDA0D4A0E48B6
:10323800294609F041FDFFF77DFE38B94FF0FF320E
:103248004FF0FF33294609A808F000FE20460EB0CB
:10325800BDE8F0876FF01504F8E700BF100A0020FA
:10326800000501088E13010880010108F0B58DB032
:1032780000248DF8072003AE0F461022214607A828
:10328800CDE90366CDE9054401250CF0A8FC274BE0
:103298008DF829500B96BFF35B8F53E8002FA2429D
:1032A80003D143E800510029F7D1BFF35B8F39D12F
:1032B8000DF1070243E910649A601D4E149ADA6012
:1032C800159A1A615F60FF21736D28469847736BE2
:1032D80020469847DDE91223294607A808F0B6FDDD
:1032E800041E15DAFFF726FE50B94FF0FF324FF0F3
:1032F800FF33294607A808F0A9FD9DF8074004E018
:103308000C4A0D48032109F0D7FC20460DB0F0BD4A
:10331800069B002BF1DA094A0748294609F0CCFC3C
:10332800069CF2E76FF00F04EFE700BF540A002095
:1033380000050108AA13010880010108BA13010851
:1033480010B529B9FFF7F6FDD8B96FF0150010BD13
:103358000E4BBFF35B8F012053E8004F002C04D1C4
:1033680043E8000CBCF1000FF6D1BFF35B8F0AD124
:10337800074C43E90F12636DFF219847636B0020E8
:1033880098470020E3E76FF00F00E0E7540A0020B9
:1033980000050108F0B52C4DBFF35B8F8BB00C46D0
:1033A800012755E8003F002B03D145E80072002AA9
:1033B800F7D1BFF35B8F43D1244E2068F368984759
:1033C800E37A4BB32346103D04F110071868596897
:1033D8002A4603C20833BB421546F7D14FF47A6335
:1033E800089300220120237B0793CDE90522CDE92C
:1033F800032023890293A379019363790093F569E4
:10340800237994F90A10A847B36D607B9847FFF7B2
:1034180091FD00200BB0F0BD0997227BB569CDE97D
:103428000732CDE90533CDE903330A220292228916
:10343800CDE900323846A37962792179A847E3E7D4
:103448006FF00F00E6E700BF540A002000050108EE
:1034580038B5084611461A460B4BBFF35B8F01245B
:1034680053E8005F002D04D143E8004CBCF1000F85
:10347800F6D1BFF35B8F04D1044BDB6B9847002078
:1034880038BD6FF00F00FBE7540A00200005010863
:1034980038B5114BBFF35B8F002453E8002F43E886
:1034A80000410029F9D1BFF35B8F0C4943F8341C64
:1034B8000B490C4D43F82C1C0B4943F8241C0B49B1
:1034C80043F8301C2A6843F8440CA3F134009047B1
:1034D800EB6A9847204638BD540A0020912F00080F
:1034E800F12F000800050108B12F00088FCF000850
:1034F80002460521014809F048BD00BFA8FD0008A3
:1035080002460421014809F040BD00BFA8FD00089B
:10351800024A0348022109F0CFBB00BFD6130108B5
:103528007801010810B50B4CE3691BB9BDE81040E0
:10353800FFF7EEBF00209847074B1B6E03B1984773
:1035480094F8203023B1BDE81040024800F020B9BB
:1035580010BD00BF680A00200005010870B54FF4CF
:10356800B011466805461E48FFF796FD18B16FF082
:103578000404204670BD1B484FF4B011FFF78CFDC2
:103588000028F4D1184919480CF085F8284600F0AD
:1035980009F9044628B1164A1648012109F08CFB9E
:1035A800E7E730680CF014F838B9134A11480121DC
:1035B80009F082FB6FF01204DBE7F06818B10CF039
:1035C80007F80028F1D02846FFF762FF051ED0DA79
:1035D8000A4A0848012109F06FFB2C46C9E700BFD9
:1035E8001C040108140401082D350008740A002081
:1035F800051401087801010823140108381401088A
:10360800014B93F820007047680A002008B503466C
:103618001048042B80F8203011D005D8BBB1002009
:10362800FFF766FF00200EE0053B022BF7D80020CD
:10363800FFF766FFBDE808400120FFF759BF0020EB
:10364800FFF756FF0120BDE80840FFF759BF09F012
:103658006EFDE4E7680A0020014BD861704700BF9F
:10366800680A002010B5044C204609F045FD0123E6
:1036780084F8203010BD00BF680A002010B5054C42
:10368800204600F07DF800B910BD00210A200CF09A
:10369800D2F8F5E7680A002070B58CB00D46DDE970
:1036A8001061CDE9063104ABCDE90402CDE9085239
:1036B800009308AA02230446CDE90A61CDE9022352
:1036C800019309F059FE0F48ADB9A6B983680E49B0
:1036D8001D686A463346A8470028034604DA0B4AA1
:1036E8000B48012109F0F1FA2378842B01D0FFF768
:1036F800C5FF0CB070BD836803491D68014802AB63
:103708006A46E8E728FE0008000401085B1401087F
:103718007801010870B5124D86B0284600F038F8D7
:10372800C023ADF8043001AB0293022303930124B4
:1037380002AB049305940B480B49836804AA1E68DE
:103748000023B047031E06DA084A0948214609F053
:10375800BCFA06B070BDFFF791FF85F82040F8E786
:10376800680A002028FE0008000401085B1401080C
:1037780078010108014809F0D8BC00BF680A002098
:10378800024B5869C0F34000704700BF000400585E
:10379800034B4FF48022C3F884213220FEF798BDF2
:1037A80000E100E0002208B511463220FEF7B2FD24
:1037B800054AD2F8903043F48053C2F89030322052
:1037C800FEF786FD002008BD00080058074B084991
:1037D8001A6843F2390001FB020018606FF00043D9
:1037E800B0FBF3F3C3EBC373C01A7047300000207B
:1037F8006D4EC641014B1860704700BF3000002075
:1038080030B530B10A4D01444FF0FF33814201D148
:10381800D84330BD10F8012B5340082243F300046D
:10382800013A2C4092B284EA5303002AF6D1EDE71C
:103838002083B8ED044A13680BB100215972436123
:10384800106009F052BD00BF8C0A002037B504464D
:1038580001A809F089FB6CB1174D2A68134673B9A2
:1038680063682360012323816AB9FFF755FB20466B
:10387800FFF7E0FF01A809F080FB03B030BD9C42D0
:10388800F8D05B69EBE7FFF727FB236818442B6840
:1038980020601A689042EAD35A69596911B95C6183
:1038A8006161E7E71168884202D913465269F4E773
:1038B8005C616261DEE700BF8C0A0020F8B5FFF7A3
:1038C80033FB1C4C0546FFF727FB2368A3B1471BB6
:1038D8001E462D1A716929B95A692260DA68197267
:1038E80042B9FEE70A68BA428CBF521900220A6040
:1038F8007669EFE718699047002623682BB9206896
:1039080080B9F8BD18699047F7E71D68FFF7E4FA32
:103918008542F4D223685A692260DA681E72002A46
:10392800F0D1FEE7437A002BEBD1BDE8F84009F06F
:10393800DCBC00BF8C0A002037B5134D044601A833
:1039480009F012FB2B686BB164B10022A34222720A
:1039580011D1597A5C6961B15A7244B120462C6020
:1039680009F0C3FC01A809F008FB03B030BDFFF75C
:10397800BDFA2C60F6E71A465B69002BF2D09C4230
:10398800F9D163695361EDE78C0A002007B5074B4D
:103998001B7840BAADF804002BB9022201A940F205
:1039A800BC6009F05EFB03B05DF804FB4919002018
:1039B80007B5074B1B7840BAADF804002BB90222B3
:1039C80001A940F2BE6009F04CFB03B05DF804FBAE
:1039D8004919002010B50C4B1B7804469BB94FF4CD
:1039E800D76009F073FBC4F3002100F0FE00014327
:1039F8004FF4D76009F049FBE1B240F2B960BDE885
:103A0800104009F042BB10BD4919002013B5044607
:103A180009F0CCFA04F0070314F004048DF8073019
:103A280008BF084B4FF001020DF107014FF0840069
:103A380008BF1C7009F0F5FA0020FFF7E7FD02B097
:103A480010BD00BF4719002010B50446FFF70AFE55
:103A58002046FFF701FEFFF75DFE002009F0ABFCF2
:103A680009F0A9FA09F0B3FA034B00221A70BDE86D
:103A780010400120FFF7CABD47190020134B984298
:103A880007B50BD94EF6E113ADF80430022201A9AF
:103A9800982009F0C6FA03B05DF804FB0C4B984275
:103AA80002D94DF6D733EFE70A4B984202D94CF2C8
:103AB800C153E9E7084B984202D948F27513E3E786
:103AC800064B9842E2D946F66B73DDE700E9A43568
:103AD80080F8A9328044E52D000B6B1B40FC54197B
:103AE80037B5104D2B7804461BB9FFF7C7FF0123E4
:103AF8002B7043F6095241F68463B4FBF2F102FBE2
:103B0800114403EB8433B3FBF2F3042203EB813358
:103B18001BBA0DEB02018620019309F082FA03B06B
:103B280030BD00BF4719002007B5064B8DF80700C8
:103B3800187001220DF107018A2009F072FA03B00A
:103B48005DF804FB49190020014B1878704700BF45
:103B58004919002013B5224A0446516810686B467B
:103B680003C3204B20781B78834201D0FFF7DCFF8A
:103B780023781BB1012B2ED002B010BD62681A4BFE
:103B8800B3FBF2F31A0C8DF800201A0A8DF8012005
:103B98008DF80230A268237B8DF8033043F6095173
:103BA800637BB2FBF1F08DF8043001FB102241F683
:103BB800846303EB8233B3FBF1F303EB80331A0C1A
:103BC8005BBA8DF80520ADF80630082269468B20CF
:103BD80009F027FAD0E7236900930422F6E700BF2B
:103BE800F8010108491900200000093D1FB52B4ABA
:103BF8000446D1689068127C01AB03C31A70284B45
:103C080020781B78834201D0FFF78EFF23781BB101
:103C1800012B31D004B010BD637AF12B20D14FF6BF
:103C2800FF70FFF7B3FE48F20500FFF7C1FE02235D
:103C38006288A188ADF8061052BAE188ADF8042070
:103C48008DF80B30227AA37A8DF80A20ADF8081087
:103C58008DF80C30092201A98C2009F0E2F9D9E786
:103C6800F22BE5D141F60F50FFF790FE41F221000B
:103C7800FFF79EFE0623DBE7A3890A4A5BBAADF885
:103C88000430A37B13708DF80630E37B8DF8073082
:103C9800238AADF808300622DDE700BFF8010108E5
:103CA800491900204819002037B505460C4602225C
:103CB80001A9132009F0C3F90A4B1B78012B0DD178
:103CC800094B1B78012B09D140F2027009F0FEF96B
:103CD8009DF805302870237003B030BD9DF80400AE
:103CE800F6E700BF491900204819002013B5032240
:103CF800044601A9142009F0A2F9184B1A78227079
:103D08004AB1012A17D013220021601C0BF067FF6B
:103D18000F2323700DE09DF8043023719DF80530C2
:103D2800A2605B425B10A3719DF806305B425B109A
:103D3800637102B010BD9DF804305B425B102373C1
:103D48009DF9053002339B1063739DF806305B4282
:103D58005B10A373024B1B682361EAE74919002033
:103D6800900A0020034B1B6813B15B6803B1184726
:103D7800704700BFB80B0020034B1B6813B1DB680A
:103D880003B11847704700BFB80B0020014B012250
:103D98001A7070474C19002008B5FFF731FC043839
:103DA800C0B2032896BF024B0020185C08BD00BFB4
:103DB8008514010838B50C46002340F201211A4643
:103DC8000546084609F021FCFFF7BEFE0C4B01280A
:103DD8000C480CBF83F8C74083F8C040FFF706FFC4
:103DE80021462846002209F00EFB074B07481968B0
:103DF80009F099FABDE838400448FFF727BD00BF2D
:103E0800C40A00207C0B0020D40B0020AC0A002040
:103E180038B50D461446FFF763FE2846074D09F0EE
:103E2800D9F809F084FB4FF47A712846614309F008
:103E38007AFA2846BDE83840FFF708BDAC0A0020EA
:103E480073B5574D01A809F08FF82C78002301A805
:103E58002B7009F092F8002C61D009F0EBFB0446B6
:103E680009F08BFC01A809F07FF8FFF783FC012813
:103E780008BF287001A809F080F8E5070BD5494864
:103E8800FFF75AFD0120FFF7C1FB474B1B6813B131
:103E98001B6803B19847A00711D54448424EFFF765
:103EA8004BFD14F0400F424B3BD01B7813B9012057
:103EB800FFF7ACFB336813B11B6903B198472106C0
:103EC8000AD50120FFF7A2FB374B1B6823B19B697A
:103ED80013B1C4F300209847A2050FD5FFF790FB54
:103EE80004284CD12F48FFF727FD0120FFF78EFB50
:103EF8002D4B1B6813B15B6803B19847A3060ED519
:103F08002A48FFF719FD2A4B1B7813B90120FFF740
:103F18007DFB254B1B6813B1DB6803B1984702B0E2
:103F280070BD1D7895B90120FFF770FB294640F652
:103F3800021009F0AAF840F6441009F0C7F840F05A
:103F48000201C9B240F6441009F09FF8194D1A4809
:103F5800FF220DF1030109F0F7FB2846FFF7C6FE23
:103F68003368002BABD09E68002EA8D095F90D3091
:103F780095F90C209DF803100F48B0479FE7FFF70D
:103F88003FFB0528BAD10948FFF7D6FC0120FFF707
:103F98003DFB054B1B68002BB0D0DB68ACE700BFCE
:103FA8004C190020AC0A0020B80B0020940A00200D
:103FB8004C1A0020BC0B00204D19002010B590B100
:103FC8000A4B012219461C68A04206D39C68A042ED
:103FD80003D201EBC201087910BD0132162A03F1A0
:103FE8000803F0D1FEE71F20F6E700BF50040108E0
:103FF8000128094806D1094B80F8C7101970B83054
:10400800FFF7F4BD90F8BF30012B04D1034B80F8C3
:10401800C0101970F3E77047C40A00203701002068
:1040280000234FF6FF7110B51A460446084609F0FA
:10403800ECFA34B10948214609F075F90748FFF749
:1040480005FC074B1B782BB16FF07F40BDE8104093
:1040580009F0E2B9034B18688001F7E7940A0020D9
:104068004C1A0020D00B002000234FF6FF7110B52A
:104078001A460446084609F0C8FA34B109482146E8
:1040880009F051F90748FFF7E1FB074B1B782BB103
:104098006FF07F40BDE8104009F00BBA034B186879
:1040A8008001F7E7940A00204C1A0020D00B00206A
:1040B800F0B5BDF814409DF818C09DF81CE09DF8B7
:1040C800205040B1012814D001220023981801384B
:1040D800B0FBF2F0F0BD8CF0010CE30003EBCC0375
:1040E80018330EEB450503EBC5034FF47A714B43C8
:1040F800ECE7501F012803F1040304D80C2C38BF47
:104108000C24002706E0C1B9A2F10B07012F8CBFD0
:10411800002701272801BCF1000F00EBCE000CBFDF
:1041280014250025A0EB8200062A4FEA82062844BF
:10413800A2F1020C08D835460BE00129E1D1A2F121
:104148000C0047424741E5E70830002FF3D04FEA1B
:104158008C050028ACBF2E182E1C701E90FBF5F0A5
:1041680003FB0044094B062A5A5C8CBF0C340E34FE
:104178000A2A0AD8A30001334FF47A7103FA0CF320
:104188004B43034951F82220A0E7FFDE89140108B8
:10419800240401080D4B10B504461870587000F03F
:1041A80017F85CB134214FF4E86008F06EFF442141
:1041B800BDE8104040F2417008F067BF14214FF489
:1041C800E86008F062FF2421F2E700BF4A190020E6
:1041D80008B50120FFF7A8FC054B18785A788242E9
:1041E80004D05870BDE80840FFF7D4BF08BD00BF31
:1041F8004A190020012808B506D00020FFF794FCD2
:10420800034B00225A7008BDBDE80840FFF7E0BF25
:104218004A1900202DE9F04F85B089469DF84C10C9
:1042280000919DF85C109DF844A0BDF84070694C61
:10423800DFF8A4B1BDF83C602170002918BF002741
:10424800BAF1000F15469DF8482008BFFF228BF8E9
:104258000020804620B1012854D005B0BDE8F08F79
:104268005E4C09F06FF90B234FEA490084F8EC30F3
:1042780084F8E080C4F8E450FFF7A0FE41F6040398
:10428800A4F8BC309BF8003084F8C030009B84F858
:10429800ED00002B0CBF0123F22384F8C130F60097
:1042A80001238AF0010A84F8C23084F8B880A4F89F
:1042B800BA6084F8BE8084F8BFA009F06CFA94F85C
:1042C800E000003818BF0120FFF794FF04F1E00078
:1042D800FFF740FC04F1B800FFF788FC404A10687B
:1042E800516802AB03C302A809F05CF840F2FF1062
:1042F800FFF770FB4FF4FA537B43B3FBF5F3394AEE
:104308001360AAE70020354C019309F01BF93649E0
:10431800019B11F8091084F8E080EAB284F8F020D3
:10432800B9F1000F45D10B3D012D8CBF00250125AA
:10433800053A012A02D80C2E38BF0C2684F8F23030
:10434800012384F8B8309BF8003084F8C730009B0C
:1043580084F8C8309DF8583084F8C93084F8F110D2
:1043680084F8F350A4F8C46084F8C6A009F013FADE
:1043780094F8E000003818BF0120FFF73BFF1B4806
:10438800FFF7E8FB1A48FFF731FCF8B209F0E6F846
:1043980094F8C930012B40F2367014D108F096FE1B
:1043A80000F0FB0140F2367008F06FFE4FF6FF7325
:1043B800A5E7B9F1010F04D1A5F10C00454245412B
:1043C800B6E70025B4E708F081FE40F00401C9B261
:1043D800E8E700BF4C1A002037010020C40A00207B
:1043E80009020108D00B002089140108A40B002041
:1043F8007C0B00202DE9F74F0C9DBDF838709DF817
:104408003C909DF840A088469346064648B101284E
:104418004DD040F6890008F059FE40F00401C9B2B9
:104428008DE0524C0B2284F8E000580084F8EC2010
:10443800C4F8E450FFF7C2FD41F60403BAF1000FD7
:10444800A4F8BC300CBF0123F22384F8C130FF006C
:10445800012389F0010984F8C23084F8ED00C4F81A
:10446800E8B084F8B860A4F8BA7084F8BE6084F83C
:10447800BF9009F090F994F8E000003818BF0120C7
:10448800FFF7B8FE04F1E000FFF764FB04F1B800A1
:10449800FFF7ACFB364A106851686B4603C36846A1
:1044A80008F080FF40F2FF10FFF794FAB1E72F4CB5
:1044B800304984F8E000EAB2C95C84F8F020002BA7
:1044C8004AD10B3D012D8CBF00250125053A012A53
:1044D80002D80C2F38BF0C279DF8343084F8F230FE
:1044E800012384F8B830244B84F8F1101B7884F841
:1044F800C7309DF84C3084F8C93084F8F350A4F8DC
:10450800C47084F8C69084F8C8A009F044F994F8F7
:10451800E000003818BF0120FFF76CFE1748FFF7CE
:1045280019FB1748FFF762FB94F8F130062B7FF46C
:1045380070AF40F6890008F0C9FD00F0FB0140F6B5
:10454800890008F0A2FD404608F044FD149A0D4B7E
:104558001A6003B0BDE8F08F012B04D1A5F10C035C
:104568005D425D41B2E70025B0E700BFC40A002004
:10457800090201088914010837010020A40B002052
:104588007C0B0020D40B002008B5174B1860174887
:10459800FFF75AFA002008F00EFF012009F009F889
:1045A8000021084609F0B6F80421002009F06FF848
:1045B80000234FF6FF711A46084609F026F840F620
:1045C800AC0009F064F940F6890009F060F908497F
:1045D800084808F0A0FE0849084808F09CFE084B67
:1045E80000221A7008BD00BFB80B0020953D0008D6
:1045F8006D3D0008AC0A0020813D0008940A0020A7
:104608004C190020A1F11003DBB2102B2DE9F04763
:10461800044604D83A4820FA03F3DB0705D40023FC
:1046280082F8F030FF20BDE8F087561E254615F8C1
:10463800013B06F8013F631B0B4413F0FF00F6D162
:1046480001F11C039B005FFA83FCC3F30313013BD6
:10465800DFF8B09082F8F030884653184FF0010E1A
:10466800B8FBF1FA01FB1A8A1AF0FF0A13F8047C66
:1046780013F8036C13F8025C13F8014C30D119F8E5
:1046880006A019F8056019F8045019F807404FEA10
:10469800DE1707EB47078EEA0A0A07EBC7074FEA58
:1046A8004E0EFFB25FFA8EFE87EA0E0E574692F85C
:1046B80000A087EA0A071F7057787E405E709678D8
:1046C80075409D70D57808F104085FFA88F86C4049
:1046D800C445DC7002F1040203F10403C0D8A2E768
:1046E8001829E4D9BAF1100FE1D1DFF818A01AF8A7
:1046F80007701AF806601AF805501AF80440D6E749
:10470800010101008C1601082DE9F04FA3B092F8C1
:10471800F0301D911B920193002B00F0538101464C
:104728001EA809F02AF91B9BA74CA84DA84E1033C8
:104738000293002303939DF87C0004909DF8860063
:104748000590205C06909DF87B000790205C0890FF
:1047580004989DF881C0205C099014F80C000A9018
:104768009DF880000B909DF885009DF878809DF855
:104778007DE09DF882A09DF887900C909DF87A00C6
:10478800029B1C9314F80A2014F8093014F8081036
:1047980014F80E700D90205C0E909DF87F000F901D
:1047A800205C10900B98205C11900C98205C129063
:1047B8009DF8840013909DF8790014909DF87E0070
:1047C8001590205C16909DF883001790205C189037
:1047D8001398205C19901498205C1A900398013063
:1047E80003900298DDF804B0103002909DF80C0098
:1047F800834536D88DF878108DF87A2009990E9A65
:104808008DF87C108DF882201199069A8DF8801009
:104818008DF87E201999169A8DF884108DF88620C7
:104828000A99189A8DF87D108DF887201299109A98
:104838008DF87B301B9B8DF881108DF883201A9999
:10484800089A1D988DF885108DF87F201EA903EB16
:104858000B128DF8797009F090F8002023B0BDE8AC
:10486800F08F15F808B082EA03008BEA000016F80A
:104878000EB080EA0B008DF8780015F80E004B405A
:10488800434016F80A0043408DF8793081EA07035F
:1048980015F80A10594016F80930594016F808302A
:1048A8008DF87A107A40534015F8092053408DF856
:1048B8007B30089A069B5340049AAA5C534016F82A
:1048C8000C2053408DF87C30DDE908325A4015F849
:1048D8000C305340059AB25C53408DF87D30DDE9C9
:1048E80009325A40059BEB5C5340079AB25C53402F
:1048F8008DF87E30069B0A9A5340049AB25C5A405F
:10490800079BEB5C5A408DF87F200E9B109A534012
:104918000B9AAA5C53400C9AB25C53408DF88030D5
:10492800DDE910325A400C9BEB5C53400D9AB25CA7
:1049380053408DF88130DDE911325A400D9BEB5C14
:1049480053400F9AB25C53408DF88230129A0E9BF6
:1049580053400B9AB25C5A400F9BEB5C1C995A402F
:104968008DF88320169B189A5340139AAA5C5340DB
:10497800149AB25C53408DF88430DDE918325A40FD
:10498800149BEB5C5340159AB25C53408DF885300C
:10499800DDE919325A40159BEB5C5340179AB25C1B
:1049A80053408DF886301A9A169B5340139AB25C7E
:1049B8005340179AAA5C1EA853408DF8873008F018
:1049C8009BFFB8E6FF2049E78C1601088C15010803
:1049D8008C1401082DE9F043CBB00646DDF8489168
:1049E800174698460D4689B3B9F1000F2ED004A892
:1049F80009F005F8164B1968002401F1140304EBBB
:104A080004101A5C424513D11530014404A809F07A
:104A180006F8A6B93A46294604A809F005F86846F2
:104A280004A909F06CF8009BC9F80030002003E0E5
:104A38000134172CE3D103204BB0BDE8F0831022DA
:104A480031460DEB020008F0EFFFE3E70220F3E741
:104A5800D80B002030B5E9B04FF4D07200210446DD
:104A680068460BF0BCF8284B0DF1150203F1200144
:104A780053F8040B42F8040B8B42F9D11B881380BE
:104A880022490323452216A88DF847300BF099F8E0
:104A98007F238DF8AD3080238DF8BE3081238DF8CB
:104AA800CF3082238DF8E03083238DF8F1308423D2
:104AB8008DF8023185238DF8133186238DF8243142
:104AC80087238DF8353188238DF8463189238DF871
:104AD80057318A238DF868318B238DF879318C23EF
:104AE8008DF88A316CB10A4D4FF4D0726946204670
:104AF8002C6008F058FB286809F074F9002069B0A8
:104B080030BD0220FBE700BF8C170108AF17010872
:104B1800D80B00202DE9F0410D46BEB01646984648
:104B2800074670B36BB311F00F042CD1F022214665
:104B380001A808F04CFB154B1868214600F1140237
:104B480001EB0113D45CB4420BD1153301AA102137
:104B58001844FFF757FD2C462E1BF6B244B92046E1
:104B680003E001311729EBD103203EB0BDE8F08105
:104B780001AA08EB0601B819103CFFF7C5FDA4B25D
:104B8800EAE70220F1E70520EFE700BFD80B002095
:104B9800F0B51D4E3468034685B00846002204F17E
:104BA800140102EB02154F5D9F4227D1802B05F1BE
:104BB800150508D07D33DBB2062B18D8492222FA16
:104BC80003F3DB0713D50023CDE90033CDE9023326
:104BD8007F2210216B46FFF79DFF044630681022A4
:104BE8006946284408F0DFFA204605B0F0BD0146C2
:104BF8001022601908F0D7FA0024F5E70132172AC5
:104C0800CFD10324F0E700BFD80B002008B5014638
:104C180030B1044B0822186808F0C5FA002008BD16
:104C28000220FCE7D80B0020014B1868704700BF32
:104C3800D80B002008B5014638B1054B1868082282
:104C4800104408F0B0FA002008BD0220FCE700BFBD
:104C5800D80B0020014B186808307047D80B00208B
:104C680008B5014638B1054B18680422103008F021
:104C78009AFA002008BD0220FCE700BFD80B0020EC
:104C8800014B186810307047D80B0020044B054AB8
:104C980093F8A831022B18BF062382F8883470478E
:104CA8000C0C00206C100020034BD3F8483313B1D0
:104CB800DB6803B1184770476C100020034A13786B
:104CC80043F002031370FFF7EFBF00BFF00B0020A3
:104CD800034A137843F008031370FFF7E5BF00BFDA
:104CE800F00B0020034A137843F004031370FFF716
:104CF800DBBF00BFF00B0020074BD3F8402322F4A2
:104D08008072C3F8402393F8892442F0100283F894
:104D18008924FFF7C9BF00BF6C1000202DE9F041BE
:104D280016461D4680460F4608F00EFB084A094CF9
:104D380013782781C4E9000823F0110343F0110315
:104D4800668125731370BDE8F041FFF7ADBF00BF62
:104D5800F00B0020DC0B00201FB5094B8DF8090073
:104D680093F88C208DF80A2093F858000D2202A998
:104D78008DF8082009F0DCFBC0B205B05DF804FB33
:104D88000C0C002010B5154C94F8C92194F850303B
:104D9800012A4FF0010294BF84F8D52184F8D72165
:104DA800013394F8C821DBB29A4284F8503009D80C
:104DB8000B48FEF7C1FD002384F85030BDE81040D1
:104DC800FFF772BF074C04F2BC40D4F8DC1408F0BB
:104DD800AAFA04F2BC40FEF739FDEFE70C0C0020FC
:104DE800281500206C10002008B50748FEF7A4FD20
:104DF800064B93F8162412B1012283F81524BDE856
:104E08000840FFF751BF00BF681400206C10002055
:104E180010B50C4CD4F8403343F08003C4F8403349
:104E280094F8163413B10020FFF7DEFF94F88934A4
:104E380023F0120343F0120384F88934BDE81040CC
:104E4800FFF724BF6C1000202DE9F0414F4C90B0C3
:104E580008B984F8C001B4F8DC30A4F8483094F8F4
:104E6800B93084F879304A4B4A4ED3E9100183E8C7
:104E78000300D3E9120103F1080282E80300B4F841
:104E8800CC20A4F88C20D4F8D420C4F89420D4F8EA
:104E9800D820D4F8D010C4F8982000254FF0010885
:104EA80003F5407203F54173C4F89010A56384F8C4
:104EB800AB51A4F8B08184F84A5084F8AD5184F815
:104EC800AE51C4F8C451A4F8C85103A9C6F8E454B3
:104ED800A6F8145486F81654C4E9735594F8580083
:104EE80004932D4B84F8D551A4F8D6510392059319
:104EF8008DF8188009F02CFBE36FC6F8D83394F8C6
:104F08008D3086F8E43386F8D45394F8C03186F8A7
:104F1800E73306F575770FCF06F57A740FC486F870
:104F2800E55386F8E6833B682360022386F8FA3364
:104F3800D6F8483386F81754CDE9015586F8F98331
:104F48001BB15A68DB6801920293144B0793A3F1D3
:104F58004C020892A3F114020992114A0B922133D0
:104F68000A93A2F18C030C93A2F188030D93131DED
:104F78000E9301A902F1DC0307A802F559720F93F9
:104F880008F0BFFF10B0BDE8F08100BF0C0C002096
:104F9800880C00206C100020F40B0020D414002092
:104FA800F00C002013B508F0CFF90A4B6C461860D6
:104FB800204608F065F994E80300074A074B83E8A0
:104FC8000300137843F02003137002B0BDE81040CB
:104FD800FFF76ABEEC0B0020F00B0020A4130020A2
:104FE800F8B52E4E96F8A831022B07460D4602D08A
:104FF8002B4BDB6A984708F08FFF044680B996F878
:10500800A831012B16D0274C94F8882494F816342C
:105018006AB30BB184F84154284603F0CBF836E064
:10502800022008F06FFF002008F071FF96F8A83101
:10503800012B11D108F072FF90B1002008F063FF36
:10504800002008F065FF08F06BFF28B1002008F089
:105058005BFF002008F05DFFBDE8F840FFF716BED3
:1050680008F05EFF0028F1D1002CCCD0F4E70BB19A
:1050780084F84174384603F09DF8F06B08F06BF93A
:10508800D4F8BC339842E7D30748FEF755FC94F8A8
:10509800893443F0100384F88934DDE70C0C0020D0
:1050A800000501086C1000200C14002073B5124D87
:1050B800124E0096EB6D95F8602095F9881095F8DA
:1050C800580009F061FA0223B37495F8C031F374FB
:1050D80095F85800012306F138023146737409F037
:1050E80060FA30B1064B00205B6B9847B37C86F8BA
:1050F800A03002B070BD00BF0C0C0020541400207A
:1051080000050108F8B53B4C94F8A851012D064656
:105118000ED0022D60D0002D69D138B9D4E91F0115
:1051280004F1840383E80300002006E0012805D188
:1051380008F0FDFE08B984F8A861F8BD022856D128
:105148002D4F84F8A80107F5757EBEE80F0007F516
:105158007A7CACE80F00DEF80030CCF8003087F835
:10516800FA63234693F8E92082B393F80021022AD0
:105178002CD1302303FB0545D5F80431C4F884301D
:10518800C7F8EC3394F88D3095F8082187F8F83390
:10519800032384F8882087F8FA3397F8172487F8C8
:1051A800E823012387F8F933002387F81634134BD3
:1051B800DB6A9847FFF77AFF94F8BE31002BB3D02B
:1051C8000F490122202002F079FEADE70135042DB8
:1051D80003F13003C6D1E7E748B9074B84F8A801C3
:1051E800062283F88824054BDB6A9847E4E7032006
:1051F800A3E700BF0C0C00206C100020000501087C
:10520800B40D002070B50B4E0B4D0C46FEF794FB09
:10521800336B9847094A95F85800214609F0C1F9B7
:1052280030B1736B686E9847054BA27C83F888246D
:1052380070BD00BF000501080C0C00208C14002074
:105248006C1000200E4890F8173480F8C0330D4BCE
:1052580093F8792080F8C32393F88D2080F8D02321
:1052680093F8C03180F8D333002280F8D12380F836
:10527800D22300F5707100F56270FFF7C3BF00BF5D
:105288006C1000200C0C0020104890F88834DBB11A
:1052980090F8173480F8D4330D4BDA6FC0F8D82360
:1052A80093F88D2080F8E423002280F8E52393F812
:1052B800C03180F8E733012280F8E62300F57571E4
:1052C80000F56870FFF79EBF704700BF6C100020A4
:1052D8000C0C00202DE9F04F8FB04FF00009012B86
:1052E80006460F4690468DF80990ADF80C9002D806
:1052F8004C46BC4202D30FB0BDE8F08F305D02F0DF
:10530800D3FE2044B842F6DC335D651C013BEDB2A8
:105318001F2BF0D801A252F823F000BFA5530008B4
:10532800C5530008EF530008ED5400081555000850
:10533800A5550008CB5500083156000861560008ED
:10534800EF560008DB560008435700084558000888
:1053580069570008D1570008ED580008155900088A
:105368004D59000899590008FF520008FF520008DB
:10537800FF520008FF520008FF520008FF520008C1
:10538800FF520008FF520008FF520008FF520008B1
:10539800FF520008FF52000837580008AC4B725DF6
:1053A80093F8BE319A4206D805A9012002F002FE00
:1053B800002800F03F820234E5B212E0052002F036
:1053C80013FF70B10521002002F0E2FE725DA14BCF
:1053D800E51C0234E4B283F85C24325D83F85D2472
:1053E800EDB22C4685E700238DF80A308DF80B3096
:1053F8008DF810308DF81830B9F1000F6DD1944C3C
:105408004FF0050994F88C208DF831206B1E94F824
:1054180049208DF83320334494F848200B938DF8B5
:10542800342094F8AA3194F878208DF83520D4F8EF
:10543800BC218DF832300A9273B37B1C5B1BDBB244
:105448008DF8303006AB019304AB009394F8580004
:105458000DF10B030DF10A020AA909F0B8F88DF84D
:10546800090000F00700072813D194F949209DF995
:105478000A3084F849309A429DF80B3084F8483055
:10548800B8BF01229DF81030B8BF84F8AD2184F868
:1054980078304FF0000A09E00523D1E701220DF129
:1054A8000901032002F00AFD0AF1010A5FFA8AF2F3
:1054B8009DF81830B3FBF9F19142EFD82B44DDB2D7
:1054C8006B1EDBB29F420BD9F25C032A9AD0AF4223
:1054D80088BF1D464FF0010983E70534E5B2F9E7B7
:1054E8001D46F7E7735D5A4903F00F03012281F85F
:1054F800AB31023402FA03F3A1F8B031E4B200226E
:1055080003A9042002F0DAFC25466AE707238DF890
:105518000930735DDFF838A1C3F3021203F00F03FB
:105528000F2B8DF8283004BF9AF880308DF828307A
:105538008DF82920651DA21CE31C0434DBB2E4B2FB
:10554800F15C335D9AF85800D2B21B04B25C43EAAE
:1055580001231343642253430AA90B9309F047F824
:1055680000F00703072BEDB28DF809000ED19DF866
:1055780028308AF880308AF888300B9BCAF87C304B
:10558800CAF884309DF829308AF879308DF80C00F3
:10559800012203A9052002F091FC22E72D4BD3F844
:1055A800483363B11B6853B1984708F03F038DF83F
:1055B8000C008DF80D30022203A90620EBE7FF202E
:1055C800F3E703238DF80930735D8DF81C300AABBF
:1055D8000693E31CDBB2A51DF25C231DDBB206A912
:1055E800F35C1B0443EA0223A21CD2B20534B25C6A
:1055F800134364225343E4B20A9300230B93335DAD
:105608008DF83030124B93F8580008F0F7FFC3B20A
:105618000028EDB28DF80930FFF6E3AE8DF80C30B6
:10562800012203A90720B6E7735D03F00F03012BDE
:105638004FF47A7238BF01235343054A0234936604
:1056480003F57A73D366E4B2002203A9082059E768
:105658000C0C00206C100020735DC74DC3F3401282
:105668008DF8112095F85800C3F3001204A903F02F
:105678000F038DF810208DF8123008F0C6FF0234A1
:105688000130E4B23FF440AFBDF81030BB4AA5F892
:105698008C309DF812309DF810A0D05CFAF7FEFD12
:1056A8000223C5F890000AA995F858008DF828300B
:1056B8008DF82AA008F03CFF95F94930069040B2D1
:1056C8009842B8BF184685F84900002203A9092066
:1056D80018E7A94B725D93F8BE319A423FF66BAE5C
:1056E80005A90B2062E603238DF80930735D8DF858
:1056F8002830E31CDBB2651DF25C231DDBB20234EB
:10570800F35CE4B21B0443EA0223325D13436422D0
:1057180053430B93984B0AA993F8580008F07CFF61
:10572800C3B20028EDB28DF80930FFF65AAE8DF8F5
:105738000C30012203A90A202DE7725D8E4802F081
:105748000F010123120903FA01F102349340A0F872
:105758009A10A0F89830E5B2002203A90C201AE7A5
:1057680016F805B0DFF810A20BF007038AF8C83165
:10577800A31CDBB22021F25CC2F302128AF8C92111
:10578800F35C002003F00F038AF8493007F0FEFCB1
:10579800CBF3C20B202303FA0BF31844784B0022F7
:1057A800C3F8DC248AF85020764A90429CBF4FF414
:1057B8007A72504304F1030498BFC3F8DC04002054
:1057C800E5B2FFF7DFFA0CE6735D00201A090A322A
:1057D80001218DF80C006B4801FA02FC0234844563
:1057E800E5B220DC03F00F0304336348644CC0F8CF
:1057F800CCC101FA03F39BB2C0F8C4314FF47A73F9
:10580800934004F28C40C4F8D4348DF80C10FEF7A1
:1058180093F804F28C40D4F8D41407F084FD04F211
:105828008C40FEF713F8012203A90F20B3E605A95F
:105838002020BBE5059802F08FFBBCE5092002F0AB
:10584800D3FCDFF83CB1002849D00921002002F040
:105858009FFC0023ADF81E30A31CDBB2F25CE31CF6
:10586800DBB216F803A0735D4FEA0A4A4AEA022A35
:105878004AEA030A231DDBB2A51D0534F35CE4B232
:105888004AEA036A335D4FF47A7253430AAC1B1237
:105898002046ADF81C3007F0F3FC3B4B534406930D
:1058A800DBF83C3300930DF1180A9AE80600DBF8A0
:1058B800383308A807F0A8FC099B009394E8060071
:1058C800089B504607F085FC9AE8030007F0B7FCF0
:1058D80008F037FB0123EDB28BF8383481E58BF8FB
:1058E80038047EE50C2002F07FFC00283FF479ADF7
:1058F8000C21002002F04CFC214B93F88834043B27
:10590800012B7FF66EAD08F018FB6AE5A31CDBB22D
:10591800725DF15CE31CDBB2651DF35C0434E4B238
:105928001B04305D43EA012313436421594300F00B
:105938000F0008F003FBEDB28DF80C00012203A95B
:10594800112028E60D2002F04FFC00283FF449AD55
:105958000D21002002F01CFCA31CDBB20B4AF05CFA
:10596800735D1268251D0334E4B243EA0020315DFB
:10597800EDB208F0E5FA34E50C0C0020F517010843
:105988006C10002037894100803DD512DC0B0020C7
:10599800725DA31C251D0334DBB2E4B2F15C335DF8
:1059A8001B0443EA012313436420584308F0CAFA4E
:1059B800EDB28DF80C00012203A91320EBE500BF1E
:1059C80037B5214CD4F8C43113B1E36C0133E36427
:1059D80094F8BE311D4DCBB101A90B2002F0EAFAB3
:1059E800A0B9B4F85230B4F8982001339BB29A4267
:1059F800A4F852300AD195F8893484F8C00143F0EC
:105A0800080385F889340F2385F8683495F88934B4
:105A1800990703D595F82D34012B07D994F8AA31A5
:105A280023B1A36B5A1C18BF0133A3630023A5F845
:105A3800143485F81634D5F8403323F00203C5F83A
:105A4800403303B030BD00BF0C0C00206C100020A8
:105A580038B50F4D0F48104CFDF76EFFD5F8D03113
:105A68000E4A93429EBF4FF47A725343C4F8D83417
:105A7800FFF71AF90123D4F8D814064885F8D63167
:105A880007F051FCBDE838400248FDF7DFBE00BF13
:105A98000C0C0020101500206C10002037894100E4
:105AA80038B50F4D0F48104CFDF746FFD5F8CC31EF
:105AB8000E4A93429EBF4FF47A725343C4F8D434CB
:105AC800FFF7F2F80123D4F8D414064885F8D53145
