:020000040800F2
:100000000029002025260008DB8F000811260008A3
:100010001126000811260008112600080000000023
:10002000000000000000000000000000E5260008BD
:10003000112600080000000085260008BD620008A7
:100040005D2800085D2800085D2800085D2800087C
:100050005D2800085D2800085D2800085D2800086C
:100060005D2800085D2800085D2800085D2800085C
:100070005D2800085D2800085D2800085D2800084C
:100080005D2800085D2800085D2800085D2800083C
:100090005D2800085D2800085D2800085D2800082C
:1000A0005D2800085D2800085D2800085D2800081C
:1000B0005D2800085D2800085D2800085D2800080C
:1000C0005D2800085D2800085D2800085D280008FC
:1000D0005D2800085D2800085D2800085D280008EC
:1000E0005D2800085D2800085D2800085D280008DC
:1000F0005D2800085D2800085D2800085D280008CC
:100100005D2800085D2800085D2800085D280008BB
:100110005D2800085D2800085D2800085D280008AB
:100120005D2800085D2800085D2800085D2800089B
:080130005D2800085D280008AD
:1001380080F0004002E000BF81F0004142001FBF94
:100148005FEA410392EA030F7FEA226C7FEA236C9D
:100158006AD04FEA1262D2EB1363C1BFD218414092
:1001680048404140B8BF5B42192B88BF704710F028
:10017800004F40F4000020F07F4018BF404211F0CB
:10018800004F41F4000121F07F4118BF494292EA33
:10019800030F3FD0A2F1010241FA03FC10EB0C005F
:1001A800C3F1200301FA03F100F0004302D54942EC
:1001B80060EB4000B0F5000F13D3B0F1807F06D399
:1001C80040084FEA310102F10102FE2A51D2B1F191
:1001D800004F40EBC25008BF20F0010040EA030086
:1001E8007047490040EB0000013A28BFB0F5000F06
:1001F800EDD2B0FA80FCACF1080CB2EB0C0200FABC
:100208000CF0AABF00EBC25052421843BCBFD0400A
:100218001843704792F0000F81F4000106BF80F484
:1002280000000132013BB5E74FEA41037FEA226C47
:1002380018BF7FEA236C21D092EA030F04D092F012
:10024800000F08BF0846704790EA010F1CBF002046
:10025800704712F07F4F04D1400028BF40F00040A3
:10026800704712F100723CBF00F50000704700F0C3
:10027800004343F0FE4040F4000070477FEA2262EA
:1002880016BF08467FEA23630146420206BF5FEABB
:10029800412390EA010F40F4800070474FF00003BB
:1002A80004E000BF10F0004348BF40425FEA000C82
:1002B80008BF704743F0964301464FF000001CE02A
:1002C80050EA010208BF70474FF000030AE000BF80
:1002D80050EA010208BF704711F0004302D54042BE
:1002E80061EB41015FEA010C02BF84460146002030
:1002F80043F0B64308BFA3F18053A3F50003BCFA4B
:100308008CF2083AA3EBC25310DB01FA02FC6344F7
:1003180000FA02FCC2F12002BCF1004F20FA02F2FE
:1003280043EB020008BF20F00100704702F12002F1
:1003380001FA02FCC2F1200250EA4C0021FA02F252
:1003480043EB020008BF20EADC7070474FF0FF0C57
:100358001CEAD0521EBF1CEAD15392EA0C0F93EA52
:100368000C0F6FD01A4480EA010C400218BF5FEAF4
:1003780041211ED04FF0006343EA501043EA511167
:10038800A0FB01310CF00040B1F5000F3EBF490061
:1003980041EAD3715B0040EA010062F17F02FD2A65
:1003A8001DD8B3F1004F40EBC25008BF20F0010048
:1003B800704790F0000F0CF0004C08BF49024CEA5F
:1003C800502040EA51207F3AC2BFD2F1FF0340EAF1
:1003D800C250704740F400004FF00003013A5DDC62
:1003E80012F1190FDCBF00F000407047C2F10002A3
:1003F800410021FA02F1C2F1200200FA02FC5FEA90
:10040800310040F1000053EA4C0308BF20EADC70D9
:10041800704792F0000F00F0004C02BF400010F44B
:10042800000F013AF9D040EA0C0093F0000F01F0F8
:10043800004C02BF490011F4000F013BF9D041EA1A
:100448000C018FE70CEAD15392EA0C0F18BF93EA1C
:100458000C0F0AD030F0004C18BF31F0004CD8D146
:1004680080EA010000F00040704790F0000F17BFCD
:1004780090F0004F084691F0000F91F0004F14D013
:1004880092EA0C0F01D142020FD193EA0C0F03D16B
:100498004B0218BF084608D180EA010000F000406E
:1004A80040F0FE4040F40000704740F0FE4040F449
:1004B800400070474FF0FF0C1CEAD0521EBF1CEAE8
:1004C800D15392EA0C0F93EA0C0F69D0A2EB030206
:1004D80080EA010C49024FEA402037D04FF08053A0
:1004E80043EA111143EA10130CF000408B4238BF65
:1004F8005B0042F17D024FF4000C8B4224BF5B1A73
:1005080040EA0C00B3EB510F24BFA3EB510340EAC0
:100518005C00B3EB910F24BFA3EB910340EA9C006E
:10052800B3EBD10F24BFA3EBD10340EADC001B01DE
:1005380018BF5FEA1C1CE0D1FD2A3FF650AF8B4282
:1005480040EBC25008BF20F0010070470CF0004C8F
:100558004CEA50207F32C2BFD2F1FF0340EAC250BA
:10056800704740F400004FF00003013A37E792F07B
:10057800000F00F0004C02BF400010F4000F013AD9
:10058800F9D040EA0C0093F0000F01F0004C02BFD4
:10059800490011F4000F013BF9D041EA0C0195E73D
:1005A8000CEAD15392EA0C0F08D142027FF47DAFD6
:1005B80093EA0C0F7FF470AF084676E793EA0C0FC6
:1005C80004D14B023FF44CAF08466EE730F0004CC4
:1005D80018BF31F0004CCAD130F000427FF45CAF54
:1005E80031F000437FF43CAF5FE700BF4FF0FF3CC2
:1005F80006E000BF4FF0010C02E000BF4FF0010C15
:100608004DF804CD4FEA40024FEA41037FEA226CDD
:1006180018BF7FEA236C11D001B052EA530C18BFFF
:1006280090EA010F58BFB2EB030088BFC81738BF64
:100638006FEAE17018BF40F0010070477FEA226C52
:1006480002D15FEA402C05D17FEA236CE4D15FEA4E
:10065800412CE1D05DF8040B704700BF8446084682
:100668006146FFE70FB5FFF7C9FF002848BF10F143
:10067800000F0FBD4DF808EDFFF7F4FF0CBF012088
:1006880000205DF808FB00BF4DF808EDFFF7EAFF12
:1006980034BF012000205DF808FB00BF4DF808EDCD
:1006A800FFF7E0FF94BF012000205DF808FB00BFC2
:1006B8004DF808EDFFF7D2FF94BF012000205DF848
:1006C80008FB00BF4DF808EDFFF7C8FF34BF012055
:1006D80000205DF808FB00BF4FEA4002B2F1FE4F70
:1006E8000FD34FF09E03B3EB12620DD94FEA0023EC
:1006F80043F0004310F0004F23FA02F018BF4042C5
:1007080070474FF00000704712F1610F01D14202AB
:1007180005D110F0004008BF6FF0004070474FF05F
:10072800000070477BB972B90029BEBF00204FF0A6
:10073800004106E008BF00281CBF6FF000414FF0E1
:10074800FF3000F057B8ADF1080C6DE904CE002970
:1007580009DB002B1ADB00F06AF8DDF804E0DDE9BC
:10076800022304B07047404261EB4101002B1BDBC0
:1007780000F05DF8DDF804E0DDE9022304B0404252
:1007880061EB4101524263EB43037047524263EB12
:10079800430300F04CF8DDF804E0DDE9022304B07F
:1007A800404261EB41017047524263EB430300F062
:1007B8003EF8DDF804E0DDE9022304B0524263EBC1
:1007C8004303704753B94AB9002908BF00281CBF22
:1007D8004FF0FF314FF0FF3000F00CB8ADF1080CCE
:1007E8006DE904CE00F023F8DDF804E0DDE902232A
:1007F80004B07047704700BF034613F8012B002A66
:10080800FBD1181A01387047430803F05533C01A52
:1008180000F03333800800F03330184400EB101038
:100828004FF0013300F00F305843000E70472DE9A8
:10083800F04786468C460846089E15467446194673
:10084800002B40F0C2808542B2FA82F245D94AB103
:10085800C2F1200300FA02FC2EFA03F3954043EAA2
:100868000C0C94404FEA154EA8B2BCFBFEF8230CC2
:100878000EFB18CC08FB00F943EA0C43994528D92C
:10088800EB1808F1FF3704D2994502D9A8F10207FD
:100898002B44A3EB0903A4B2B3FBFEFC0EFB1C33F1
:1008A8000CFB00F044EA0344A04214D92C190CF1C3
:1008B800FF3304D2A04202D9ACF102032C44241A1B
:1008C80043EA07401EB1D440002334607360BDE89A
:1008D800F0874746DDE76346F1E792BB431B0121FA
:1008E8004FEA154EAFB2B3FBFEFC200C0EFB1C33D7
:1008F8000CFB07F840EA0343984562D9EB180CF162
:10090800FF3004D2984502D9ACF102002B44A3EB86
:100918000803A4B2B3FBFEFC0EFB1C330CFB07F769
:1009280044EA0344A7424ED92C190CF1FF3304D2F0
:10093800A74202D9ACF102032C44E41B43EA00406D
:10094800C0E7C2F1200320FA03F1954090402EFA47
:1009580003F303434FEA154EAFB2B1FBFEFC0EFBA7
:100968001C10190C0CFB07F841EA0041884504FAF1
:1009780002F422D969180CF1FF3004D2884502D953
:10098800ACF102002944A1EB08019BB2B1FBFEFCCB
:100998000EFB1C110CFB07F743EA01439F420ED9DB
:1009A800EB180CF1FF3104D29F4202D9ACF10201DD
:1009B8002B44DB1B41EA004192E76046E3E76146CE
:1009C800F7E76046A3E76346B7E7834206D916B957
:1009D800002108467BE7C6E900E0F9E7B3FA83F7A8
:1009E8008FB9834201D3724508D8BEEB020460EB8D
:1009F800030301209C461EB9002168E73846FAE740
:100A0800C6E9004CF8E7C7F1200CBB4022FA0CF409
:100A18001C432EFA0CF120FA0CF3B84001434FEABC
:100A280014490EFA07F5B3FBF9F81FFA84FE09FB1F
:100A380018300B0C08FB0EFA43EA00439A4502FAF9
:100A480007F240D9E31808F1FF3004D29A4502D9D9
:100A5800A8F102002344A3EB0A0389B2B3FBF9F817
:100A680009FB183308FB0EFE41EA03418E452CD9D9
:100A7800611808F1FF3304D28E4502D9A8F10203A8
:100A8800214443EA0040A0FB0298A1EB0E01414536
:100A9800CE46434602D306D14D4504D2B9EB020EE9
:100AA80068EB04030138002EA6D0B5EB0E0261EB0B
:100AB800030101FA0CFC22FA07F34CEA0303F9409C
:100AC800C6E9003198E74046C5E74346D9E7000044
:100AD800F0B585B000AF2A4C204609F073FE0346F6
:100AE800B0B921686C4688B06A462648C2E9050153
:100AF8004FF400719183244942F8101F23484FF4A2
:100B0800E25101F015F8A54600201437BD46F0BDA6
:100B18001F4B3B604FF4E063BB801E4BBB604FF440
:100B28008073BB810125A368BD711B6839462046C7
:100B3800984700280BDB184D184EA36816495B68C8
:100B48000C2220469847002807DA154A00E0154A83
:100B58000E48012108F068F9D6E7EB7A0B483246CF
:100B6800032108F06AF942F21070002109F0BAFF77
:100B7800EB7A392B1ABF0133DBB23023EB72DCE797
:100B8800C0B1000808BC000803000001B8B500089F
:100B9800A027BE33080005019402002040BC0008CD
:100BA8002FBC00081CBC00082DE9F04F91B0840749
:100BB800009302F004030293C2F3C20303F101039A
:100BC800DDF86880039205460E46059340F0BA8129
:100BD800041D30B1072909D86FF01B0011B0BDE81A
:100BE800F08F01F007063444C6F10806009B4FF069
:100BF8000009591E4FF0040A4FF0FF330193CDF856
:100C080010904F46CB4653460DB1009A2260059886
:100C1800002800F3E8809848009A824203D3974856
:100C28008242C0F0E080039AA4EB050E92074FEAD7
:100C38009E0000F103810F2F00F2B180002D00F01B
:100C4800058107F140020DEB020C019A0CF8200C0B
:100C58000CF8102C049801300490E7E07A285DD84D
:100C68004B280ED8472859D829282DD8252852D0BE
:100C780054D820287AD02338D0F1000B4BEB000B46
:100C880074E04C382E2849D8DFE800F0704848480E
:100C980048484848484848484B48484848484848C9
:100CA8004859484B4B595959704B6D487048184B27
:100CB800184848827F4B48484B487F0000204FF037
:100CC800000B4FF0040A38E02A38C0B2012202FAB9
:100CD80000F010EA0E0F49D110F0625C2FD110EA33
:100CE800020B43D06046013C5444B4FBFAF40AFBBF
:100CF80004F4002D61D0A3EB050CA444B4453FF6E1
:100D08006BAF002868D1042B47D158F8043B236007
:100D1800043404232AE0019A013A01924FF0000BAF
:100D280024E011F8010C6C2834D111F8023C0020A1
:100D38006C2B8346C5D14FF0080A5346D3E708F118
:100D4800070828F007080734F8E802AB24F007047E
:100D580035B106982044B0423FF63EAFC4E900AB37
:100D680008344FF0000B4FF0080A534611F8010FF2
:100D7800002878D0BBF1000F7FF470AF2528F5D19B
:100D8800019B013301934FF0010B4FF0040AECE78C
:100D9800584694E700208346A5E7082B02D06FF059
:100DA80015001BE708F1070828F00708F8E80223F0
:100DB800C4E9002308340823D8E768B9042B02D112
:100DC80008F10408A4E7082BE9D108F1070828F07E
:100DD800070808F10808EDE7059A013A059258F85E
:100DE800042B009210E7039A900720D5A4EB050E78
:100DF8004FEA9E004FF0010CBEF5007FCFD20F2FB7
:100E0800CDD8F5B107F140020DEB020EC0B2019A40
:100E18000EF8200C0EF8102CBCF1000F3FF41AAF9E
:100E280060F07F000EF8200C09F101090137C5F1C7
:100E38000802043406924FF6DA7E97E74FF0000C6A
:100E4800DAE7BCF1000F01D00136EFE7029802366D
:100E58000028EBD10098CDE90631FFF7CDFCDDE99C
:100E680006310644E2E7631BB3F5806F97D23DB9BC
:100E7800A6F10804E018B1E6D8AF000898CB00083E
:100E8800029A28609B082B709DF81030C2B1EB7055
:100E980085F80290B9F1000F05D008A80022C5F125
:100EA800010C97420ED1C5F101030DF120084FF056
:100EB800000A01930DF1300B574512D1601B8DE6E6
:100EC8006B70E5E710F8013B190608D50CEB040E2A
:100ED800B64503F07F033FF67FAE04F8013B0132CD
:100EE800DFE7B9F1000F03D098F90020002A17DBDB
:100EF800029BD3B11AF80B2004F8012B0022019BA6
:100F080018191044B0423FF667AE98F8000004F88C
:100F1800010B00990392204609F0CEFF039A14446E
:100F28000AF1010A08F10108C6E798F8002055F807
:100F380022300093029B45F822300098FFF75CFCB2
:100F4800421CDCE76FF00D0048E600BF2DE9F04FCA
:100F580097B000AF90F802A0D7F880B03B62CBF30F
:100F6800C0030446FA62BB61894641B945780078F6
:100F78000AEB800020444D4517D8A0EB0409E3781C
:100F8800FB61BAF1000F02D01BF0010F16D1FB690B
:100F980053BBFB6A1BB13A6A4946204698474D46FF
:100FA80028465C37BD46BDE8F08F461C3046FFF743
:100FB80023FC0130304409F10109DCE72378626839
:100FC8007A62FA6A9900796104EB8301002A40F099
:100FD80000814D460E4601EB0A094FF000084E45C8
:100FE8004CD101EB0A0610E01BF0020FD1D0237898
:100FF8009A007A6162687A62FA6A04EB8301002ACD
:1010080077D14D4601EB0A0690461BF0050F0CBF41
:1010180002230123FB62FB6906EB430A0BF0020380
:10102800BB625645BCD016F8021B16F8013C54F8B2
:101038002390994B994502D3984B994536D3BB6970
:10104800002B40D0786A07F068F900283BD0E946C1
:101058008AB06A46924B53617B6AC2E906314FF403
:10106800007313848F4B42F8103F8F4800234FF4CE
:10107800125100F05DFD023DCD46D2E716F8013B66
:10108800F96254F82300FFF7B7FBD7F88430F96A00
:1010980001304BB1D7F8883098453EBFD7F8843037
:1010A80023F8180008F10108054498E7BB6923B143
:1010B800786A07F032F90028C9D11BF0010F05D171
:1010C800FB6AED1AADE7BB6A002BAAD04846FFF7CA
:1010D80093FBD7F8843053B1D7F8883098453FBF91
:1010E800D7F88420431C22F8183008F10108054479
:1010F80097E7BAF1000F72D01BF0040672D0D04601
:10110800002607F1480052463B61B96209F0D4FE57
:10111800B96A3B6901EB0A02BA62FA69F9695200D5
:10112800FA60BA6A02EB41023A610BF00202BA6055
:101138003A69B96A8A4257D162787A621BF0020F1B
:1011480032440CBF4FEA580100211BF0010FD2B204
:1011580040F09F801BF0040F14BF40460020BB6185
:101168006270A070E1703A6A7969FB6A2046984714
:10117800051EFFF615AFBB6923707B6A6370FB69B8
:10118800E37041463A6AFB6A84F802A007F1480016
:101198009847B0F10008C0F2BB807B693A6AA9EBB6
:1011A8000A01C91AFB68C91AD7E90A03984700282F
:1011B800C0F2B080A84408EB00054FF0000B07F11F
:1011C800380AB34572D300213A6AFB6A0846984741
:1011D800E6E656464FF0000807F1380093E7564612
:1011E800D04697E7B04695E7BA6A12F8021BBA628A
:1011F80012F8015C284A54F82500904202D3274A85
:1012080090421ED3BA6932B1786A7B6007F085F8DC
:101218007B6800288CD1BA6802BB08F1280207F164
:10122800300C08F10100944407F1580252FA80F09A
:1012380008F102080CF8101C5FFA88F800F8105C36
:1012480076E7BA693AB1786A7B6007F066F87B6836
:1012580000287FF46DAF1BF0010F09D006F12802BA
:1012680007F13000711C161806F8205CCEB25FE753
:101278001BF0040F3FF45CAF08F1280207F13000BF
:1012880008F1010102EB000808F8105C5FFA81F828
:101298004EE7002063E700BFD8AF000898CB0008EE
:1012A80058BC00080400000178B500081BF80A3093
:1012B80087F8373054F82390D7F884302BB3D7F811
:1012C80088309B4521D2D7F8843033F81B803A6A9E
:1012D800FB6A012107F13700984700281ADB05440B
:1012E800B8F1000F06D14846FFF786FA00F1010869
:1012F8001FFA88F83A6AFB6A414648469847002828
:1013080008DB05440BF1010B5BE74FF00008DEE753
:10131800454645E6054643E6014B1860704700BF61
:10132800B800002080B505460E461746984606F0D8
:10133800BBF8034609F042FEDFF81890044649F866
:101348000030424630463946A84754F8090001F0B3
:101358007FF900BF080000002DE99F480646EFF31B
:101368001185102383F31288BFF36F8F334F00F179
:10137800080A4FF0FF384FF0FF390121504607F0B7
:10138800F9FA06F1140203920446002848D00146EF
:10139800A0F1280B504607F0FAFABB68A360B369BE
:1013A800039AC4E900231C60BB68B46154F8282C74
:1013B8009A7354F8242C1A611A7B22F010021A73BB
:1013C80085F31188BFF36F8F54F8203C584698472F
:1013D800EFF31185102282F31288BFF36F8FBB6879
:1013E8001B7B1340C9D1D4E9001001604860C4E9EF
:1013F8000033A360336A73B185F31188BFF36F8F2D
:10140800336A58469847EFF31185102282F3128801
:10141800BFF36F8FB1E7A4F1180005F06DFBACE7DF
:10142800CDE9008932462946304605F079FEEFF3CA
:101438001185102383F31288EAE700BFA40E002069
:1014480010B51C2204460021083009F043FD044B66
:10145800E36004F11403C4E90044C4E9053310BD92
:101468005F88000870B5044688B0E569084645F30A
:10147800400611461A4600236FF00F05CDE90235E4
:10148800CDE900430493CDE90666024B05F02AFD39
:1014980008B070BD611300082DE9F8431C4C1D4FBE
:1014A8004FF02408BC4230D30020BDE8F8836368BD
:1014B800D4F80890DD1D636925F007057F35D90745
:1014C80025F03F0508D508FB06994846FFF7B8FF01
:1014D800A369C9F8203001E0002EF6D063695A07E5
:1014E80048BF43F00203C9F81C30D4E9031263680B
:1014F80006FB052201EBC6114846FFF7B3FF01368C
:101508002368B342D3D81C34CCE70026F8E700BFE1
:1015180058B4000874B40008034A536823F002035F
:1015280053600020704700BF002004E0EFF31180F3
:10153800102383F31288BFF36F8F094B1A683AB9E7
:10154800084A116841F4807111601168C905FCD519
:101558001A6801321A6080F31188BFF36F8F7047E1
:10156800080B00200004005838B5EFF3118510234C
:1015780083F31288BFF36F8F0E4B1A6872B90E4C43
:10158800237833B90D4A0E48022107F04DFC012398
:10159800237085F31188BFF36F8F38BD012A01BF0F
:1015A80008490A6822F480720A601A68013A1A60C7
:1015B800EFE700BF080B0020D80E002011BD00087F
:1015C80000B6000800040058084B1A6842F400727C
:1015D8001A601A6842F480621A601A6842F48072CB
:1015E8001A60034B034A1A60704700BF0040005856
:1015F8007C02002000093D002DE9F047DFF8588003
:10160800044607464FF0010914B93846BDE8F0878B
:1016180094FAA4F5B5FA85F509FA05F32E0108EB55
:1016280005156FEA030A24EA03042B7B002BEBD091
:1016380058F806301B694BB946440422736828469B
:10164800196807EA0A0707F07FFBDDE7284698478D
:101658000028D9D1F0E700BF38B6000830B51049E6
:10166800104889B0002209F0DDFA0F4D0F49002219
:101678000023CDE9062300240E23CDE90334CDE968
:1016880001440B4B00944FF44072284605F02AFCA5
:101698000849284609F083F9204609B030BD00BF43
:1016A800C116000810080020880300200010002040
:1016B800DD19000852BD0008014805F01DBA00BF39
:1016C8006C0300202DE9F047804620480F4607F0BC
:1016D80013FB0646002832D000252846BDE8F087CF
:1016E800237B83B12368DB680BB120469847636886
:1016F80083F8069023681B69CBB9636804221968CC
:10170800204607F021FB013610345445E8D3B8F1E0
:10171800000FE2D0002DDFD02846FFF76DFF054609
:10172800002FF7D00021642009F0DCF9F2E7204609
:1017380098470028E1D009FA06F31D43E3E7044C73
:10174800DFF810A005464FF00109DEE71C0B00206A
:1017580038B6000848B60008014B53F82000704717
:10176800A4B6000808B5034608462BB1044A13601E
:1017780000F074FC002008BD6FF01500FBE700BF07
:10178800BC00002010B5044C237813B9034805F0B9
:10179800B3F90123237010BDD90E00206C0300207B
:1017A80010B504460B4807F0A7FA5CB1BFF35B8F8E
:1017B800094B53E8001F013943E80012002AF8D109
:1017C800BFF35B8F054809F039FA0548BDE81040BA
:1017D80005F092B9140B0020180B00201008002007
:1017E8006C0300200020064BBFF35B8F014653E8D3
:1017F800000F43E80012002AF9D1BFF35B8F70474E
:10180800140B002070B5FFF7EDFF084C084E054695
:10181800B44200D370BD63685B792BB123685B6801
:1018280013B12946204698471034F1E738B6000826
:1018380048B6000810B5044C0449204606F0A4FE3A
:10184800034B1C6010BD00BFD402002090B60008F6
:101858000C0B00200D4A0E48002310B513700D4ADA
:1018680013600D4A4FF47A711360FFF77BFFFFF79F
:10187800E1FF0A4B0A4918468B4200D310BD1A1AD9
:101888005C681211013222711033F5E7DA0E00207C
:101898001B8D0008140B0020180B002038B6000818
:1018A80048B60008014600220148002306F08DBE14
:1018B800D4020020014806F026BF00BFD402002051
:1018C800024B0146186806F072BF00BF0C0B0020DF
:1018D800014806F0A7BF00BFD402002070B5264B10
:1018E8001878002846D0FFF7E5FF054600283ED1C6
:1018F800224B234C1B68002B12DD09F091F90A22B8
:101908000023FEF75FFFD4E90032C01A40F2E93342
:1019180061EB0201984271F1000101D3FFF772FFF8
:10192800D4E9003213F57A7342F10002C4E90032B7
:10193800BDE87040FFF7CCBF63685B7923B12368CB
:1019480029461B68204698471034B442F4D32846E9
:10195800FFF7B6FFBFF35B8F0A4B53E8001F01394F
:1019680043E80012002AF8D1BFF35B8FC0E7064CAA
:10197800064EEAE770BD00BFD90E0020140B002008
:1019880008080020180B002038B6000848B60008E0
:1019980070B50D4D297861B90120FFF793FE0B4C06
:1019A8000B4EB44206D3FFF799FF0028FBD1012361
:1019B8002B7070BD63685B791BB1236820469B68F8
:1019C80098471034EDE700BFDA0E002038B600085B
:1019D80048B6000800212DE9F0470846FFF772FED7
:1019E800044658B34FF4FA784FF0000909F0E6FAC4
:1019F8001B4B1C4A1B58136033B11B4B1B68092B2C
:101A080002DD1A4805F078F8194FDFF860A00025C4
:101A180044B12046FFF7F0FD044618B94FF0FF38EF
:101A28004FF0FF39FFF75AFF064628B9B5B94246C5
:101A38004B46504605F09AF83546E9E74FF0FF382F
:101A48004FF0FF39D2E72B689B691BB10022114682
:101A5800284698471035BD42F5D3E8E7054DFAE723
:101A680008000000100B0020180B00206C03002059
:101A780048B6000838B6000813B5184807F03CF90E
:101A8800174B1B7873B1EFF31184102383F312887B
:101A9800BFF36F8FFFF722FF84F31188BFF36F8FB7
:101AA80002B010BD0F4B1B68002BF9D050B90022B3
:101AB8000023CDE900230C4842F21072002306F0FF
:101AC80007F8EDE70928EBD1074809F0B7F8074808
:101AD80002B0BDE8104005F00FB800BF180B002099
:101AE800DA0E0020100B0020100800206C030020E4
:101AF80010B5064B1B68044698472146A060044869
:101B080006F0E2FDBDE81040FFF7B6BFBC000020BC
:101B1800D4020020044A054B9B1AB1EBD30F34BF03
:101B280052F831000020704770B5000838B6000838
:101B38002DE9F04F8FB004AFC1F34A28B8600D46C5
:101B480091467B600C0DB8F1000F63D0002607F1B9
:101B580014034FF0040B4FF00A0AC7F80C80C7E9CA
:101B680007667E620193CDF808B0CDF800A007F1B2
:101B78001C03F96832464846FFF7E8F9B0F5006FEC
:101B880003461CD36C468AB0D9F8041004AB264827
:101B9800C3E9050140F2FF71D9611A464FF400719B
:101BA8001984224B42F8103F214833464FF4125112
:101BB800FFF7BEFFA5462C37BD46BDE8F08FC0F342
:101BC8000A0804F11700184420F0070080083B6059
:101BD800FFF768FE68F35325044690B13B68154A41
:101BE800C7E9083600F1100107F11403F961CDE9DE
:101BF80000A3CDF808B0F96807F11C034846FFF7C1
:101C0800A5F968F353257B68B9682A46204607F08A
:101C1800BBF8D0E704F1170020F007008008FFF7B1
:101C280041FE0446EDE700BF67BD0008040000015F
:101C3800A0B50008638D00082DE9F04F87B0DDE9F5
:101C48001279DDE9105A0446039193469846BFB1CC
:101C5800CDF800903B46524610210020CDF8149054
:101C6800FEF7A2FFB0F5006F06460AD3184A1948D6
:101C780040F2FF73022107B0BDE8F04F07F0DDB86E
:101C88003E4605F11700304420F0070004F0070431
:101C98008008FFF707FE0BF0070BE40044EA8B14FB
:101CA80044EA462444EA0554054640B13FB1CDF81C
:101CB80000903B46524631461030FEF775FF0399B7
:101CC80043462246284607B0BDE8F04F07F05CB807
:101CD800A6BD0008A0B50008406820B1034BC01A93
:101CE80040F3CF0070474FF0FF30704770B50008E1
:101CF8000EB403B503AB014653F8042B0448019313
:101D080000F02EFF02B05DF804EB03B0704700BF8F
:101D1800A58E0008CA0605D48B064CBF02490349A4
:101D2800FFF7E6BF704700BFDFBD0008DEBD000853
:101D38002DE9F04F89B09B46149B06939DF84CA063
:101D4800159B0593169B179E049304460D469046D3
:101D5800BAF1000F00F09D8006F48073079306F037
:101D6800F1FF06F00209024600283ED091492046BC
:101D7800FFF7BEFF0746B9F1000F08D016F0440F71
:101D880035D18D492A462046FFF7B2FF074406F0B1
:101D9800010353B1894B8A4953F82A20894B2046BD
:101DA800002A08BF1A46FFF7A3FF06F48073002B2A
:101DB80049D006F00803002B63D1B8F1000F66D0B4
:101DC800814942462046FFF793FF0546069B3D445E
:101DD800002B6DD1049B002B73D1F30700F1E48035
:101DE80031462046FFF796FFD8E00746C3E7774B12
:101DF80018680028CAD0764B4FF47A791B68B5FB6F
:101E0800F3F54FF46163B5FBF0F100FB115509FBE5
:101E180005F54FF03C0CB1FBF3F203FB1211B5FBD7
:101E2800F0FEB1FBFCF300FB1E550CFB131109FB84
:101E380005F50091B5FBF0F56649CDE901E52046C9
:101E4800FFF756FFA2E706F00803EBB1624B6349C0
:101E580053F82A202046FFF74BFF0546B8F1000F3C
:101E680005D0594942462046FFF742FF0544BBF1D9
:101E7800000FABD05A495A462046FFF739FF0544B0
:101E8800A4E74FF0000BE1E706F00805E6E7454652
:101E98009CE7BBF1010F069B06D1002B64D1049B84
:101EA800002B7BD000250CE0002BF8D04D485CE0DF
:101EB8004D48069B4D49224606F0FEF9049B002B2F
:101EC80068D0DFF82C81DFF82C91049F3146102F61
:101ED800204628BF1027FFF71DFF4FF0000B5D4578
:101EE80045DC059B49461A782046FFF701FF4FF06D
:101EF800010B1BF0070F03D141462046FFF7F8FE00
:101F08005F453BD9059B494613F80B202046FFF750
:101F1800EFFE0BF1010BBBF1100FEAD13649204659
:101F28004FF0000BFFF7E4FE5A46059B9A5CA2F1BE
:101F380020015F2928BF2E2230492046FFF7D8FE0E
:101F48000BF1010BBBF1100F1DD01BF0070F03D1D4
:101F580041462046FFF7CCFE5F455A46E5D8414644
:101F68002046FFF7C5FEEBE71F485546A1E7414667
:101F78002046FFF7BDFE0BF1010BB0E720492046D4
:101F8800FFF7B6FEC5E7059B3B440593049BDB1BA7
:101F980004939AD1BAF1000F7FF41FAF204609B01D
:101FA800BDE8F04F06F06DBF064A05492046FFF729
:101FB8009FFE15E7E6BD0008EABD0008B4B60008B4
:101FC8003BC70008E1BD00080FBE0008240B002035
:101FD800200B0020F3BD0008C8B6000813BE000897
:101FE80019BE0008DB8E0008A58E0008692B0008C2
:101FF80026BE00081EBE000828BE00082ABE00082B
:1020080024BE000873B542F20F738B4228BF0B46FB
:1020180005680F4A04460521684605F05DFE6368B9
:102028000C495B6806460B22284606F01CFF6368CD
:102038003246694628465B6806F015FF636806491C
:102048005B681B22284606F00EFF02B070BD00BF79
:102058005BC7000849BE00082DBE0008074A0021DA
:102068000123904206D8064A01B901231360054BA3
:102078001860704740085B000121F2E740420F00FA
:10208800200B0020240B0020F8B5074F0D4604460E
:102098004618B44201D12846F8BD14F8011BBB68A4
:1020A80001485B689847F4E720B10008014B0360DA
:1020B8000020704710B700082DE9F047064600AF2A
:1020C8000C46002936D0E9468AB0D1E90012A36847
:1020D8006D462148A8464FF0050AC5E90501C5E93E
:1020E800072348F810AF1D48424600234FF42151FA
:1020F800FFF71EFDCD46D4E903126369AD461848C3
:10210800C5F810A0C5E90501C5E907231348002350
:1021180042464FF42151FFF70BFDCD46E369114AC2
:102128000E48012106F089FEA3690F4A0B480121D8
:1021380006F083FE012E07D1EFF305830B4A07480B
:10214800103B314606F079FE2146304604F054FA39
:10215800BD46BDE8F08700BF8FBE0008C8B50008BF
:10216800BEBE0008EDBE0008FCBE00082ABF00087D
:1021780030BFFFF7FDBF00BF2DE9F0410B4EDFF880
:10218800308006EB0807CC1B054632460949204635
:1021980008F092FEA01942460021083C08F09AFE79
:1021A8006C6707F10800BDE8F08100BF000000007F
:1021B8000400000048B60008054B5A699B689A421B
:1021C8001FBF044A536843F080535360704700BFF1
:1021D800A40E002000ED00E070B5244C06460D4624
:1021E8002348244906F0FCFEA36AD9043CD52048BC
:1021F800214906F0F5FE1720A36A1A0504D51C48E4
:102208001E4906F0EDFE1820184CA36A9B0512D54E
:102218001B49174806F0E4FEA36BA26A110409D50E
:10222800184A1348012106F008FE1EB1A36A23F4D8
:102238000043A36219200D4CA36A5A0504D50C4823
:10224800114906F0CDFE1A20A36ADB0504D508481B
:102258000E4906F0C5FE1B20044A936A43F47F43E7
:10226800936200232B7070BD1620C5E700ED00E0D7
:10227800C8B500083DBF000853BF000864BF000888
:1022880077BF000890BF0008A5BF0008C0BF0008BE
:1022980010B5204C2049214806F0A2FEA36A9901F6
:1022A80036D51E481E4906F09BFE1E20A36ADA0199
:1022B80004D51A481B4906F093FE1F20154CA36A43
:1022C8001B0304D51548184906F08AFE2120A36A85
:1022D800590304D51148154906F082FE22200D4CF9
:1022E800A36A9A0304D50D48114906F079FE232004
:1022F800A36ADB0304D509480E4906F071FE2420C1
:10230800044A936A6FEA03436FEA1343936210BD6A
:102318001D20CBE700ED00E0D8BF0008C8B50008D5
:10232800F0BF000803C000081DC000083BC000083B
:1023380060C000087AC000082DE9F8432F4D804698
:1023480089462F482F49174606F04AFEAB6ADA0637
:1023580027D52D492A4806F043FE1124AB6A1B07EE
:1023680004D52A49264806F03BFE1224234DAB6AC1
:102378009E0718D52649224806F032FE6E6BAB6AD6
:102388001C0637D5234A1E483346012106F055FD61
:10239800B9F1000F03D0AB6A23F08003AB621324BA
:1023A80003E01024DAE76FF01506144DAB6AD8077E
:1023B80004D51949124806F013FE1424AB6AD9064D
:1023C80002D4AB6A9A070BD50C4B5B681B0507D583
:1023D8004146304600F0F8F910B180F3098802242C
:1023E800064A936A43F0FF03936200233B7020463A
:1023F800BDE8F8836FF01506D1E700BF00ED00E0F7
:10240800C8B50008A5C00008BBC0000864BF000824
:10241800EEC0000806C100081CC100082DE9F04103
:10242800664B8AB0D3F8048000AF0446C8F30805A9
:10243800002686F31188BFF36F8F02F07F43B3F154
:102448007F4F07D102F00C03082B12D15C495D487D
:1024580006F0C6FD002634460023FB71EB1E092B4F
:1024680000F28A80DFE803F00A80837C8888888805
:10247800888610074CBF0C460126EDE752495148A3
:102488004E4D06F0ADFD0023FB71EB6A9A0705D5AA
:102498004E494C4806F0A4FD002332E0EB6A002BBD
:1024A80001DA4B49F5E7EB6A5B00F5D54949454840
:1024B80006F096FD6B69A26943F480736B61BFF304
:1024C8004F8FBFF36F8F6B6932F8022C23F4807340
:1024D8006B61BFF34F8FBFF36F8F4DF602739A4254
:1024E80008D0AB6ADBB273B3FA1D01212046FFF7AF
:1024F80023FF37E02368384A3248012106F09DFC63
:102508002368FA79DAB907F1080504F1200C206884
:1025180061682A4603C2083464451546F7D17A6AC9
:10252800002E45D0C2F3080121B96FEA52226FEAA2
:1025380042227A6207F108011846FFF7BDFD2837E5
:10254800BD46BDE8F081AB6A13F47F4F04D0F91D96
:102558000120FFF741FE05E0AB6AB3F5803F9BD34E
:10256800FFF796FE0346CCE7FA1D0021BEE7F91DEA
:102578000020EEE719498CE7194A1A4B18F4F87F3E
:10258800E8468AB018BF13466A461749C2E90513D8
:102598004FF400731384103D144BD56142F8103F7B
:1025A800084800234FF41151FFF7C2FAC54673E7F4
:1025B80022F4FF7222F00102BBE700BF00ED00E049
:1025C80069C10008C8B5000894C10008ABC100087B
:1025D800CCC10008DAC10008F9C1000815C200081A
:1025E80050C100083BC1000839C2000804000001BE
:1025F800044B5A6942F010025A615A6922F00802E3
:102608005A61704700ED00E0EFF30880EFF30981AD
:1026180001B57246FFF702FF01BD00BF0A4880F30B
:102628000888102080F3118808484FF40461401886
:1026380080F30988EFF314800221084380F314889B
:10264800BFF36F8F06F0D4FC00290020801B002008
:10265800084B9B6883420BD1EFF3058343B1064BCC
:102668005A6842F080525A605A6A22F400425A620A
:1026780004F020BFA40E002000ED00E014498A6891
:102688004FF030001044EFF3098C80E8F01F102061
:1026980080F31288BFF36F8F0E4F4FF000664A69C0
:1026A8008A603E60506F0C4C2060906F00239367E7
:1026B80080F3118804B5104600F0EAF8BDE804403C
:1026C80002F1300090E8F01F8CF309887047000091
:1026D800A40E002004ED00E0540B00201EF0040FAF
:1026E8000CBFEFF30880EFF30980816911F8021C31
:1026F8000229FFD001B5724606F067FC01BD00BF94
:1027080040B2002807DB044A4109012300F01F00FA
:10271800834042F82130704700E100E040B20028D1
:102728000CDB4309064900F01F00203301228240D8
:1027380041F82320BFF34F8FBFF36F8F704700BF5F
:1027480000E100E040B20028A8BF00F1604001F1BC
:102758000101B8BF064B4FEA0111ACBF00F561405B
:1027680000F00F00C9B2B4BF195480F800137047C5
:1027780014ED00E0044B054A23F07F039360BFF398
:102788004F8FBFF36F8F70470000000800ED00E027
:1027980042F8203C009B42F81C3C0A49019B42F845
:1027A800183C029B42F8143C21F001014FF0807361
:1027B80042F8043C42F8081C0023203A026583676B
:1027C800704700BF2D130008094A0346906870B18E
:1027D80013F1160F406E05D0A0F140029A4205D8B9
:1027E800834203D2814228BF0020704700207047EF
:1027F800A40E002008B51546094A0A4B9060426F9E
:102808001A600E4600F044F82C4686F3098800202A
:10281800054B98472046002100220023034C2047FF
:10282800A40E0020540B00200F9000082D13000860
:10283800014B10221A61704700ED00E004480023A4
:102848001021C21801333E2B82F80013F9D17047CA
:1028580000E100E008B5EFF30583064A103B02EB00
:10286800C30152F8330049688847BDE80840FFF7BC
:10287800A3BC00BF68B20008024B034A0348012109
:1028880000F08AB8000001200000002010B70008FE
:10289800426E054B403A1A60044A4021C3E90112CE
:1028A8001846012100F082B8580B002000000B15D3
:1028B80008B503461048D0F89020C2F30722013A21
:1028C800934207D90D480E4A012106F0B6FA6FF077
:1028D800150008BDC0F898300A6822F01F021A4394
:1028E80042F01002C0F89C208A6842F00102C0F849
:1028F800A0201846EDE700BF00ED00E0C0B50008D5
:1029080050C20008F0B50E4685B01F4604460025A3
:10291800B5420DDA606810B397B1431E18420AD069
:10292800104A11482B46012106F087FA6FF015026C
:10293800104605B0F0BD1F28F2D921680B42EFD12F
:102948002368019306F073FBA36801A90343D0B27F
:102958000393FFF7ADFF10F1160FE7D0421C0135C6
:102968000C34D5E776C20008C0B50008044B052230
:10297800C3F89420BFF34F8FBFF36F8F704700BF2A
:1029880000ED00E0BFF35F8F024B0022C3F89420F4
:10299800704700BF00ED00E010B5034C012322781A
:1029A800FFF7B0FF207010BDDC0E002008B50B4A01
:1029B80000231278FFF7A6FF10F1160F07D0084A78
:1029C8000021D2F89030C3F30723984200DB08BDFA
:1029D800C2F89800C2F8A0100130F2E7DC0E00201F
:1029E80000ED00E02DE9F04357485849D0F8903001
:1029F8000D68C3F307239D4285B000F2A180FFF75D
:102A0800C1FF49680022954201F10C011AD1504CCE
:102A1800504F25706846FFF749FBDFF83C81DFF827
:102A28003C9106460025AE421FD123784649002036
:102A3800D1F89020C2F3072293427BDBFFF796FF81
:102A480000204CE0C0F8982051F80C3C23F01F03FC
:102A5800134343F01003C0F89C3051F8043C43F092
:102A68000103C0F8A0300132CDE7009800EB051152
:102A78004FEA051CCB683B40B3F5000F44D00AD899
:102A8800B3F5001F2ED0B3F5800F34D0B3F5801FF7
:102A980010D00135C7E7B3F1807F3ED0B3F1007F96
:102AA800F7D150F80C3088684A6806F0C0FA40F44C
:102AB800802009E050F80C3088684A6806F0B7FAB8
:102AC80040F0885040F43020039001A92078CDE9E7
:102AD8000123FFF7EDFE002828DA6FF0150005B096
:102AE800BDE8F08350F80C3088684A6806F09FFA11
:102AF80040EA0800E8E750F80C3088684A6806F0B1
:102B080096FA40EA0900DFE750F80C3088684A680E
:102B180006F08DFA40F08270D6E750F80C308868DD
:102B28004A6806F084FA40F08870CDE723780133CC
:102B38002370AEE7C1F89830C1F8A000013377E7F9
:102B48004FF0FF30CBE700BF00ED00E01CB70008F6
:102B5800DC0E00200000F0FF000008110000020653
:102B6800F0B587B007460E46144600211022684685
:102B78001D4608F0AFF902238DF802302A46054BAE
:102B8800019321466846CDE9047605F0CFF807B0F1
:102B9800F0BD00BF5790000808B5024B1B68984766
:102BA800002008BD640B0020034B044A186093788A
:102BB80043F0020393707047640B0020C8000020A4
:102BC80008B50649064821F00701C1F1005202F58F
:102BD800803205F034FB002008BD00BF872E00209E
:102BE800680B0020F0B5214B214C00251026A3428C
:102BF80020D3204B204C00251026A34234D300209C
:102C0800F0BD196901EB821101F130000D63EFF39A
:102C1800118186F31288BFF36F8F1F6818603860C0
:102C280081F31188BFF36F8F013299899142E8DCF3
:102C38001433DCE70022F8E71869170100EB0211EA
:102C4800C551EFF3118086F31288BFF36F8F1F68A9
:102C58001960396080F31188BFF36F8F0132998949
:102C68009142E9DC1433C8E70022F8E78403002026
:102C780084030020840300208403002001460148C7
:102C880007F0E8BD500300202DE9F0410F4E104F2A
:102C9800054600244FF001082A781319DBB208FA18
:102CA80003F0F36830EA030309D152FA84F3F060C1
:102CB80057F833201AB107EBC303596890476A786D
:102CC8000134E3B29A42E7D2BDE8F0810008005827
:102CD800980B0020044B184400230133994200F854
:102CE800012BFADC704700BFA0020020034670B138
:102CF800B0FA80F2C2F11F02D2B206498856064ADB
:102D0800D2F880100B43C2F88030FFF7F9BCFF22DD
:102D1800F3E700BFA002002000080058034AD2F8D9
:102D2800803023EA0003C2F880307047000800585A
:102D3800032921D8DFE801F0020C10190F4B1A689B
:102D480022EA00021A605A6822EA00025A607047B2
:102D58000A4B1A680243F5E7084B5A6802435A605F
:102D68001A6822EA00021A607047044B1A68024384
:102D78001A605A6810435860704700BF000800582E
:102D880030B5B0B1B0FA80F3C3F11F03DBB20B4822
:102D980050F833408C4204D100EBC3056D6895426E
:102DA80005D044B940F8331000EBC300426000205E
:102DB80030BDFF23EBE76FF00F00F9E7980B002019
:102DC80060B1B0FA80F3C3F11F03DBB2044A0021FB
:102DD80042F8331002EBC30251607047FF23F5E756
:102DE800980B002000F00302043292000F23934056
:102DF80043EA900000F003030233064A52F8232006
:102E0800030C02EA104093FAA3F3B3FA83F3D84011
:102E1800704700BF00000140F8B50C7914F020039A
:102E280006D03649364806F092F96FF01500F8BD1D
:102E38000A78092A01D03349F4E74A78042A01D0EC
:102E48003149EFE746684D883268006904F01F048D
:102E5800BDB143F6FF718D421CD0DFF8B0C006F15A
:102E6800160737F8021F41EA0C0189B28D4209D0D2
:102E78000133082BF5D12649214806F068F9254980
:102E8800D0E72B4696F92810012905DC002933DB09
:102E98000020CCE70723F5E702292DD190F9B610D9
:102EA8004E1C01D08B420ED180F8B63051694FF4D8
:102EB8008070A04021EA00015161516921F00701A9
:102EC8000B435361E4E790F9B7104D1C01D08B42D6
:102ED80010D180F8B73055690F484FF48071A14080
:102EE8006840014069405161516921F0700141EA2F
:102EF8000313E6E70949BFE70949BDE7E2C200084D
:102F080070B500080AC300081FC3000800C0FFFF0F
:102F180039C30008BEC3000804FFFF035CC30008F0
:102F280088C3000838B5324C2368DA0605D5102363
:102F380030493148236006F00AF923685B0747D512
:102F4800226C2E4CD4F8A430991CC4F8A4101A8012
:102F580094F8B53094F8B4200133DBB29A4284F87F
:102F6800B530254634D1002384F8B530636FB3B348
:102F7800D4F88C30B4F898203BB1214804F174019E
:102F88009847012812D0022823D0B4F89830B4F812
:102F980094209A421DD90133A4F89830D4F8883087
:102FA8004BB9BDE83840154806F0D5B8D4F8A83074
:102FB800C4F8A430F2E7BFF35B8F55E8003F5A1E10
:102FC80045E800210029F8D1BFF35B8F012BE8DC2D
:102FD80038BDD4F8883013B10A4807F02FFE4FF6F1
:102FE800FF73A4F8B6300848BDE8384003F084BD44
:102FF80000240140D4C3000870B500080000002078
:1030080040B10008080000205800002037B5436888
:103018001D680446284606F0DDF863681A68936858
:1030280023F0004323F0170343F0004393609368B1
:10303800002BFCDB63680D4899688368DB687BB903
:103048000B490C4806F083F8019B1BB90A4909484B
:1030580006F07DF8284603B0BDE8304006F0A1B878
:1030680001AA98470028EFDAEAE700BF40B0000855
:103078004DC4000870B5000867C400082DE9F3477F
:10308800D0F804800669D8F800700546DFF8E8A093
:10309800504607F097FB48B93849394806F057F8C1
:1030A8006FF01204204602B0BDE8F0874FF6FF73B8
:1030B800A6F8B630DAF80830C6F8A050D5F804906B
:1030C8001B68D9F80040D9F808108BB150469847CA
:1030D80070B9D9F8102022F00043B3F1804F02D024
:1030E800B2F1004F1DD1236923F0404313432361FC
:1030F800D8F8140001AA002107F05EF8041E07DBC7
:10310800019B00221979186802F0CAF8041E14DA23
:10311800A31C12D01B4A1A482346012105F08DFE34
:10312800C0E71949D1F8083723F470131343C1F8DD
:103138000837236923F04043D9E7BB6823F01043DD
:1031480023F0170343F08053BB60142007F02BFBD8
:10315800D8F8043003B198472846FFF757FFFB68B3
:1031680023F45C63FB60B36C1BB906F1400003F009
:10317800C3FC002496E700BF40B000087BC40008E9
:1031880070B500089AC40008002001402DE9F04FEE
:10319800036985B006460D4603F140084FF0FF323B
:1031A8004FF0FF33404603F0E1FC73683469D3F80D
:1031B8000090AB68C4F8A4306F68C4F8B0703846A3
:1031C800FDF722FB002384F8B40084F8B53067B912
:1031D8008249834805F0BBFF6FF01504404603F0B1
:1031E8008BFC204605B0BDE8F08F7268106892F934
:1031F8002B1028328B4202DB11D17A49E9E752F8C9
:10320800047F95F810C0BCEBD74F32D1C7F3042226
:10321800C7F3423BC7F3024AFFB2FF2F2BD13369F2
:103228007068D3F8B0204FF0010C0023002A39D180
:1032380090F929204AB90268C3F31103936213680D
:103248009904FCD54FF40053136094F8B4202B680C
:10325800520013B19B8903FB0222EB6893422DD2E3
:103268005F4800920121604A05F0F1FD6FF00B0400
:10327800B4E70133BEE7C3590392D3400BEA030313
:103288009A45CCD005F0A6FF7368039A1968CB5904
:103298000BFA02FB23EA0B030AFA02FA43EA0A03CF
:1032A800CB51BCE792FAA2F1B1FA81F10CFA01F71D
:1032B80047EA81610B4322EA0702B7E7D6F804B070
:1032C80095F811A0DBF80000BAF1000F56D1036998
:1032D800DA0705D505F07EFF036923F001030361D2
:1032E800AB7C13B13046FFF791FE484605F059FF15
:1032F8001023C9F80030D9F8043043F00403C9F8A2
:1033080004302F460FCF04F174060FC63B683360B4
:10331800002626672B68002B5BD00FCB04F18805AD
:1033280085E80F006567A4F89860002851D0BFF3BE
:103338005B8F54E8003F44E80062002AF9D1BFF3EC
:103348005B8FD4F88800633046F1000164220023C3
:10335800FDF738FA0022CDE90001002304F1080046
:1033680004F0B6FB4FF0FF324FF0FF3304F1580082
:1033780003F0FCFB00B12067246F2FE7BAF1080FB8
:1033880025D80369DB0705D405F024FF036943F05A
:1033980001030361154B53F82A709BF92A30012B5E
:1033A8009ED1134B53F82AA0036903F01C039A45D6
:1033B80004D1036903F4F0739F4291D005F00AFF2A
:1033C800036947EA0A0723F4FE733B4387E7094981
:1033D800FFE6204605F0BFFEC4E700BFB8C40008FA
:1033E80070B50008CDC40008E0C40008C4B70008E0
:1033F800A0B7000805C5000838B5284B18680B8821
:103408001446C3F30B02062A0D4602D0092A1ED819
:1034180012B96FF085002BE0531E082BF9D801A2D2
:1034280052F823F06D3400088F3400085134000836
:10343800873400088B3400081B3400081B3400084C
:103448007B3400087B3400084FF4FA400AE002F6A7
:10345800B873C3F30B031C2BDBD8114A22FA03F30E
:10346800DB07D6D520602B68B3F5805F0ED200202D
:1034780038BD00F0E1F8062358434008F2E7094850
:10348800F0E70020EEE74FF40040EBE7C3F3133317
:103498000133B0FBF3F02060E9E700BF7C020020B5
:1034A800110111110024F40070B5604D05F036FFCC
:1034B800284605F032FF02F0CBFF4FF0B0435C4ADC
:1034C800D3F8083103F00F0352F823601368B0FBF8
:1034D800F6F6B5FBF3F5AE4202D2284603F02AF819
:1034E80005F095FE012809D04FF0B042136843F467
:1034F8008073136005F08BFE0128FBD14FF0B044B8
:10350800D4F8943043F00103C4F89430D4F89430DC
:103518009B07FBD5FEF70AF8D4F8903043F0010377
:10352800C4F890304FF0B043D3F890209407FBD5FF
:10353800D3F8902042F08002C3F890204FF0B044B6
:10354800D4F890301805FBD5FEF70EF8A36803F001
:103558000C030C2B1CD105F05AFE012807D0236858
:1035680043F48073236005F052FE0128FBD14FF02D
:10357800B0439A6822F0030242F001029A609A6806
:1035880002F00C02042AFAD19A6822F0F0029A603A
:103598004FF0B044236823F08073236023689901B7
:1035A800FCD4E36823F0606343F00073E360E368EE
:1035B80043F08073E36000F043F8236843F08073BE
:1035C80023604FF0B0431A689201FCD59A6822F044
:1035D800F0029A609A6842F003029A604FF0B04293
:1035E800936803F00C030C2BFAD1AE4202D32846A1
:1035F80002F0A0FF0F4B0D4A1A604FF0B0430020B5
:103608009A6822F4E0629A609A6822F460529A609A
:10361800D3F8082122F0F002C3F80821D3F80821D2
:1036280022F00F02C3F8082170BD00BF006CDC0255
:1036380078BB00087C020020004870470024F40092
:103648004FF0B0430549DA681140054A0A43DA6089
:10365800DA6842F08052DA60704700BF8C80FF1F42
:103668000206002008B5074807F0ACF838B106484C
:10367800FFF79AFA0448FDF74FFE002008BD6FF0E7
:103688001200FBE720B10008953600080A2838B573
:10369800074D044604D1AB680D215B68284698475E
:1036A800AB6803485B68E1B29847204638BD00BF65
:1036B80020B100082DE9F843D0F80480D0F8109024
:1036C800D8F8080017460D461E4605F014FDB7F554
:1036D800001F044616D12846D8F80840FFF782FB99
:1036E80084420CD1294605F006FD0446FFF716FB77
:1036F8002046FFF765FB00212046FFF719FB002055
:10370800BDE8F883B7F5800F20D0B6F1806F19D0E7
:10371800B6F1C06F18D0B6F1007F1AD10226104951
:103728004A462046FFF72CFBB0B9D8F808102846BF
:1037380005F0E4FC20463146FFF7FAFA2046FFF789
:10374800D5FADCE70126EAE70326E8E76FF085000B
:10375800D6E76FF01500D3E76FF00F00D0E700BF92
:103768009395000838B50369044658600A4D284601
:1037780007F028F860B1AB6861681B680C3123B1A9
:103788002846984700EAE07038BD6FF05700F9E71F
:103798006FF01200F8E700BF40B0000808B5044A0F
:1037A8000448012105F040FB6FF0040008BD00BF8C
:1037B8007AC5000888B5000898B542680369D268D8
:1037C80083F85E1000AF29B9136823F4401313601F
:1037D800BD4698BD6C468AB003686A460848D16100
:1037E800C2E905034FF400731384064B42F8103FF7
:1037F800054800234FF41151FEF79AF9A546E7E76B
:1038080098C500080400000188B50008F7B504460B
:10381800436806691C48DD680F4659688368DB6899
:10382800002201924BB9194A1948012105F0FCFA06
:103838006FF00404204603B0F0BD01AA98470028A1
:10384800F1DB376306F118074FF0FF324FF0FF3313
:10385800384603F08BF92B6823F001032B602046D0
:1038680096F85E10FFF7A8FF2046019900F004F9CA
:1038780096F85D3004461BB12B6843F001032B60BA
:10388800384603F039F9D5E740B00008ACC5000860
:1038980088B5000870B50446466805694FF0FF32E0
:1038A8000021284607F027F8336820469847002368
:1038B80085F85C3085F85E300122114605F1180064
:1038C80007F019F8224806F07DFF40B9214A22483E
:1038D800012105F0A9FA6FF01204204670BD2046B8
:1038E80000F048F833691D4A934224D018D81C4A7E
:1038F800934222D01B4A934221D001211A4A1648EA
:1039080005F092FA0021204641F01001FFF77EFFF2
:10391800041E18DA154A1048012105F085FADCE77B
:10392800134A93420DD002F5C31202F52062934266
:10393800E3D10A21E7E70621E5E70221E3E70421CD
:10394800E1E70821DFE7012385F85C300024C4E7BC
:1039580040B000087BC4000888B5000840420F004A
:10396800A0860100801A0600DAC50008F5C500081F
:1039780040E1330037B5456801AA6869002106F0BF
:103988001BFC041E07DB019B00221979186801F053
:1039980087FC041E08DA0D4A0D482346012105F06C
:1039A8004CFA204603B030BD0A48696883681B6832
:1039B8003BB9094A0648012105F036FA6FF00404BC
:1039C800EFE7984704460028EBD0F2E729C600083D
:1039D80090B5000840B0000847C6000830B5046933
:1039E8004068C0684568ED0107D543684A6823F414
:1039F8007F0343EA0243436030BD246B1D4D14F03E
:103A0800010F44682AD044F40064446044682C40A0
:103A1800234343600B7A9C0728D43AB313785B0797
:103A280024D4436843F0807343604368039A23F0C7
:103A380000734360436823F480631343436043681F
:103A48004A6823F47F0343EA02434360036843F070
:103A580001030360436843F40053CCE724F4006493
:103A6800446044682C4044EA4303D2E7436823F0A7
:103A78008073D9E700FCFFFF2DE9F84F4768D0F8BD
:103A88001090D7F80C80484A484B0C460025F96935
:103A9800A9420FD8D9F83030C3F34203012B45D0DF
:103AA800022B72D0424A4348012105F0BDF96FF05C
:103AB800150028E0D7F818B03F480C266E430BEBEA
:103AC800060ADAF80410814226D01ED83B48814203
:103AD80024D03B48814223D00121364805F0A4F97F
:103AE800314A324B0021D9F83000C0F34200B0EB24
:103AF800510F19D15BF80610A14215D1DAF8083038
:103B0800C8F810300020BDE8F88F2E48814209D04F
:103B18009942E1D10A21E6E70621E4E70221E2E73A
:103B28000421E0E70821DEE70135B0E741F25C2C2B
:103B38004FF47A6740F2E2464FF4FA75224B0221BD
:103B48004A1EB4FBF2F2B3FBF2F2B7FBF2F0013813
:103B5800FF2823D8BCFBF2FE0EF1FF3EBEF1FF0F9B
:103B68001CD8B5FBF2F9B9F10F0F17D8B6FBF2F272
:103B7800013A0F2A12D802394EEA094343EA01737F
:103B880043EA025343EA0023BAE740F2145C4FF4D5
:103B980016774FF4FA7640F27715CFE701311129FD
:103BA800CED10A4A7FE700BFDAC50008404B4C0077
:103BB80077C6000898B5000840420F00A0860100AB
:103BC800801A060040E1330000CA9A3BF2C600089A
:103BD800014803F0F3B800BFD800002008B505F08D
:103BE800BFFE024B1B68C01A08BD00BFC80C0020EE
:103BF800014807F023B800BF180300200A2307B5BF
:103C0800A0FB032300210020CDE90001024803F0B6
:103C18005FFF03B05DF804FB1803002008B505F04A
:103C28009FFE014B186008BDC80C0020014B1868A6
:103C3800704700BFC80C002010B5124CBFF35B8F53
:103C4800022354E8002F012A03D144E80031002957
:103C5800F7D1BFF35B8F0CBF0120002010D10A4BB6
:103C6800DB6A9847002344F8403CBFF35B8F54E875
:103C7800002F44E800310029F9D1BFF35B8F012000
:103C880010BD00BF100D002084B9000810B5064B08
:103C98005C68FFF7D1FF30B12CB100212046BDE8A8
:103CA800104003F0D5BF10BDCC0C002013B50D4B50
:103CB800D3E901433BB10C4B5B6B0193002002B08D
:103CC800BDE810401847FFF7B7FF40B13CB16FF0AF
:103CD8000401204602B0BDE8104003F0B9BF02B0AD
:103CE80010BD00BFCC0C002084B900082DE9F347B3
:103CF800284C9A46D4E9019307460D46164683B1E7
:103D0800254B00205B6B9847E368CDE900A32A4662
:103D1800D4F80880206833463946C04702B0BDE869
:103D2800F08704F144020223BFF35B8F52E8001FBF
:103D3800012903D142E800300028F7D1BFF35B8F97
:103D48009046EBD1E36C1A78AA4288BF1D70E36CE9
:103D5800A06C1A78394607F0AFF8236D03B11E80BE
:103D6800636D0BB183F800A00B4BDB6A9847002109
:103D78006160BFF35B8F58E8003F48E80012002AF3
:103D8800F9D1BFF35B8F484602B0BDE8F04703F0B6
:103D98005FBF00BFCC0C002084B90008F8B504460A
:103DA80000AF00680D4606F00DFD03462068BBB95C
:103DB8006C4688B001686A462748C2E905014FF495
:103DC80000719183254942F8101F25484FF4E251AC
:103DD800FDF7AEFE6FF01205A5462846BD46F8BDB4
:103DE800E38821792B43DD02D0F808E0D0F810C031
:103DF80006D513F4402F03D0DA0748BF83F44023D5
:103E0800DCF80050012623F480128E40DB074CBFFB
:103E18003543B543CCF80050DEF8003098470546E6
:103E28000028DAD02368196823796C468AB06A4674
:103E38000C48C2E907354FF4007393840A4BC2E972
:103E4800050142F8103F064800234FF43151FDF7B1
:103E58006FFEA546C1E700BF25C7000803000001A3
:103E680028B600083EC700080500000170B50D46D9
:103E78000F49BFF35B8F012051E8004F002C03D19D
:103E880041E80006002EF7D1BFF35B8F0CD1094E35
:103E980041F8403CD4B2736D214698472846B36A2E
:103EA80021469847002070BD6FF00F00FBE700BF68
:103EB800100D002084B900082DE9F0474FF00008E4
:103EC8008EB005AC264F81468A46164641461022DA
:103ED80009A80125CDE90544CDE9078806F0FAFFD0
:103EE8008DF831507B6B0D94002B35D0234632462C
:103EF80051464846FFF7BAFF041E29DBF6B2CDE962
:103F080001860395BB8F174C009397F83A3097F8C2
:103F1800392097F83810646A2846A0470A23A84031
:103F2800A0FB0323294609A803F03AFE041E0FDA72
:103F38000D4A0E48294604F077FFFFF77DFE38B991
:103F48004FF0FF324FF0FF33294609A803F028FE4F
:103F580020460EB0BDE8F0876FF01504F8E700BF03
:103F6800CC0C002084B900085EC7000828B60008F9
:103F7800F0B58DB000248DF8072003AE0F4610224F
:103F8800214607A8CDE90366CDE90544012506F0D9
:103F9800A1FF274B8DF829500B96BFF35B8F53E891
:103FA800002FA24203D143E800510029F7D1BFF303
:103FB8005B8F39D10DF1070243E910649A601D4EF9
:103FC800149ADA60159A1A615F60FF21736D2846AA
:103FD8009847736B20469847DDE91223294607A8BE
:103FE80003F0DEFD041E15DAFFF726FE50B94FF088
:103FF800FF324FF0FF33294607A803F0D1FD9DF8A3
:10400800074004E00C4A0D48032104F00DFF204648
:104018000DB0F0BD069B002BF1DA094A0748294686
:1040280004F002FF069CF2E76FF00F04EFE700BF11
:10403800100D002084B900087AC7000828B60008C7
:104048008AC7000810B529B9FFF7F6FDD8B96FF08F
:10405800150010BD0E4BBFF35B8F012053E8004FD6
:10406800002C04D143E8000CBCF1000FF6D1BFF3DB
:104078005B8F0AD1074C43E90F12636DFF21984704
:10408800636B002098470020E3E76FF00F00E0E73C
:10409800100D002084B90008F0B52C4DBFF35B8FDC
:1040A8008BB00C46012755E8003F002B03D145E8AB
:1040B8000072002AF7D1BFF35B8F43D1244E2068EA
:1040C800F3689847E37A4BB32346103D04F1100791
:1040D800186859682A4603C20833BB421546F7D107
:1040E8004FF47A63089300220120237B0793CDE9DC
:1040F8000522CDE9032023890293A37901936379EB
:104108000093F569237994F90A10A847B36D607B89
:104118009847FFF791FD00200BB0F0BD0997227B6F
:10412800B569CDE90732CDE90533CDE903330A2274
:1041380002922289CDE900323846A3796279217941
:10414800A847E3E76FF00F00E6E700BF100D002077
:1041580084B9000838B5084611461A460B4BBFF318
:104168005B8F012453E8005F002D04D143E8004C25
:10417800BCF1000FF6D1BFF35B8F04D1044BDB6BAE
:104188009847002038BD6FF00F00FBE7100D0020A6
:1041980084B9000838B5114BBFF35B8F002453E88E
:1041A800002F43E800410029F9D1BFF35B8F0C4988
:1041B80043F8341C0B490C4D43F82C1C0B4943F8AD
:1041C800241C0B4943F8301C2A6843F8440CA3F11B
:1041D80034009047EB6A9847204638BD100D002000
:1041E800953C0008F53C000884B90008B53C000877
:1041F800AD99000802460521014805F0D5BB00BF6E
:10420800C0B0000802460421014805F0CDBB00BF3C
:10421800C0B00008024A0348022104F005BE00BFEE
:10422800A6C7000820B6000810B50B4CE3691BB9F7
:10423800BDE81040FFF7EEBF00209847074B1B6E04
:1042480003B1984794F8203023B1BDE810400248E4
:1042580000F020B910BD00BF240D002084B900086B
:1042680070B54FF4B011466805461E48FFF796FD35
:1042780018B16FF00404204670BD1B484FF4B0110C
:10428800FFF78CFD0028F4D11849194806F055FBB2
:10429800284600F009F9044628B1164A16480121B3
:1042A80004F0C2FDE7E7306806F08CFA38B9134A23
:1042B8001148012104F0B8FD6FF01204DBE7F06843
:1042C80018B106F07FFA0028F1D02846FFF762FF00
:1042D800051ED0DA0A4A0848012104F0A5FD2C463B
:1042E800C9E700BFA0B8000898B800083142000824
:1042F800300D0020D5C7000820B60008F3C7000815
:1043080008C80008014B93F820007047240D0020CE
:1043180008B503461048042B80F8203011D005D882
:10432800BBB10020FFF766FF00200EE0053B022B23
:10433800F7D80020FFF766FFBDE808400120FFF727
:1043480059BF0020FFF756FF0120BDE80840FFF7DE
:1043580059BF05F0FBFBE4E7240D0020014BD861B1
:10436800704700BF240D002010B5044C204605F00E
:10437800D2FB012384F8203010BD00BF240D00209B
:1043880010B5054C204600F07DF800B910BD00219D
:104398000A2006F0A7FBF5E7240D002070B58CB0C5
:1043A8000D46DDE91061CDE9063104ABCDE9040223
:1043B800CDE90852009308AA02230446CDE90A6110
:1043C800CDE90223019305F037FC0F48ADB9A6B932
:1043D80083680E491D686A463346A8470028034685
:1043E80004DA0B4A0B48012104F027FD2378842BBB
:1043F80001D0FFF7C5FF0CB070BD836803491D6885
:10440800014802AB6A46E8E780B1000884B80008B2
:104418002BC8000820B6000870B5124D86B0284693
:1044280000F038F8C023ADF8043001AB0293022342
:104438000393012402AB049305940B480B4983684A
:1044480004AA1E680023B047031E06DA084A094872
:10445800214604F0F2FC06B070BDFFF791FF85F825
:104468002040F8E7240D002080B1000884B8000837
:104478002BC8000820B60008014805F065BB00BF3E
:10448800240D0020024B5869C0F34000704700BF5C
:1044980000040058034B4FF48022C3F884213220D3
:1044A800FEF72EB900E100E0002208B511463220DF
:1044B800FEF748F9054AD2F8903043F48053C2F821
:1044C80090303220FEF71CF9002008BD0008005883
:1044D800044A13680BB1002159724361106005F05A
:1044E80064BB00BF480D002037B5044601A805F09D
:1044F8004AFA6CB1174D2A68134673B9636823608A
:10450800012323816AB9FFF789FB2046FFF7E0FF03
:1045180001A805F041FA03B030BD9C42F8D05B69B0
:10452800EBE7FFF75BFB236818442B6820601A68E9
:104538009042EAD35A69596911B95C616161E7E748
:104548001168884202D913465269F4E75C616261D6
:10455800DEE700BF480D0020F8B5FFF767FB1C4CED
:104568000546FFF75BFB2368A3B1471B1E462D1AC0
:10457800716929B95A692260DA68197242B9FEE785
:104588000A68BA428CBF521900220A607669EFE7BE
:1045980018699047002623682BB9206880B9F8BDB0
:1045A80018699047F7E71D68FFF718FB8542F4D2B2
:1045B80023685A692260DA681E72002AF0D1FEE781
:1045C800437A002BEBD1BDE8F84005F0EEBA00BF06
:1045D800480D002037B5134D044601A805F0D3F95E
:1045E8002B686BB164B10022A342227211D1597AAF
:1045F8005C6961B15A7244B120462C6005F0D5FA65
:1046080001A805F0C9F903B030BDFFF7F1FA2C6035
:10461800F6E71A465B69002BF2D09C42F9D1636930
:104628005361EDE7480D002007B5074B1B7840BAEA
:10463800ADF804002BB9022201A940F2BC6005F0D4
:104648001FFA03B05DF804FBDF0E002007B5074B27
:104658001B7840BAADF804002BB9022201A940F238
:10466800BE6005F00DFA03B05DF804FBDF0E002014
:1046780010B50C4B1B7804469BB94FF4D76005F076
:1046880034FAC4F3002100F0FE0001434FF4D76070
:1046980005F00AFAE1B240F2B960BDE8104005F051
:1046A80003BA10BDDF0E002013B5044605F08DF9DE
:1046B80004F0070314F004048DF8073008BF084B12
:1046C8004FF001020DF107014FF0840008BF1C7084
:1046D80005F0B6F90020FFF71BFE02B010BD00BFC1
:1046E800DD0E002010B50446FFF73EFE2046FFF71A
:1046F80035FEFFF791FE002005F0BDFA05F06AF9D6
:1047080005F074F9034B00221A70BDE8104001202F
:10471800FFF7FEBDDD0E0020134B984207B50BD9FD
:104728004EF6E113ADF80430022201A9982005F0F5
:1047380087F903B05DF804FB0C4B984202D94DF69B
:10474800D733EFE70A4B984202D94CF2C153E9E755
:10475800084B984202D948F27513E3E7064B984292
:10476800E2D946F66B73DDE700E9A43580F8A93293
:104778008044E52D000B6B1B40FC541937B5104DD8
:104788002B7804461BB9FFF7C7FF01232B7043F6AC
:10479800095241F68463B4FBF2F102FB114403EBC6
:1047A8008433B3FBF2F3042203EB81331BBA0DEB22
:1047B80002018620019305F043F903B030BD00BF24
:1047C800DD0E002007B5064B8DF807001870012292
:1047D8000DF107018A2005F033F903B05DF804FBF9
:1047E800DF0E0020014B1878704700BFDF0E002055
:1047F80013B5224A0446516810686B4603C3204B20
:1048080020781B78834201D0FFF7DCFF23781BB1A7
:10481800012B2ED002B010BD62681A4BB3FBF2F325
:104828001A0C8DF800201A0A8DF801208DF8023034
:10483800A268237B8DF8033043F60951637BB2FBF2
:10484800F1F08DF8043001FB102241F6846303EB8C
:104858008233B3FBF1F303EB80331A0C5BBA8DF8A8
:104868000520ADF80630082269468B2005F0E8F8E7
:10487800D0E7236900930422F6E700BF74B6000866
:10488800DF0E00200000093D1FB52B4A0446D16801
:104898009068127C01AB03C31A70284B20781B78F0
:1048A800834201D0FFF78EFF23781BB1012B31D053
:1048B80004B010BD637AF12B20D14FF6FF70FFF7DB
:1048C800B3FE48F20500FFF7C1FE02236288A18803
:1048D800ADF8061052BAE188ADF804208DF80B3017
:1048E800227AA37A8DF80A20ADF808108DF80C30DA
:1048F800092201A98C2005F0A3F8D9E7F22BE5D10C
:1049080041F60F50FFF790FE41F22100FFF79EFE9F
:104918000623DBE7A3890A4A5BBAADF80430A37B18
:1049280013708DF80630E37B8DF80730238AADF8D5
:1049380008300622DDE700BF74B60008DF0E00204D
:10494800DE0E002037B505460C46022201A91320C9
:1049580005F084F80A4B1B78012B0DD1094B1B7805
:10496800012B09D140F2027005F0BFF89DF805301F
:104978002870237003B030BD9DF80400F6E700BF2F
:10498800DF0E0020DE0E002013B50322044601A925
:10499800142005F063F8184B1A7822704AB1012ADE
:1049A80017D013220021601C06F094FA0F232370FD
:1049B8000DE09DF8043023719DF80530A2605B423C
:1049C8005B10A3719DF806305B425B10637102B007
:1049D80010BD9DF804305B425B1023739DF90530D0
:1049E80002339B1063739DF806305B425B10A37320
:1049F800024B1B682361EAE7DF0E00204C0D002004
:104A0800034B1B6813B15B6803B11847704700BFBD
:104A1800740E0020034B1B6813B1DB6803B1184701
:104A2800704700BF740E0020014B01221A707047B6
:104A3800E20E002008B5FFF765FC0438C0B2032871
:104A480096BF024B0020185C08BD00BF55C800087F
:104A580038B50C46002340F201211A46054608469F
:104A680005F033FAFFF7BEFE0C4B01280C480CBFCB
:104A780083F8C74083F8C040FFF706FF2146284661
:104A8800002205F020F9074B0748196805F0ABF834
:104A9800BDE838400448FFF727BD00BF800D00205F
:104AA800380E0020900E0020680D002038B50D4605
:104AB8001446FFF763FE2846074D04F09AFF05F0F9
:104AC80096F94FF47A712846614305F08CF8284628
:104AD800BDE83840FFF708BD680D002073B5574D95
:104AE80001A804F050FF2C78002301A82B7004F0D3
:104AF80053FF002C61D005F0FDF9044605F09DFA3E
:104B080001A804F040FFFFF7B7FC012808BF287090
:104B180001A804F041FFE5070BD54948FFF75AFD06
:104B28000120FFF7F5FB474B1B6813B11B6803B166
:104B38009847A00711D54448424EFFF74BFD14F0A3
:104B4800400F424B3BD01B7813B90120FFF7E0FB25
:104B5800336813B11B6903B1984721060AD50120B0
:104B6800FFF7D6FB374B1B6823B19B6913B1C4F31E
:104B780000209847A2050FD5FFF7C4FB04284CD1A5
:104B88002F48FFF727FD0120FFF7C2FB2D4B1B68BD
:104B980013B15B6803B19847A3060ED52A48FFF7FF
:104BA80019FD2A4B1B7813B90120FFF7B1FB254BE0
:104BB8001B6813B1DB6803B1984702B070BD1D785C
:104BC80095B90120FFF7A4FB294640F6021004F02E
:104BD8006BFF40F6441004F088FF40F00201C9B2B0
:104BE80040F6441004F060FF194D1A48FF220DF1F9
:104BF800030105F009FA2846FFF7C6FE3368002BC3
:104C0800ABD09E68002EA8D095F90D3095F90C20F0
:104C18009DF803100F48B0479FE7FFF773FB05287F
:104C2800BAD10948FFF7D6FC0120FFF771FB054B05
:104C38001B68002BB0D0DB68ACE700BFE20E002099
:104C4800680D0020740E0020500D0020E20F002097
:104C5800780E0020E30E002010B590B10A4B012217
:104C680019461C68A04206D39C68A04203D201EBF7
:104C7800C201087910BD0132162A03F10803F0D1E8
:104C8800FEE71F20F6E700BFD4B80008012809484E
:104C980006D1094B80F8C7101970B830FFF7F4BD7A
:104CA80090F8BF30012B04D1034B80F8C010197065
:104CB800F3E77047800D0020B002002000234FF674
:104CC800FF7110B51A460446084605F0FEF834B1DF
:104CD8000948214604F087FF0748FFF705FC074B02
:104CE8001B782BB16FF07F40BDE8104004F0F4BF93
:104CF800034B18688001F7E7500D0020E20F0020F1
:104D08008C0E002000234FF6FF7110B51A4604469A
:104D1800084605F0DAF834B10948214604F063FF83
:104D28000748FFF7E1FB074B1B782BB16FF07F407B
:104D3800BDE8104005F01DB8034B18688001F7E77F
:104D4800500D0020E20F00208C0E0020F0B5BDF8B9
:104D580014409DF818C09DF81CE09DF8205040B103
:104D6800012814D00122002398180138B0FBF2F072
:104D7800F0BD8CF0010CE30003EBCC0318330EEB11
:104D8800450503EBC5034FF47A714B43ECE7501F1D
:104D9800012803F1040304D80C2C38BF0C24002785
:104DA80006E0C1B9A2F10B07012F8CBF002701272C
:104DB8002801BCF1000F00EBCE000CBF1425002524
:104DC800A0EB8200062A4FEA82062844A2F1020CD0
:104DD80008D835460BE00129E1D1A2F10C00474281
:104DE8004741E5E70830002FF3D04FEA8C0500284B
:104DF800ACBF2E182E1C701E90FBF5F003FB004470
:104E0800094B062A5A5C8CBF0C340E340A2A0AD87D
:104E1800A30001334FF47A7103FA0CF34B430349AF
:104E280051F82220A0E7FFDE59C80008A8B80008FA
:104E38000D4B10B504461870587000F017F85CB1A7
:104E480034214FF4E86004F02FFE4421BDE81040FF
:104E580040F2417004F028BE14214FF4E86004F0D9
:104E680023FE2421F2E700BFE00E002008B5012050
:104E7800FFF7A8FC054B18785A78824204D058707E
:104E8800BDE80840FFF7D4BF08BD00BFE00E002012
:104E9800012808B506D00020FFF794FC034B002238
:104EA8005A7008BDBDE80840FFF7E0BFE00E0020DB
:104EB8002DE9F04F85B089469DF84C1000919DF87A
:104EC8005C109DF844A0BDF84070694CDFF8A4B1AF
:104ED800BDF83C602170002918BF0027BAF1000F07
:104EE80015469DF8482008BFFF228BF80020804611
:104EF80020B1012854D005B0BDE8F08F5E4C04F015
:104F080081FF0B234FEA490084F8EC3084F8E080F5
:104F1800C4F8E450FFF7A0FE41F60403A4F8BC303F
:104F28009BF8003084F8C030009B84F8ED00002B1B
:104F38000CBF0123F22384F8C130F60001238AF064
:104F4800010A84F8C23084F8B880A4F8BA6084F8FA
:104F5800BE8084F8BFA005F07EF894F8E000003821
:104F680018BF0120FFF794FF04F1E000FFF740FCB1
:104F780004F1B800FFF788FC404A1068516802AB9A
:104F880003C302A804F06EFE40F2FF10FFF770FBA7
:104F98004FF4FA537B43B3FBF5F3394A1360AAE79E
:104FA8000020354C019304F02DFF3649019B11F880
:104FB800091084F8E080EAB284F8F020B9F1000F13
:104FC80045D10B3D012D8CBF00250125053A012A4D
:104FD80002D80C2E38BF0C2684F8F230012384F84E
:104FE800B8309BF8003084F8C730009B84F8C8308C
:104FF8009DF8583084F8C93084F8F11084F8F350DB
:10500800A4F8C46084F8C6A005F025F894F8E00078
:10501800003818BF0120FFF73BFF1B48FFF7E8FBEC
:105028001A48FFF731FCF8B204F0F8FE94F8C930DA
:10503800012B40F2367014D104F057FD00F0FB014B
:1050480040F2367004F030FD4FF6FF73A5E7B9F172
:10505800010F04D1A5F10C0045424541B6E70025F2
:10506800B4E704F042FD40F00401C9B2E8E700BF2C
:10507800E20F0020B0020020800D002085B6000855
:105088008C0E002059C80008600E0020380E002041
:105098002DE9F74F0C9DBDF838709DF83C909DF8B0
:1050A80040A088469346064648B101284DD040F6B0
:1050B800890004F01AFD40F00401C9B28DE0524C99
:1050C8000B2284F8E000580084F8EC20C4F8E4507F
:1050D800FFF7C2FD41F60403BAF1000FA4F8BC3093
:1050E8000CBF0123F22384F8C130FF00012389F0AB
:1050F800010984F8C23084F8ED00C4F8E8B084F8F7
:10510800B860A4F8BA7084F8BE6084F8BF9004F060
:10511800A2FF94F8E000003818BF0120FFF7B8FE9E
:1051280004F1E000FFF764FB04F1B800FFF7ACFB03
:10513800364A106851686B4603C3684604F092FD0E
:1051480040F2FF10FFF794FAB1E72F4C304984F88A
:10515800E000EAB2C95C84F8F020002B4AD10B3D8C
:10516800012D8CBF00250125053A012A02D80C2FF4
:1051780038BF0C279DF8343084F8F230012384F8C6
:10518800B830244B84F8F1101B7884F8C7309DF8A8
:105198004C3084F8C93084F8F350A4F8C47084F80B
:1051A800C69084F8C8A004F056FF94F8E0000038D0
:1051B80018BF0120FFF76CFE1748FFF719FB1748C7
:1051C800FFF762FB94F8F130062B7FF470AF40F6DE
:1051D800890004F08AFC00F0FB0140F6890004F025
:1051E80063FC404604F005FC149A0D4B1A6003B0AA
:1051F800BDE8F08F012B04D1A5F10C035D425D41A0
:10520800B2E70025B0E700BF800D002085B6000892
:1052180059C80008B0020020600E0020380E002097
:10522800900E002008B5174B18601748FFF75AFA78
:10523800002004F020FD012004F01BFE0021084698
:1052480004F0C8FE0421002004F081FE00234FF67C
:10525800FF711A46084604F038FE40F6AC0004F028
:1052680076FF40F6890004F072FF0849084804F008
:10527800B2FC0849084804F0AEFC084B00221A703A
:1052880008BD00BF740E0020314A0008094A000812
:10529800680D00201D4A0008500D0020E20E002075
:1052A8002DE9F0471E4F044600EBC1060025B44225
:1052B80001D1002014E02068C30600F01F0911D4B2
:1052C800656845F02005C0F3481AC0F3442010284B
:1052D80023D857F82080B8F1000F0DD16FF01200D5
:1052E800BDE8F087B9F1100F04D0B9F1110FEAD178
:1052F8006568E8E73025E6E7404605F063FA0028E8
:10530800ECD04B462A460AF00F01404604F053F908
:10531800002804F10804CADAE2E76FF01500DFE7B5
:10532800F0B900080C292DE9F84F164669D14468F0
:10533800D0F810B0A368D4F80490B3F800A023699B
:10534800E7681D88DBF800309B681889FAF7A6FF24
:1053580080462068FAF7A2FF01464046FBF7AAF804
:105368008046BBF93A00FAF79DFF01464046FAF736
:10537800EDFF1FFA8AFA80462AFA09F0FAF78EFF3B
:1053880001464046FAF7D8FE80466069C01BFAF726
:1053980089FFADB2A5EB0A05044625FA09F0FAF72C
:1053A8007DFF01462046FBF785F801464046FAF79F
:1053B800CDFF04463846FAF775FF01462046FAF74E
:1053C800BDFE4FF04F410546FBF75EF9E0B94FF0DF
:1053D8009E412846FBF76CF90446A8B92846FBF716
:1053E8007BF93060FAF75EFF01462846FAF7A4FE1B
:1053F8000749FAF7ABFFFBF76FF970602046BDE885
:10540800F88F6FF08500FAE76FF02100F7E700BF2B
:1054180000247449F8B54029056901D00C293BD10D
:1054280005F124064FF0FF324FF0FF33304601F00C
:105438009BFA294651F8040B83681B689847044671
:1054480028BB174FD7F80837D7F8082703F0E073B9
:1054580022F0E072134343F40003C7F808377820BA
:1054680005F068FB294651F8100B83685B6898477C
:10547800044608B92B8F6B87D7F80837D7F8082761
:1054880003F0A07322F0E0721343C7F808373046E0
:1054980001F0E2FA2046F8BD6FF08504FAE700BF94
:1054A80000200140B0B5046900AF04F1240005F004
:1054B8001BFA206805F086F90346B8B922686C46DD
:1054C80088B011686A461448C2E905014FF40071B2
:1054D8009183124942F8101F11484FF4E251FCF72A
:1054E80027FB6FF01200A546BD46B0BD237A012503
:1054F80003F01F031422002104F110009D4005F061
:10550800E9FC04F13803A3610223E3610C2365611C
:1055180084F820300020E7E76DC800080300000188
:1055280008B60008F8B54029056901D01F2938D107
:1055380005F124064FF0FF324FF0FF33304601F0FB
:1055480013FA294651F8040B83681B6898470446E8
:1055580010BB154FD7F80837D7F8082703F0E073C2
:1055680022F0E072134343F080732946C7F80837E6
:1055780051F8100B83685B689847044608B92B8F6D
:105588006B87D7F80827D7F8083702F4400223F0CA
:10559800E0731343C7F80837304601F05DFA204638
:1055A800F8BD6FF08504FAE700200140B0B5046942
:1055B80000AF04F1240005F097F9206840B91C4AAF
:1055C8001C48012103F030FC6FF01200BD46B0BD4D
:1055D80005F0F8F80346A0B922686C4688B011684F
:1055E8006A461548C2E905014FF4007191831349D1
:1055F80042F8101F0F484FF4E251FCF799FAA546FC
:10560800E2E7237A012503F01F031422002104F1A5
:1056180010009D4005F05EFC04F13803A3610223ED
:10562800E3610C23656184F820300020CEE700BFD9
:1056380097C8000810B600086DC8000803000001EC
:1056480008B5044A0448012103F0EEFB6FF03C0062
:1056580008BD00BFB5C8000818B60008F8B540294D
:10566800056901D01F293BD105F124064FF0FF320F
:105678004FF0FF33304601F077F9294651F8040B13
:1056880083681B689847044628BB174FD7F8083724
:10569800D7F8082703F0E07322F0E072134343F4CD
:1056A8008003C7F808370C2005F044FA294651F85A
:1056B800100B83685B689847044608B92B8F6B8783
:1056C800D7F80827D7F8083702F0C07223F0E0733C
:1056D8001343C7F80837304601F0BEF92046F8BD35
:1056E8006FF08504FAE700BF00200140B0B50469F7
:1056F80000AF04F1240005F0F7F8206805F062F81F
:105708000346B8B922686C4688B011686A461448DE
:10571800C2E905014FF400719183124942F8101F44
:1057280011484FF4E251FCF703FA6FF01200A54656
:10573800BD46B0BD237A012503F01F0314220021C2
:1057480004F110009D4005F0C5FB04F13803A36186
:105758000223E3610C23656184F820300020E7E729
:105768006DC800080300000118B60008012912D00E
:10577800022907D089B90068094BC01A18BF01204F
:10578800000370470068064B984214BF4FF440501E
:105798004FF400507047002070474FF40050704796
:1057A8000080004070B51D46094B002633F81220D2
:1057B8003346FBF707F8090241EA10616C0800025A
:1057C80020182A46334641F10001FAF7FBFF70BD65
:1057D800F0BB00082DE9F04383B002694368064630
:1057E80010681D680C46D9688368DB6800AF43B948
:1057F800334A3448012103F017FB0C37BD46BDE896
:10580800F0833A1D98470028F2DB2F4B9D4248D180
:10581800D7F80480DFF8B49000252346AAB24046A2
:105828000021FFF7BFFFA0F54070484518D90135A2
:105838000C2DF2D16D468AB033686A462449D4618A
:10584800C2E905134FF400731384224B42F8103F4A
:105858001C4800234FF41151FCF76AF9AD46CCE718
:10586800194EF36A23F00F032B43F362002CC4D0C4
:10587800194B33F81520002319464046FAF7A2FFC2
:10588800090241EA106163080002C01822464FF07D
:10589800000341F10001FAF795FFC0F31300F0602F
:1058A800ABE72B6823F400432B607B68002CA4D063
:1058B80003EB5403B3FBF4F39BB2EB609DE700BF2B
:1058C800ACC5000830B6000800800040FFFC0F009F
:1058D800E4C8000804000001F0BB00082DE9F84303
:1058E80006460A794068336904685F68012A0D46EC
:1058F8004CD0931ED3F1000848EB03084FEA8828E0
:105908006979FFF733FF95F80690B9F1020F03465E
:105918003FD0B9F1040F40D0002A48D0033A012AF9
:105928003DD94FF48050B3F5805F42D0B3F5405F66
:1059380041D0002B0CBF0123032399422FD14146AC
:1059480004F0CEFC81452AD1EB7963B1012B34D127
:105958001B4B9C4207D0A3F574439C4203D003F52C
:1059680070539C421BD1236823F00103236029460E
:10597800304604F06BFD236843F00103236095E88B
:10598800030087E803000020BDE8F8834FF4C068EF
:10599800B6E73AB94FF08050C5E7002AC1D06FF09A
:1059A8008500F1E7033A012AF9D90020BBE7104640
:1059B800B9E70023C1E70223BFE7032BC8D0EEE70E
:1059C800003801402DE9F04182B004694568064677
:1059D8006148206000AF04F0F5FE38B95F4A6048BE
:1059E800012103F021FA6FF012040BE02068E96846
:1059F80083681B685BB95B4A5948012103F014FAB4
:105A08006FF0570420460837BD46BDE8F081984737
:105A18000446E8B9286A3A1D002104F0CDFB041EAB
:105A2800F0DB7B68002219791868FFF739FC041E3F
:105A3800E8DB756833692C68D3F80480236823F0A1
:105A480001032360686804F0BDFE48B9464AC6E70A
:105A5800444A4348012103F0E7F9002CD2DBD9E797
:105A6800D5E901018368DB6803B1984754E8003F32
:105A780043F00C0344E80032002AF7D1414630468F
:105A880004F0E4FC2B7D1BB1A36843F00803A3607A
:105A98006B7D1BB1636843F400436360AB7D1BB14E
:105AA800636843F480336360EB7D1BB1636843F440
:105AB800003363602B7E002B3BD02C4B9C421ED0C6
:105AC800A3F574439C421AD003F570539C4216D038
