:020000040800F2
:10000000401E0020C91E000823720008B51E00080B
:10001000B51E0008B51E0008B51E0008000000004F
:10002000000000000000000000000000891F000820
:10003000B51E000800000000291F0008614C0008E0
:100040000121000801210008012100080121000808
:1000500001210008012100080121000801210008F8
:1000600001210008012100080121000801210008E8
:1000700001210008012100080121000801210008D8
:1000800001210008012100080121000801210008C8
:1000900001210008012100080121000801210008B8
:1000A00001210008012100080121000801210008A8
:1000B0000121000801210008012100080121000898
:1000C0000121000801210008012100080121000888
:1000D0000121000801210008012100080121000878
:1000E0000121000801210008012100080121000868
:1000F0000121000801210008012100080121000858
:100100000121000801210008012100080121000847
:100110000121000801210008012100080121000837
:100120000121000801210008012100080121000827
:08013000012100080121000873
:1001380053B94AB9002908BF00281CBF4FF0FF3146
:100148004FF0FF3000F00CB8ADF1080C6DE904CEAB
:1001580000F010F8DDF804E0DDE9022304B0704790
:10016800704700BF034613F8012B002AFBD1181A69
:10017800013870472DE9F04786468C460846089EA8
:10018800154674461946002B40F0C2808542B2FAE3
:1001980082F245D94AB1C2F1200300FA02FC2EFAD4
:1001A80003F3954043EA0C0C94404FEA154EA8B26D
:1001B800BCFBFEF8230C0EFB18CC08FB00F943EA45
:1001C8000C43994528D9EB1808F1FF3704D2994513
:1001D80002D9A8F102072B44A3EB0903A4B2B3FB8D
:1001E800FEFC0EFB1C330CFB00F044EA0344A04267
:1001F80014D92C190CF1FF3304D2A04202D9ACF166
:1002080002032C44241A43EA07401EB1D4400023B9
:1002180034607360BDE8F0874746DDE76346F1E781
:1002280092BB431B01214FEA154EAFB2B3FBFEFC54
:10023800200C0EFB1C330CFB07F840EA03439845DF
:1002480062D9EB180CF1FF3004D2984502D9ACF111
:1002580002002B44A3EB0803A4B2B3FBFEFC0EFB85
:100268001C330CFB07F744EA0344A7424ED92C1968
:100278000CF1FF3304D2A74202D9ACF102032C449B
:10028800E41B43EA0040C0E7C2F1200320FA03F16F
:10029800954090402EFA03F303434FEA154EAFB250
:1002A800B1FBFEFC0EFB1C10190C0CFB07F841EA15
:1002B8000041884504FA02F422D969180CF1FF308C
:1002C80004D2884502D9ACF102002944A1EB080107
:1002D8009BB2B1FBFEFC0EFB1C110CFB07F743EABB
:1002E80001439F420ED9EB180CF1FF3104D29F4213
:1002F80002D9ACF102012B44DB1B41EA004192E731
:100308006046E3E76146F7E76046A3E76346B7E779
:10031800834206D916B9002108467BE7C6E900E002
:10032800F9E7B3FA83F78FB9834201D3724508D846
:10033800BEEB020460EB030301209C461EB90021BA
:1003480068E73846FAE7C6E9004CF8E7C7F1200C39
:10035800BB4022FA0CF41C432EFA0CF120FA0CF3E1
:10036800B84001434FEA14490EFA07F5B3FBF9F810
:100378001FFA84FE09FB18300B0C08FB0EFA43EA3F
:1003880000439A4502FA07F240D9E31808F1FF3012
:1003980004D29A4502D9A8F102002344A3EB0A0328
:1003A80089B2B3FBF9F809FB183308FB0EFE41EAE2
:1003B80003418E452CD9611808F1FF3304D28E45CC
:1003C80002D9A8F10203214443EA0040A0FB0298A5
:1003D800A1EB0E014145CE46434602D306D14D4519
:1003E80004D2B9EB020E68EB04030138002EA6D044
:1003F800B5EB0E0261EB030101FA0CFC22FA07F3DC
:100408004CEA0303F940C6E9003198E74046C5E7DE
:100418004346D9E72DE9F04182B0054602AF0E46C2
:10042800144697F9182000921648174A032106F037
:1004380032FEE84688B002AA144B5361144B93610C
:100448004FF4007393832105124B42F8103F41F497
:10045800E6510C48334600F0BDFF0F4A13680133DC
:100468000A2BC54613600AD10C4A0648032106F038
:10047800FFFDAB6800221B69114628469847BD4618
:10048800BDE8F08178900008789500080B9D000879
:100498009995000803000001E8080020A9950008C4
:1004A8002DE9F04FCDB004AF0021FB2207F1240065
:1004B800396208F038FB474D284608F035F80346FE
:1004C800C0B96C4688B0296804AA4348C2E9050146
:1004D8004FF400719183414942F8101F40484FF48E
:1004E800E25100F077FFA546002007F59277BD4658
:1004F800BDE8F08F3B4B3B614FF4E063BB823A4B66
:10050800BB614FF48073BB830124AB68BC751B6867
:1005180007F1100128469847002805DA334A304881
:10052800012106F0A5FDDFE7314A2D48032106F039
:100538009FFD04264FF0FF384FF0FF39AB687B6012
:1005480007F10D0A07F10E0BCDE90089CDF80CA0D3
:10055800CDF808B07B68FF22DB6807F12001284648
:100568009847041E01DA234AD9E7BBF900309AF903
:1005780000201B48009203211F4A06F08CFDEA4622
:1005880088B004AA1D4B53611D4B93614FF400734F
:1005980093832105114B42F8103F41F4E65110486E
:1005A80007F1200300F016FF013ED546C6D1154AD3
:1005B8000B48032106F05CFD7B6813491B6905485D
:1005C800324698474FF0FF314FF0FF3008F0D7F828
:1005D8008AE700BFAC8D0008C4950008030000013D
:1005E80078900008A027BE330C000E00D8950008AC
:1005F800EB95000801960008789500080B9D000807
:1006080099950008159600081D0400082DE9F04F7B
:1006180091B08407009302F004030293C2F3C2036B
:1006280003F10103DDF86880039205460E46059341
:1006380040F0BA81041D30B1072909D86FF01B00BA
:1006480011B0BDE8F08F01F007063444C6F1080682
:10065800009B4FF00009591E4FF0040A4FF0FF337A
:100668000193CDF810904F46CB4653460DB1009AF2
:1006780022600598002800F3E8809848009A824292
:1006880003D397488242C0F0E080039AA4EB050E9A
:1006980092074FEA9E0000F103810F2F00F2B1800C
:1006A800002D00F0058107F140020DEB020C019AC4
:1006B8000CF8200C0CF8102C049801300490E7E09A
:1006C8007A285DD84B280ED8472859D829282DD8FC
:1006D800252852D054D820287AD02338D0F1000BBE
:1006E8004BEB000B74E04C382E2849D8DFE800F0BB
:1006F8007048484848484848484848484B48484847
:10070800484848484859484B4B595959704B6D48C7
:100718007048184B184848827F4B48484B487F0020
:1007280000204FF0000B4FF0040A38E02A38C0B21E
:10073800012202FA00F010EA0E0F49D110F0625CB3
:100748002FD110EA020B43D06046013C5444B4FB5D
:10075800FAF40AFB04F4002D61D0A3EB050CA444C1
:10076800B4453FF66BAF002868D1042B47D158F841
:10077800043B2360043404232AE0019A013A0192DD
:100788004FF0000B24E011F8010C6C2834D111F85B
:10079800023C00206C2B8346C5D14FF0080A534613
:1007A800D3E708F1070828F007080734F8E802AB90
:1007B80024F0070435B106982044B0423FF63EAF16
:1007C800C4E900AB08344FF0000B4FF0080A534659
:1007D80011F8010F002878D0BBF1000F7FF470AF3B
:1007E8002528F5D1019B013301934FF0010B4FF000
:1007F800040AECE7584694E700208346A5E7082B4F
:1008080002D06FF015001BE708F1070828F0070869
:10081800F8E80223C4E9002308340823D8E768B9B4
:10082800042B02D108F10408A4E7082BE9D108F148
:10083800070828F0070808F10808EDE7059A013AC3
:10084800059258F8042B009210E7039A900720D5D8
:10085800A4EB050E4FEA9E004FF0010CBEF5007F99
:10086800CFD20F2FCDD8F5B107F140020DEB020E14
:10087800C0B2019A0EF8200C0EF8102CBCF1000F33
:100888003FF41AAF60F07F000EF8200C09F101095F
:100898000137C5F10802043406924FF6DA7E97E76D
:1008A8004FF0000CDAE7BCF1000F01D00136EFE79A
:1008B800029802360028EBD10098CDE90631FFF7FF
:1008C80051FCDDE906310644E2E7631BB3F5806FAE
:1008D80097D23DB9A6F10804E018B1E6288C0008C3
:1008E80040A10008029A28609B082B709DF81030E0
:1008F800C2B1EB7085F80290B9F1000F05D008A8D5
:100908000022C5F1010C97420ED1C5F101030DF18A
:1009180020084FF0000A01930DF1300B574512D112
:10092800601B8DE66B70E5E710F8013B190608D5EA
:100938000CEB040EB64503F07F033FF67FAE04F8D8
:10094800013B0132DFE7B9F1000F03D098F900202D
:10095800002A17DB029BD3B11AF80B2004F8012BED
:100968000022019B18191044B0423FF667AE98F870
:10097800000004F8010B00990392204608F0C5F81E
:10098800039A14440AF1010A08F10108C6E798F825
:10099800002055F822300093029B45F82230009839
:1009A800FFF7E0FB421CDCE76FF00D0048E600BFF4
:1009B8002DE9F04F97B000AF90F802A0D7F880B0BB
:1009C8003B62CBF3C0030446FA62BB61894641B976
:1009D800457800780AEB800020444D4517D8A0EBF5
:1009E8000409E378FB61BAF1000F02D01BF0010F94
:1009F80016D1FB6953BBFB6A1BB13A6A49462046CC
:100A080098474D4628465C37BD46BDE8F08F461CE2
:100A18003046FFF7A7FB0130304409F10109DCE754
:100A2800237862687A62FA6A9900796104EB830133
:100A3800002A40F000814D460E4601EB0A094FF0AE
:100A480000084E454CD101EB0A0610E01BF0020FDE
:100A5800D1D023789A007A6162687A62FA6A04EBE4
:100A68008301002A77D14D4601EB0A0690461BF018
:100A7800050F0CBF02230123FB62FB6906EB430A47
:100A88000BF00203BB625645BCD016F8021B16F8E1
:100A9800013C54F82390994B994502D3984B9945BA
:100AA80036D3BB69002B40D0786A05F098FF002840
:100AB8003BD0E9468AB06A46924B53617B6AC2E9E9
:100AC80006314FF4007313848F4B42F8103F8F4860
:100AD80000234FF4125100F07DFC023DCD46D2E7D1
:100AE80016F8013BF96254F82300FFF73BFBD7F8EF
:100AF8008430F96A01304BB1D7F8883098453EBF49
:100B0800D7F8843023F8180008F10108054498E75D
:100B1800BB6923B1786A05F062FF0028C9D11BF0D0
:100B2800010F05D1FB6AED1AADE7BB6A002BAAD00D
:100B38004846FFF717FBD7F8843053B1D7F8883009
:100B480098453FBFD7F88420431C22F8183008F195
:100B58000108054497E7BAF1000F72D01BF00406AC
:100B680072D0D046002607F1480052463B61B96270
:100B780007F0CBFFB96A3B6901EB0A02BA62FA696E
:100B8800F9695200FA60BA6A02EB41023A610BF065
:100B98000202BA603A69B96A8A4257D162787A62BF
:100BA8001BF0020F32440CBF4FEA580100211BF022
:100BB800010FD2B240F09F801BF0040F14BF4046D3
:100BC8000020BB616270A070E1703A6A7969FB6AC3
:100BD80020469847051EFFF615AFBB6923707B6A50
:100BE8006370FB69E37041463A6AFB6A84F802A0C5
:100BF80007F148009847B0F10008C0F2BB807B6954
:100C08003A6AA9EB0A01C91AFB68C91AD7E90A03A3
:100C180098470028C0F2B080A84408EB00054FF0C0
:100C2800000B07F1380AB34572D300213A6AFB6A10
:100C380008469847E6E656464FF0000807F13800A0
:100C480093E75646D04697E7B04695E7BA6A12F852
:100C5800021BBA6212F8015C284A54F82500904237
:100C680002D3274A90421ED3BA6932B1786A7B60B0
:100C780005F0B5FE7B6800288CD1BA6802BB08F184
:100C8800280207F1300C08F10100944407F15802DA
:100C980052FA80F008F102080CF8101C5FFA88F884
:100CA80000F8105C76E7BA693AB1786A7B6005F0BB
:100CB80096FE7B6800287FF46DAF1BF0010F09D00A
:100CC80006F1280207F13000711C161806F8205C9E
:100CD800CEB25FE71BF0040F3FF45CAF08F12802C7
:100CE80007F1300008F1010102EB000808F8105C78
:100CF8005FFA81F84EE7002063E700BF288C000800
:100D080040A1000839960008040000015890000826
:100D18001BF80A3087F8373054F82390D7F8843016
:100D28002BB3D7F888309B4521D2D7F8843033F8D5
:100D38001B803A6AFB6A012107F1370098470028AF
:100D48001ADB0544B8F1000F06D14846FFF70AFA46
:100D580000F101081FFA88F83A6AFB6A41464846DA
:100D68009847002808DB05440BF1010B5BE74FF0BF
:100D78000008DEE7454645E6054643E6014B1860B0
:100D8800704700BF0000002080B505460E46174694
:100D9800984604F0EBFE034607F038FFDFF818909A
:100DA800044649F80030424630463946A84754F8C8
:100DB800090001F09FF800BF08000000034A5368CB
:100DC80023F0020353600020704700BF002004E0B6
:100DD800EFF31180102383F31288BFF36F8F094B51
:100DE8001A683AB9084A116841F4807111601168AB
:100DF800C905FCD51A6801321A6080F31188BFF35F
:100E08006F8F7047EC0800200004005838B5EFF3E6
:100E18001185102383F31288BFF36F8F0E4B1A6866
:100E280072B90E4C237833B90D4A0E48022106F0E8
:100E38001FF90123237085F31188BFF36F8F38BD25
:100E4800012A01BF08490A6822F480720A601A68F8
:100E5800013A1A60EFE700BFEC080020380C0020C8
:100E6800ED960008A890000800040058084B1A687E
:100E780042F400721A601A6842F480621A601A68B2
:100E880042F480721A60034B034A1A60704700BF2D
:100E9800004000581001002000093D002DE9F047EE
:100EA800DFF85880044607464FF0010914B9384660
:100EB800BDE8F08794FAA4F5B5FA85F509FA05F3C3
:100EC8002E0108EB05156FEA030A24EA03042B7BBD
:100ED800002BEBD058F806301B694BB94644042266
:100EE80073682846196807EA0A0706F051F8DDE72B
:100EF800284698470028D9D1F0E700BFC8900008D5
:100F080030B51049104889B0002207F0C7FC0F4DD2
:100F18000F4900220023CDE9062300240E23CDE942
:100F28000334CDE901440B4B00944FF4407228463A
:100F380004F0CEFB0849284607F083FB204609B099
:100F480030BD00BF650F000870060020E8010020D2
:100F5800800D0020811200082E970008014804F037
:100F6800C3B900BFD00100202DE9F04780462048D2
:100F78000F4605F0E5FF0646002832D00025284632
:100F8800BDE8F087237B83B12368DB680BB120467B
:100F98009847636883F8069023681B69CBB9636830
:100FA80004221968204605F0F3FF01361034544531
:100FB800E8D3B8F1000FE2D0002DDFD02846FFF7C4
:100FC8006DFF0546002FF7D00021642007F0D7FBFE
:100FD800F2E7204698470028E1D009FA06F31D43B6
:100FE800E3E7044CDFF810A005464FF00109DEE7FF
:100FF80000090020C8900008D8900008014B53F859
:10100800200070473491000808B5034608462BB104
:10101800044A136000F074FC002008BD6FF015004E
:10102800FBE700BF0400002010B5044C237813B977
:10103800034804F059F90123237010BD390C00202E
:10104800D001002010B504460B4805F079FF5CB1CB
:10105800BFF35B8F094B53E8001F013943E80012C7
:10106800002AF8D1BFF35B8F054807F023FC054839
:10107800BDE8104004F038B9F8080020FC0800204A
:1010880070060020D00100200020064BBFF35B8FC4
:10109800014653E8000F43E80012002AF9D1BFF3D4
:1010A8005B8F7047F808002070B5FFF7EDFF084C1C
:1010B800084E0546B44200D370BD63685B792BB116
:1010C80023685B6813B12946204698471034F1E736
:1010D800C8900008D890000810B5044C0449204670
:1010E80005F0B4FD034B1C6010BD00BF5401002087
:1010F80020910008F00800200D4A0E48002310B582
:1011080013700D4A13600D4A4FF47A711360FFF79C
:101118007BFFFFF7E1FF0A4B0A4918468B4200D3D1
:1011280010BD1A1A5C681211013222711033F5E7EA
:101138003A0C0020636F0008F8080020FC08002023
:10114800C8900008D89000080146002201480023F2
:1011580005F09DBD54010020014805F036BE00BFD2
:1011680054010020024B0146186805F082BE00BFFA
:10117800F0080020014805F0B7BE00BF5401002068
:1011880070B5264B1878002846D0FFF7E5FF0546CE
:1011980000283ED1224B234C1B68002B12DD07F0A0
:1011A8007BFB0A220023FEF7C3FFD4E90032C01AF2
:1011B80040F2E93361EB0201984271F1000101D379
:1011C800FFF772FFD4E9003213F57A7342F1000297
:1011D800C4E90032BDE87040FFF7CCBF63685B79B3
:1011E80023B1236829461B68204698471034B44227
:1011F800F4D32846FFF7B6FFBFF35B8F0A4B53E8DB
:10120800001F013943E80012002AF8D1BFF35B8FB1
:10121800C0E7064C064EEAE770BD00BF390C002057
:10122800F808002068060020FC080020C890000884
:10123800D890000870B50D4D297861B90120FFF7E5
:1012480093FE0B4C0B4EB44206D3FFF799FF0028D0
:10125800FBD101232B7070BD63685B791BB12368D8
:1012680020469B6898471034EDE700BF3A0C0020F1
:10127800C8900008D890000800212DE9F0470846DA
:10128800FFF772FE044658B34FF4FA784FF000099E
:1012980007F0BCFC1B4B1C4A1B58136033B11B4B9B
:1012A8001B68092B02DD1A4804F01EF8194FDFF8F5
:1012B80060A0002544B12046FFF7F0FD044618B9A8
:1012C8004FF0FF384FF0FF39FFF75AFF064628B9AD
:1012D800B5B942464B46504604F040F83546E9E772
:1012E8004FF0FF384FF0FF39D2E72B689B691BB1ED
:1012F80000221146284698471035BD42F5D3E8E745
:10130800054DFAE708000000F4080020FC0800205A
:10131800D0010020D8900008C890000813B51848DC
:1013280005F00EFE174B1B7873B1EFF311841023F1
:1013380083F31288BFF36F8FFFF722FF84F31188BE
:10134800BFF36F8F02B010BD0F4B1B68002BF9D095
:1013580050B900220023CDE900230C4842F2107254
:10136800002304F017FFEDE70928EBD1074807F041
:10137800A1FA074802B0BDE8104003F0B5BF00BFAE
:10138800FC0800203A0C0020F40800207006002019
:10139800D001002010B5064B1B680446984721462B
:1013A800A060044805F0F2FCBDE81040FFF7B6BFA6
:1013B8000400002054010020044A054B9B1AB1EB9D
:1013C800D30F34BF52F831000020704758900008FE
:1013D800C89000082DE9F04F8FB004AFC1F34A2838
:1013E800B8600D4691467B600C0DB8F1000F63D0D4
:1013F800002607F114034FF0040B4FF00A0AC7F850
:101408000C80C7E907667E620193CDF808B0CDF875
:1014180000A007F11C03F96832464846FFF7C8FAEE
:10142800B0F5006F03461CD36C468AB0D9F8041097
:1014380004AB2648C3E9050140F2FF71D9611A4699
:101448004FF400711984224B42F8103F214833466B
:101458004FF41251FFF7BEFFA5462C37BD46BDE835
:10146800F08FC0F30A0804F11700184420F00700B1
:1014780080083B60FFF768FE68F35325044690B187
:101488003B68154AC7E9083600F1100107F1140353
:10149800F961CDE900A3CDF808B0F96807F11C039C
:1014A8004846FFF785FA68F353257B68B9682A46EA
:1014B800204605F08DFDD0E704F1170020F0070065
:1014C8008008FFF741FE0446EDE700BF4397000898
:1014D8000400000160900008AB6F00082DE9F04F90
:1014E80087B0DDE91279DDE9105A04460391934685
:1014F8009846BFB1CDF800903B46524610210020D7
:10150800CDF81490FFF782F8B0F5006F06460AD3BD
:10151800184A194840F2FF73022107B0BDE8F04F9E
:1015280005F0AFBD3E4605F11700304420F0070036
:1015380004F007048008FFF707FE0BF0070BE40030
:1015480044EA8B1444EA462444EA0554054640B16B
:101558003FB1CDF800903B46524631461030FFF778
:1015680055F8039943462246284607B0BDE8F04F90
:1015780005F02EBD8297000860900008406820B1F1
:10158800034BC01A40F3CF0070474FF0FF3070474D
:10159800589000080EB403B503AB014653F8042B6A
:1015A8000448019300F02EFF02B05DF804EB03B08D
:1015B800704700BFED700008CA0605D48B064CBF03
:1015C80002490349FFF7E6BF704700BFBB97000811
:1015D800BA9700082DE9F04F89B09B46149B0693F3
:1015E8009DF84CA0159B0593169B179E04930446E3
:1015F8000D469046BAF1000F00F09D8006F4807306
:10160800079305F0C3FC06F00209024600283ED005
:1016180091492046FFF7BEFF0746B9F1000F08D0F1
:1016280016F0440F35D18D492A462046FFF7B2FF00
:10163800074406F0010353B1894B8A4953F82A201D
:10164800894B2046002A08BF1A46FFF7A3FF06F475
:101658008073002B49D006F00803002B63D1B8F142
:10166800000F66D0814942462046FFF793FF0546A2
:10167800069B3D44002B6DD1049B002B73D1F307CF
:1016880000F1E48031462046FFF796FFD8E0074690
:10169800C3E7774B18680028CAD0764B4FF47A799D
:1016A8001B68B5FBF3F54FF46163B5FBF0F100FB84
:1016B800115509FB05F54FF03C0CB1FBF3F203FBA8
:1016C8001211B5FBF0FEB1FBFCF300FB1E550CFB41
:1016D800131109FB05F50091B5FBF0F56649CDE955
:1016E80001E52046FFF756FFA2E706F00803EBB135
:1016F800624B634953F82A202046FFF74BFF054603
:10170800B8F1000F05D0594942462046FFF742FF7D
:101718000544BBF1000FABD05A495A462046FFF7A3
:1017280039FF0544A4E74FF0000BE1E706F0080590
:10173800E6E745469CE7BBF1010F069B06D1002B67
:1017480064D1049B002B7BD000250CE0002BF8D043
:101758004D485CE04D48069B4D49224605F00EF980
:10176800049B002B68D0DFF82C81DFF82C91049FB4
:101778003146102F204628BF1027FFF71DFF4FF0D6
:10178800000B5D4545DC059B49461A782046FFF766
:1017980001FF4FF0010B1BF0070F03D14146204614
:1017A800FFF7F8FE5F453BD9059B494613F80B2028
:1017B8002046FFF7EFFE0BF1010BBBF1100FEAD14A
:1017C800364920464FF0000BFFF7E4FE5A46059BCA
:1017D8009A5CA2F120015F2928BF2E2230492046B9
:1017E800FFF7D8FE0BF1010BBBF1100F1DD01BF05A
:1017F800070F03D141462046FFF7CCFE5F455A4606
:10180800E5D841462046FFF7C5FEEBE71F48554699
:10181800A1E741462046FFF7BDFE0BF1010BB0E7FB
:1018280020492046FFF7B6FEC5E7059B3B440593D4
:10183800049BDB1B04939AD1BAF1000F7FF41FAF0E
:10184800204609B0BDE8F04F05F03FBC064A0549FF
:101858002046FFF79FFE15E7C2970008C6970008C5
:10186800449100080B9D0008BD970008EB970008FD
:101878000809002004090020CF97000858910008A3
:10188800EF970008F597000823710008ED7000082D
:101898000D24000802980008FA9700080498000828
:1018A800069800080098000873B542F20F738B423F
:1018B80028BF0B4605680F4A04460521684604F010
:1018C8006DFD63680C495B6806460B22284605F0E7
:1018D800EEFB63683246694628465B6805F0E7FB1D
:1018E800636806495B681B22284605F0E0FB02B0E6
:1018F80070BD00BF2B9D00082598000809980008B6
:10190800074A00210123904206D8064A01B901235B
:101918001360054B1860704740085B000121F2E72F
:1019280040420F000409002008090020F8B5074FBD
:101938000D4604464618B44201D12846F8BD14F8AD
:10194800011BBB6801485B689847F4E74C8D0008A9
:10195800014B036000207047A09100082DE9F04773
:10196800064600AF0C46002936D0E9468AB0D1E9D0
:101978000012A3686D462148A8464FF0050AC5E93C
:101988000501C5E9072348F810AF1D484246002362
:101998004FF42151FFF71EFDCD46D4E903126369C8
:1019A800AD461848C5F810A0C5E90501C5E90723E3
:1019B8001348002342464FF42151FFF70BFDCD4653
:1019C800E369114A0E48012105F05BFBA3690F4A40
:1019D8000B48012105F055FB012E07D1EFF30583D4
:1019E8000B4A0748103B314605F04BFB2146304671
:1019F80003F0D4FABD46BDE8F08700BF6B98000835
:101A0800889000089A980008C9980008D898000893
:101A18000699000830BFFFF7FDBF00BF2DE9F04170
:101A28000B4EDFF8308006EB0807CC1B0546324624
:101A38000949204607F069F8A01942460021083CE8
:101A480007F071F86C6707F10800BDE8F08100BF86
:101A58000000000004000000D8900008054B5A69F7
:101A68009B689A421FBF044A536843F080535360EF
:101A7800704700BF040C002000ED00E070B5244C56
:101A880006460D462348244905F0CEFBA36AD9042F
:101A98003CD52048214905F0C7FB1720A36A1A0541
:101AA80004D51C481E4905F0BFFB1820184CA36A32
:101AB8009B0512D51B49174805F0B6FBA36BA26A14
:101AC800110409D5184A1348012105F0DAFA1EB1A4
:101AD800A36A23F40043A36219200D4CA36A5A0594
:101AE80004D50C48114905F09FFB1A20A36ADB05B1
:101AF80004D508480E4905F097FB1B20044A936A51
:101B080043F47F43936200232B7070BD1620C5E712
:101B180000ED00E088900008199900082F99000846
:101B280040990008539900086C99000881990008A9
:101B38009C99000810B5204C2049214805F074FBF9
:101B4800A36A990136D51E481E4905F06DFB1E2073
:101B5800A36ADA0104D51A481B4905F065FB1F2062
:101B6800154CA36A1B0304D51548184905F05CFBFE
:101B78002120A36A590304D51148154905F054FBDF
:101B880022200D4CA36A9A0304D50D48114905F08B
:101B98004BFB2320A36ADB0304D509480E4905F053
:101BA80043FB2420044A936A6FEA03436FEA134312
:101BB800936210BD1D20CBE700ED00E0B49900084A
:101BC80088900008CC990008DF990008F999000866
:101BD800179A00083C9A0008569A00082DE9F8431D
:101BE8002F4D804689462F482F49174605F01CFB84
:101BF800AB6ADA0627D52D492A4805F015FB1124CA
:101C0800AB6A1B0704D52A49264805F00DFB1224A8
:101C1800234DAB6A9E0718D52649224805F004FBD8
:101C28006E6BAB6A1C0637D5234A1E483346012122
:101C380005F027FAB9F1000F03D0AB6A23F080034F
:101C4800AB62132403E01024DAE76FF01506144D95
:101C5800AB6AD80704D51949124805F0E5FA1424E7
:101C6800AB6AD90602D4AB6A9A070BD50C4B5B68F2
:101C78001B0507D54146304600F0F8F910B180F34E
:101C880009880224064A936A43F0FF0393620023FB
:101C98003B702046BDE8F8836FF01506D1E700BF1A
:101CA80000ED00E088900008819A0008979A0008E3
:101CB80040990008CA9A0008E29A0008F89A0008B1
:101CC8002DE9F041664B8AB0D3F8048000AF044692
:101CD800C8F30805002686F31188BFF36F8F02F05A
:101CE8007F43B3F17F4F07D102F00C03082B12D1C9
:101CF8005C495D4805F098FA002634460023FB71DC
:101D0800EB1E092B00F28A80DFE803F00A80837C4F
:101D180088888888888610074CBF0C460126EDE71E
:101D2800524951484E4D05F07FFA0023FB71EB6A8A
:101D38009A0705D54E494C4805F076FA002332E05B
:101D4800EB6A002B01DA4B49F5E7EB6A5B00F5D546
:101D58004949454805F068FA6B69A26943F48073FC
:101D68006B61BFF34F8FBFF36F8F6B6932F8022C33
:101D780023F480736B61BFF34F8FBFF36F8F4DF602
:101D880002739A4208D0AB6ADBB273B3FA1D012121
:101D98002046FFF723FF37E02368384A32480121FD
:101DA80005F06FF92368FA79DAB907F1080504F143
:101DB800200C206861682A4603C208346445154629
:101DC800F7D17A6A002E45D0C2F3080121B96FEA2B
:101DD80052226FEA42227A6207F108011846FFF799
:101DE800BDFD2837BD46BDE8F081AB6A13F47F4FCF
:101DF80004D0F91D0120FFF741FE05E0AB6AB3F5F9
:101E0800803F9BD3FFF796FE0346CCE7FA1D0021DF
:101E1800BEE7F91D0020EEE719498CE7194A1A4B6D
:101E280018F4F87FE8468AB018BF13466A4617497F
:101E3800C2E905134FF400731384103D144BD561A8
:101E480042F8103F084800234FF41151FFF7C2FA37
:101E5800C54673E722F4FF7222F00102BBE700BF18
:101E680000ED00E0459B000888900008709B000882
:101E7800879B0008A89B0008B69B0008D59B000814
:101E8800F19B00082C9B0008179B0008159C000874
:101E980004000001044B5A6942F010025A615A6961
:101EA80022F008025A61704700ED00E0EFF3088065
:101EB800EFF3098101B57246FFF702FF01BD00BFCC
:101EC8000A4880F30888102080F3118808484FF4E6
:101ED8000461401880F30988EFF314800221084355
:101EE80080F31488BFF36F8F05F0A6F9401E002019
:101EF800C0100020084B9B6883420BD1EFF3058389
:101F080043B1064B5A6842F080525A605A6A22F42A
:101F180000425A6203F030BE040C002000ED00E0DD
:101F280014498A684FF030001044EFF3098C80E8B8
:101F3800F01F102080F31288BFF36F8F0E4F4FF001
:101F480000664A698A603E60506F0C4C2060906F52
:101F58000023936780F3118804B5104600F0EAF86F
:101F6800BDE8044002F1300090E8F01F8CF30988C6
:101F780070470000040C002004ED00E03809002040
:101F88001EF0040F0CBFEFF30880EFF3098081699E
:101F980011F8021C0229FFD001B5724605F039F983
:101FA80001BD00BF40B2002807DB044A41090123F4
:101FB80000F01F00834042F82130704700E100E044
:101FC80040B200280CDB4309064900F01F0020330B
:101FD8000122824041F82320BFF34F8FBFF36F8F58
:101FE800704700BF00E100E040B20028A8BF00F140
:101FF800604001F10101B8BF064B4FEA0111ACBFC7
:1020080000F5614000F00F00C9B2B4BF195480F860
:102018000013704714ED00E0044B054A23F07F03DA
:102028009360BFF34F8FBFF36F8F704700000008B6
:1020380000ED00E042F8203C009B42F81C3C0A49B5
:10204800019B42F8183C029B42F8143C21F0010124
:102058004FF0807342F8043C42F8081C0023203AF1
:1020680002658367704700BF910D0008094A03465F
:10207800906870B113F1160F406E05D0A0F14002C0
:102088009A4205D8834203D2814228BF0020704774
:1020980000207047040C002008B51546094A0A4B71
:1020A8009060426F1A600E4600F044F82C4686F3A2
:1020B80009880020054B984720460021002200236C
:1020C800034C2047040C00203809002057720008F0
:1020D800910D0008014B10221A61704700ED00E0D5
:1020E800044800231021C21801333E2B82F8001344
:1020F800F9D1704700E100E008B5EFF30583064A1F
:10210800103B02EBC30152F8330049688847BDE829
:102118000840FFF7A3BC00BFE48D0008024B034A48
:102128000348012100F08AB80000012000000020C7
:10213800A0910008426E054B403A1A60044A4021BB
:10214800C3E901121846012100F082B83C090020B9
:1021580000000B1508B503461048D0F89020C2F3CC
:102168000722013A934207D90D480E4A012104F08B
:1021780088FF6FF0150008BDC0F898300A6822F093
:102188001F021A4342F01002C0F89C208A6842F0ED
:102198000102C0F8A0201846EDE700BF00ED00E0FE
:1021A800809000082C9C0008F0B50E4685B01F46AC
:1021B80004460025B5420DDA606810B397B1431E96
:1021C80018420AD0104A11482B46012104F059FF41
:1021D8006FF01502104605B0F0BD1F28F2D921682E
:1021E8000B42EFD12368019305F045F8A36801A9D4
:1021F8000343D0B20393FFF7ADFF10F1160FE7D0FA
:10220800421C01350C34D5E7529C00088090000828
:10221800044B0522C3F89420BFF34F8FBFF36F8F91
:10222800704700BF00ED00E0BFF35F8F024B002254
:10223800C3F89420704700BF00ED00E010B5034CD0
:1022480001232278FFF7B0FF207010BD3C0C00205E
:1022580008B50B4A00231278FFF7A6FF10F1160FF6
:1022680007D0084A0021D2F89030C3F307239842D8
:1022780000DB08BDC2F89800C2F8A0100130F2E7F0
:102288003C0C002000ED00E02DE9F0435748584988
:10229800D0F890300D68C3F307239D4285B000F253
:1022A800A180FFF7C1FF49680022954201F10C01A6
:1022B8001AD1504C504F25706846FFF749FBDFF89C
:1022C8003C81DFF83C9106460025AE421FD12378B9
:1022D80046490020D1F89020C2F3072293427BDBC5
:1022E800FFF796FF00204CE0C0F8982051F80C3C0E
:1022F80023F01F03134343F01003C0F89C3051F838
:10230800043C43F00103C0F8A0300132CDE7009847
:1023180000EB05114FEA051CCB683B40B3F5000FF5
:1023280044D00AD8B3F5001F2ED0B3F5800F34D0AF
:10233800B3F5801F10D00135C7E7B3F1807F3ED0D9
:10234800B3F1007FF7D150F80C3088684A6804F080
:1023580092FF40F4802009E050F80C3088684A6801
:1023680004F089FF40F0885040F43020039001A920
:102378002078CDE90123FFF7EDFE002828DA6FF079
:10238800150005B0BDE8F08350F80C3088684A683D
:1023980004F071FF40EA0800E8E750F80C3088685C
:1023A8004A6804F068FF40EA0900DFE750F80C309B
:1023B80088684A6804F05FFF40F08270D6E750F8FA
:1023C8000C3088684A6804F056FF40F08870CDE702
:1023D800237801332370AEE7C1F89830C1F8A00024
:1023E800013377E74FF0FF30CBE700BF00ED00E0A7
:1023F800AC9100083C0C00200000F0FF0000081120
:1024080000000206F0B587B007460E4614460021C4
:10241800102268461D4606F086FB02238DF802301E
:102428002A46054B019321466846CDE9047603F018
:10243800DFFF07B0F0BD00BF9F72000808B5024B70
:102448001B689847002008BD48090020034B044A30
:102458001860937843F0020393707047480900208E
:102468001000002008B50649064821F00701C1F10F
:10247800005202F5803204F044FA002008BD00BF83
:10248800C72200204C0900202DE9F0410F4E104FC3
:10249800054600244FF001082A781319DBB208FA20
:1024A80003F0F36830EA030309D152FA84F3F060C9
:1024B80057F833201AB107EBC303596890476A7875
:1024C8000134E3B29A42E7D2BDE8F081000800582F
:1024D80058090020044B184400230133994200F89E
:1024E800012BFADC704700BF28010020034670B1B9
:1024F800B0FA80F2C2F11F02D2B206498856064AE3
:10250800D2F880100B43C2F88030FFF74BBDFF2292
:10251800F3E700BF2801002000080058034AD2F85A
:10252800803023EA0003C2F8803070470008005862
:10253800032921D8DFE801F0020C10190F4B1A68A3
:1025480022EA00021A605A6822EA00025A607047BA
:102558000A4B1A680243F5E7084B5A6802435A6067
:102568001A6822EA00021A607047044B1A6802438C
:102578001A605A6810435860704700BF0008005836
:1025880030B5B0B1B0FA80F3C3F11F03DBB20B482A
:1025980050F833408C4204D100EBC3056D68954276
:1025A80005D044B940F8331000EBC3004260002066
:1025B80030BDFF23EBE76FF00F00F9E75809002063
:1025C80060B1B0FA80F3C3F11F03DBB2044A002103
:1025D80042F8331002EBC30251607047FF23F5E75E
:1025E8005809002000F00302043292000F239340A0
:1025F80043EA900000F003030233064A52F823200E
:10260800030C02EA104093FAA3F3B3FA83F3D84019
:10261800704700BF0000014038B5284B18680B8888
:102628001446C3F30B02062A0D4602D0092A1ED807
:1026380012B96FF085002BE0531E082BF9D801A2C0
:1026480052F823F08D260008AF26000871260008EE
:10265800A7260008AB2600083B2600083B260008F2
:102668009B2600089B2600084FF4FA400AE002F671
:10267800B873C3F30B031C2BDBD8114A22FA03F3FC
:10268800DB07D6D520602B68B3F5805F0ED200201B
:1026980038BD00F0E1F8062358434008F2E709483E
:1026A800F0E70020EEE74FF40040EBE7C3F3133305
:1026B8000133B0FBF3F02060E9E700BF1001002010
:1026C800110111110024F40070B5604D04F0DFFE13
:1026D800284604F0DBFE02F08DFB4FF0B0435C4A65
:1026E800D3F8083103F00F0352F823601368B0FBE6
:1026F800F6F6B5FBF3F5AE4202D2284602F0ECFB43
:1027080004F03EFE012809D04FF0B042136843F4AC
:102718008073136004F034FE0128FBD14FF0B044FD
:10272800D4F8943043F00103C4F89430D4F89430CA
:102738009B07FBD5FEF74CFBD4F8903043F0010320
:10274800C4F890304FF0B043D3F890209407FBD5ED
:10275800D3F8902042F08002C3F890204FF0B044A4
:10276800D4F890301805FBD5FEF750FBA36803F0AA
:102778000C030C2B1CD104F003FE012807D023689E
:1027880043F48073236004F0FBFD0128FBD14FF074
:10279800B0439A6822F0030242F001029A609A68F4
:1027A80002F00C02042AFAD19A6822F0F0029A6028
:1027B8004FF0B044236823F08073236023689901A5
:1027C800FCD4E36823F0606343F00073E360E368DC
:1027D80043F08073E36000F043F8236843F08073AC
:1027E80023604FF0B0431A689201FCD59A6822F032
:1027F800F0029A609A6842F003029A604FF0B04281
:10280800936803F00C030C2BFAD1AE4202D328468E
:1028180002F062FB0F4B0D4A1A604FF0B0430020E4
:102828009A6822F4E0629A609A6822F460529A6088
:10283800D3F8082122F0F002C3F80821D3F80821C0
:1028480022F00F02C3F8082170BD00BF006CDC0243
:10285800E894000810010020004870470024F400A4
:102868004FF0B0430549DA681140054A0A43DA6077
:10287800DA6842F08052DA60704700BF8C80FF1F30
:102888000206002008B5074805F04EFE38B1064894
:10289800FFF7DCFD0448FEF771FA002008BD6FF071
:1028A8001200FBE74C8D0008B52800080A2838B547
:1028B800074D044604D1AB680D215B68284698474C
:1028C800AB6803485B68E1B29847204638BD00BF53
:1028D8004C8D00082DE9F843D0F80480D0F810900A
:1028E800D8F8080017460D461E4604F028FDB7F52F
:1028F800001F044616D12846D8F80840FFF772FE94
:1029080084420CD1294604F01AFD0446FFF706FE5E
:102918002046FFF755FE00212046FFF709FE00205C
:10292800BDE8F883B7F5800F20D0B6F1806F19D0D5
:10293800B6F1C06F18D0B6F1007F1AD1022610493F
:102948004A462046FFF71CFEB0B9D8F808102846BA
:1029580004F0F8FC20463146FFF7EAFD2046FFF771
:10296800C5FDDCE70126EAE70326E8E76FF0850006
:10297800D6E76FF01500D3E76FF00F00D0E700BF80
:102988000577000838B50369044658600A4D28469B
:1029980005F0CAFD60B1AB6861681B680C3123B1F2
:1029A8002846984700EAE07038BD6FF05700F9E70D
:1029B8006FF01200F8E700BF6C8C0008014802F0C5
:1029C800F5BD00BF2000002008B504F0C4FE024B8E
:1029D8001B68C01A08BD00BF280A0020014805F07E
:1029E80069BF00BF980100200A2307B5A0FB032395
:1029F80000210020CDE90001024803F0CBFB03B021
:102A08005DF804FB9801002008B504F0A4FE014B12
:102A1800186008BD280A0020014B1868704700BFDD
:102A2800280A002010B5124CBFF35B8F022354E82C
:102A3800002F012A03D144E800310029F7D1BFF360
:102A48005B8F0CBF0120002010D10A4BDB6A98472E
:102A5800002344F8403CBFF35B8F54E8002F44E860
:102A680000310029F9D1BFF35B8F012010BD00BFF1
:102A7800700A00202093000810B5064B5C68FFF729
:102A8800D1FF30B12CB100212046BDE8104003F041
:102A980041BC10BD2C0A002013B50D4BD3E90143EE
:102AA8003BB10C4B5B6B0193002002B0BDE81040BA
:102AB8001847FFF7B7FF40B13CB16FF0040120465B
:102AC80002B0BDE8104003F025BC02B010BD00BF45
:102AD8002C0A0020209300082DE9F347284C9A4639
:102AE800D4E9019307460D46164683B1254B0020CD
:102AF8005B6B9847E368CDE900A32A46D4F80880C1
:102B0800206833463946C04702B0BDE8F08704F173
:102B180044020223BFF35B8F52E8001F012903D14F
:102B280042E800300028F7D1BFF35B8F9046EBD125
:102B3800E36C1A78AA4288BF1D70E36CA06C1A78FF
:102B4800394605F0E2FF236D03B11E80636D0BB1BA
:102B580083F800A00B4BDB6A984700216160BFF344
:102B68005B8F58E8003F48E80012002AF9D1BFF30C
:102B78005B8F484602B0BDE8F04703F0CBBB00BF0F
:102B88002C0A002020930008F8B5044600AF00681E
:102B98000D4605F0C9FC03462068BBB96C4688B0F1
:102BA80001686A462748C2E905014FF4007191831C
:102BB800254942F8101F25484FF4E251FEF70AFC58
:102BC8006FF01205A5462846BD46F8BDE388217971
:102BD8002B43DD02D0F808E0D0F810C006D513F476
:102BE800402F03D0DA0748BF83F44023DCF80050B5
:102BF800012623F480128E40DB074CBF3543B543D2
:102C0800CCF80050DEF80030984705460028DAD0A6
:102C18002368196823796C468AB06A460C48C2E969
:102C280007354FF4007393840A4BC2E9050142F853
:102C3800103F064800234FF43151FEF7CBFBA54661
:102C4800C1E700BFF59C000803000001B890000828
:102C58000E9D00080500000170B50D460F49BFF331
:102C68005B8F012051E8004F002C03D141E800069A
:102C7800002EF7D1BFF35B8F0CD1094E41F8403CD1
:102C8800D4B2736D214698472846B36A21469847BF
:102C9800002070BD6FF00F00FBE700BF700A002036
:102CA800209300082DE9F0474FF000088EB005ACDE
:102CB800264F81468A4616464146102209A8012514
:102CC800CDE90544CDE9078805F02DFF8DF8315091
:102CD8007B6B0D94002B35D023463246514648462F
:102CE800FFF7BAFF041E29DBF6B2CDE9018603958A
:102CF800BB8F174C009397F83A3097F8392097F81C
:102D08003810646A2846A0470A23A840A0FB03237A
:102D1800294609A803F0A6FA041E0FDA0D4A0E4840
:102D2800294604F0A5F9FFF77DFE38B94FF0FF32C8
:102D38004FF0FF33294609A803F094FA20460EB055
:102D4800BDE8F0876FF01504F8E700BF2C0A0020F3
:102D5800209300082E9D0008B8900008F0B58DB0AB
:102D680000248DF8072003AE0F461022214607A83D
:102D7800CDE90366CDE90544012505F0D4FE274BCE
:102D88008DF829500B96BFF35B8F53E8002FA242B2
:102D980003D143E800510029F7D1BFF35B8F39D144
:102DA8000DF1070243E910649A601D4E149ADA6027
:102DB800159A1A615F60FF21736D28469847736BF7
:102DC80020469847DDE91223294607A803F04AFA66
:102DD800041E15DAFFF726FE50B94FF0FF324FF008
:102DE800FF33294607A803F03DFA9DF8074004E0A1
:102DF8000C4A0D48032104F03BF920460DB0F0BD04
:102E0800069B002BF1DA094A0748294604F030F9F5
:102E1800069CF2E76FF00F04EFE700BF700A00208E
:102E2800209300084A9D0008B89000085A9D0008A1
:102E380010B529B9FFF7F6FDD8B96FF0150010BD28
:102E48000E4BBFF35B8F012053E8004F002C04D1D9
:102E580043E8000CBCF1000FF6D1BFF35B8F0AD139
:102E6800074C43E90F12636DFF219847636B0020FD
:102E780098470020E3E76FF00F00E0E7700A0020B2
:102E880020930008F0B52C4DBFF35B8F8BB00C4638
:102E9800012755E8003F002B03D145E80072002ABE
:102EA800F7D1BFF35B8F43D1244E2068F36898476E
:102EB800E37A4BB32346103D04F1100718685968AC
:102EC8002A4603C20833BB421546F7D14FF47A634A
:102ED800089300220120237B0793CDE90522CDE941
:102EE800032023890293A379019363790093F569F9
:102EF800237994F90A10A847B36D607B9847FFF7C8
:102F080091FD00200BB0F0BD0997227BB569CDE992
:102F18000732CDE90533CDE903330A22029222892B
:102F2800CDE900323846A37962792179A847E3E7E9
:102F38006FF00F00E6E700BF700A0020209300083A
:102F480038B5084611461A460B4BBFF35B8F012470
:102F580053E8005F002D04D143E8004CBCF1000F9A
:102F6800F6D1BFF35B8F04D1044BDB6B984700208D
:102F780038BD6FF00F00FBE7700A002020930008AF
:102F880038B5114BBFF35B8F002453E8002F43E89B
:102F980000410029F9D1BFF35B8F0C4943F8341C79
:102FA8000B490C4D43F82C1C0B4943F8241C0B49C6
:102FB80043F8301C2A6843F8440CA3F134009047C6
:102FC800EB6A9847204638BD700A0020812A00081D
:102FD800E12A000820930008A12A0008A377000826
:102FE80002460521014804F0DABB00BFEC8C00085A
:102FF80002460421014804F0D2BB00BFEC8C000853
:10300800024A0348022104F033B800BF769D000845
:10301800B090000810B50B4CE3691BB9BDE810402F
:10302800FFF7EEBF00209847074B1B6E03B1984788
:1030380094F8203023B1BDE81040024800F020B9D0
:1030480010BD00BF840A00202093000870B54FF41B
:10305800B011466805461E48FFF796FD18B16FF097
:103068000404204670BD1B484FF4B011FFF78CFDD7
:103078000028F4D11849194805F0B1FA284600F09B
:1030880009F9044628B1164A1648012103F0F0FF51
:10309800E7E7306805F048FA38B9134A11480121C2
:1030A80003F0E6FF6FF01204DBE7F06818B105F0F3
:1030B8003BFA0028F1D02846FFF762FF051ED0DA58
:1030C8000A4A0848012103F0D3FF2C46C9E700BF8C
:1030D8003C920008349200081D300008900A002035
:1030E800A59D0008B0900008C39D0008D89D000861
:1030F800014B93F820007047840A002008B5034666
:103108001048042B80F8203011D005D8BBB100201E
:10311800FFF766FF00200EE0053B022BF7D80020E2
:10312800FFF766FFBDE808400120FFF759BF002000
:10313800FFF756FF0120BDE80840FFF759BF04F02C
:1031480000FCE4E7840A0020014BD861704700BF07
:10315800840A002010B5044C204604F0D7FB012354
:1031680084F8203010BD00BF840A002010B5054C3B
:10317800204600F07DF800B910BD00210A2005F0B6
:10318800FEFAF5E7840A002070B58CB00D46DDE93B
:103198001061CDE9063104ABCDE90402CDE908524E
:1031A800009308AA02230446CDE90A61CDE9022367
:1031B800019304F03CFC0F48ADB9A6B983680E49E9
:1031C8001D686A463346A8470028034604DA0B4AB6
:1031D8000B48012103F055FF2378842B01D0FFF71A
:1031E800C5FF0CB070BD836803491D68014802AB78
:1031F8006A46E8E76C8D000820920008FB9D0008ED
:10320800B090000870B5124D86B0284600F038F826
:10321800C023ADF8043001AB0293022303930124C9
:1032280002AB049305940B480B49836804AA1E68F3
:103238000023B047031E06DA084A0948214603F06E
:1032480020FF06B070BDFFF791FF85F82040F8E732
:10325800840A00206C8D000820920008FB9D00085D
:10326800B0900008014804F06ABB00BF840A00203F
:10327800024B5869C0F34000704700BF0004005873
:10328800034B4FF48022C3F884213220FEF78ABE14
:1032980000E100E0002208B511463220FEF7A4FE46
:1032A800054AD2F8903043F48053C2F89030322067
:1032B800FEF778FE002008BD00080058044A13688D
:1032C8000BB1002159724361106004F069BB00BF63
:1032D800A80A002037B5044601A804F04FFA6CB1DB
:1032E800174D2A68134673B9636823600123238145
:1032F8006AB9FFF789FB2046FFF7E0FF01A804F051
:1033080046FA03B030BD9C42F8D05B69EBE7FFF7A3
:103318005BFB236818442B6820601A689042EAD344
:103328005A69596911B95C616161E7E711688842B6
:1033380002D913465269F4E75C616261DEE700BFB7
:10334800A80A0020F8B5FFF767FB1C4C0546FFF7F5
:103358005BFB2368A3B1471B1E462D1A716929B967
:103368005A692260DA68197242B9FEE70A68BA42F5
:103378008CBF521900220A607669EFE718699047F6
:10338800002623682BB9206880B9F8BD18699047D2
:10339800F7E71D68FFF718FB8542F4D223685A69DE
:1033A8002260DA681E72002AF0D1FEE7437A002B09
:1033B800EBD1BDE8F84004F0F3BA00BFA80A00203A
:1033C80037B5134D044601A804F0D8F92B686BB142
:1033D80064B10022A342227211D1597A5C6961B1A9
:1033E8005A7244B120462C6004F0DAFA01A804F0BD
:1033F800CEF903B030BDFFF7F1FA2C60F6E71A46B4
:103408005B69002BF2D09C42F9D163695361EDE707
:10341800A80A002007B5074B1B7840BAADF804008E
:103428002BB9022201A940F2BC6004F024FA03B0CF
:103438005DF804FB3F0C002007B5074B1B7840BA2A
:10344800ADF804002BB9022201A940F2BE6004F0D5
:1034580012FA03B05DF804FB3F0C002010B50C4BCA
:103468001B7804469BB94FF4D76004F039FAC4F3CB
:10347800002100F0FE0001434FF4D76004F00FFA7A
:10348800E1B240F2B960BDE8104004F008BA10BDDE
:103498003F0C002013B5044604F092F904F007032A
:1034A80014F004048DF8073008BF084B4FF00102F0
:1034B8000DF107014FF0840008BF1C7004F0BBF940
:1034C8000020FFF71BFE02B010BD00BF3D0C00201E
:1034D80010B50446FFF73EFE2046FFF735FEFFF71E
:1034E80091FE002004F0C2FA04F06FF904F079F9B3
:1034F800034B00221A70BDE810400120FFF7FEBD03
:103508003D0C0020134B984207B50BD94EF6E1133A
:10351800ADF80430022201A9982004F08CF903B018
:103528005DF804FB0C4B984202D94DF6D733EFE710
:103538000A4B984202D94CF2C153E9E7084B98422A
:1035480002D948F27513E3E7064B9842E2D946F6EA
:103558006B73DDE700E9A43580F8A9328044E52DD6
:10356800000B6B1B40FC541937B5104D2B780446E3
:103578001BB9FFF7C7FF01232B7043F6095241F629
:103588008463B4FBF2F102FB114403EB8433B3FB15
:10359800F2F3042203EB81331BBA0DEB0201862000
:1035A800019304F048F903B030BD00BF3D0C002082
:1035B80007B5064B8DF80700187001220DF10701B9
:1035C8008A2004F038F903B05DF804FB3F0C0020B2
:1035D800014B1878704700BF3F0C002013B5224AF2
:1035E8000446516810686B4603C3204B20781B784B
:1035F800834201D0FFF7DCFF23781BB1012B2ED0CB
:1036080002B010BD62681A4BB3FBF2F31A0C8DF8C6
:1036180000201A0A8DF801208DF80230A268237B59
:103628008DF8033043F60951637BB2FBF1F08DF856
:10363800043001FB102241F6846303EB8233B3FBB1
:10364800F1F303EB80331A0C5BBA8DF80520ADF863
:103658000630082269468B2004F0EDF8D0E723698C
:1036680000930422F6E700BF049100083F0C0020F5
:103678000000093D1FB52B4A0446D1689068127CAA
:1036880001AB03C31A70284B20781B78834201D002
:10369800FFF78EFF23781BB1012B31D004B010BD8A
:1036A800637AF12B20D14FF6FF70FFF7B3FE48F293
:1036B8000500FFF7C1FE02236288A188ADF8061055
:1036C80052BAE188ADF804208DF80B30227AA37A3B
:1036D8008DF80A20ADF808108DF80C30092201A9E0
:1036E8008C2004F0A8F8D9E7F22BE5D141F60F5069
:1036F800FFF790FE41F22100FFF79EFE0623DBE76D
:10370800A3890A4A5BBAADF80430A37B13708DF81D
:103718000630E37B8DF80730238AADF8083006229F
:10372800DDE700BF049100083F0C00203E0C00209C
:1037380037B505460C46022201A9132004F089F882
:103748000A4B1B78012B0DD1094B1B78012B09D192
:1037580040F2027004F0C4F89DF805302870237018
:1037680003B030BD9DF80400F6E700BF3F0C002011
:103778003E0C002013B50322044601A9142004F0CE
:1037880068F8184B1A7822704AB1012A17D0132208
:103798000021601C05F0C7F90F2323700DE09DF888
:1037A800043023719DF80530A2605B425B10A37161
:1037B8009DF806305B425B10637102B010BD9DF846
:1037C80004305B425B1023739DF9053002339B1074
:1037D80063739DF806305B425B10A373024B1B6852
:1037E8002361EAE73F0C0020AC0A0020034B1B686A
:1037F80013B15B6803B11847704700BFD40B0020B2
:10380800034B1B6813B1DB6803B11847704700BF4F
:10381800D40B0020014B01221A707047420C002083
:1038280008B5FFF765FC0438C0B2032896BF024B01
:103838000020185C08BD00BF259E000838B50C465E
:10384800002340F201211A460546084604F038FADA
:10385800FFF7BEFE0C4B01280C480CBF83F8C7408D
:1038680083F8C040FFF706FF21462846002204F0EF
:1038780025F9074B0748196804F0B0F8BDE8384047
:103888000448FFF727BD00BFE00A0020980B00207E
:10389800F00B0020C80A002038B50D461446FFF783
:1038A80063FE2846074D03F09FFF04F09BF94FF491
:1038B8007A712846614304F091F82846BDE83840FB
:1038C800FFF708BDC80A002073B5574D01A803F0DB
:1038D80055FF2C78002301A82B7003F058FF002C0B
:1038E80061D004F002FA044604F0A2FA01A803F039
:1038F80045FFFFF7B7FC012808BF287001A803F0AF
:1039080046FFE5070BD54948FFF75AFD0120FFF7A9
:10391800F5FB474B1B6813B11B6803B19847A00719
:1039280011D54448424EFFF74BFD14F0400F424B6F
:103938003BD01B7813B90120FFF7E0FB336813B1C4
:103948001B6903B1984721060AD50120FFF7D6FB6A
:10395800374B1B6823B19B6913B1C4F30020984708
:10396800A2050FD5FFF7C4FB04284CD12F48FFF759
:1039780027FD0120FFF7C2FB2D4B1B6813B15B68C5
:1039880003B19847A3060ED52A48FFF719FD2A4B1D
:103998001B7813B90120FFF7B1FB254B1B6813B146
:1039A800DB6803B1984702B070BD1D7895B9012056
:1039B800FFF7A4FB294640F6021003F070FF40F61B
:1039C800441003F08DFF40F00201C9B240F64410E4
:1039D80003F065FF194D1A48FF220DF1030104F0A9
:1039E8000EFA2846FFF7C6FE3368002BABD09E6858
:1039F800002EA8D095F90D3095F90C209DF80310EC
:103A08000F48B0479FE7FFF773FB0528BAD109486D
:103A1800FFF7D6FC0120FFF771FB054B1B68002B55
:103A2800B0D0DB68ACE700BF420C0020C80A002019
:103A3800D40B0020B00A0020420D0020D80B002033
:103A4800430C002010B590B10A4B012219461C689E
:103A5800A04206D39C68A04203D201EBC2010879B8
:103A680010BD0132162A03F10803F0D1FEE71F202A
:103A7800F6E700BF709200080128094806D1094BF3
:103A880080F8C7101970B830FFF7F4BD90F8BF3050
:103A9800012B04D1034B80F8C0101970F3E770476D
:103AA800E00A00203801002000234FF6FF7110B50E
:103AB8001A460446084604F003F934B10948214679
:103AC80003F08CFF0748FFF705FC074B1B782BB169
:103AD8006FF07F40BDE8104003F0F9BF034B186852
:103AE8008001F7E7B00A0020420D0020EC0B00200F
:103AF80000234FF6FF7110B51A460446084604F035
:103B0800DFF834B10948214603F068FF0748FFF79A
:103B1800E1FB074B1B782BB16FF07F40BDE81040ED
:103B280004F022B8034B18688001F7E7B00A0020B8
:103B3800420D0020EC0B0020F0B5BDF814409DF8B4
:103B480018C09DF81CE09DF8205040B1012814D001
:103B58000122002398180138B0FBF2F0F0BD8CF078
:103B6800010CE30003EBCC0318330EEB450503EB24
:103B7800C5034FF47A714B43ECE7501F012803F15A
:103B8800040304D80C2C38BF0C24002706E0C1B964
:103B9800A2F10B07012F8CBF002701272801BCF1D8
:103BA800000F00EBCE000CBF14250025A0EB82000F
:103BB800062A4FEA82062844A2F1020C08D83546A4
:103BC8000BE00129E1D1A2F10C0047424741E5E7AA
:103BD8000830002FF3D04FEA8C050028ACBF2E1810
:103BE8002E1C701E90FBF5F003FB0044094B062ABF
:103BF8005A5C8CBF0C340E340A2A0AD8A30001334D
:103C08004FF47A7103FA0CF34B43034951F822201D
:103C1800A0E7FFDE299E0008449200080D4B10B56E
:103C280004461870587000F017F85CB134214FF44E
:103C3800E86003F034FE4421BDE8104040F24170D2
:103C480003F02DBE14214FF4E86003F028FE242170
:103C5800F2E700BF400C002008B50120FFF7A8FCE0
:103C6800054B18785A78824204D05870BDE808404D
:103C7800FFF7D4BF08BD00BF400C0020012808B5DD
:103C880006D00020FFF794FC034B00225A7008BDB1
:103C9800BDE80840FFF7E0BF400C00202DE9F04FD9
:103CA80085B089469DF84C1000919DF85C109DF8F0
:103CB80044A0BDF84070694CDFF8A4B1BDF83C6081
:103CC8002170002918BF0027BAF1000F15469DF88A
:103CD800482008BFFF228BF80020804620B1012829
:103CE80054D005B0BDE8F08F5E4C03F086FF0B237F
:103CF8004FEA490084F8EC3084F8E080C4F8E450D6
:103D0800FFF7A0FE41F60403A4F8BC309BF800308E
:103D180084F8C030009B84F8ED00002B0CBF012311
:103D2800F22384F8C130F60001238AF0010A84F8EE
:103D3800C23084F8B880A4F8BA6084F8BE8084F8E9
:103D4800BFA004F083F894F8E000003818BF012001
:103D5800FFF794FF04F1E000FFF740FC04F1B8001E
:103D6800FFF788FC404A1068516802AB03C302A8F9
:103D780003F073FE40F2FF10FFF770FB4FF4FA53A5
:103D88007B43B3FBF5F3394A1360AAE70020354CAF
:103D9800019303F032FF3649019B11F8091084F8AA
:103DA800E080EAB284F8F020B9F1000F45D10B3D6C
:103DB800012D8CBF00250125053A012A02D80C2EB9
:103DC80038BF0C2684F8F230012384F8B8309BF809
:103DD800003084F8C730009B84F8C8309DF858300C
:103DE80084F8C93084F8F11084F8F350A4F8C4605A
:103DF80084F8C6A004F02AF894F8E000003818BF48
:103E08000120FFF73BFF1B48FFF7E8FB1A48FFF7C5
:103E180031FCF8B203F0FDFE94F8C930012B40F2F2
:103E2800367014D103F05CFD00F0FB0140F23670EF
:103E380003F035FD4FF6FF73A5E7B9F1010F04D183
:103E4800A5F10C0045424541B6E70025B4E703F06B
:103E580047FD40F00401C9B2E8E700BF420D002069
:103E680038010020E00A002015910008EC0B002022
:103E7800299E0008C00B0020980B00202DE9F74F61
:103E88000C9DBDF838709DF83C909DF840A0884680
:103E98009346064648B101284DD040F6890003F004
:103EA8001FFD40F00401C9B28DE0524C0B2284F88A
:103EB800E000580084F8EC20C4F8E450FFF7C2FD95
:103EC80041F60403BAF1000FA4F8BC300CBF01237B
:103ED800F22384F8C130FF00012389F0010984F836
:103EE800C23084F8ED00C4F8E8B084F8B860A4F8EB
:103EF800BA7084F8BE6084F8BF9003F0A7FF94F806
:103F0800E000003818BF0120FFF7B8FE04F1E00018
:103F1800FFF764FB04F1B800FFF7ACFB364A106802
:103F280051686B4603C3684603F097FD40F2FF10E3
:103F3800FFF794FAB1E72F4C304984F8E000EAB271
:103F4800C95C84F8F020002B4AD10B3D012D8CBFB1
:103F580000250125053A012A02D80C2F38BF0C2765
:103F68009DF8343084F8F230012384F8B830244BBB
:103F780084F8F1101B7884F8C7309DF84C3084F829
:103F8800C93084F8F350A4F8C47084F8C69084F853
:103F9800C8A003F05BFF94F8E000003818BF0120C8
:103FA800FFF76CFE1748FFF719FB1748FFF762FB8E
:103FB80094F8F130062B7FF470AF40F6890003F0D7
:103FC8008FFC00F0FB0140F6890003F068FC4046D6
:103FD80003F00AFC149A0D4B1A6003B0BDE8F08F89
:103FE800012B04D1A5F10C035D425D41B2E7002528
:103FF800B0E700BFE00A002015910008299E0008DC
:1040080038010020C00B0020980B0020F00B002086
:1040180008B5174B18601748FFF75AFA002003F045
:1040280025FD012003F020FE0021084603F0CDFE07
:104038000421002003F086FE00234FF6FF711A4684
:10404800084603F03DFE40F6AC0003F07BFF40F667
:10405800890003F077FF0849084803F0B7FC0849CE
:10406800084803F0B3FC084B00221A7008BD00BFD3
:10407800D40B00201D380008F5370008C80A0020B6
:1040880009380008B00A0020420C00202DE9F0474A
:104098001E4F044600EBC1060025B44201D10020A2
:1040A80014E02068C30600F01F0911D4656845F0C4
:1040B8002005C0F3481AC0F34420102823D857F825
:1040C8002080B8F1000F0DD16FF01200BDE8F08725
:1040D800B9F1100F04D0B9F1110FEAD16568E8E71A
:1040E8003025E6E7404604F01FFA0028ECD04B469E
:1040F8002A460AF00F01404603F016FB002804F197
:104108000804CADAE2E76FF01500DFE78C930008CD
:10411800012912D0022907D089B90068094BC01AB1
:1041280018BF0120000370470068064B984214BF6F
:104138004FF440504FF400507047002070474FF440
:10414800005070470080004070B51D46094B00269E
:1041580033F812203346FBF7EBFF090241EA1061FE
:104168006C08000220182A46334641F10001FBF78B
:10417800DFFF70BD609500082DE9F04383B0026948
:104188004368064610681D680C46D9688368DB6872
:1041980000AF43B9334A3448012102F069FF0C37B4
:1041A800BD46BDE8F0833A1D98470028F2DB2F4B47
:1041B8009D4248D1D7F80480DFF8B4900025234603
:1041C800AAB240460021FFF7BFFFA0F5407048455E
:1041D80018D901350C2DF2D16D468AB033686A467C
:1041E8002449D461C2E905134FF400731384224BA8
:1041F80042F8103F1C4800234FF41151FDF7EAF82C
:10420800AD46CCE7194EF36A23F00F032B43F36254
:10421800002CC4D0194B33F815200023194640460A
:10422800FBF786FF090241EA106163080002C01823
:1042380022464FF0000341F10001FBF779FFC0F37C
:104248001300F060ABE72B6823F400432B607B6816
:10425800002CA4D003EB5403B3FBF4F39BB2EB6044
:104268009DE700BF3D9E0008C09000080080004008
:10427800FFFC0F006B9E0008040000016095000819
:104288002DE9F84306460A794068336904685F688F
:10429800012A0D464CD0931ED3F1000848EB0308C1
:1042A8004FEA88286979FFF733FF95F80690B9F146
:1042B800020F03463FD0B9F1040F40D0002A48D07E
:1042C800033A012A3DD94FF48050B3F5805F42D0BC
:1042D800B3F5405F41D0002B0CBF01230323994263
:1042E8002FD1414603F0AEFE81452AD1EB7963B167
:1042F800012B34D11B4B9C4207D0A3F574439C423D
:1043080003D003F570539C421BD1236823F00103AB
:1043180023602946304603F04BFF236843F001032E
:10432800236095E8030087E803000020BDE8F883D0
:104338004FF4C068B6E73AB94FF08050C5E7002A95
:10434800C1D06FF08500F1E7033A012AF9D90020BE
:10435800BBE71046B9E70023C1E70223BFE7032BF9
:10436800C8D0EEE7003801402DE9F04182B0046979
:10437800456806466148206000AF04F0D5F838B9B2
:104388005F4A6048012102F073FE6FF012040BE0EF
:104398002068E96883681B685BB95B4A5948012152
:1043A80002F066FE6FF0570420460837BD46BDE8A8
:1043B800F08198470446E8B9286A3A1D002103F0BD
:1043C800F6FD041EF0DB7B68002219791868FFF7F8
:1043D8005DFE041EE8DB756833692C68D3F8048039
:1043E800236823F001032360686804F09DF848B946
:1043F800464AC6E7444A4348012102F039FE002CE8
:10440800D2DBD9E7D5E901018368DB6803B19847B6
:1044180054E8003F43F00C0344E80032002AF7D187
:104428004146304603F0C4FE2B7D1BB1A36843F020
:104438000803A3606B7D1BB1636843F400436360AA
:10444800AB7D1BB1636843F480336360EB7D1BB1C4
:10445800636843F4003363602B7E002B3BD02C4B06
:104468009C421ED0A3F574439C421AD003F57053A6
:104478009C4216D06C4688B033686A462549C2E922
:1044880005134FF400739383234B42F8103F1D48E4
:1044980000234FF4E251FCF79DFFA5466FF0150489
:1044A80082E773681A68936843F4804393602368CB
:1044B8006A7E23F0787343EA425323602368AA7E16
:1044C80023F4F81343EA02432360EB7E1BB1A3688D
:1044D80043F40043A3602B7F1BB1236843F00053D0
:1044E8002360236843F001032360E3699A02FCD543
:1044F800E3695B02FCD5002456E700BF6C8C00081A
:10450800829E0008C0900008A19E0008C19E000875
:1045180000380140DC9E0008030000012DE9F0434B
:1045280083B00669D0F8048000AF0546444C2046A5
:1045380003F0FAFF58B9434A4348012102F098FDB5
:104548006FF0120420460C37BD46BDE8F083A3681F
:10455800D8F810101B684BB120469847041E08DA9B
:104568003A4A3948012102F083FDEBE76FF057041E
:10457800F6E76B681D7AB5B9D8F804003A1D2946E4
:1045880003F015FD041E07DB7B682A4619791868B5
:10459800FFF77CFD041E06DA2D4A2B48234601212D
:1045A80002F06FFDCEE7B5684FF00108D6E9023298
:1045B80003EBC2039D4204D3304603F084FF00247A
:1045C800C0E7286803F0B0FF0346B0B92A68297924
:1045D80010686C468AB06A461E4DD1614FF400716E
:1045E80011841D49C2E9055042F8101F16484FF4BE
:1045F8001151FCF7EFFEA546A2E728682979EB8858
:10460800D0F810C0D0F80890DCF80040DA0754BFA2
:1046180043F4B01383F4D01323F4801208FA01FE94
:10462800DB074CBF44EA0E0424EA0E04CCF8004031
:10463800D9F800309847041E84DB0835B6E700BF78
:104648006C8C0008829E000898900008199F00084A
:10465800349F0008529F0008040000012DE9F04F24
:104668008DB0D0F804B0046900AF9846DBF800308C
:104678007B6081460E4692461AB9B8F1000F00F0E9
:10468800FA80B388990400F1D8804FF0FF324FF0D8
:10469800FF3304F1100000F061FE6660DFF888C2A5
:1046A800D9F810303B60BCE80F0007F110050FC5C2
:1046B8009CE80F0085E80F003A68D9F804E0126812
:1046C800DEF80050B388964240F0C3801A0509D539
:1046D8002B6823F44443BAF1000F00F0B78043F489
:1046E80040432B60B388C3F34513082B0CBF012349
:1046F800022342462046514603F00BFE7B687A6847
:104708001E681B6843F040031360D9F810502868EE
:1047180006F4444648B183683BB10121083003F0F0
:10472800BEFE2B68186903F0F0FED9F804301B7A36
:1047380033B17E4AD2F8903023F40043C2F8903067
:104748002368DBF800509B88D80700F18D819BF81F
:104758001430002B00F06D812B6803F44448B8F541
:10476800404F40F05581AB68990700F15D81DBF857
:104778000050AB6813F4B87300F004826E468AB038
:104788006A466B4951616B49C2E906134FF40073DD
:104798001384694B42F8103F002368484FF41151C5
:1047A800FCF718FEAB685B06B54605D5EB68FB6001
:1047B800FB68AB68FB60FB686FF00408D9F804304D
:1047C800D9F810601D68AB68D80700F101822B6822
:1047D80003F48273B3F5827F1DD1AB681906FCD44C
:1047E80033686BB19A685AB1998811F4805A07D125
:1047F800186903F08AFE30685146083003F04FFE0E
:10480800D9F804301B7A33B1484AD2F8903043F4CF
:104818000043C2F89030AB689A0606D5AB683B6196
:104828003B692B6823F040032B6033689B88DB04CB
:1048380017D4284603F09CFD13E0A369002B7FF4EE
:1048480024AF63689E427FF420AF27E743F4004318
:1048580047E7C3F34512082A12D0102A10D06FF088
:10486800850823689B8813F4005304D1636004F11E
:10487800100000F039FD40463437BD46BDE8F08FE2
:1048880013F4004F6B682E4814BF43F0100323F055
:1048980010036B608368DEF81010DB683BB9294AA7
:1048A8002648012102F0E4FB6FF00408D9E707F17C
:1048B8000C0298470028F2DBF9683068012321FAD6
:1048C80003F2824219D90133092BF8D16D468AB017
:1048D8006A461D4BC2E905304B08D361090A052316
:1048E800116242F8103F154800234FF42151FCF79C
:1048F80071FD6FF01508AD46B3E72A6807F130017E
:1049080022F040022A6001EB83032A6853F8243C12
:1049180022F0380213432B60B3889B0716D42B6808
:1049280023F0020315E000BFD890000800040058E7
:10493800D19F0008DC9F000804000001989000083F
:104948006C8C0008769F0008A29F00082B6843F033
:1049580002032B60B38813F0040F2B6814BF43F0D5
:10496800010323F001032B60B38813F4006F2B6855
:1049780023F4444304D0BAF1000F38D043F4404341
:104988002B60B38813F0100F2B6814BF43F080031B
:1049980023F080032B602B6823F400532B60B3684B
:1049A80043B32B6843F400732B606B6823F0040354
:1049B8006B60B38813F0010F2B6814BF23F4827364
:1049C80043F482732B60B388C3F34513082B6B68D9
:1049D80006BF23F4706343F4E06343F470636B60D1
:1049E8006B6843F480536B603B681E607AE643F45F
:1049F8000043C5E7B38813F0010F2B6823F4007355
:104A0800D2D143F480232B606B6843F00403CFE7D3
:104A1800AB68DA0703D52146284603F0FEFCB8F553
:104A2800004F7FF4A0AEA2E62146284603F0ADFC75
:104A38009DE62B6803F44448B8F5004F08D1DBF82D
:104A480000008368DD07FCD5214603F0E6FC8EE60E
:104A5800AB689B07FCD52146284603F096FCB8F5C1
:104A6800404F3FF484AEEAE7AA68910767D5A26D84
:104A7800002A64D0C3F34513082B626D4AD113781A
:104A88002B73A36D9BB1013BA365002B3CD1636CD9
:104A980008336364A36C013BA364012304F1580247
:104AA80004F1480104F1440003F01DFC6065AB68A3
:104AB800DA077FF55CAEE36D002B3FF458AE226E4B
:104AC800002A3FF454AE22689288C2F34512082A9D
:104AD80041D12A7B1A70236E002B3FF448AE013B6C
:104AE8002366002B30D1E36C0833E364236D013B6C
:104AF8002365012304F1600204F1500104F14C0024
:104B080003F0F1FBE06532E6636D002BCFD0013393
:104B18006365CCE71388AB81A36D002BC7D0013B3D
:104B2800A3653BB9636C08336364A36C013BA3645E
:104B38000223B3E7636D002BB9D00233E8E76B6853
:104B480023F080036B60B2E7E36D002B3FF40FAEF8
:104B58000133E3650BE6EA681A80236E002B3FF405
:104B680006AE013B23663BB9E36C0833E364236D6F
:104B7800013B23650223BDE7E36D002B3FF4F7AD4E
:104B88000233E6E7B6F5404F18D1A36D93B9236E0B
:104B980083B1AB681E06FCD42B6823F040032B605E
:104BA8002B6823F4444343F400432B602B6843F001
:104BB80040032B607B681E6806F44446A36D002BF7
:104BC8007FF4BEAD236E002B7FF4BAAD9846F5E5B1
:104BD8002B7BF8E510B54FF0E0230F499C691A6963
:104BE80008689B690D4902F4803234B993B90346C9
:104BF8004AB90A681044C01A10BD002B08BF034602
:104C08000AB9A342F5D90A6802440A604FF0E022C3
:104C18001269EEE70446F3E7000C0020F40B0020CD
:104C28000A4B102283F82320094B4FF496521A603E
:104C3800084B002018604FF0E02341F2BF225A6170
:104C480098611A6942F007021A61704700ED00E0A6
:104C5800000C0020F40B0020684620F007018D4668
:104C680001B5FFF7B7FF0D4B0D4A186811680844E6
:104C7800106000221A600B4A13684FF49651C01A4C
:104C8800B0FBF1F001FB0033136001F083F9FCF78E
:104C9800E5FEBDE801408546704700BFF40B0020E3
:104CA800FC0B0020F80B00202DE9F041334E91B1A8
:104CB800421C0AD14FF0E022136923F0010313616B
:104CC8004FF07F433360BDE8F0813468012807DC8A
:104CD8004FF000080BE0431C3468F7D140F6A650AB
:104CE80040F6A7539842A8BF184600F1FF38EFF3E3
:104CF8001185102383F31288BFF36F8FFFF76AFFC4
:104D08004FF0E023DFF878C09F69DCF800301844E2
:104D18001C4B00221A601C4B1A68831A2AD44FF4C1
:104D2800965E0EFB083303F595531F33B3FBFEF174
:104D3800131A0EFB0133B3F5806F144A38BF4FF4D2
:104D48008063934228BF13464FF0E0223360916995
:104D58008F42A7EB010703F1FF3338BF3F195361B7
:104D6800384400239361CCF8000085F31188BFF321
:104D78006F8FA8E74FF48063E6E700BF000C0020C0
:104D8800FC0B0020F40B0020F80B002080E8FF004B
:104D980038B5EFF31185102383F31288BFF36F8FB3
:104DA800084B1C68084B1B68E41AFFF713FF85F3D0
:104DB8001188BFF36F8F4FF496532044B0FBF3F084
:104DC80038BD00BFFC0B0020F80B002038B5EFF30E
:104DD8001185102383F31288BFF36F8F044B1C686F
:104DE800FFF7F8FE85F31188BFF36F8F204438BDB5
:104DF800FC0B002010B54FF0B0439A68D96812F048
:104E08000C0205D00C2A4AD101F00303012B53D11F
:104E18004FF0B0412C480B6813F0080306D00B681C
:104E280013F0080337D1D1F8941007E00C68240771
:104E380056BFD1F894300968C3F3032350F82330E0
:104E4800002A0CBF184600204FF0B0418A6802F0D3
:104E58000C020C2A1ED1CA6802F00302022A31D0C1
:104E6800032A06D10B68194A13F4801F184B08BF90
:104E780013464FF0B042D068D168D268C0F306201C
:104E88005843C1F302130133B0FBF3F0530F01335E
:104E9800B0FBF3F010BD0B68C3F30313CEE7042A8D
:104EA80007D0082A08D11B6813F4801307D10748D4
:104EB800CAE708480023C7E700231846C4E70448A0
:104EC8000023C1E7034BD4E7A894000800127A0036
:104ED80000093D000024F4001F4A034607CA84B0B5
:104EE8000DF1100C0CE9070018463BB31B4B1B686F
:104EF80003F4C063B3F5007F22D1194B984229D837
:104F0800184B984224D9184B98428CBF0220012094
:104F1800164904AB03EB80000B6850F80C2C23F007
:104F2800070313430B60086800F0070082421CBFA8
:104F3800086800F00700831A5842584104B07047C7
:104F48000B4B984206D80B4B984201D90A4BDBE72A
:104F58000020DDE70020F1E7F89000080004005881
:104F6800006CDC0280A812010051250200400058A4
:104F78000024F400808D5B00001BB70010B50446C8
:104F8800FCF758F90348044A012102F071F8204659
:104F980003F0D5FA8890000815A000082DE9F84319
:104FA800044600AF0D46EFF31188102383F31288EF
:104FB800BFF36F8F0428294A98BF294B9668117C44
:104FC80094BF53F82030274BE9468AB06A462648F2
:104FD800C2E9073140F201339384244BC2E9050446
:104FE80042F8103F224800234FF43151FCF7F2F900
:104FF800CD4645B1EB69C3F3080323B11D4A1C48EC
:10500800012102F035F82EB1304603F01DFB08B13E
:10501800037803B91848E9468AB06A46174BD06145
:10502800C2E9053640F201331384154B42F8103FAC
:1050380000230F484FF41151FCF7CCF92946CD460F
:105048002046FFF79BFF88F31188BFF36F8F304628
:10505800FCF750FFBD46BDE8F88300BF040C0020F4
:105068002895000824A000083AA0000805000001BF
:105078008890000862A0000832A0000883A00008F9
:10508800040000010E4B70B553F820400D4E01305E
:1050980053F82050A54200D870BD54F8040B0028DE
:1050A800F8D0B04205D3084B984202D2036898471B
:1050B800F0E7037FDB07EDD403F049FAEAE700BF26
:1050C8003C950008CC8D0008E48D000870B52A4B8B
:1050D8002A4C2B4D012286B003201A70FFF7D2FF0D
:1050E80001F040F90420FFF7CDFF2646AE4204F157
:1050F800300410D300F046FC204C224EAC4226D39C
:1051080000F054FCFBF7CCF91F4A137B23F0010392
:10511800137306B070BD54F80C3C059354F8103C5A
:10512800049354F8143C039354F8183C029354F82D
:105138001C3C019354F8203C009354E90A2354E999
:105148000C0100F079FA54F8303C5E65CDE7D4E9FB
:105158000A23B3F1FF3F08BFB2F1FF3F05D052EA7F
:105168000301206803D100F0DDFC3034C6E7314686
:10517800183000F07FFEF8E7430D0020D48F0008B8
:10518800D48F0008438700082807002008B5034883
:10519800034A0021121A03F0F1F908BDE8010020C2
:1051A800480D002070B5002386B00122CDE9042304
:1051B800134E144D01930F22CDE9023212491423E4
:1051C80003FB005506EBC01604464FF4A07000FB25
:1051D80004110E4B00954FF48072304600F02CFA03
:1051E800737B0B4AEE6023F0040373734FF404637C
:1051F80004FB033313442C746B6006B070BD00BF0E
:10520800A8060020040C0020001900208D85000845
:10521800C0100020BFB50020FFF734FF2A4B83F3EE
:1052280008882A4C2A4F636943F400736361002598
:10523800F02384F82230E57725766576A57684F81C
:105248002050636A43F4E0236362FCF723FEFCF713
:1052580041FF4FF0FF33A362E362FDF715F8FCF757
:105268005DFFFBF749FF1B481B4C00F05DFA03F09C
:105278005AF9FBF7FBFD0120FFF704FF0220FFF7B7
:1052880001FF00F0C7FB154B15495C61154B0593F1
:105298000123CDE903534FF480623B46CDE9015524
:1052A8000095204600F0C8F9627B064622F0040209
:1052B8002046627303F004FA2846FFF773FF3A4664
:1052C80031462046FCF7E8FE0019002000ED00E01A
:1052D800D5500008A807002028070020040C00204B
:1052E800401A00202597000870B5EFF311861023A7
:1052F80083F31288BFF36F8F0468A0421AD0CCB131
:10530800D4E9003213605A60637B002523F002035E
:10531800C4E900556373A56004F1180003F090FA1E
:10532800E567204603F0CCF931460B48BDE87040EC
:1053380000F002BBD0E902329A4218BF0133836001
:105348000221103003F0C2FB0028EDD186F311884A
:10535800BFF36F8F70BD00BF440D002013B5EFF38E
:105368001181102484F31288BFF36F8F846844B1CD
:10537800013C846081F31188BFF36F8F002002B075
:1053880010BD52EA030406D181F31188BFF36F8F71
:105398006FF00F00F3E7CDE900230246014800F063
:1053A800A9FAECE7440D00202DE9FF414F4E0446D1
:1053B8001027EFF3118887F31288BFF36F8FD4F8A3
:1053C8008450F5B9022104F19C0003F0F6F8002896
:1053D80068D004F1940500220121284603F0F7F96A
:1053E8000028F8D1002302934FF0FF324FF0FF332B
:1053F800CDE90023414604F18C023D4800F058FCF9
:10540800D7E7D4F888202B68C4F88430954208BFC1
:10541800C4F88830D4F89C3043F00203C4F89C30B8
:10542800EB6823F0040343F00103EB606B6888F337
:105438001188BFF36F8F28469847EFF3118887F3D9
:105448001288BFF36F8FEB68D80623F0010236D4B9
:10545800EA60EB689A0716D5306823F00203EB6020
:1054680088B10368002170B14268954235D103685C
:1054780069BB72683360824200D17360002340F8D0
:10548800083BFFF731FFD4F89C3023F00203C4F83F
:105498009C3088F31188BFF36F8FDB0589D400F047
:1054A800C1FA86E7D4F89C30D9069BD5C4F89C008D
:1054B80088F31188BFF36F8F04B0BDE8F08123F043
:1054C8001103EB6005F11000FFF70EFFC1E70B6059
:1054D8007368834208BF7160D0E723B11A68014638
:1054E80018461346BFE71A46F9E700BF240C002008
:1054F800440D0020F8B5C3689A0704460F46C3F365
:1055080040062ED45B071CD40B680BB983680B606C
:10551800E368DD0744BFA3683B603D684CBF0226D3
:105528000126002D3CD0204B9A68D5F880309A424D
:105538000AD0D5F89C30D807C3F3800214D46FF092
:10554800120600233B6025E003F075F8D5F89C307F
:105558000028F0D1D907C3F3C002F0D552B15B07D8
:1055680008D46FF00F06ECE7002AFAD1C3F3C003A2
:10557800002BF6D100232360D5F8883063B9C5E93C
:105588002144284603F024F8E36843F00403E36069
:105598003B68A3603046F8BD1C60C5F88840F0E75A
:1055A8006FF01506CDE700BF040C00200146014846
:1055B80003F031B848080020F0B589B0044600204F
:1055C800C4E921000E9D04F18C00C4E9230004F114
:1055D8009400C4E9250055B32879002840F2011049
:1055E80008BF0120C4F89C0000204FF0FF364FF0A0
:1055F800FF37CDE90330CDE90100CDE906670D4B52
:105608000094204600F064F855B1296811B120468D
:1056180003F017F86B791BB1237B43F00103237365
:10562800204600F07FFAC4F8804009B0F0BD0120A0
:10563800D8E700BFB15300082DE9F043073285B021
:1056480022F007020E461F461099017300F1580315
:105658007F32C0E916330446002322F03F020421BA
:10566800836041733F2A0F98A073C4E90633E3733C
:1056780006F14009A2F1400805D883F31188BFF369
:105688006F8F084602DFB51829462046FCF7C6F991
:1056980007300E9B20F00700E066C4E919980293D2
:1056A8000D9B01932D1A0C9B00932A463B463146CD
:1056B8002046FCF7BFFC00236365044B9B6803B1DD
:1056C8001B6F2367284605B0BDE8F083040C002053
:1056D800F0B587B000250595109D04950F9D03959D
:1056E8000E9D0295DDE912760D9D01950C9D0095A4
:1056F8000446FFF7A1FFB6F1FF3F08BFB7F1FF3F30
:1057080005D056EA070305D1204600F00BFA2046DB
:1057180007B0F0BD3A46334604F11800014900F0DD
:10572800A9FBF4E74387000840F2011383810023B3
:10573800C0E919330367014B98607047040C0020D7
:10574800094A93686FF00A01D967084998674B6856
:1057580043F080534B60002383F31188BFF36F8FAE
:105768009368D86F704700BF040C002000ED00E07C
:1057780070B590F90D20437B002A36DBD90634D169
:105788001B4C63F07F032246437352F8183FE169CC
:10579800934207D1C0E900210860E06111E0994215
:1057A800F8D01B68002BF5D090F90E5093F90E60D5
:1057B800B542F4D0AE42F2DD5968C0E90031086064
:1057C8005860A569954200D005B9E568A3685A7B79
:1057D800D20604D1DA897F2A01D9AA6932B1AB424B
:1057E80002D0284600F0A4FA656170BD6361FCE749
:1057F800040C002038B590F90D20437B002A01469F
:1058080004DA03F07F03437302F020FF0D4D2A46AC
:10581800AB6852F8184F944200D004B9EC688B4238
:1058280007D05A7BD20604D1DA897F2A01D9A26926
:105838002AB1A34202D0204600F07AFA23466B61CF
:1058480038BD00BF040C0020B3F1FF3F08BFB2F120
:10585800FF3F03D00249183000F00CBB704700BF6F
:105868004387000870B590F90D20437B002A014654
:1058780004DA03F07F03437302F0E8FE4B7B1C4C11
:1058880063F07F0322464B7352F8183FE069934256
:1058980007D1C1E900200160E16111E09842F8D028
:1058A8001B68002BF5D091F90E5093F90E60B542A4
:1058B800F4D0AE42F2DD5868C1E9003001605960A9
:1058C800A569A368954200D005B9E5688B4207D061
:1058D8005A7BD20604D1DA897F2A01D9AA692AB16A
:1058E800AB4202D0284600F023FA2B46636170BD14
:1058F800040C0020F8B50E4B0C4611460D4A98686A
:105908001060DDE90667EFF31182102282F3128836
:10591800BFF36F8F9D68284602F0AAFE28463246DC
:105928003B46FFF791FF2046BDE8F840FFF708BF68
:10593800040C00202C0C002049B9EFF3058030B985
:10594800054B5A699B689A4201D0FFF7F9BE81F36B
:105958001188BFF36F8F7047040C0020034648B9C5
:10596800EFF3058232B9064A51699268914201D033
:10597800FFF7E6BE83F31188BFF36F8F704700BF50
:10598800040C0020EFF31181102383F31288BFF376
:105998006F8F054B9A68D37B013BD37381F31188D2
:1059A800BFF36F8F704700BF040C002070B5EFF392
:1059B8001186102383F31288BFF36F8F144DAB68E1
:1059C800DA7B0132DA732A4652F8184F944200D033
:1059D80004B9EC685A7BD20604D1DA897F2A01D946
:1059E800A2692AB1A34202D0204600F0A1F92346B9
:1059F8006B6186F31188BFF36F8FEFF3118010236B
:105A080083F31288BFF36F8FBDE87040FFF7A6BF1E
:105A1800040C0020024B03F11802C3E90622704768
:105A2800040C002070B5EFF31186102383F312885D
:105A3800BFF36F8F1B4CA168E0690B68814214BFEC
:105A48001A46002249680B605960A368E1692AB9BF
:105A5800154AC3E900210B60E3610CE093F90E00DD
:105A680092F90E50A84218D0854216DD5168C3E954
:105A780000210B605360A5690B4B9D4200D005B90E
:105A8800E568A3689D4202D0284600F051F9656197
:105A98003046BDE87040FFF753BE8A42D8D012683E
:105AA800D5E700BF040C00201C0C0020F8B550EA14
:105AB800010306460C4603D1FFF7B4FF0020F8BDEA
:105AC800EFF31187102383F31288BFF36F8F124D02
