:020000040800F2
:10000000803A0020392800086FF8000825280008E9
:1000100025280008252800082528000800000000E1
:10002000000000000000000000000000F9280008A7
:10003000252800080000000099280008B1BD00082C
:10004000712A0008712A0008712A0008712A000824
:10005000712A0008712A0008712A0008712A000814
:10006000712A0008712A0008712A0008712A000804
:10007000712A0008712A0008712A0008712A0008F4
:10008000712A0008712A0008712A0008712A0008E4
:10009000712A0008712A0008712A0008712A0008D4
:1000A000712A0008712A0008712A0008712A0008C4
:1000B000712A0008712A0008712A0008712A0008B4
:1000C000712A0008712A0008712A0008712A0008A4
:1000D000712A0008712A0008712A0008712A000894
:1000E000712A0008712A0008712A0008712A000884
:1000F000712A0008712A0008712A0008712A000874
:10010000712A0008712A0008712A0008712A000863
:10011000712A0008712A0008712A0008712A000853
:10012000712A0008712A0008712A0008712A000843
:08013000712A0008712A000881
:1001380080F0004002E000BF81F0004142001FBF94
:100148005FEA410392EA030F7FEA226C7FEA236C9D
:100158006AD04FEA1262D2EB1363C1BFD218414092
:1001680048404140B8BF5B42192B88BF704710F028
:10017800004F40F4000020F07F4018BF404211F0CB
:10018800004F41F4000121F07F4118BF494292EA33
:10019800030F3FD0A2F1010241FA03FC10EB0C005F
:1001A800C3F1200301FA03F100F0004302D54942EC
:1001B80060EB4000B0F5000F13D3B0F1807F06D399
:1001C80040084FEA310102F10102FE2A51D2B1F191
:1001D800004F40EBC25008BF20F0010040EA030086
:1001E8007047490040EB0000013A28BFB0F5000F06
:1001F800EDD2B0FA80FCACF1080CB2EB0C0200FABC
:100208000CF0AABF00EBC25052421843BCBFD0400A
:100218001843704792F0000F81F4000106BF80F484
:1002280000000132013BB5E74FEA41037FEA226C47
:1002380018BF7FEA236C21D092EA030F04D092F012
:10024800000F08BF0846704790EA010F1CBF002046
:10025800704712F07F4F04D1400028BF40F00040A3
:10026800704712F100723CBF00F50000704700F0C3
:10027800004343F0FE4040F4000070477FEA2262EA
:1002880016BF08467FEA23630146420206BF5FEABB
:10029800412390EA010F40F4800070474FF00003BB
:1002A80004E000BF10F0004348BF40425FEA000C82
:1002B80008BF704743F0964301464FF000001CE02A
:1002C80050EA010208BF70474FF000030AE000BF80
:1002D80050EA010208BF704711F0004302D54042BE
:1002E80061EB41015FEA010C02BF84460146002030
:1002F80043F0B64308BFA3F18053A3F50003BCFA4B
:100308008CF2083AA3EBC25310DB01FA02FC6344F7
:1003180000FA02FCC2F12002BCF1004F20FA02F2FE
:1003280043EB020008BF20F00100704702F12002F1
:1003380001FA02FCC2F1200250EA4C0021FA02F252
:1003480043EB020008BF20EADC7070474FF0FF0C57
:100358001CEAD0521EBF1CEAD15392EA0C0F93EA52
:100368000C0F6FD01A4480EA010C400218BF5FEAF4
:1003780041211ED04FF0006343EA501043EA511167
:10038800A0FB01310CF00040B1F5000F3EBF490061
:1003980041EAD3715B0040EA010062F17F02FD2A65
:1003A8001DD8B3F1004F40EBC25008BF20F0010048
:1003B800704790F0000F0CF0004C08BF49024CEA5F
:1003C800502040EA51207F3AC2BFD2F1FF0340EAF1
:1003D800C250704740F400004FF00003013A5DDC62
:1003E80012F1190FDCBF00F000407047C2F10002A3
:1003F800410021FA02F1C2F1200200FA02FC5FEA90
:10040800310040F1000053EA4C0308BF20EADC70D9
:10041800704792F0000F00F0004C02BF400010F44B
:10042800000F013AF9D040EA0C0093F0000F01F0F8
:10043800004C02BF490011F4000F013BF9D041EA1A
:100448000C018FE70CEAD15392EA0C0F18BF93EA1C
:100458000C0F0AD030F0004C18BF31F0004CD8D146
:1004680080EA010000F00040704790F0000F17BFCD
:1004780090F0004F084691F0000F91F0004F14D013
:1004880092EA0C0F01D142020FD193EA0C0F03D16B
:100498004B0218BF084608D180EA010000F000406E
:1004A80040F0FE4040F40000704740F0FE4040F449
:1004B800400070474FF0FF0C1CEAD0521EBF1CEAE8
:1004C800D15392EA0C0F93EA0C0F69D0A2EB030206
:1004D80080EA010C49024FEA402037D04FF08053A0
:1004E80043EA111143EA10130CF000408B4238BF65
:1004F8005B0042F17D024FF4000C8B4224BF5B1A73
:1005080040EA0C00B3EB510F24BFA3EB510340EAC0
:100518005C00B3EB910F24BFA3EB910340EA9C006E
:10052800B3EBD10F24BFA3EBD10340EADC001B01DE
:1005380018BF5FEA1C1CE0D1FD2A3FF650AF8B4282
:1005480040EBC25008BF20F0010070470CF0004C8F
:100558004CEA50207F32C2BFD2F1FF0340EAC250BA
:10056800704740F400004FF00003013A37E792F07B
:10057800000F00F0004C02BF400010F4000F013AD9
:10058800F9D040EA0C0093F0000F01F0004C02BFD4
:10059800490011F4000F013BF9D041EA0C0195E73D
:1005A8000CEAD15392EA0C0F08D142027FF47DAFD6
:1005B80093EA0C0F7FF470AF084676E793EA0C0FC6
:1005C80004D14B023FF44CAF08466EE730F0004CC4
:1005D80018BF31F0004CCAD130F000427FF45CAF54
:1005E80031F000437FF43CAF5FE700BF4FF0FF3CC2
:1005F80006E000BF4FF0010C02E000BF4FF0010C15
:100608004DF804CD4FEA40024FEA41037FEA226CDD
:1006180018BF7FEA236C11D001B052EA530C18BFFF
:1006280090EA010F58BFB2EB030088BFC81738BF64
:100638006FEAE17018BF40F0010070477FEA226C52
:1006480002D15FEA402C05D17FEA236CE4D15FEA4E
:10065800412CE1D05DF8040B704700BF8446084682
:100668006146FFE70FB5FFF7C9FF002848BF10F143
:10067800000F0FBD4DF808EDFFF7F4FF0CBF012088
:1006880000205DF808FB00BF4DF808EDFFF7EAFF12
:1006980034BF012000205DF808FB00BF4DF808EDCD
:1006A800FFF7E0FF94BF012000205DF808FB00BFC2
:1006B8004DF808EDFFF7D2FF94BF012000205DF848
:1006C80008FB00BF4DF808EDFFF7C8FF34BF012055
:1006D80000205DF808FB00BF4FEA4002B2F1FE4F70
:1006E8000FD34FF09E03B3EB12620DD94FEA0023EC
:1006F80043F0004310F0004F23FA02F018BF4042C5
:1007080070474FF00000704712F1610F01D14202AB
:1007180005D110F0004008BF6FF0004070474FF05F
:10072800000070477BB972B90029BEBF00204FF0A6
:10073800004106E008BF00281CBF6FF000414FF0E1
:10074800FF3000F057B8ADF1080C6DE904CE002970
:1007580009DB002B1ADB00F06AF8DDF804E0DDE9BC
:10076800022304B07047404261EB4101002B1BDBC0
:1007780000F05DF8DDF804E0DDE9022304B0404252
:1007880061EB4101524263EB43037047524263EB12
:10079800430300F04CF8DDF804E0DDE9022304B07F
:1007A800404261EB41017047524263EB430300F062
:1007B8003EF8DDF804E0DDE9022304B0524263EBC1
:1007C8004303704753B94AB9002908BF00281CBF22
:1007D8004FF0FF314FF0FF3000F00CB8ADF1080CCE
:1007E8006DE904CE00F023F8DDF804E0DDE902232A
:1007F80004B07047704700BF034613F8012B002A66
:10080800FBD1181A01387047430803F05533C01A52
:1008180000F03333800800F03330184400EB101038
:100828004FF0013300F00F305843000E70472DE9A8
:10083800F04786468C460846089E15467446194673
:10084800002B40F0C2808542B2FA82F245D94AB103
:10085800C2F1200300FA02FC2EFA03F3954043EAA2
:100868000C0C94404FEA154EA8B2BCFBFEF8230CC2
:100878000EFB18CC08FB00F943EA0C43994528D92C
:10088800EB1808F1FF3704D2994502D9A8F10207FD
:100898002B44A3EB0903A4B2B3FBFEFC0EFB1C33F1
:1008A8000CFB00F044EA0344A04214D92C190CF1C3
:1008B800FF3304D2A04202D9ACF102032C44241A1B
:1008C80043EA07401EB1D440002334607360BDE89A
:1008D800F0874746DDE76346F1E792BB431B0121FA
:1008E8004FEA154EAFB2B3FBFEFC200C0EFB1C33D7
:1008F8000CFB07F840EA0343984562D9EB180CF162
:10090800FF3004D2984502D9ACF102002B44A3EB86
:100918000803A4B2B3FBFEFC0EFB1C330CFB07F769
:1009280044EA0344A7424ED92C190CF1FF3304D2F0
:10093800A74202D9ACF102032C44E41B43EA00406D
:10094800C0E7C2F1200320FA03F1954090402EFA47
:1009580003F303434FEA154EAFB2B1FBFEFC0EFBA7
:100968001C10190C0CFB07F841EA0041884504FAF1
:1009780002F422D969180CF1FF3004D2884502D953
:10098800ACF102002944A1EB08019BB2B1FBFEFCCB
:100998000EFB1C110CFB07F743EA01439F420ED9DB
:1009A800EB180CF1FF3104D29F4202D9ACF10201DD
:1009B8002B44DB1B41EA004192E76046E3E76146CE
:1009C800F7E76046A3E76346B7E7834206D916B957
:1009D800002108467BE7C6E900E0F9E7B3FA83F7A8
:1009E8008FB9834201D3724508D8BEEB020460EB8D
:1009F800030301209C461EB9002168E73846FAE740
:100A0800C6E9004CF8E7C7F1200CBB4022FA0CF409
:100A18001C432EFA0CF120FA0CF3B84001434FEABC
:100A280014490EFA07F5B3FBF9F81FFA84FE09FB1F
:100A380018300B0C08FB0EFA43EA00439A4502FAF9
:100A480007F240D9E31808F1FF3004D29A4502D9D9
:100A5800A8F102002344A3EB0A0389B2B3FBF9F817
:100A680009FB183308FB0EFE41EA03418E452CD9D9
:100A7800611808F1FF3304D28E4502D9A8F10203A8
:100A8800214443EA0040A0FB0298A1EB0E01414536
:100A9800CE46434602D306D14D4504D2B9EB020EE9
:100AA80068EB04030138002EA6D0B5EB0E0261EB0B
:100AB800030101FA0CFC22FA07F34CEA0303F9409C
:100AC800C6E9003198E74046C5E74346D9E7000044
:100AD8002DE9F04100AF6E468CB03D7ED7F81C8002
:100AE8006C46DFF864C06362C4E905C001F0010028
:100AF800C4E907022246C1F340010823C4E90A15E4
:100B080042F8103F1148002344F2C00101F01AF9DD
:100B1800B546B8F1000F13D088B06A460C4B536144
:100B28000C4B93614FF40073938329050A4B42F8E9
:100B3800103F41F4E6510548434601F003F9B54634
:100B4800BD46BDE8F08100BFE841010884360108D0
:100B5800B64A01081C420108030000012DE9F043D0
:100B680097B002AF7A4C204611F031FD0346B8B970
:100B780021686C4688B002AA7648C2E905014FF49C
:100B880000719183744942F8101F74484FF4E25180
:100B980001F0D8F8A54600205437BD46BDE8F083DB
:100BA800052002F07BFA031E05DA6D4A6B48012125
:100BB8000EF08DFDEFE702F089FC031E01DA694AA9
:100BC800F4E76948012102F07FFB034670B1674AE8
:100BD800624801210EF07BFD002002F0ABFB0520EE
:100BE80002F08AFB031E07DA614ADFE7614A5B48C5
:100BF80003210EF063FDEFE70023C7F80E30C7F8B6
:100C08001230FB824FF6FF73BB8107F10C005A4B81
:100C18003B6102F04BFC594B07F1180203F1100637
:100C2800154618685968144603C40833B342224667
:100C3800F7D1534B07F1280203F1100C1646186838
:100C48005968144603C4083363452246F7D1002384
:100C5800FB64C7E911334B4B3D64012407F13800AD
:100C6800C7E90E3687F84C4002F034FA031E01DA61
:100C7800454A9BE7454A394803210EF01FFD444881
:100C880011F0A5FC28B9434A344821460EF016FD58
:100C980081E73F4E404A3148DFF8009103210EF0CA
:100CA8000DFDD6F808803A48D8F80C30402198470E
:100CB800034650B13A4A294801210EF008FD4CF28A
:100CC8005030002111F013FEEDE70D21D8F8103057
:100CD8003A1D30469847054610B1324A0346EAE7BE
:100CE800BC6842F2107394FBF3F47B68642202FB45
:100CF80003444C4547F6FF73B8BF4C469C42A8BF17
:100D08001C4694FBF2F302FB1342144800920321A1
:100D1800254A0EF0E6FC02222B46394610463C8056
:100D280002F03AFB10F10B0F034605D11F4A0221CE
:100D38000A480EF0C3FC06E0002806DA1C4A0748F9
:100D480001210EF0C4FC1B48BBE71B4A0321EFE757
:100D5800843201082E42010803000001843601088C
:100D68004442010862420108980200207B420108BF
:100D7800CB420108A0420108D90A0008E043010853
:100D8800F1430108BB110126EB42010803430108A6
:100D9800A4320108124301082D4301080080FFFF17
:100DA8003B4301085A430108784301088F4301086F
:100DB800BC430108C0270900D44301082DE9F04FBE
:100DC80091B08407009302F004030293C2F3C203B4
:100DD80003F10103DDF86880039205460E4605938A
:100DE80040F0BA81041D30B1072909D86FF01B0003
:100DF80011B0BDE8F08F01F007063444C6F10806CB
:100E0800009B4FF00009591E4FF0040A4FF0FF33C2
:100E18000193CDF810904F46CB4653460DB1009A3A
:100E280022600598002800F3E8809848009A8242DA
:100E380003D397488242C0F0E080039AA4EB050EE2
:100E480092074FEA9E0000F103810F2F00F2B18054
:100E5800002D00F0058107F140020DEB020C019A0C
:100E68000CF8200C0CF8102C049801300490E7E0E2
:100E78007A285DD84B280ED8472859D829282DD844
:100E8800252852D054D820287AD02338D0F1000B06
:100E98004BEB000B74E04C382E2849D8DFE800F003
:100EA8007048484848484848484848484B4848488F
:100EB800484848484859484B4B595959704B6D4810
:100EC8007048184B184848827F4B48484B487F0069
:100ED80000204FF0000B4FF0040A38E02A38C0B267
:100EE800012202FA00F010EA0E0F49D110F0625CFC
:100EF8002FD110EA020B43D06046013C5444B4FBA6
:100F0800FAF40AFB04F4002D61D0A3EB050CA44409
:100F1800B4453FF66BAF002868D1042B47D158F889
:100F2800043B2360043404232AE0019A013A019225
:100F38004FF0000B24E011F8010C6C2834D111F8A3
:100F4800023C00206C2B8346C5D14FF0080A53465B
:100F5800D3E708F1070828F007080734F8E802ABD8
:100F680024F0070435B106982044B0423FF63EAF5E
:100F7800C4E900AB08344FF0000B4FF0080A5346A1
:100F880011F8010F002878D0BBF1000F7FF470AF83
:100F98002528F5D1019B013301934FF0010B4FF048
:100FA800040AECE7584694E700208346A5E7082B97
:100FB80002D06FF015001BE708F1070828F00708B2
:100FC800F8E80223C4E9002308340823D8E768B9FD
:100FD800042B02D108F10408A4E7082BE9D108F191
:100FE800070828F0070808F10808EDE7059A013A0C
:100FF800059258F8042B009210E7039A900720D521
:10100800A4EB050E4FEA9E004FF0010CBEF5007FE1
:10101800CFD20F2FCDD8F5B107F140020DEB020E5C
:10102800C0B2019A0EF8200C0EF8102CBCF1000F7B
:101038003FF41AAF60F07F000EF8200C09F10109A7
:101048000137C5F10802043406924FF6DA7E97E7B5
:101058004FF0000CDAE7BCF1000F01D00136EFE7E2
:10106800029802360028EBD10098CDE90631FFF747
:10107800C3FBDDE906310644E2E7631BB3F5806F85
:1010880097D23DB9A6F10804E018B1E694300108FA
:10109800105B0108029A28609B082B709DF810309D
:1010A800C2B1EB7085F80290B9F1000F05D008A81D
:1010B8000022C5F1010C97420ED1C5F101030DF1D3
:1010C80020084FF0000A01930DF1300B574512D15B
:1010D800601B8DE66B70E5E710F8013B190608D533
:1010E8000CEB040EB64503F07F033FF67FAE04F821
:1010F800013B0132DFE7B9F1000F03D098F9002076
:10110800002A17DB029BD3B11AF80B2004F8012B35
:101118000022019B18191044B0423FF667AE98F8B8
:10112800000004F8010B00990392204611F0C9FD54
:10113800039A14440AF1010A08F10108C6E798F86D
:10114800002055F822300093029B45F82230009881
:10115800FFF752FB421CDCE76FF00D0048E600BFCA
:101168002DE9F04F97B000AF90F802A0D7F880B003
:101178003B62CBF3C0030446FA62BB61894641B9BE
:10118800457800780AEB800020444D4517D8A0EB3D
:101198000409E378FB61BAF1000F02D01BF0010FDC
:1011A80016D1FB6953BBFB6A1BB13A6A4946204614
:1011B80098474D4628465C37BD46BDE8F08F461C2B
:1011C8003046FFF719FB0130304409F10109DCE72B
:1011D800237862687A62FA6A9900796104EB83017C
:1011E800002A40F000814D460E4601EB0A094FF0F7
:1011F80000084E454CD101EB0A0610E01BF0020F27
:10120800D1D023789A007A6162687A62FA6A04EB2C
:101218008301002A77D14D4601EB0A0690461BF060
:10122800050F0CBF02230123FB62FB6906EB430A8F
:101238000BF00203BB625645BCD016F8021B16F829
:10124800013C54F82390994B994502D3984B994502
:1012580036D3BB69002B40D0786A0DF0A8FC002873
:101268003BD0E9468AB06A46924B53617B6AC2E931
:1012780006314FF4007313848F4B42F8103F8F48A8
:1012880000234FF4125100F05DFD023DCD46D2E738
:1012980016F8013BF96254F82300FFF7ADFAD7F8C6
:1012A8008430F96A01304BB1D7F8883098453EBF91
:1012B800D7F8843023F8180008F10108054498E7A6
:1012C800BB6923B1786A0DF072FC0028C9D11BF004
:1012D800010F05D1FB6AED1AADE7BB6A002BAAD056
:1012E8004846FFF789FAD7F8843053B1D7F88830E1
:1012F80098453FBFD7F88420431C22F8183008F1DE
:101308000108054497E7BAF1000F72D01BF00406F4
:1013180072D0D046002607F1480052463B61B962B8
:1013280011F0CFFCB96A3B6901EB0A02BA62FA69AB
:10133800F9695200FA60BA6A02EB41023A610BF0AD
:101348000202BA603A69B96A8A4257D162787A6207
:101358001BF0020F32440CBF4FEA580100211BF06A
:10136800010FD2B240F09F801BF0040F14BF40461B
:101378000020BB616270A070E1703A6A7969FB6A0B
:1013880020469847051EFFF615AFBB6923707B6A98
:101398006370FB69E37041463A6AFB6A84F802A00D
:1013A80007F148009847B0F10008C0F2BB807B699C
:1013B8003A6AA9EB0A01C91AFB68C91AD7E90A03EC
:1013C80098470028C0F2B080A84408EB00054FF009
:1013D800000B07F1380AB34572D300213A6AFB6A59
:1013E80008469847E6E656464FF0000807F13800E9
:1013F80093E75646D04697E7B04695E7BA6A12F89B
:10140800021BBA6212F8015C284A54F8250090427F
:1014180002D3274A90421ED3BA6932B1786A7B60F8
:101428000DF0C5FB7B6800288CD1BA6802BB08F1B7
:10143800280207F1300C08F10100944407F1580222
:1014480052FA80F008F102080CF8101C5FFA88F8CC
:1014580000F8105C76E7BA693AB1786A7B600DF0FB
:10146800A6FB7B6800287FF46DAF1BF0010F09D045
:1014780006F1280207F13000711C161806F8205CE6
:10148800CEB25FE71BF0040F3FF45CAF08F128020F
:1014980007F1300008F1010102EB000808F8105CC0
:1014A8005FFA81F84EE7002063E700BF9430010837
:1014B800105B010806440108040000018C3601088D
:1014C8001BF80A3087F8373054F82390D7F884305F
:1014D8002BB3D7F888309B4521D2D7F8843033F81E
:1014E8001B803A6AFB6A012107F1370098470028F8
:1014F8001ADB0544B8F1000F06D14846FFF77CF91E
:1015080000F101081FFA88F83A6AFB6A4146484622
:101518009847002808DB05440BF1010B5BE74FF007
:101528000008DEE7454645E6054643E6014B1860F8
:10153800704700BFB800002080B505460E46174624
:1015480098460BF02BFD034611F096FDDFF8189036
:10155800044649F80030424630463946A84754F810
:10156800090001F07FF900BF080000002DE99F483D
:101578000646EFF31185102383F31288BFF36F8FAC
:10158800334F00F1080A4FF0FF384FF0FF390121BF
:1015980050460DF039FE06F1140203920446002865
:1015A80048D00146A0F1280B50460DF03AFEBB6822
:1015B800A360B369039AC4E900231C60BB68B461E3
:1015C80054F8282C9A7354F8242C1A611A7B22F0A8
:1015D80010021A7385F31188BFF36F8F54F8203CFB
:1015E80058469847EFF31185102282F31288BFF30B
:1015F8006F8FBB681B7B1340C9D1D4E90010016011
:101608004860C4E90033A360336A73B185F3118875
:10161800BFF36F8F336A58469847EFF3118510224E
:1016280082F31288BFF36F8FB1E7A4F118000AF0B4
:10163800DDFFACE7CDE900893246294630460BF09C
:10164800E9FAEFF31185102383F31288EAE700BF64
:101658001C1C002010B51C2204460021083011F083
:101668003EFB044BE36004F11403C4E90044C4E9FD
:10167800053310BDF3F0000870B5044688B0E5697D
:10168800084645F3400611461A4600236FF00F0539
:10169800CDE90235CDE900430493CDE90666024B56
:1016A8000BF09AF908B070BD751500082DE9F843DC
:1016B8001C4C1D4F4FF02408BC4230D30020BDE81D
:1016C800F8836368D4F80890DD1D636925F0070581
:1016D8007F35D90725F03F0508D508FB0699484608
:1016E800FFF7B8FFA369C9F8203001E0002EF6D053
:1016F80063695A0748BF43F00203C9F81C30D4E9AC
:101708000312636806FB052201EBC6114846FFF782
:10171800B3FF01362368B342D3D81C34CCE7002684
:10172800F8E700BF403501085C350108034A5368F3
:1017380023F0020353600020704700BF002004E03C
:10174800EFF31180102383F31288BFF36F8F094BD7
:101758001A683AB9084A116841F480711160116831
:10176800C905FCD51A6801321A6080F31188BFF3E5
:101778006F8F7047780B00200004005838B5EFF3DE
:101788001185102383F31288BFF36F8F0E4B1A68ED
:1017980072B90E4C237833B90D4A0E4802210DF068
:1017A8008DFF0123237085F31188BFF36F8F38BD38
:1017B800012A01BF08490A6822F480720A601A687F
:1017C800013A1A60EFE700BF780B0020541C002094
:1017D800BF4401081437010800040058084B1A6870
:1017E80042F400721A601A6842F480621A601A6839
:1017F80042F480721A60034B034A1A60704700BFB4
:10180800004000588002002000093D002DE9F04703
:10181800DFF85880044607464FF0010914B93846E6
:10182800BDE8F08794FAA4F5B5FA85F509FA05F349
:101838002E0108EB05156FEA030A24EA03042B7B43
:10184800002BEBD058F806301B694BB946440422EC
:1018580073682846196807EA0A070DF0BFFEDDE736
:10186800284698470028D9D1F0E700BF4C3701082F
:1018780030B51049104889B0002211F0D8F80F4D42
:101888000F4900220023CDE9062300240E23CDE9C9
:101898000334CDE901440B4B00944FF440722846C1
:1018A8000BF09AF80849284610F07EFF204609B048
:1018B80030BD00BFD518000880080020F8030020BC
:1018C800801D0020F11B00080045010801480AF0AE
:1018D8008DBE00BFAC0300202DE9F04780462048AC
:1018E8000F460DF053FE0646002832D00025284644
:1018F800BDE8F087237B83B12368DB680BB1204602
:101908009847636883F8069023681B69CBB96368B6
:101918000422196820460DF061FE01361034544542
:10192800E8D3B8F1000FE2D0002DDFD02846FFF74A
:101938006DFF0546002FF7D00021642010F0D7FF77
:10194800F2E7204698470028E1D009FA06F31D433C
:10195800E3E7044CDFF810A005464FF00109DEE785
:101968008C0B00204C3701085C370108014B53F8F9
:1019780020007047743A010808B5034608462BB1A1
:10198800044A136000F074FC002008BD6FF01500D5
:10199800FBE700BFBC00002010B5044C237813B946
:1019A80003480AF023FE0123237010BD551C0020B4
:1019B800AC03002010B504460B480DF0E7FD5CB100
:1019C800BFF35B8F094B53E8001F013943E800124E
:1019D800002AF8D1BFF35B8F054811F034F80548A9
:1019E800BDE810400AF002BE840B0020880B0020DE
:1019F80080080020AC0300200020064BBFF35B8F5B
:101A0800014653E8000F43E80012002AF9D1BFF35A
:101A18005B8F7047840B002070B5FFF7EDFF084C13
:101A2800084E0546B44200D370BD63685B792BB19C
:101A380023685B6813B12946204698471034F1E7BC
:101A48004C3701085C37010810B5044C044920469E
:101A58000DF0E4F9034B1C6010BD00BFE802002044
:101A6800603A01087C0B00200D4A0E48002310B58F
:101A780013700D4A13600D4A4FF47A711360FFF723
:101A88007BFFFFF7E1FF0A4B0A4918468B4200D358
:101A980010BD1A1A5C681211013222711033F5E771
:101AA800561C0020AFF50008840B0020880B00208E
:101AB8004C3701085C370108014600220148002321
:101AC8000DF0CDB9E802002001480DF066BA00BF5C
:101AD800E8020020024B014618680DF0B2BA00BFB8
:101AE8007C0B002001480DF0E7BA00BFE802002097
:101AF80070B5264B1878002846D0FFF7E5FF054655
:101B080000283ED1224B234C1B68002B12DD10F01D
:101B18008CFF0A220023FEF755FED4E90032C01AD2
:101B280040F2E93361EB0201984271F1000101D3FF
:101B3800FFF772FFD4E9003213F57A7342F100021D
:101B4800C4E90032BDE87040FFF7CCBF63685B7939
:101B580023B1236829461B68204698471034B442AD
:101B6800F4D32846FFF7B6FFBFF35B8F0A4B53E861
:101B7800001F013943E80012002AF8D1BFF35B8F38
:101B8800C0E7064C064EEAE770BD00BF551C0020B2
:101B9800840B002078080020880B00204C370108AF
:101BA8005C37010870B50D4D297861B90120FFF740
:101BB80093FE0B4C0B4EB44206D3FFF799FF002857
:101BC800FBD101232B7070BD63685B791BB123685F
:101BD80020469B6898471034EDE700BF561C00204C
:101BE8004C3701085C37010800212DE9F047084609
:101BF800FFF772FE044658B34FF4FA784FF0000925
:101C080011F03AFA1B4B1C4A1B58136033B11B4B9B
:101C18001B68092B02DD1A480AF0E8FC194FDFF8A7
:101C280060A0002544B12046FFF7F0FD044618B92E
:101C38004FF0FF384FF0FF39FFF75AFF064628B933
:101C4800B5B942464B4650460AF00AFD3546E9E723
:101C58004FF0FF384FF0FF39D2E72B689B691BB173
:101C680000221146284698471035BD42F5D3E8E7CB
:101C7800054DFAE708000000800B0020880B0020C3
:101C8800AC0300205C3701084C37010813B518482D
:101C98000DF07CFC174B1B7873B1EFF31184102304
:101CA80083F31288BFF36F8FFFF722FF84F3118845
:101CB800BFF36F8F02B010BD0F4B1B68002BF9D01C
:101CC80050B900220023CDE900230C4842F21072DB
:101CD80000230BF077FCEDE70928EBD1074810F05B
:101CE800B2FE074802B0BDE810400AF07FBC00BF52
:101CF800880B0020561C0020800B00208008002044
:101D0800AC03002010B5064B1B68044698472146D3
:101D1800A06004480DF022F9BDE81040FFF7B6BFF7
:101D2800BC000020E8020020044A054B9B1AB1EBD6
:101D3800D30F34BF52F831000020704774360108C1
:101D48004C3701082DE9F04F8FB004AFC1F34A2892
:101D5800B8600D4691467B600C0DB8F1000F63D05A
:101D6800002607F114034FF0040B4FF00A0AC7F8D6
:101D78000C80C7E907667E620193CDF808B0CDF8FC
:101D880000A007F11C03F96832464846FFF7E8F956
:101D9800B0F5006F03461CD36C468AB0D9F804101E
:101DA80004AB2648C3E9050140F2FF71D9611A4620
:101DB8004FF400711984224B42F8103F21483346F2
:101DC8004FF41251FFF7BEFFA5462C37BD46BDE8BC
:101DD800F08FC0F30A0804F11700184420F0070038
:101DE80080083B60FFF768FE68F35325044690B10E
:101DF8003B68154AC7E9083600F1100107F11403DA
:101E0800F961CDE900A3CDF808B0F96807F11C0322
:101E18004846FFF7A5F968F353257B68B9682A4651
:101E280020460DF0FBFBD0E704F1170020F0070077
:101E38008008FFF741FE0446EDE700BF154501089D
:101E480004000001B4360108F7F500082DE9F04F49
:101E580087B0DDE91279DDE9105A0446039193460B
:101E68009846BFB1CDF800903B465246102100205D
:101E7800CDF81490FEF7A2FFB0F5006F06460AD31E
:101E8800184A194840F2FF73022107B0BDE8F04F25
:101E98000DF01DBC3E4605F11700304420F0070048
:101EA80004F007048008FFF707FE0BF0070BE400B7
:101EB80044EA8B1444EA462444EA0554054640B1F2
:101EC8003FB1CDF800903B46524631461030FEF700
:101ED80075FF039943462246284607B0BDE8F04FF0
:101EE8000DF09CBB54450108B4360108406820B188
:101EF800034BC01A40F3CF0070474FF0FF307047D4
:101F0800743601080EB403B503AB014653F8042B2D
:101F18000448019300F02EFF02B05DF804EB03B013
:101F2800704700BF39F70008CA0605D48B064CBFB6
:101F380002490349FFF7E6BF704700BF8D45010816
:101F48008C4501082DE9F04F89B09B46149B0693F8
:101F58009DF84CA0159B0593169B179E0493044669
:101F68000D469046BAF1000F00F09D8006F480738C
:101F780007930DF031FB06F00209024600283ED017
:101F880091492046FFF7BEFF0746B9F1000F08D078
:101F980016F0440F35D18D492A462046FFF7B2FF87
:101FA800074406F0010353B1894B8A4953F82A20A4
:101FB800894B2046002A08BF1A46FFF7A3FF06F4FC
:101FC8008073002B49D006F00803002B63D1B8F1C9
:101FD800000F66D0814942462046FFF793FF054629
:101FE800069B3D44002B6DD1049B002B73D1F30756
:101FF80000F1E48031462046FFF796FFD8E0074617
:10200800C3E7774B18680028CAD0764B4FF47A7923
:102018001B68B5FBF3F54FF46163B5FBF0F100FB0A
:10202800115509FB05F54FF03C0CB1FBF3F203FB2E
:102038001211B5FBF0FEB1FBFCF300FB1E550CFBC7
:10204800131109FB05F50091B5FBF0F56649CDE9DB
:1020580001E52046FFF756FFA2E706F00803EBB1BB
:10206800624B634953F82A202046FFF74BFF054689
:10207800B8F1000F05D0594942462046FFF742FF04
:102088000544BBF1000FABD05A495A462046FFF72A
:1020980039FF0544A4E74FF0000BE1E706F0080517
:1020A800E6E745469CE7BBF1010F069B06D1002BEE
:1020B80064D1049B002B7BD000250CE0002BF8D0CA
:1020C8004D485CE04D48069B4D4922460CF03EFDCC
:1020D800049B002B68D0DFF82C81DFF82C91049F3B
:1020E8003146102F204628BF1027FFF71DFF4FF05D
:1020F800000B5D4545DC059B49461A782046FFF7ED
:1021080001FF4FF0010B1BF0070F03D1414620469A
:10211800FFF7F8FE5F453BD9059B494613F80B20AE
:102128002046FFF7EFFE0BF1010BBBF1100FEAD1D0
:10213800364920464FF0000BFFF7E4FE5A46059B50
:102148009A5CA2F120015F2928BF2E22304920463F
:10215800FFF7D8FE0BF1010BBBF1100F1DD01BF0E0
:10216800070F03D141462046FFF7CCFE5F455A468C
:10217800E5D841462046FFF7C5FEEBE71F48554620
:10218800A1E741462046FFF7BDFE0BF1010BB0E782
:1021980020492046FFF7B6FEC5E7059B3B4405935B
:1021A800049BDB1B04939AD1BAF1000F7FF41FAF95
:1021B800204609B0BDE8F04F0DF0ADBA064A054912
:1021C8002046FFF79FFE15E794450108984501084A
:1021D800843A0108B64A01088F450108BD4501083F
:1021E800940B0020900B0020A1450108983A0108A3
:1021F800C1450108C74501086FF7000839F700080D
:102208007D2D0008D4450108CC450108D6450108B4
:10221800D8450108D245010873B542F20F738B42C5
:1022280028BF0B4605680F4A0446052168460BF08F
:10223800CDFA63680C495B6806460B2228460DF008
:102248005CFA63683246694628465B680DF055FAC1
:10225800636806495B681B2228460DF04EFA02B0F7
:1022680070BD00BF9A4E0108F7450108DB4501081B
:10227800074A00210123904206D8064A01B90123E2
:102288001360054B1860704740085B000121F2E7B6
:1022980040420F00900B0020940B0020F8B5074F28
:1022A8000D4604464618B44201D12846F8BD14F834
:1022B800011BBB6801485B689847F4E7E4310108F3
:1022C800014B036000207047E03A01082DE9F04710
:1022D800064600AF0C46002936D0E9468AB0D1E957
:1022E8000012A3686D462148A8464FF0050AC5E9C3
:1022F8000501C5E9072348F810AF1D4842460023E9
:102308004FF42151FFF71EFDCD46D4E9031263694E
:10231800AD461848C5F810A0C5E90501C5E9072369
:102328001348002342464FF42151FFF70BFDCD46D9
:10233800E369114A0E4801210DF0C9F9A3690F4A52
:102348000B4801210DF0C3F9012E07D1EFF30583E6
:102358000B4A0748103B31460DF0B9F92146304683
:1023680009F0C4FEBD46BDE8F08700BF3D46010840
:10237800DC3601086C4601089B460108AA4601089C
:10238800D846010830BFFFF7FDBF00BF2DE9F04177
:102398000B4EDFF8308006EB0807CC1B05463246AB
:1023A8000949204610F08DFCA01942460021083C3E
:1023B80010F095FC6C6707F10800BDE8F08100BFDC
:1023C80000000000040000005C370108054B5A6952
:1023D8009B689A421FBF044A536843F08053536076
:1023E800704700BF1C1C002000ED00E070B5244CB5
:1023F80006460D46234824490DF03CFAA36AD90441
:102408003CD5204821490DF035FA1720A36A1A0552
:1024180004D51C481E490DF02DFA1820184CA36A43
:102428009B0512D51B4917480DF024FAA36BA26A25
:10243800110409D5184A134801210DF048F91EB1B5
:10244800A36A23F40043A36219200D4CA36A5A051A
:1024580004D50C4811490DF00DFA1A20A36ADB05C2
:1024680004D508480E490DF005FA1B20044A936A62
:1024780043F47F43936200232B7070BD1620C5E799
:1024880000ED00E0DC360108EB46010801470108D1
:1024980012470108254701083E470108534701082C
:1024A8006E47010810B5204C204921480DF0E2F98B
:1024B800A36A990136D51E481E490DF0DBF91E2086
:1024C800A36ADA0104D51A481B490DF0D3F91F2075
:1024D800154CA36A1B0304D5154818490DF0CAF911
:1024E8002120A36A590304D5114815490DF0C2F9F2
:1024F80022200D4CA36A9A0304D50D4811490DF00A
:10250800B9F92320A36ADB0304D509480E490DF065
:10251800B1F92420044A936A6FEA03436FEA13432C
:10252800936210BD1D20CBE700ED00E0864701084F
:10253800DC3601089E470108B1470108CB4701086E
:10254800E94701080E480108284801082DE9F84321
:102558002F4D804689462F482F4917460DF08AF996
:10256800AB6ADA0627D52D492A480DF083F91124DC
:10257800AB6A1B0704D52A4926480DF07BF91224BB
:10258800234DAB6A9E0718D5264922480DF072F9EB
:102598006E6BAB6A1C0637D5234A1E4833460121A9
:1025A8000DF095F8B9F1000F03D0AB6A23F0800362
:1025B800AB62132403E01024DAE76FF01506144D1C
:1025C800AB6AD80704D5194912480DF053F91424F9
:1025D800AB6AD90602D4AB6A9A070BD50C4B5B6879
:1025E8001B0507D54146304600F0F8F910B180F3D5
:1025F80009880224064A936A43F0FF039362002382
:102608003B702046BDE8F8836FF01506D1E700BFA0
:1026180000ED00E0DC36010853480108694801086C
:10262800124701089C480108B4480108CA48010833
:102638002DE9F041664B8AB0D3F8048000AF044618
:10264800C8F30805002686F31188BFF36F8F02F0E0
:102658007F43B3F17F4F07D102F00C03082B12D14F
:102668005C495D480DF006F9002634460023FB71ED
:10267800EB1E092B00F28A80DFE803F00A80837CD6
:1026880088888888888610074CBF0C460126EDE7A5
:10269800524951484E4D0DF0EDF80023FB71EB6A9D
:1026A8009A0705D54E494C480DF0E4F8002332E06E
:1026B800EB6A002B01DA4B49F5E7EB6A5B00F5D5CD
:1026C800494945480DF0D6F86B69A26943F480730F
:1026D8006B61BFF34F8FBFF36F8F6B6932F8022CBA
:1026E80023F480736B61BFF34F8FBFF36F8F4DF689
:1026F80002739A4208D0AB6ADBB273B3FA1D0121A8
:102708002046FFF723FF37E02368384A3248012183
:102718000CF0DDFF2368FA79DAB907F1080504F14E
:10272800200C206861682A4603C2083464451546AF
:10273800F7D17A6A002E45D0C2F3080121B96FEAB1
:1027480052226FEA42227A6207F108011846FFF71F
:10275800BDFD2837BD46BDE8F081AB6A13F47F4F55
:1027680004D0F91D0120FFF741FE05E0AB6AB3F57F
:10277800803F9BD3FFF796FE0346CCE7FA1D002166
:10278800BEE7F91D0020EEE719498CE7194A1A4BF4
:1027980018F4F87FE8468AB018BF13466A46174906
:1027A800C2E905134FF400731384103D144BD5612F
:1027B80042F8103F084800234FF41151FFF7C2FABE
:1027C800C54673E722F4FF7222F00102BBE700BF9F
:1027D80000ED00E017490108DC360108424901080C
:1027E800594901087A49010888490108A749010897
:1027F800C3490108FE480108E9480108E7490108FA
:1028080004000001044B5A6942F010025A615A69E7
:1028180022F008025A61704700ED00E0EFF30880EB
:10282800EFF3098101B57246FFF702FF01BD00BF52
:102838000A4880F30888102080F3118808484FF46C
:102848000461401880F30988EFF3148002210843DB
:1028580080F31488BFF36F8F0DF014F8803A0020CE
:1028680000290020084B9B6883420BD1EFF30583B6
:1028780043B1064B5A6842F080525A605A6A22F4B1
:1028880000425A620AF090BB1C1C002000ED00E0D8
:1028980014498A684FF030001044EFF3098C80E83F
:1028A800F01F102080F31288BFF36F8F0E4F4FF088
:1028B80000664A698A603E60506F0C4C2060906FD9
:1028C8000023936780F3118804B5104600F0EAF8F6
:1028D800BDE8044002F1300090E8F01F8CF309884D
:1028E800704700001C1C002004ED00E0C40B002011
:1028F8001EF0040F0CBFEFF30880EFF30980816925
:1029080011F8021C0229FFD001B572460CF0A7FF8E
:1029180001BD00BF40B2002807DB044A410901237A
:1029280000F01F00834042F82130704700E100E0CA
:1029380040B200280CDB4309064900F01F00203391
:102948000122824041F82320BFF34F8FBFF36F8FDE
:10295800704700BF00E100E040B20028A8BF00F1C6
:10296800604001F10101B8BF064B4FEA0111ACBF4D
:1029780000F5614000F00F00C9B2B4BF195480F8E7
:102988000013704714ED00E0044B054A23F07F0361
:102998009360BFF34F8FBFF36F8F7047000000083D
:1029A80000ED00E042F8203C009B42F81C3C0A493C
:1029B800019B42F8183C029B42F8143C21F00101AB
:1029C8004FF0807342F8043C42F8081C0023203A78
:1029D80002658367704700BF41150008094A03462E
:1029E800906870B113F1160F406E05D0A0F1400247
:1029F8009A4205D8834203D2814228BF00207047FB
:102A0800002070471C1C002008B51546094A0A4BCF
:102A18009060426F1A600E4600F044F82C4686F328
:102A280009880020054B98472046002100220023F2
:102A3800034C20471C1C0020C40B0020A3F80008EE
:102A480041150008014B10221A61704700ED00E0A3
:102A5800044800231021C21801333E2B82F80013CA
:102A6800F9D1704700E100E008B5EFF30583064AA5
:102A7800103B02EBC30152F8330049688847BDE8B0
:102A88000840FFF7A3BC00BF50330108024B034ABC
:102A98000348012100F08AB800000120000000204E
:102AA800E03A0108426E054B403A1A60044A402158
:102AB800C3E901121846012100F082B8C80B0020B2
:102AC80000000B1508B503461048D0F89020C2F353
:102AD8000722013A934207D90D480E4A01210CF00A
:102AE800F6FD6FF0150008BDC0F898300A6822F0AE
:102AF8001F021A4342F01002C0F89C208A6842F074
:102B08000102C0F8A0201846EDE700BF00ED00E084
:102B1800D4360108FE490108F0B50E4685B01F46B7
:102B280004460025B5420DDA606810B397B1431E1C
:102B380018420AD0104A11482B4601210CF0C7FD53
:102B48006FF01502104605B0F0BD1F28F2D92168B4
:102B58000B42EFD1236801930CF0B3FEA36801A9DF
:102B68000343D0B20393FFF7ADFF10F1160FE7D080
:102B7800421C01350C34D5E7244A0108D436010833
:102B8800044B0522C3F89420BFF34F8FBFF36F8F18
:102B9800704700BF00ED00E0BFF35F8F024B0022DB
:102BA800C3F89420704700BF00ED00E010B5034C57
:102BB80001232278FFF7B0FF207010BD581C0020B9
:102BC80008B50B4A00231278FFF7A6FF10F1160F7D
:102BD80007D0084A0021D2F89030C3F3072398425F
:102BE80000DB08BDC2F89800C2F8A0100130F2E777
:102BF800581C002000ED00E02DE9F04357485849E3
:102C0800D0F890300D68C3F307239D4285B000F2D9
:102C1800A180FFF7C1FF49680022954201F10C012C
:102C28001AD1504C504F25706846FFF749FBDFF822
:102C38003C81DFF83C9106460025AE421FD123783F
:102C480046490020D1F89020C2F3072293427BDB4B
:102C5800FFF796FF00204CE0C0F8982051F80C3C94
:102C680023F01F03134343F01003C0F89C3051F8BE
:102C7800043C43F00103C0F8A0300132CDE70098CE
:102C880000EB05114FEA051CCB683B40B3F5000F7C
:102C980044D00AD8B3F5001F2ED0B3F5800F34D036
:102CA800B3F5801F10D00135C7E7B3F1807F3ED060
:102CB800B3F1007FF7D150F80C3088684A680CF0FF
:102CC80000FE40F4802009E050F80C3088684A681B
:102CD8000CF0F7FD40F0885040F43020039001A933
:102CE8002078CDE90123FFF7EDFE002828DA6FF000
:102CF800150005B0BDE8F08350F80C3088684A68C4
:102D08000CF0DFFD40EA0800E8E750F80C3088686E
:102D18004A680CF0D6FD40EA0900DFE750F80C30AD
:102D280088684A680CF0CDFD40F08270D6E750F80C
:102D38000C3088684A680CF0C4FD40F08870CDE714
:102D4800237801332370AEE7C1F89830C1F8A000AA
:102D5800013377E74FF0FF30CBE700BF00ED00E02D
:102D6800EC3A0108581C00200000F0FF0000081190
:102D780000000206F0B587B007460E46144600214B
:102D8800102268461D460FF0AAFF02238DF8023074
:102D98002A46054B019321466846CDE904760AF098
:102DA800DBFD07B0F0BD00BFEBF8000808B5024B2B
:102DB8001B689847002008BDD40B0020034B044A29
:102DC8001860937843F0020393707047D40B002087
:102DD800C800002008B50649064821F00701C1F1DE
:102DE800005202F580320BF074FE002008BD00BFCF
:102DF80007440020D80B0020024B1B6803B118477A
:102E0800FF207047EC0B00200A4B0B4A0020C3E957
:102E180000000A4B1A600A4A5A600A4A9A600A4A2B
:102E2800DA600A4B0A4A9860C3E90020094ADA6066
:102E3800704700BF100C0020952F0008000C0020E0
:102E4800C12E0008F92F000801F90008F00B002036
:102E5800012E000803F9000830B50E4C8BB02D2365
:102E6800054668468DF8003003F0BAFF9DF9043036
:102E78002278934200D15DB1D8B2074B20701B680D
:102E880003B198472378054A054803210CF01FFC35
:102E98000BB030BD5B1C0020E80B0020564A01082F
:102EA800CC360108034BBFF35B8F1868BFF35B8F09
:102EB800704700BF180C00202DE9F04383B042781A
:102EC80002AF0446C2B1104600F062FB6C4688B0FF
:102ED80002AA294BC2E905304FF400739383274BAC
:102EE80042F8103F26484FF4E2510CF008FDA54681
:102EF8000437BD46BDE8F083FFF7D4FFC00702D50D
:102F08001046FFF7A9FFFFF7CDFF81070ED4237FF7
:102F180063B1BFF35B8F1B4B53E8001F41F0020105
:102F280043E80012002AF7D1BFF35B8F6179237F52
:102F38004A1E5142514141EA4301134B1D685FFA51
:102F480081F8002DD4D0083D4FF6FF792B88E07822
:102F58004B4501D083420AD1A16894F91030B4F9E5
:102F68000E200191217B00916E684146B047AD6803
:102F7800002DBDD0083DE9E76E4A010803000001B5
:102F8800CC360108180C0020100C0020B0B50446FF
:102F9800407800AF98B100F0FBFA6D4688B06A46F9
:102FA8000E4BC2E905304FF4007393830C4B42F883
:102FB800103F0C484FF4E2510CF0A1FCAD46FFF76E
:102FC80071FFC30702D50020FFF746FF064B627862
:102FD8001A70064809F00AFBBD46B0BD894A0108C7
:102FE80003000001CC3601085A1C0020C40300204D
:102FF800B0B58AB00446407800AFE0B100F0C8FA36
:103008006D4688B06A461C4BC2E905304FF4007320
:1030180093831A4B42F8103F19484FF4E2510CF0D1
:103028006EFCAD46174B62781A70174809F0DEFA45
:103038002837BD46B0BD2378052B0FD0092B19D0F2
:10304800012BEFD1072338463B7003F0C9FE7B689C
:103058000E4A0B4803210CF03AFBE3E70C4B1B68C4
:1030680013B1617A207A98470A4A054803210CF07F
:1030780025FBD7E7084AF8E7A14A01080300000141
:10308800CC360108591C0020DC030020B94A01088D
:10309800E40B0020D74A0108E74A0108052808B5CB
:1030A800034606D1074A084B107001221A70002007
:1030B80008BD0648064A01210CF009FB6FF085009F
:1030C800F6E700BF9B0200209A020020CC360108D8
:1030D800F74A0108F0B59BB0044600AF4FF0FF3245
:1030E8004FF0FF336F4809F0B9F901261D2307F1A6
:1030F80018003B763E7703F08BFF257D002D70D1BD
:10310800694B3E711B787B723423022587F8403067
:1031180007F140003D7203F063FE40B3634A644820
:1031280031460CF0CBFAEA24204600F025FA6D4629
:1031380088B06A465F4BC2E905304FF40073938349
:103148005D4B5B4842F8103F4FF4E2510CF0D7FB5F
:103158002046AD4600F028FA0446002800F08A8090
:10316800504809F0F3F920466C37BD46F0BD7B6C3A
:10317800A2899A8023697B6487F8405007F1400050
:1031880003F046FF032387F8403023687B6407F188
:10319800400003F03DFF092387F8403063687B64F3
:1031A80007F1400003F034FF082387F84030A36894
:1031B8007B6407F1400003F02BFF381D04F04CFA44
:1031C80004460028B0D14FF0FF333C484FF0FF329F
:1031D80009F046FA3A4B187800284BD000F0F6F977
:1031E800BAE7012D5AD1352387F84030354B7B6437
:1031F80007F1400003F00CFF062387F84030002356
:103208007B6407F1400003F003FF072387F8403091
:1032180023687B6407F1400003F0FAFE0C2387F86B
:103228004030A3687B6407F1400003F0F1FE0D23F2
:1032380087F84030A3687B6407F1400003F0E8FE9C
:103248000E2387F84030A3687B6407F1400003F041
:10325800DFFE0F2387F8403063687B6407F1400086
:1032680003F0D6FE87F8405087F8445007F1400035
:1032780003F0CEFEFFF716FEC3070AD42D2387F806
:103288004030094B1B7887F8443007F1400003F0C1
:10329800BFFE0120FFF7E0FD002461E76FF0150491
:1032A8005EE700BF840300205C1C0020114B01086E
:1032B800CC3601082B4B010803000001DC03002079
:1032C800591C00200003000100B58BB018B1094B50
:1032D8001B788B4204D06FF015000BB05DF804FB2F
:1032E8002323019068468DF8003003F091FE0028F2
:1032F800F3D0F0E79A02002010B58AB00446FFF731
:10330800D1FDC30703D56FF015000AB010BD2D23FA
:1033180068468DF800308DF8044003F079FE0028E7
:10332800F1D1024B1C70024B1C70EEE75C1C0020B4
:103338005B1C002000B58BB00246FFF7B3FD00F020
:103348000100824219D0BFF35B8F124BC2B153E820
:10335800001F41F0010143E80012002AF7D1BFF332
:103368005B8F05238DF80030FFF79CFD00F001000E
:103378008DF80400684603F04BFE0BB05DF804FBC3
:1033880053E8001F21F0010143E80012002AE6D0AB
:10339800F6E700BF180C00202DE9F04186B0804602
:1033A80000AF15461C460E4609B9002A6BD13748AE
:1033B8004FF0FF324FF0FF3309F050F839462846F6
:1033C80003F0ACFC00283ED000F0D6F86C4688B07C
:1033D8006A462F4BC2E905304FF4007393832D4B97
:1033E80042F8103F2C484FF4E2510CF088FA0023C1
:1033F800A5463B71FB603B820125381DBB7405F077
:103408000DF8044668B300F0B7F86D4688B06A4610
:10341800224BC2E905304FF4007393831D4B42F8E9
:10342800103F1D484FF4E2510CF069FA2046AD46B2
:1034380000F0BAF80446154809F088F8204618370D
:10344800BD46BDE8F08154B1012C08D0144B3D8233
:1034580093F9003087F80880FE600025CDE73C71BD
:10346800F4E74FF0FF330F484FF0FF3209F0F8F858
:103478000D4B187808B100F0A9F8002D044618BFC4
:103488006FF00A04D7E76FF01504D7E79803002018
:10349800404B010803000001CC360108654B0108C8
:1034A8005B1C0020C40300205A1C002000238360FA
:1034B800054B596800F1080211B9C3E900227047A9
:1034C8000A605A60704700BF100C0020B0B5214D4B
:1034D800214922488EB02A7800AF03F055FAC0B1CE
:1034E80000F04AF86C4688B06A461D4BC2E90530C0
:1034F8004FF4007393831B4B1B4842F8103F4FF463
:10350800E2510CF0FCF96FF01500A5463837BD46BE
:10351800B0BD03F0F9FB044630B100F02DF86C465D
:1035280088B06A46114BE1E7062307F108012878BD
:103538003B720DF0F0FC0E4BC0B218700D4B1870BA
:1035480030233B7407F1100014237B6103F060FD06
:103558002046DBE79B020020F00B0020000C002037
:103568007D4B010803000001CC3601089E4B010881
:103578005C1C00205B1C002017289ABF024B53F8E4
:1035880020000248704700BFE83B0108CC4B010807
:103598000F289ABF024B53F820000248704700BF1B
:1035A800A83B0108DC4B01081628034608D8064A40
:1035B80052F8200030B9002B18BF6FF01500704783
:1035C8006FF01500704700BF4C3B01080F280346F9
:1035D80008D8064A52F8200030B9002B18BF6FF0FF
:1035E800150070476FF01500704700BF0C3B0108CD
:1035F800014809F05DB900BFD8000020014B1860F0
:10360800596070471C0C0020024B1A685B68026006
:103618000B6070471C0C002008B50CF076F9024BC3
:103628001B68C01A08BD00BF240C002001480FF019
:103638000ABA00BF300300200A2307B5A0FB032302
:1036480000210020CDE90001024809F0BBFF03B0CA
:103658005DF804FB3003002008B50CF056F9014B67
:10366800186008BD240C0020014B1868704700BF83
:10367800240C002010B5124CBFF35B8F022354E8D2
:10368800002F012A03D144E800310029F7D1BFF304
:103698005B8F0CBF0120002010D10A4BDB6A9847D2
:1036A800002344F8403CBFF35B8F54E8002F44E804
:1036B80000310029F9D1BFF35B8F012010BD00BF95
:1036C8006C0C00204C3D010810B5064B5C68FFF7F8
:1036D800D1FF30B12CB100212046BDE810400AF0DE
:1036E80031B810BD280C002013B50D4BD3E90143A8
:1036F8003BB10C4B5B6B0193002002B0BDE810405E
:103708001847FFF7B7FF40B13CB16FF004012046FE
:1037180002B0BDE810400AF015B802B010BD00BFF5
:10372800280C00204C3D01082DE9F347284C9A4607
:10373800D4E9019307460D46164683B1254B002070
:103748005B6B9847E368CDE900A32A46D4F8088064
:10375800206833463946C04702B0BDE8F08704F117
:1037680044020223BFF35B8F52E8001F012903D1F3
:1037780042E800300028F7D1BFF35B8F9046EBD1C9
:10378800E36C1A78AA4288BF1D70E36CA06C1A78A3
:1037980039460FF096FA236D03B11E80636D0BB1A5
:1037A80083F800A00B4BDB6A984700216160BFF3E8
:1037B8005B8F58E8003F48E80012002AF9D1BFF3B0
:1037C8005B8F484602B0BDE8F04709F0BBBF00BFB9
:1037D800280C00204C3D0108F8B5044600AF0068ED
:1037E8000D460EF0F4FE03462068BBB96C4688B05F
:1037F80001686A462748C2E905014FF400719183C0
:10380800254942F8101F25484FF4E251FEF79AFA6D
:103818006FF01205A5462846BD46F8BDE388217914
:103828002B43DD02D0F808E0D0F810C006D513F419
:10383800402F03D0DA0748BF83F44023DCF8005058
:10384800012623F480128E40DB074CBF3543B54375
:10385800CCF80050DEF80030984705460028DAD04A
:103868002368196823796C468AB06A460C48C2E90D
:1038780007354FF4007393840A4BC2E9050142F8F7
:10388800103F064800234FF43151FEF75BFAA54676
:10389800C1E700BF644E0108030000013C3701087E
:1038A8007D4E01080500000170B50D460F49BFF3B4
:1038B8005B8F012051E8004F002C03D141E800063E
:1038C800002EF7D1BFF35B8F0CD1094E41F8403C75
:1038D800D4B2736D214698472846B36A2146984763
:1038E800002070BD6FF00F00FBE700BF6C0C0020DC
:1038F8004C3D01082DE9F0474FF000088EB005ACAB
:10390800264F81468A4616464146102209A80125B7
:10391800CDE90544CDE907880FF0E1F98DF831507C
:103928007B6B0D94002B35D02346324651464846D2
:10393800FFF7BAFF041E29DBF6B2CDE9018603952D
:10394800BB8F174C009397F83A3097F8392097F8BF
:103958003810646A2846A0470A23A840A0FB03231E
:10396800294609A809F096FE041E0FDA0D4A0E48EA
:1039780029460BF0A3FEFFF77DFE38B94FF0FF3262
:103988004FF0FF33294609A809F084FE20460EB0FF
:10399800BDE8F0876FF01504F8E700BF280C002099
:1039A8004C3D01089D4E01083C370108F0B58DB02B
:1039B80000248DF8072003AE0F461022214607A8E1
:1039C800CDE90366CDE9054401250FF088F9274BB9
:1039D8008DF829500B96BFF35B8F53E8002FA24256
:1039E80003D143E800510029F7D1BFF35B8F39D1E8
:1039F8000DF1070243E910649A601D4E149ADA60CB
:103A0800159A1A615F60FF21736D28469847736B9A
:103A180020469847DDE91223294607A809F03AFE0F
:103A2800041E15DAFFF726FE50B94FF0FF324FF0AB
:103A3800FF33294607A809F02DFE9DF8074004E04A
:103A48000C4A0D4803210BF039FE20460DB0F0BD9D
:103A5800069B002BF1DA094A074829460BF02EFE8F
:103A6800069CF2E76FF00F04EFE700BF6C0C002034
:103A78004C3D0108B94E01083C370108C94E010800
:103A880010B529B9FFF7F6FDD8B96FF0150010BDCC
:103A98000E4BBFF35B8F012053E8004F002C04D17D
:103AA80043E8000CBCF1000FF6D1BFF35B8F0AD1DD
:103AB800074C43E90F12636DFF219847636B0020A1
:103AC80098470020E3E76FF00F00E0E76C0C002058
:103AD8004C3D0108F0B52C4DBFF35B8F8BB00C4605
:103AE800012755E8003F002B03D145E80072002A62
:103AF800F7D1BFF35B8F43D1244E2068F368984712
:103B0800E37A4BB32346103D04F11007186859684F
:103B18002A4603C20833BB421546F7D14FF47A63ED
:103B2800089300220120237B0793CDE90522CDE9E4
:103B3800032023890293A379019363790093F5699C
:103B4800237994F90A10A847B36D607B9847FFF76B
:103B580091FD00200BB0F0BD0997227BB569CDE936
:103B68000732CDE90533CDE903330A2202922289CF
:103B7800CDE900323846A37962792179A847E3E78D
:103B88006FF00F00E6E700BF6C0C00204C3D010809
:103B980038B5084611461A460B4BBFF35B8F012414
:103BA80053E8005F002D04D143E8004CBCF1000F3E
:103BB800F6D1BFF35B8F04D1044BDB6B9847002031
:103BC80038BD6FF00F00FBE76C0C00204C3D01087E
:103BD80038B5114BBFF35B8F002453E8002F43E83F
:103BE80000410029F9D1BFF35B8F0C4943F8341C1D
:103BF8000B490C4D43F82C1C0B4943F8241C0B496A
:103C080043F8301C2A6843F8440CA3F13400904769
:103C1800EB6A9847204638BD6C0C0020D136000866
:103C2800313700084C3D0108F136000875F90008E5
:103C38000246052101480BF09BBE00BF84310108F4
:103C48000246042101480BF093BE00BF84310108ED
:103C5800024A034802210BF031BD00BFE54E0108BE
:103C68003437010810B50B4CE3691BB9BDE81040A7
:103C7800FFF7EEBF00209847074B1B6E03B198472C
:103C880094F8203023B1BDE81040024800F020B974
:103C980010BD00BF800C00204C3D010870B54FF4EA
:103CA800B011466805461E48FFF796FD18B16FF03B
:103CB8000404204670BD1B484FF4B011FFF78CFD7B
:103CC8000028F4D1184919480EF03CFD284600F0A8
:103CD80009F9044628B1164A164801210BF0EEFCF2
:103CE800E7E730680EF073FC38B9134A1148012130
:103CF8000BF0E4FC6FF01204DBE7F06818B10EF08B
:103D080066FC0028F1D02846FFF762FF051ED0DACE
:103D18000A4A084801210BF0D1FC2C46C9E700BF2C
:103D2800683C0108603C01086D3C00088C0C0020D0
:103D3800144F010834370108324F0108474F010872
:103D4800014B93F820007047800C002008B503460B
:103D58001048042B80F8203011D005D8BBB10020C2
:103D6800FFF766FF00200EE0053B022BF7D8002086
:103D7800FFF766FFBDE808400120FFF759BF0020A4
:103D8800FFF756FF0120BDE80840FFF759BF0BF0C9
:103D9800C1FEE4E7800C0020014BD861704700BFEA
:103DA800800C002010B5044C20460BF098FE01232F
:103DB80084F8203010BD00BF800C002010B5054CE1
:103DC800204600F07DF800B910BD00210A200EF051
:103DD8008EFDF5E7800C002070B58CB00D46DDE94E
:103DE8001061CDE9063104ABCDE90402CDE90852F2
:103DF800009308AA02230446CDE90A61CDE902230B
:103E080001930BF0ACFF0F48ADB9A6B983680E4912
:103E18001D686A463346A8470028034604DA0B4A59
:103E28000B4801210BF053FC2378842B01D0FFF7BA
:103E3800C5FF0CB070BD836803491D68014802AB1B
:103E48006A46E8E7443201084C3C01086A4F010819
:103E58003437010870B5124D86B0284600F038F89E
:103E6800C023ADF8043001AB02930223039301246D
:103E780002AB049305940B480B49836804AA1E6897
:103E88000023B047031E06DA084A094821460BF00A
:103E98001EFC06B070BDFFF791FF85F82040F8E7DB
:103EA800800C0020443201084C3C01086A4F01088C
:103EB8003437010801480BF02BBE00BF800C0020EE
:103EC800024B5869C0F34000704700BF0004005817
:103ED800034B4FF48022C3F884213220FEF71ABD29
:103EE80000E100E0002208B511463220FEF734FD5B
:103EF800054AD2F8903043F48053C2F8903032200B
:103F0800FEF708FD002008BD00080058074B0849C7
:103F18001A6843F2390001FB020018606FF0004391
:103F2800B0FBF3F3C3EBC373C01A7047E80000207B
:103F38006D4EC641014B1860704700BFE800002075
:103F480030B530B10A4D01444FF0FF33814201D101
:103F5800D84330BD10F8012B5340082243F3000426
:103F6800013A2C4092B284EA5303002AF6D1EDE7D5
:103F78002083B8ED044A13680BB1002159724361DC
:103F880010600BF0A5BE00BFA40C002037B5044696
:103F980001A80BF0DCFC6CB1174D2A68134673B905
:103FA80063682360012323816AB9FFF755FB204624
:103FB800FFF7E0FF01A80BF0D3FC03B030BD9C4233
:103FC800F8D05B69EBE7FFF727FB236818442B68F9
:103FD80020601A689042EAD35A69596911B95C613C
:103FE8006161E7E71168884202D913465269F4E72C
:103FF8005C616261DEE700BFA40C0020F8B5FFF742
:1040080033FB1C4C0546FFF727FB2368A3B1471B6E
:104018001E462D1A716929B95A692260DA6819721F
:1040280042B9FEE70A68BA428CBF521900220A60F8
:104038007669EFE718699047002623682BB920684E
:1040480080B9F8BD18699047F7E71D68FFF7E4FAEB
:104058008542F4D223685A692260DA681E72002AFF
:10406800F0D1FEE7437A002BEBD1BDE8F8400BF026
:104078002FBE00BFA40C002037B5134D044601A87D
:104088000BF065FC2B686BB164B10022A34222726D
:1040980011D1597A5C6961B15A7244B120462C60D9
:1040A8000BF016FE01A80BF05BFC03B030BDFFF768
:1040B800BDFA2C60F6E71A465B69002BF2D09C42E9
:1040C800F9D163695361EDE7A40C002007B5074BEC
:1040D8001B7840BAADF804002BB9022201A940F2BE
:1040E800BC600BF0B1FC03B05DF804FB5F1C002062
:1040F80007B5074B1B7840BAADF804002BB902226C
:1041080001A940F2BE600BF09FFC03B05DF804FB10
:104118005F1C002010B50C4B1B7804469BB94FF46C
:10412800D7600BF0C6FCC4F3002100F0FE00014389
:104138004FF4D7600BF09CFCE1B240F2B960BDE8E7
:1041480010400BF095BC10BD5F1C002013B5044651
:104158000BF01FFC04F0070314F004048DF807307B
:1041680008BF084B4FF001020DF107014FF0840022
:1041780008BF1C700BF048FC0020FFF7E7FD02B0F9
:1041880010BD00BF5D1C002010B50446FFF70AFEF5
:104198002046FFF701FEFFF75DFE00200BF0FEFD55
:1041A8000BF0FCFB0BF006FC034B00221A70BDE879
:1041B80010400120FFF7CABD5D1C0020134B984238
:1041C80007B50BD94EF6E113ADF80430022201A968
:1041D80098200BF019FC03B05DF804FB0C4B9842D7
:1041E80002D94DF6D733EFE70A4B984202D94CF281
:1041F800C153E9E7084B984202D948F27513E3E73F
:10420800064B9842E2D946F66B73DDE700E9A43520
:1042180080F8A9328044E52D000B6B1B40FC541933
:1042280037B5104D2B7804461BB9FFF7C7FF01239C
:104238002B7043F6095241F68463B4FBF2F102FB9A
:10424800114403EB8433B3FBF2F3042203EB813311
:104258001BBA0DEB0201862001930BF0D5FB03B0CE
:1042680030BD00BF5D1C002007B5064B8DF8070068
:10427800187001220DF107018A200BF0C5FB03B06D
:104288005DF804FB5F1C0020014B1878704700BFE5
:104298005F1C002013B5224A0446516810686B461B
:1042A80003C3204B20781B78834201D0FFF7DCFF43
:1042B80023781BB1012B2ED002B010BD62681A4BB7
:1042C800B3FBF2F31A0C8DF800201A0A8DF80120BE
:1042D8008DF80230A268237B8DF8033043F609512C
:1042E800637BB2FBF1F08DF8043001FB102241F63C
:1042F800846303EB8233B3FBF1F303EB80331A0CD3
:104308005BBA8DF80520ADF80630082269468B2087
:104318000BF07AFBD0E7236900930422F6E700BF8D
:10432800B03701085F1C00200000093D1FB52B4A6B
:104338000446D1689068127C01AB03C31A70284BFD
:1043480020781B78834201D0FFF78EFF23781BB1BA
:10435800012B31D004B010BD637AF12B20D14FF678
:10436800FF70FFF7B3FE48F20500FFF7C1FE022316
:104378006288A188ADF8061052BAE188ADF8042029
:104388008DF80B30227AA37A8DF80A20ADF8081040
:104398008DF80C30092201A98C200BF035FBD9E7E8
:1043A800F22BE5D141F60F50FFF790FE41F22100C4
:1043B800FFF79EFE0623DBE7A3890A4A5BBAADF83E
:1043C8000430A37B13708DF80630E37B8DF807303B
:1043D800238AADF808300622DDE700BFB0370108B0
:1043E8005F1C00205E1C002037B505460C460222E3
:1043F80001A913200BF016FB0A4B1B78012B0DD1DA
:10440800094B1B78012B09D140F202700BF051FBCC
:104418009DF805302870237003B030BD9DF8040066
:10442800F6E700BF5F1C00205E1C002013B50322C6
:10443800044601A914200BF0F5FA184B1A782270DB
:104448004AB1012A17D013220021601C0EF047FC44
:104458000F2323700DE09DF8043023719DF805307B
:10446800A2605B425B10A3719DF806305B425B1053
:10447800637102B010BD9DF804305B425B1023737A
:104488009DF9053002339B1063739DF806305B423B
:104498005B10A373024B1B682361EAE75F1C0020D3
:1044A800A80C0020034B1B6813B15B6803B11847C5
:1044B800704700BFD00D0020034B1B6813B1DB68A9
:1044C80003B11847704700BFD00D0020014B0122EF
:1044D8001A707047621C002008B5FFF731FC0438D9
:1044E800C0B2032896BF024B0020185C08BD00BF6D
:1044F800944F010838B50C46002340F201211A46B2
:10450800054608460BF074FDFFF7BEFE0C4B01286C
:104518000C480CBF83F8C74083F8C040FFF706FF7C
:104528002146284600220BF061FC074B0748196812
:104538000BF0ECFBBDE838400448FFF727BD00BF8F
:10454800DC0C0020940D0020EC0D0020C40C002091
:1045580038B50D461446FFF763FE2846074D0BF0A5
:104568002CFA0BF0D7FC4FF47A71284661430BF014
:10457800CDFB2846BDE83840FFF708BDC40C002035
:1045880073B5574D01A80BF0E2F92C78002301A868
:104598002B700BF0E5F9002C61D00BF03EFD0446C2
:1045A8000BF0DEFD01A80BF0D2F9FFF783FC012820
:1045B80008BF287001A80BF0D3F9E5070BD54948C7
:1045C800FFF75AFD0120FFF7C1FB474B1B6813B1EA
:1045D8001B6803B19847A00711D54448424EFFF71E
:1045E8004BFD14F0400F424B3BD01B7813B9012010
:1045F800FFF7ACFB336813B11B6903B19847210679
:104608000AD50120FFF7A2FB374B1B6823B19B6932
:1046180013B1C4F300209847A2050FD5FFF790FB0C
:1046280004284CD12F48FFF727FD0120FFF78EFB08
:104638002D4B1B6813B15B6803B19847A3060ED5D1
:104648002A48FFF719FD2A4B1B7813B90120FFF7F9
:104658007DFB254B1B6813B1DB6803B1984702B09B
:1046680070BD1D7895B90120FFF770FB294640F60B
:1046780002100BF0FDF940F644100BF01AFA40F066
:104688000201C9B240F644100BF0F2F9194D1A486C
:10469800FF220DF103010BF04AFD2846FFF7C6FE85
:1046A8003368002BABD09E68002EA8D095F90D304A
:1046B80095F90C209DF803100F48B0479FE7FFF7C6
:1046C8003FFB0528BAD10948FFF7D6FC0120FFF7C0
:1046D8003DFB054B1B68002BB0D0DB68ACE700BF87
:1046E800621C0020C40C0020D00D0020AC0C00205F
:1046F800621D0020D40D0020631C002010B590B16D
:104708000A4B012219461C68A04206D39C68A042A5
:1047180003D201EBC201087910BD0132162A03F158
:104728000803F0D1FEE71F20F6E700BF9C3C010814
:104738000128094806D1094B80F8C7101970B8300C
:10474800FFF7F4BD90F8BF30012B04D1034B80F87C
:10475800C0101970F3E77047DC0C00209C020020A1
:1047680000234FF6FF7110B51A46044608460BF0B1
:104778003FFC34B1094821460BF0C8FA0748FFF757
:1047880005FC074B1B782BB16FF07F40BDE810404C
:104798000BF035BB034B18688001F7E7AC0C002021
:1047A800621D0020E80D002000234FF6FF7110B5B0
:1047B8001A46044608460BF01BFC34B1094821464A
:1047C8000BF0A4FA0748FFF7E1FB074B1B782BB166
:1047D8006FF07F40BDE810400BF05EBB034B1868DC
:1047E8008001F7E7AC0C0020621D0020E80D0020D6
:1047F800F0B5BDF814409DF818C09DF81CE09DF870
:10480800205040B1012814D0012200239818013803
:10481800B0FBF2F0F0BD8CF0010CE30003EBCC032D
:1048280018330EEB450503EBC5034FF47A714B4380
:10483800ECE7501F012803F1040304D80C2C38BFFF
:104848000C24002706E0C1B9A2F10B07012F8CBF89
:10485800002701272801BCF1000F00EBCE000CBF98
:1048680014250025A0EB8200062A4FEA8206284478
:10487800A2F1020C08D835460BE00129E1D1A2F1DA
:104888000C0047424741E5E70830002FF3D04FEAD4
:104898008C050028ACBF2E182E1C701E90FBF5F05E
:1048A80003FB0044094B062A5A5C8CBF0C340E34B7
:1048B8000A2A0AD8A30001334FF47A7103FA0CF3D9
:1048C8004B43034951F82220A0E7FFDE984F010827
:1048D800703C01080D4B10B504461870587000F074
:1048E80017F85CB134214FF4E8600BF0C1F84421AB
:1048F800BDE8104040F241700BF0BAB814214FF4F3
:10490800E8600BF0B5F82421F2E700BF601C002036
:1049180008B50120FFF7A8FC054B18785A788242A1
:1049280004D05870BDE80840FFF7D4BF08BD00BFE9
:10493800601C0020012808B506D00020FFF794FC71
:10494800034B00225A7008BDBDE80840FFF7E0BFDE
:10495800601C00202DE9F04F85B089469DF84C1069
:1049680000919DF85C109DF844A0BDF84070694C1A
:10497800DFF8A4B1BDF83C602170002918BF0027FA
:10498800BAF1000F15469DF8482008BFFF228BF8A2
:104998000020804620B1012854D005B0BDE8F08F32
:1049A8005E4C0BF0C2FA0B234FEA490084F8EC3056
:1049B80084F8E080C4F8E450FFF7A0FE41F6040351
:1049C800A4F8BC309BF8003084F8C030009B84F811
:1049D800ED00002B0CBF0123F22384F8C130F60050
:1049E80001238AF0010A84F8C23084F8B880A4F858
:1049F800BA6084F8BE8084F8BFA00BF0BFFB94F8BF
:104A0800E000003818BF0120FFF794FF04F1E00030
:104A1800FFF740FC04F1B800FFF788FC404A106833
:104A2800516802AB03C302A80BF0AFF940F2FF10C4
:104A3800FFF770FB4FF4FA537B43B3FBF5F3394AA6
:104A48001360AAE70020354C01930BF06EFA364943
:104A5800019B11F8091084F8E080EAB284F8F0208C
:104A6800B9F1000F45D10B3D012D8CBF0025012563
:104A7800053A012A02D80C2E38BF0C2684F8F230E9
:104A8800012384F8B8309BF8003084F8C730009BC5
:104A980084F8C8309DF8583084F8C93084F8F1108B
:104AA80084F8F350A4F8C46084F8C6A00BF066FB41
:104AB80094F8E000003818BF0120FFF73BFF1B48BF
:104AC800FFF7E8FB1A48FFF731FCF8B20BF039FAA8
:104AD80094F8C930012B40F2367014D10AF0E9FF7E
:104AE80000F0FB0140F236700AF0C2FF4FF6FF7388
:104AF800A5E7B9F1010F04D1A5F10C0045424541E4
:104B0800B6E70025B4E70AF0D4FF40F00401C9B2C3
:104B1800E8E700BF621D00209C020020DC0C00209A
:104B2800C1370108E80D0020984F0108BC0D00208E
:104B3800940D00202DE9F74F0C9DBDF838709DF8B5
:104B48003C909DF840A088469346064648B1012807
:104B58004DD040F689000AF0ACFF40F00401C9B21C
:104B68008DE0524C0B2284F8E000580084F8EC20C9
:104B7800C4F8E450FFF7C2FD41F60403BAF1000F90
:104B8800A4F8BC300CBF0123F22384F8C130FF0025
:104B9800012389F0010984F8C23084F8ED00C4F8D3
:104BA800E8B084F8B860A4F8BA7084F8BE6084F8F5
:104BB800BF900BF0E3FA94F8E000003818BF01202A
:104BC800FFF7B8FE04F1E000FFF764FB04F1B8005A
:104BD800FFF7ACFB364A106851686B4603C368465A
:104BE8000BF0D3F840F2FF10FFF794FAB1E72F4C1F
:104BF800304984F8E000EAB2C95C84F8F020002B60
:104C08004AD10B3D012D8CBF00250125053A012A0B
:104C180002D80C2F38BF0C279DF8343084F8F230B6
:104C2800012384F8B830244B84F8F1101B7884F8F9
:104C3800C7309DF84C3084F8C93084F8F350A4F894
:104C4800C47084F8C69084F8C8A00BF097FA94F85A
:104C5800E000003818BF0120FFF76CFE1748FFF787
:104C680019FB1748FFF762FB94F8F130062B7FF425
:104C780070AF40F689000AF01CFF00F0FB0140F617
:104C880089000AF0F5FE40460AF097FE149A0D4B8B
:104C98001A6003B0BDE8F08F012B04D1A5F10C0315
:104CA8005D425D41B2E70025B0E700BFDC0C0020A3
:104CB800C1370108984F01089C020020BC0D002054
:104CC800940D0020EC0D002008B5174B186017480C
:104CD800FFF75AFA00200BF061F801200BF05CF99D
:104CE800002108460BF009FA042100200BF0C2F954
:104CF80000234FF6FF711A4608460BF079F940F683
:104D0800AC000BF0B7FA40F689000BF0B3FA08498B
:104D180008480AF0F3FF084908480AF0EFFF084B73
:104D280000221A7008BD00BFD00D0020D54400082D
:104D3800AD440008C40C0020C1440008AC0C00209D
:104D4800621C0020A1F11003DBB2102B2DE9F04703
:104D5800044604D83A4820FA03F3DB0705D40023B5
:104D680082F8F030FF20BDE8F087561E254615F87A
:104D7800013B06F8013F631B0B4413F0FF00F6D11B
:104D880001F11C039B005FFA83FCC3F30313013B8F
:104D9800DFF8B09082F8F030884653184FF0010ED3
:104DA800B8FBF1FA01FB1A8A1AF0FF0A13F8047C1F
:104DB80013F8036C13F8025C13F8014C30D119F89E
:104DC80006A019F8056019F8045019F807404FEAC9
:104DD800DE1707EB47078EEA0A0A07EBC7074FEA11
:104DE8004E0EFFB25FFA8EFE87EA0E0E574692F815
:104DF80000A087EA0A071F7057787E405E70967891
:104E080075409D70D57808F104085FFA88F86C4001
:104E1800C445DC7002F1040203F10403C0D8A2E720
:104E28001829E4D9BAF1100FE1D1DFF818A01AF85F
:104E380007701AF806601AF805501AF80440D6E701
:104E4800010101009B5101082DE9F04FA3B092F830
:104E5800F0301D911B920193002B00F05381014605
:104E68001EA80BF07DFA1B9BA74CA84DA84E10332B
:104E78000293002303939DF87C0004909DF886001C
:104E88000590205C06909DF87B000790205C0890B8
:104E980004989DF881C0205C099014F80C000A90D1
:104EA8009DF880000B909DF885009DF878809DF80E
:104EB8007DE09DF882A09DF887900C909DF87A007F
:104EC800029B1C9314F80A2014F8093014F80810EF
:104ED80014F80E700D90205C0E909DF87F000F90D6
:104EE800205C10900B98205C11900C98205C12901C
:104EF8009DF8840013909DF8790014909DF87E0029
:104F08001590205C16909DF883001790205C1890EF
:104F18001398205C19901498205C1A90039801301B
:104F280003900298DDF804B0103002909DF80C0050
:104F3800834536D88DF878108DF87A2009990E9A1D
:104F48008DF87C108DF882201199069A8DF88010C2
:104F58008DF87E201999169A8DF884108DF8862080
:104F68000A99189A8DF87D108DF887201299109A51
:104F78008DF87B301B9B8DF881108DF883201A9952
:104F8800089A1D988DF885108DF87F201EA903EBCF
:104F98000B128DF879700BF0E3F9002023B0BDE80F
:104FA800F08F15F808B082EA03008BEA000016F8C3
:104FB8000EB080EA0B008DF8780015F80E004B4013
:104FC800434016F80A0043408DF8793081EA070318
:104FD80015F80A10594016F80930594016F80830E3
:104FE8008DF87A107A40534015F8092053408DF80F
:104FF8007B30089A069B5340049AAA5C534016F8E3
:105008000C2053408DF87C30DDE908325A4015F801
:105018000C305340059AB25C53408DF87D30DDE981
:1050280009325A40059BEB5C5340079AB25C5340E7
:105038008DF87E30069B0A9A5340049AB25C5A4017
:10504800079BEB5C5A408DF87F200E9B109A5340CB
:105058000B9AAA5C53400C9AB25C53408DF880308E
:10506800DDE910325A400C9BEB5C53400D9AB25C60
:1050780053408DF88130DDE911325A400D9BEB5CCD
:1050880053400F9AB25C53408DF88230129A0E9BAF
:1050980053400B9AB25C5A400F9BEB5C1C995A40E8
:1050A8008DF88320169B189A5340139AAA5C534094
:1050B800149AB25C53408DF88430DDE918325A40B6
:1050C800149BEB5C5340159AB25C53408DF88530C5
:1050D800DDE919325A40159BEB5C5340179AB25CD4
:1050E80053408DF886301A9A169B5340139AB25C37
:1050F8005340179AAA5C1EA853408DF887300BF0CE
:10510800EEF8B8E6FF2049E79B5101089B500108DB
:105118009B4F01082DE9F043CBB00646DDF84891D6
:10512800174698460D4689B3B9F1000F2ED004A84A
:105138000BF058F9164B1968002401F1140304EB1D
:1051480004101A5C424513D11530014404A80BF031
:1051580059F9A6B93A46294604A80BF058F9684601
:1051680004A90BF0BFF9009BC9F80030002003E048
:105178000134172CE3D103204BB0BDE8F083102293
:1051880031460DEB02000BF042F9E3E70220F3E7AA
:10519800F00D002030B5E9B04FF4D072002104467C
:1051A80068460DF09CFD284B0DF1150203F1200116
:1051B80053F8040B42F8040B8B42F9D11B88138077
:1051C80022490323452216A88DF847300DF079FDB2
:1051D8007F238DF8AD3080238DF8BE3081238DF884
:1051E800CF3082238DF8E03083238DF8F13084238B
:1051F8008DF8023185238DF8133186238DF82431FB
:1052080087238DF8353188238DF8463189238DF829
:1052180057318A238DF868318B238DF879318C23A7
:105228008DF88A316CB10A4D4FF4D0726946204628
:105238002C600AF0ABFC28680BF0C7FA002069B0B4
:1052480030BD0220FBE700BF9B520108BE52010897
:10525800F00D00202DE9F0410D46BEB016469846E7
:10526800074670B36BB311F00F042CD1F02221461E
:1052780001A80AF09FFC154B1868214600F114029A
:1052880001EB0113D45CB4420BD1153301AA1021F0
:105298001844FFF757FD2C462E1BF6B244B920469A
:1052A80003E001311729EBD103203EB0BDE8F081BE
:1052B80001AA08EB0601B819103CFFF7C5FDA4B216
:1052C800EAE70220F1E70520EFE700BFF00D002034
:1052D800F0B51D4E3468034685B00846002204F137
:1052E800140102EB02154F5D9F4227D1802B05F177
:1052F800150508D07D33DBB2062B18D8492222FACF
:1053080003F3DB0713D50023CDE90033CDE90233DE
:105318007F2210216B46FFF79DFF0446306810225C
:10532800694628440AF032FC204605B0F0BD014623
:10533800102260190AF02AFC0024F5E70132172A26
:10534800CFD10324F0E700BFF00D002008B50146D7
:1053580030B1044B082218680AF018FC002008BD78
:105368000220FCE7F00D0020014B1868704700BFD1
:10537800F00D002008B5014638B1054B1868082221
:1053880010440AF003FC002008BD0220FCE700BF1F
:10539800F00D0020014B186808307047F00D002010
:1053A80008B5014638B1054B1868042210300AF0D8
:1053B800EDFB002008BD0220FCE700BFF00D002037
:1053C800014B186810307047F00D0020044B054A57
:1053D80093F8A831022B18BF062382F88834704747
:1053E8009C0E0020FC120020034BD3F8483313B165
:1053F800DB6803B118477047FC120020034A137892
:1054080043F002031370FFF7EFBF00BF080E002040
:10541800034A137843F008031370FFF7E5BF00BF92
:10542800080E0020034A137843F004031370FFF7B3
:10543800DBBF00BF080E0020074BD3F8402322F43F
:105448008072C3F8402393F8892442F0100283F84D
:105458008924FFF7C9BF00BFFC1200202DE9F041E5
:1054680016461D4680460F460AF061FC084A094C5C
:1054780013782781C4E9000823F0110343F01103CE
:10548800668125731370BDE8F041FFF7ADBF00BF1B
:10549800080E0020F40D00201FB5094B8DF80900F7
:1054A80093F88C208DF80A2093F858000D2202A951
:1054B8008DF808200BF02FFDC0B205B05DF804FB95
:1054C8009C0E002010B5154C94F8C92194F8503062
:1054D800012A4FF0010294BF84F8D52184F8D7211E
:1054E800013394F8C821DBB29A4284F8503009D8C5
:1054F8000B48FEF7C1FD002384F85030BDE810408A
:10550800FFF772BF074C04F2BC40D4F8DC140AF071
:10551800FDFB04F2BC40FEF739FDEFE79C0E0020CE
:10552800B8170020FC12002008B50748FEF7A4FDB4
:10553800064B93F8162412B1012283F81524BDE80E
:105548000840FFF751BF00BFF8160020FC120020EA
:1055580010B50C4CD4F8403343F08003C4F8403302
:1055680094F8163413B10020FFF7DEFF94F889345D
:1055780023F0120343F0120384F88934BDE8104085
:10558800FFF724BFFC1200202DE9F0414F4C90B0EA
:1055980008B984F8C001B4F8DC30A4F8483094F8AD
:1055A800B93084F879304A4B4A4ED3E9100183E880
:1055B8000300D3E9120103F1080282E80300B4F8FA
:1055C800CC20A4F88C20D4F8D420C4F89420D4F8A3
:1055D800D820D4F8D010C4F8982000254FF001083E
:1055E80003F5407203F54173C4F89010A56384F87D
:1055F800AB51A4F8B08184F84A5084F8AD5184F8CE
:10560800AE51C4F8C451A4F8C85103A9C6F8E4546B
:10561800A6F8145486F81654C4E9735594F858003B
:1056280004932D4B84F8D551A4F8D65103920593D1
:105638008DF818800BF07FFCE36FC6F8D83394F828
:105648008D3086F8E43386F8D45394F8C03186F860
:10565800E73306F575770FCF06F57A740FC486F829
:10566800E55386F8E6833B682360022386F8FA331D
:10567800D6F8483386F81754CDE9015586F8F983EA
:105688001BB15A68DB6801920293144B0793A3F18C
:105698004C020892A3F114020992114A0B92213389
:1056A8000A93A2F18C030C93A2F188030D93131DA6
:1056B8000E9301A902F1DC0307A802F559720F93B2
:1056C8000BF012F910B0BDE8F08100BF9C0E00206D
:1056D800180F0020FC1200200C0E00206417002078
:1056E800800F002013B50AF022FB0A4B6C461860A5
:1056F80020460AF0B8FA94E80300074A074B83E803
:105708000300137843F02003137002B0BDE8104083
:10571800FFF76ABE040E0020080E00203416002091
:10572800F8B52E4E96F8A831022B07460D4602D042
:105738002B4BDB6A98470BF0E2F8044680B996F8E1
:10574800A831012B16D0274C94F8882494F81634E5
:105758006AB30BB184F84154284603F0CBF836E01D
:1057680002200BF0C2F800200BF0C4F896F8A8311C
:10577800012B11D10BF0C5F890B100200BF0B6F851
:1057880000200BF0B8F80BF0BEF828B100200BF0A1
:10579800AEF800200BF0B0F8BDE8F840FFF716BEF1
:1057A8000BF0B1F80028F1D1002CCCD0F4E70BB104
:1057B80084F84174384603F09DF8F06B0AF0BEFA9D
:1057C800D4F8BC339842E7D30748FEF755FC94F861
:1057D800893443F0100384F88934DDE79C0E0020F7
:1057E8004C3D0108FC1200209C16002073B5124D98
:1057F800124E0096EB6D95F8602095F9881095F893
:1058080058000BF0B4FB0223B37495F8C031F3745D
:1058180095F85800012306F13802314673740BF0ED
:10582800B3FB30B1064B00205B6B9847B37C86F81E
:10583800A03002B070BD00BF9C0E0020E41600200E
:105848004C3D0108F8B53B4C94F8A851012D06468B
:105858000ED0022D60D0002D69D138B9D4E91F01CE
:1058680004F1840383E80300002006E0012805D141
:105878000BF050F808B984F8A861F8BD022856D191
:105888002D4F84F8A80107F5757EBEE80F0007F5CF
:105898007A7CACE80F00DEF80030CCF8003087F8EE
:1058A800FA63234693F8E92082B393F80021022A89
:1058B8002CD1302303FB0545D5F80431C4F88430D6
:1058C800C7F8EC3394F88D3095F8082187F8F83349
:1058D800032384F8882087F8FA3397F8172487F881
:1058E800E823012387F8F933002387F81634134B8C
:1058F800DB6A9847FFF77AFF94F8BE31002BB3D0E4
:105908000F490122202002F079FEADE70135042D70
:1059180003F13003C6D1E7E748B9074B84F8A8017B
:10592800062283F88824054BDB6A9847E4E70320BE
:10593800A3E700BF9C0E0020FC1200204C3D01088C
:105948004410002070B50B4E0B4D0C46FEF794FB2F
:10595800336B9847094A95F8580021460BF014FB19
:1059680030B1736B686E9847054BA27C83F8882426
:1059780070BD00BF4C3D01089C0E00201C17002084
:10598800FC1200200E4890F8173480F8C0330D4BF5
:1059980093F8792080F8C32393F88D2080F8D023DA
:1059A80093F8C03180F8D333002280F8D12380F8EF
:1059B800D22300F5707100F56270FFF7C3BF00BF16
:1059C800FC1200209C0E0020104890F88834DBB1AF
:1059D80090F8173480F8D4330D4BDA6FC0F8D82319
:1059E80093F88D2080F8E423002280F8E52393F8CB
:1059F800C03180F8E733012280F8E62300F575719D
:105A080000F56870FFF79EBF704700BFFC120020CA
:105A18009C0E00202DE9F04F8FB04FF00009012BAC
:105A280006460F4690468DF80990ADF80C9002D8BE
:105A38004C46BC4202D30FB0BDE8F08F305D02F097
:105A4800D3FE2044B842F6DC335D651C013BEDB261
:105A58001F2BF0D801A252F823F000BFE55A000826
:105A6800055B00082F5B00082D5C0008555C0008EA
:105A7800E55C00080B5D0008715D0008A15D000889
:105A88002F5E00081B5E0008835E0008855F000823
:105A9800A95E0008115F00082D6000085560000825
:105AA8008D600008D96000083F5A00083F5A000876
:105AB8003F5A00083F5A00083F5A00083F5A00085A
:105AC8003F5A00083F5A00083F5A00083F5A00084A
