:020000040800F2
:10000000803B0020C1360008A3090108AD36000876
:10001000AD360008AD360008AD360008000000001F
:100020000000000000000000000000008137000810
:10003000AD36000800000000213700081DD7000879
:10004000F9380008F9380008F9380008F9380008CC
:10005000F9380008F9380008F9380008F9380008BC
:10006000F9380008F9380008F9380008F9380008AC
:10007000F9380008F9380008F9380008F93800089C
:10008000F9380008F9380008F9380008F93800088C
:10009000F9380008F9380008F9380008F93800087C
:1000A000F9380008F9380008F9380008F93800086C
:1000B000F9380008F9380008F9380008F93800085C
:1000C000F9380008F9380008F9380008F93800084C
:1000D000F9380008F9380008F9380008F93800083C
:1000E000F9380008F9380008F9380008F93800082C
:1000F000F9380008F9380008F9380008F93800081C
:10010000F9380008F9380008F9380008F93800080B
:10011000F9380008F9380008F9380008F9380008FB
:10012000F9380008F9380008F9380008F9380008EB
:08013000F9380008F938000855
:1001380081F0004102E000BF83F0004330B54FEA90
:1001480041044FEA430594EA050F08BF90EA020FFD
:100158001FBF54EA000C55EA020C7FEA645C7FEA90
:10016800655C00F0E2804FEA5454D4EB5555B8BFB3
:100178006D420CDD2C4480EA020281EA030382EA24
:10018800000083EA010180EA020281EA0303362DB6
:1001980088BF30BD11F0004F4FEA01314FF4801C89
:1001A8004CEA113102D0404261EB410113F0004F9B
:1001B8004FEA03334CEA133302D0524263EB430352
:1001C80094EA050F00F0A780A4F10104D5F1200EF0
:1001D8000DDB02FA0EFC22FA05F2801841F100014B
:1001E80003FA0EF2801843FA05F359410EE0A5F11F
:1001F80020050EF1200E012A03FA0EFC28BF4CF050
:10020800020C43FA05F3C01851EBE37101F0004505
:1002180007D54FF0000EDCF1000C7EEB00006EEB12
:100228000101B1F5801F1BD3B1F5001F0CD349089C
:100238005FEA30004FEA3C0C04F101044FEA4452F3
:1002480012F5800F80F09A80BCF1004F08BF5FEA7A
:10025800500C50F1000041EB045141EA050130BD5A
:100268005FEA4C0C404141EB0101013C28BFB1F56C
:10027800801FE9D291F0000F04BF01460020B1FAB7
:1002880081F308BF2033A3F10B03B3F120020CDA8A
:100298000C3208DD02F1140CC2F10C0201FA0CF068
:1002A80021FA02F10CE002F11402D8BFC2F1200CCD
:1002B80001FA02F120FA0CFCDCBF41EA0C01904083
:1002C800E41AA2BF01EB0451294330BD6FEA0404CC
:1002D8001F3C1CDA0C340EDC04F11404C4F12002B7
:1002E80020FA04F001FA02F340EA030021FA04F3C9
:1002F80045EA030130BDC4F10C04C4F1200220FA20
:1003080002F001FA04F340EA0300294630BD21FA5D
:1003180004F0294630BD94F0000F83F4801306BF23
:1003280081F480110134013D4EE77FEA645C18BF17
:100338007FEA655C29D094EA050F08BF90EA020FAE
:1003480005D054EA000C04BF1946104630BD91EAA6
:10035800030F1EBF0021002030BD5FEA545C05D1A9
:100368004000494128BF41F0004130BD14F58004E8
:100378003CBF01F5801130BD01F0004545F0FE415C
:1003880041F470014FF0000030BD7FEA645C1ABF91
:10039800194610467FEA655C1CBF0B46024650EAC8
:1003A800013406BF52EA033591EA030F41F40021F4
:1003B80030BD00BF90F0000F04BF0021704730B57A
:1003C8004FF4806404F132044FF000054FF000014F
:1003D80050E700BF90F0000F04BF0021704730B510
:1003E8004FF4806404F1320410F0004548BF4042E5
:1003F8004FF000013EE700BF42004FEAE2014FEA3A
:1004080031014FEA02701FBF12F07F4393F07F4F14
:1004180081F06051704732F07F4208BF704793F017
:100428007F4F04BF41F40021704730B54FF460742A
:1004380001F0004521F000411CE700BF50EA01022D
:1004480008BF704730B54FF000050AE050EA0102D6
:1004580008BF704730B511F0004502D5404261EB46
:1004680041014FF4806404F132045FEA915C3FF487
:10047800D8AE4FF003025FEADC0C18BF03325FEA24
:10048800DC0C18BF033202EBDC02C2F1200300FAD5
:1004980003FC20FA02F001FA03FE40EA0E0021FAFA
:1004A80002F11444BDE600BF70B54FF0FF0C4CF4E8
:1004B800E06C1CEA11541DBF1CEA135594EA0C0F9A
:1004C80095EA0C0F00F0DEF82C4481EA030621EAD5
:1004D8004C5123EA4C5350EA013518BF52EA033510
:1004E80041F4801143F4801338D0A0FB02CE4FF0C2
:1004F8000005E1FB02E506F00042E0FB03E54FF0F2
:100508000006E1FB03569CF0000F18BF4EF0010EE9
:10051800A4F1FF04B6F5007F64F5407404D25FEAE5
:100528004E0E6D4146EB060642EAC62141EA555198
:100538004FEAC52040EA5E504FEACE2EB4F1FD0CDA
:1005480088BFBCF5E06F1ED8BEF1004F08BF5FEA58
:10055800500E50F1000041EB045170BD06F000460A
:1005680046EA010140EA020081EA0301B4EB5C04B7
:10057800C2BFD4EB0C0541EA045170BD41F48011AF
:100588004FF0000E013C00F3AB8014F1360FDEBFD4
:10059800002001F0004170BDC4F10004203C35DAB0
:1005A8000C341BDC04F11404C4F1200500FA05F333
:1005B80020FA04F001FA05F240EA020001F00042D4
:1005C80021F0004110EBD37021FA04F642EB06014A
:1005D8005EEA430E08BF20EAD37070BDC4F10C0474
:1005E800C4F1200500FA04F320FA05F001FA04F238
:1005F80040EA020001F0004110EBD37041F1000124
:100608005EEA430E08BF20EAD37070BDC4F120052E
:1006180000FA05F24EEA020E20FA04F301FA05F296
:1006280043EA020321FA04F001F0004121FA04F23E
:1006380020EA020000EBD3705EEA430E08BF20EA0E
:10064800D37070BD94F0000F0FD101F00046400048
:1006580041EB010111F4801F08BF013CF7D041EACA
:10066800060195F0000F18BF704703F000465200CE
:1006780043EB030313F4801F08BF013DF7D043EA9F
:100688000603704794EA0C0F0CEA135518BF95EA55
:100698000C0F0CD050EA410618BF52EA4306D1D1DC
:1006A80081EA030101F000414FF0000070BD50EAFB
:1006B800410606BF1046194652EA430619D094EA85
:1006C8000C0F02D150EA013613D195EA0C0F05D16F
:1006D80052EA03361CBF104619460AD181EA0301C3
:1006E80001F0004141F0FE4141F470014FF000007B
:1006F80070BD41F0FE4141F4780170BD70B54FF016
:10070800FF0C4CF4E06C1CEA11541DBF1CEA135595
:1007180094EA0C0F95EA0C0F00F0A7F8A4EB050477
:1007280081EA030E52EA03354FEA013100F088806E
:100738004FEA03334FF0805545EA131343EA126337
:100748004FEA022245EA111545EA10654FEA0026EC
:100758000EF000419D4208BF964244F1FD0404F5A5
:10076800407402D25B084FEA3202B61A65EB030501
:100778005B084FEA32024FF480104FF4002CB6EBBE
:10078800020E75EB030E22BFB61A754640EA0C003E
:100798005B084FEA3202B6EB020E75EB030E22BF7E
:1007A800B61A754640EA5C005B084FEA3202B6EBBF
:1007B800020E75EB030E22BFB61A754640EA9C007E
:1007C8005B084FEA3202B6EB020E75EB030E22BF4E
:1007D800B61A754640EADC0055EA060E18D04FEA0C
:1007E800051545EA16754FEA06164FEAC30343EAAC
:1007F80052734FEAC2025FEA1C1CC0D111F4801F79
:100808000BD141EA00014FF000004FF0004CB6E771
:1008180011F4801F04BF01430020B4F1FD0C88BF10
:10082800BCF5E06F3FF6AFAEB5EB030C04BFB6EB1B
:10083800020C5FEA500C50F1000041EB045170BD0E
:100848000EF0004E4EEA113114EB5C04C2BFD4EB3B
:100858000C0541EA045170BD41F480114FF0000EBF
:10086800013C90E645EA060E8DE60CEA135594EA3B
:100878000C0F08BF95EA0C0F3FF43BAF94EA0C0F3E
:100888000AD150EA01347FF434AF95EA0C0F7FF4B3
:1008980025AF104619462CE795EA0C0F06D152EA07
:1008A80003353FF4FDAE1046194622E750EA4106EB
:1008B80018BF52EA43067FF4C5AE50EA41047FF4FC
:1008C8000DAF52EA43057FF4EBAE12E74A0011D2AE
:1008D80012F5001211D20DD56FF47873B3EB625292
:1008E8000ED44FEAC12343F0004343EA505323FA9E
:1008F80002F070474FF00000704750EA013002D113
:100908004FF0FF3070474FF0000070474FEA410248
:10091800B2F1E04324BFB3F5001CDCF1FE5C0DD955
:1009280001F0004C4FEAC0024CEA5070B2F1004F9F
:1009380040EB830008BF20F00100704711F0804FA2
:1009480021D113F13872BCBF01F00040704741F467
:1009580080114FEA5252C2F11802C2F1200C10FA6B
:100968000CF320FA02F018BF40F001004FEAC1234F
:100978004FEAD32303FA0CFC40EA0C0023FA02F3F3
:100988004FEA4303CCE77FEA625307D150EA0133C9
:100998001EBF4FF0FE4040F44000704701F0004099
:1009A80040F0FE4040F40000704700BF80F0004077
:1009B80002E000BF81F0004142001FBF5FEA41032F
:1009C80092EA030F7FEA226C7FEA236C6AD04FEA2F
:1009D8001262D2EB1363C1BFD21841404840414074
:1009E800B8BF5B42192B88BF704710F0004F40F426
:1009F800000020F07F4018BF404211F0004F41F442
:100A0800000121F07F4118BF494292EA030F3FD00D
:100A1800A2F1010241FA03FC10EB0C00C3F1200320
:100A280001FA03F100F0004302D5494260EB4000AF
:100A3800B0F5000F13D3B0F1807F06D340084FEA1A
:100A4800310102F10102FE2A51D2B1F1004F40EB0F
:100A5800C25008BF20F0010040EA03007047490077
:100A680040EB0000013A28BFB0F5000FEDD2B0FA14
:100A780080FCACF1080CB2EB0C0200FA0CF0AABF37
:100A880000EBC25052421843BCBFD04018437047D5
:100A980092F0000F81F4000106BF80F400000132DB
:100AA800013BB5E74FEA41037FEA226C18BF7FEAB2
:100AB800236C21D092EA030F04D092F0000F08BFF4
:100AC8000846704790EA010F1CBF0020704712F0DB
:100AD8007F4F04D1400028BF40F00040704712F11A
:100AE80000723CBF00F50000704700F0004343F07F
:100AF800FE4040F4000070477FEA226216BF0846B5
:100B08007FEA23630146420206BF5FEA412390EA77
:100B1800010F40F4800070474FF0000304E000BF6D
:100B280010F0004348BF40425FEA000C08BF70471E
:100B380043F0964301464FF000001CE050EA0102E2
:100B480008BF70474FF000030AE000BF50EA0102F7
:100B580008BF704711F0004302D5404261EB4101E4
:100B68005FEA010C02BF84460146002043F0B64309
:100B780008BFA3F18053A3F50003BCFA8CF2083A2E
:100B8800A3EBC25310DB01FA02FC634400FA02FC37
:100B9800C2F12002BCF1004F20FA02F243EB02003E
:100BA80008BF20F00100704702F1200201FA02FCA0
:100BB800C2F1200250EA4C0021FA02F243EB020093
:100BC80008BF20EADC7070474FF0FF0C1CEAD052D7
:100BD8001EBF1CEAD15392EA0C0F93EA0C0F6FD098
:100BE8001A4480EA010C400218BF5FEA41211ED076
:100BF8004FF0006343EA501043EA5111A0FB013162
:100C08000CF00040B1F5000F3EBF490041EAD37136
:100C18005B0040EA010062F17F02FD2A1DD8B3F1B2
:100C2800004F40EBC25008BF20F00100704790F021
:100C3800000F0CF0004C08BF49024CEA502040EA73
:100C480051207F3AC2BFD2F1FF0340EAC250704739
:100C580040F400004FF00003013A5DDC12F1190F77
:100C6800DCBF00F000407047C2F10002410021FAE9
:100C780002F1C2F1200200FA02FC5FEA310040F101
:100C8800000053EA4C0308BF20EADC70704792F07A
:100C9800000F00F0004C02BF400010F4000F013AB2
:100CA800F9D040EA0C0093F0000F01F0004C02BFAD
:100CB800490011F4000F013BF9D041EA0C018FE71C
:100CC8000CEAD15392EA0C0F18BF93EA0C0F0AD022
:100CD80030F0004C18BF31F0004CD8D180EA010048
:100CE80000F00040704790F0000F17BF90F0004FE1
:100CF800084691F0000F91F0004F14D092EA0C0FC3
:100D080001D142020FD193EA0C0F03D14B0218BF55
:100D1800084608D180EA010000F0004040F0FE409B
:100D280040F40000704740F0FE4040F44000704737
:100D38004FF0FF0C1CEAD0521EBF1CEAD15392EAB6
:100D48000C0F93EA0C0F69D0A2EB030280EA010CA6
:100D580049024FEA402037D04FF0805343EA11113F
:100D680043EA10130CF000408B4238BF5B0042F19D
:100D78007D024FF4000C8B4224BF5B1A40EA0C0042
:100D8800B3EB510F24BFA3EB510340EA5C00B3EB74
:100D9800910F24BFA3EB910340EA9C00B3EBD10F62
:100DA80024BFA3EBD10340EADC001B0118BF5FEAB4
:100DB8001C1CE0D1FD2A3FF650AF8B4240EBC250DD
:100DC80008BF20F0010070470CF0004C4CEA50209E
:100DD8007F32C2BFD2F1FF0340EAC250704740F4ED
:100DE80000004FF00003013A37E792F0000F00F0DF
:100DF800004C02BF400010F4000F013AF9D040EA5D
:100E08000C0093F0000F01F0004C02BF490011F4F0
:100E1800000F013BF9D041EA0C0195E70CEAD153E8
:100E280092EA0C0F08D142027FF47DAF93EA0C0FCF
:100E38007FF470AF084676E793EA0C0F04D14B02B3
:100E48003FF44CAF08466EE730F0004C18BF31F065
:100E5800004CCAD130F000427FF45CAF31F000435F
:100E68007FF43CAF5FE700BF4FF0FF3C06E000BFF8
:100E78004FF0010C02E000BF4FF0010C4DF804CD1B
:100E88004FEA40024FEA41037FEA226C18BF7FEA2B
:100E9800236C11D001B052EA530C18BF90EA010F2D
:100EA80058BFB2EB030088BFC81738BF6FEAE170BC
:100EB80018BF40F0010070477FEA226C02D15FEA58
:100EC800402C05D17FEA236CE4D15FEA412CE1D0C4
:100ED8005DF8040B704700BF844608466146FFE78B
:100EE8000FB5FFF7C9FF002848BF10F1000F0FBD6D
:100EF8004DF808EDFFF7F4FF0CBF012000205DF866
:100F080008FB00BF4DF808EDFFF7EAFF34BF0120EA
:100F180000205DF808FB00BF4DF808EDFFF7E0FF83
:100F280094BF012000205DF808FB00BF4DF808EDD4
:100F3800FFF7D2FF94BF012000205DF808FB00BF37
:100F48004DF808EDFFF7C8FF34BF012000205DF819
:100F580008FB00BF4FEA4002B2F1FE4F0FD34FF03B
:100F68009E03B3EB12620DD94FEA002343F000430E
:100F780010F0004F23FA02F018BF404270474FF0BC
:100F88000000704712F1610F01D1420205D110F043
:100F9800004008BF6FF0004070474FF000007047F6
:100FA80042000ED2B2F1FE4F0BD34FF09E03B3EBCB
:100FB800126209D44FEA002343F0004323FA02F0F7
:100FC80070474FF00000704712F1610F01D14202E3
:100FD80002D14FF0FF3070474FF00000704700BF5C
:100FE8007BB972B90029BEBF00204FF0004106E06E
:100FF80008BF00281CBF6FF000414FF0FF3000F021
:1010080057B8ADF1080C6DE904CE002909DB002BB7
:101018001ADB00F06AF8DDF804E0DDE9022304B029
:101028007047404261EB4101002B1BDB00F05DF88B
:10103800DDF804E0DDE9022304B0404261EB410140
:10104800524263EB43037047524263EB430300F0A1
:101058004CF8DDF804E0DDE9022304B0404261EB1E
:1010680041017047524263EB430300F03EF8DDF85C
:1010780004E0DDE9022304B0524263EB4303704706
:1010880053B94AB9002908BF00281CBF4FF0FF31E7
:101098004FF0FF3000F00CB8ADF1080C6DE904CE4C
:1010A80000F023F8DDF804E0DDE9022304B070471E
:1010B800704700BF034613F8012B002AFBD1181A0A
:1010C80001387047430803F05533C01A00F0333332
:1010D800800800F03330184400EB10104FF0013353
:1010E80000F00F305843000E70472DE9F047864650
:1010F8008C460846089E154674461946002B40F053
:10110800C2808542B2FA82F245D94AB1C2F12003BF
:1011180000FA02FC2EFA03F3954043EA0C0C9440C3
:101128004FEA154EA8B2BCFBFEF8230C0EFB18CCF8
:1011380008FB00F943EA0C43994528D9EB1808F154
:10114800FF3704D2994502D9A8F102072B44A3EB33
:101158000903A4B2B3FBFEFC0EFB1C330CFB00F02E
:1011680044EA0344A04214D92C190CF1FF3304D2E9
:10117800A04202D9ACF102032C44241A43EA0740E6
:101188001EB1D440002334607360BDE8F087474641
:10119800DDE76346F1E792BB431B01214FEA154E99
:1011A800AFB2B3FBFEFC200C0EFB1C330CFB07F8A4
:1011B80040EA0343984562D9EB180CF1FF3004D29A
:1011C800984502D9ACF102002B44A3EB0803A4B262
:1011D800B3FBFEFC0EFB1C330CFB07F744EA03448D
:1011E800A7424ED92C190CF1FF3304D2A74202D9D9
:1011F800ACF102032C44E41B43EA0040C0E7C2F10F
:10120800200320FA03F1954090402EFA03F303439C
:101218004FEA154EAFB2B1FBFEFC0EFB1C10190CC9
:101228000CFB07F841EA0041884504FA02F422D988
:1012380069180CF1FF3004D2884502D9ACF10200DC
:101248002944A1EB08019BB2B1FBFEFC0EFB1C116B
:101258000CFB07F743EA01439F420ED9EB180CF148
:10126800FF3104D29F4202D9ACF102012B44DB1BAF
:1012780041EA004192E76046E3E76146F7E76046E6
:10128800A3E76346B7E7834206D916B900210846A3
:101298007BE7C6E900E0F9E7B3FA83F78FB9834241
:1012A80001D3724508D8BEEB020460EB03030120AA
:1012B8009C461EB9002168E73846FAE7C6E9004CA3
:1012C800F8E7C7F1200CBB4022FA0CF41C432EFAB5
:1012D8000CF120FA0CF3B84001434FEA14490EFA16
:1012E80007F5B3FBF9F81FFA84FE09FB18300B0C5D
:1012F80008FB0EFA43EA00439A4502FA07F240D97E
:10130800E31808F1FF3004D29A4502D9A8F1020087
:101318002344A3EB0A0389B2B3FBF9F809FB18339A
:1013280008FB0EFE41EA03418E452CD9611808F1ED
:10133800FF3304D28E4502D9A8F10203214443EABF
:101348000040A0FB0298A1EB0E014145CE46434662
:1013580002D306D14D4504D2B9EB020E68EB040363
:101368000138002EA6D0B5EB0E0261EB030101FA9D
:101378000CFC22FA07F34CEA0303F940C6E90031F2
:1013880098E74046C5E74346D9E70000000000005B
:101398002DE9F04F0520E3B002F0C4FD031E08DA82
:1013A8007E4A7F4801210FF02CFA002063B0BDE887
:1013B800F08F02F0CFFF031E01DA7A4AF1E77A488C
:1013C800012102F0C5FE034620B1784A7448012184
:1013D8000FF017FA002002F0F1FE052002F0D0FE0F
:1013E8000023CDF86630CDF86A30ADF86E304FF690
:1013F800FF73ADF8643019A86D4B1A9302F09AFF89
:101408006C4B1CAD2C4603F110061868596822462F
:1014180003C20833B3421446F7D1674B20AE3446B3
:1014280003F1100718685968224603C20833BB4203
:101438001446F7D100232993CDE927335F4B26952E
:10144800012424A8CDE924368DF8A44002F086FDB5
:10145800031E01DA5A4AA4E75A4A514803210FF0F9
:10146800C7F9594F384612F0AFFA20B939685748CA
:101478000EF091FA99E75648564D0EF08CFA6E69BF
:1014880030460EF03EF9044600286FD0F38900215B
:10149800013BF3810160EFF31183102282F312887C
:1014A800BFF36F8F2A6A2862106083F31188BFF335
:1014B8006F8F2E222E3812F00FFE012304F8303CD5
:1014C8007F2304F82F3C444B44F8283C802344F8FD
:1014D800203C42AB44F81C3C44F8243C284611F01C
:1014E8004DF9A8684FF0FF324FF0FF330CF09CFD28
:1014F8003A483A4C0EF005F9002833D00022AB697F
:1015080044680260EFF31182102181F31288BFF35F
:101518006F8F19681860086082F31188BFF36F8FA6
:10152800DA890132DA811CBB2D48DFF8B8800EF069
:1015380032FA42AE16F8011B404601340EF02BFA7F
:10154800102CF7D128480EF026FABB685B69CBB996
:10155800264B0A93DDF828900024B9F1000F4BD1EF
:101568004A4615E020460EF0CCF8C5E76FF00B04AC
:101578001F4821460EF00FFA4CF25030002112F0AD
:10158800B3FB7CE710480AA9984702460028E1D037
:10159800396818480EF0FFF9EEE700BFB4500108AB
:1015A800CC470108D2500108AC020020EB500108DA
:1015B800B11A0008A0520108B1520108AA11012667
:1015C8001051010828510108EC430108375101085E
:1015D8008B510108440400207C0400207004002082
:1015E800B2510108C4510108805401084C4E010849
:1015F8009A510108CA5101080DF1A80A21460DF1B6
:10160800C80820225046CDE90B440D943AAE12F09A
:1016180063FD21462022404612F05EFD214620222D
:10162800304612F059FDD9F80890CDF800A01B21DA
:1016380001230BAA42A80E91C8470A9B1021D3F890
:101648000890CDF8008001230CAA42A80F91C84742
:101658000A9B0D21D3F80880009601230DAA42A801
:101668001091C04730987E4B7E4A12EA200238BF5C
:101678001A469DF9B83008920028B8BF4042002B9E
:10168800A5BFA3F12004C3F120025B4200FA04F4D1
:10169800AABF20FA02F2D84098404FEAD0784FF01B
:1016A800000120F00040A8BF1443FEF7C7FE6E4BB0
:1016B8000022FEF7F9FE68A3D3E90023FFF71EF81E
:1016C800FFF704F9664B674A8146389812EA200208
:1016D80038BF1A469DF9D83009920028B8BF404251
:1016E800002B48EA440865DA5B42D8400022C30F61
:1016F80043EA420320F0004000210793FEF79EFED4
:10170800594B0022FEF7D0FE53A3D3E90023FEF77E
:10171800F5FFFFF7DBF8409C514B524A12EA240BC5
:1017280038BF9B469DF9F830002CB8BF6442002BA7
:1017380082464ADA5B42DC40002624F00040002161
:10174800FEF77CFE484B0022FEF7AEFE42A3D3E92B
:101758000023FEF7D3FFFFF7B9F8E40F079B0193C7
:1017680044EA4604099B08990590CDE903B43F482B
:10177800009342464B46CDF808A00EF00CF913AA88
:101788001B213B480DF0E3FF15AA04460D213848FC
:101798000DF0DDFF17AA0443102135480DF0D7FFDF
:1017A80054EA00031CD0334A022133480FF029F8C9
:1017B8003248E3E6A3F12002C3F1200100FA02F265
:1017C80020FA01F10A43984091E7A3F12006C3F1FA
:1017D800200204FA06F624FA02F216439C40ACE70B
:1017E800139A002A06DB4FF6FE739A42D4BF93B2CF
:1017F8004FF6FF73159A1699ADF84430642042F2FB
:10180800107491FBF4F100FB0211DDE9176292FB01
:10181800F4F200FB062201F30F0182F31002ADF887
:101828004610ADF848200023062211A9022002F034
:10183800F7FC10F10B0F034605D1114A02210E489F
:101848000EF0D6FFB4E7002802DA0E4A0121ACE711
:101858000D4A0321F3E700BF0000C0FFFFFFDF418F
:10186800C1520108B250010800005940EF51010867
:10187800EC4301081F520108CC470108804F1200B1
:101888004F5201087C5201089452010800000000E0
:101898002DE9F3414029D0F8048005461F4607D0BA
:1018A8001B2900F2A0806C4BCB40D90740F19B80EC
:1018B800D6B2142E09D028460AF0E6FB041E26DA12
:1018C8006649674811F070FC04E03B68002B05DAB4
:1018D8006FF01504204602B0BDE8F0817A68002A4E
:1018E800F6DBA3F52F72B2F5FA7FF1D80DF10602F7
:1018F80008212846ADF806300AF00CFB041E80F2D9
:10190800A2805849564811F04FFC5749D9E73C681E
:10191800002CDDDB78680028DADB123E052E62D861
:10192800DFE806F0033161455774142CD0DCFEF76C
:1019380051FD47A3D3E90023FEF7E0FE0646204603
:101948000F46FEF747FD02460B4630463946FEF77E
:10195800F5FBFEF7DBFF4549FFF736F94449FFF78A
:10196800E7F9FFF71DFB0DF10602ADF806000421AB
:1019780028460AF0CFFA041E60DA3E49384811F0CA
:1019880013FC3D499DE740F6B8339C42A0DC0DF1BD
:10199800060206212846ADF806400AF0BBFA041EE6
:1019A8004CDA36492E4811F0FFFB354989E7012CFE
:1019B8008EDC0DF106020B212846ADF806400AF030
:1019C800A9FA041E3ADA2F49254811F0EDFB2E49F1
:1019D80077E7A2077FF47CAF98F8083033B92B4932
:1019E8001F4811F0E1FB6FF0850473E70DF1060263
:1019F80016212846ADF806400AF08CFA041E1DDAB6
:101A08002349174811F0D0FB22495AE7A3077FF46E
:101A18005FAF98F808300BB91F49E1E70DF10602EE
:101A280018212846ADF806400AF074FA041E05DAB3
:101A38001A490B4811F0B8FB194942E768680AF0DF
:101A4800B5FA041E01DB002444E7164939E700BF54
:101A58000000000080842E41002001085E68010813
:101A6800BC470108176901084669010800FF7F475C
:101A780000002F4377680108A8680108CA680108B0
:101A8800F868010866690108A1690108C7690108C1
:101A9800FA690108426A01086B6A01089F6A01082D
:101AA800E86A0108F06701082DE9F04100AF6E46C9
:101AB8008CB03D7ED7F81C806C46DFF864C063624A
:101AC800C4E905C001F00100C4E907022246C1F3D8
:101AD80040010823C4E90A1542F8103F11480023C1
:101AE80044F2C00101F072F8B546B8F1000F13D006
:101AF80088B06A460C4B53610C4B93614FF40073EA
:101B0800938329050A4B42F8103F41F4E6510548F2
:101B1800434601F05BF8B546BD46BDE8F08100BF1D
:101B28006C500108CC470108A9590108A0500108C8
:101B3800030000012DE9F04F91B08407009302F0F3
:101B480004030293C2F3C20303F10103DDF86880C2
:101B5800039205460E46059340F0BA81041D30B144
:101B6800072909D86FF01B0011B0BDE8F08F01F00C
:101B780007063444C6F10806009B4FF00009591EB9
:101B88004FF0040A4FF0FF330193CDF810904F4601
:101B9800CB4653460DB1009A22600598002800F301
:101BA800E8809848009A824203D397488242C0F05E
:101BB800E080039AA4EB050E92074FEA9E0000F11D
:101BC80003810F2F00F2B180002D00F0058107F18D
:101BD80040020DEB020C019A0CF8200C0CF8102CAA
:101BE800049801300490E7E07A285DD84B280ED895
:101BF800472859D829282DD8252852D054D8202804
:101C08007AD02338D0F1000B4BEB000B74E04C3842
:101C18002E2849D8DFE800F0704848484848484826
:101C2800484848484B484848484848484859484B15
:101C38004B595959704B6D487048184B1848488291
:101C48007F4B48484B487F0000204FF0000B4FF077
:101C5800040A38E02A38C0B2012202FA00F010EA79
:101C68000E0F49D110F0625C2FD110EA020B43D05D
:101C78006046013C5444B4FBFAF40AFB04F4002D1A
:101C880061D0A3EB050CA444B4453FF66BAF002824
:101C980068D1042B47D158F8043B2360043404234B
:101CA8002AE0019A013A01924FF0000B24E011F862
:101CB800010C6C2834D111F8023C00206C2B8346AF
:101CC800C5D14FF0080A5346D3E708F1070828F0B2
:101CD80007080734F8E802AB24F0070435B1069882
:101CE8002044B0423FF63EAFC4E900AB08344FF0A1
:101CF800000B4FF0080A534611F8010F002878D05E
:101D0800BBF1000F7FF470AF2528F5D1019B01339B
:101D180001934FF0010B4FF0040AECE7584694E7A3
:101D280000208346A5E7082B02D06FF015001BE7BB
:101D380008F1070828F00708F8E80223C4E9002397
:101D480008340823D8E768B9042B02D108F104083D
:101D5800A4E7082BE9D108F1070828F0070808F1DB
:101D68000808EDE7059A013A059258F8042B009205
:101D780010E7039A900720D5A4EB050E4FEA9E00C2
:101D88004FF0010CBEF5007FCFD20F2FCDD8F5B1A3
:101D980007F140020DEB020EC0B2019A0EF8200CBA
:101DA8000EF8102CBCF1000F3FF41AAF60F07F0062
:101DB8000EF8200C09F101090137C5F108020434B5
:101DC80006924FF6DA7E97E74FF0000CDAE7BCF19F
:101DD800000F01D00136EFE7029802360028EBD158
:101DE8000098CDE90631FFF765F9DDE906310644CB
:101DF800E2E7631BB3F5806F97D23DB9A6F10804FB
:101E0800E018B1E6DC410108B8730108029A2860BD
:101E18009B082B709DF81030C2B1EB7085F80290CA
:101E2800B9F1000F05D008A80022C5F1010C9742AE
:101E38000ED1C5F101030DF120084FF0000A0193FE
:101E48000DF1300B574512D1601B8DE66B70E5E73D
:101E580010F8013B190608D50CEB040EB64503F043
:101E68007F033FF67FAE04F8013B0132DFE7B9F1AB
:101E7800000F03D098F90020002A17DB029BD3B18A
:101E88001AF80B2004F8012B0022019B18191044A2
:101E9800B0423FF667AE98F8000004F8010B0099CD
:101EA8000392204612F00AF9039A14440AF1010A2F
:101EB80008F10108C6E798F8002055F82230009389
:101EC800029B45F822300098FFF7F4F8421CDCE743
:101ED8006FF00D0048E600BF2DE9F04F97B000AF56
:101EE80090F802A0D7F880B03B62CBF3C003044659
:101EF800FA62BB61894641B9457800780AEB8000EF
:101F080020444D4517D8A0EB0409E378FB61BAF1EA
:101F1800000F02D01BF0010F16D1FB6953BBFB6AFF
:101F28001BB13A6A4946204698474D4628465C37D1
:101F3800BD46BDE8F08F461C3046FFF7BBF80130C0
:101F4800304409F10109DCE7237862687A62FA6AA9
:101F58009900796104EB8301002A40F000814D4625
:101F68000E4601EB0A094FF000084E454CD101EB33
:101F78000A0610E01BF0020FD1D023789A007A618C
:101F880062687A62FA6A04EB8301002A77D14D46C7
:101F980001EB0A0690461BF0050F0CBF0223012334
:101FA800FB62FB6906EB430A0BF00203BB62564572
:101FB800BCD016F8021B16F8013C54F82390994B34
:101FC800994502D3984B994536D3BB69002B40D02D
:101FD800786A0DF0B9FC00283BD0E9468AB06A4619
:101FE800924B53617B6AC2E906314FF40073138444
:101FF8008F4B42F8103F8F4800234FF4125100F0E6
:10200800E5FD023DCD46D2E716F8013BF96254F8EA
:102018002300FFF74FF8D7F88430F96A01304BB145
:10202800D7F8883098453EBFD7F8843023F8180091
:1020380008F10108054498E7BB6923B1786A0DF0F7
:1020480083FC0028C9D11BF0010F05D1FB6AED1AEA
:10205800ADE7BB6A002BAAD04846FFF72BF8D7F8A4
:10206800843053B1D7F8883098453FBFD7F88420DB
:10207800431C22F8183008F10108054497E7BAF123
:10208800000F72D01BF0040672D0D046002607F16C
:10209800480052463B61B96212F010F8B96A3B69D0
:1020A80001EB0A02BA62FA69F9695200FA60BA6A7F
:1020B80002EB41023A610BF00202BA603A69B96A6E
:1020C8008A4257D162787A621BF0020F32440CBF01
:1020D8004FEA580100211BF0010FD2B240F09F8057
:1020E8001BF0040F14BF40460020BB616270A07053
:1020F800E1703A6A7969FB6A20469847051EFFF63F
:1021080015AFBB6923707B6A6370FB69E370414656
:102118003A6AFB6A84F802A007F148009847B0F1D0
:102128000008C0F2BB807B693A6AA9EB0A01C91AA8
:10213800FB68C91AD7E90A0398470028C0F2B0809B
:10214800A84408EB00054FF0000B07F1380AB34527
:1021580072D300213A6AFB6A08469847E6E6564673
:102168004FF0000807F1380093E75646D04697E746
:10217800B04695E7BA6A12F8021BBA6212F8015C17
:10218800284A54F82500904202D3274A90421ED389
:10219800BA6932B1786A7B600DF0D6FB7B6800289B
:1021A8008CD1BA6802BB08F1280207F1300C08F19B
:1021B8000100944407F1580252FA80F008F102082D
:1021C8000CF8101C5FFA88F800F8105C76E7BA691A
:1021D8003AB1786A7B600DF0B7FB7B6800287FF422
:1021E8006DAF1BF0010F09D006F1280207F130008E
:1021F800711C161806F8205CCEB25FE71BF0040FBE
:102208003FF45CAF08F1280207F1300008F1010142
:1022180002EB000808F8105C5FFA81F84EE700202E
:1022280063E700BFDC410108B8730108C652010822
:1022380004000001D44701081BF80A3087F837303A
:1022480054F82390D7F884302BB3D7F888309B45BF
:1022580021D2D7F8843033F81B803A6AFB6A01210F
:1022680007F13700984700281ADB0544B8F1000F3A
:1022780006D14846FEF71EFF00F101081FFA88F84C
:102288003A6AFB6A414648469847002808DB0544F5
:102298000BF1010B5BE74FF00008DEE7454645E62A
:1022A800054643E6014B1860704700BFCC0000208C
:1022B80080B505460E46174698460CF053FB034674
:1022C80011F07EFFDFF81890044649F800304246C6
:1022D80030463946A84754F8090001F007FA00BF0C
:1022E800080000002DE99F480646EFF311851023EA
:1022F80083F31288BFF36F8F334F00F1080A4FF052
:10230800FF384FF0FF39012150460DF04AFE06F123
:10231800140203920446002848D00146A0F1280B75
:1023280050460DF0E5FEBB68A360B369039AC4E9A3
:1023380000231C60BB68B46154F8282C9A7354F8C5
:10234800242C1A611A7B22F010021A7385F3118863
:10235800BFF36F8F54F8203C58469847EFF3118528
:10236800102282F31288BFF36F8FBB681B7B134068
:10237800C9D1D4E9001001604860C4E90033A36002
:10238800336A73B185F31188BFF36F8F336A584688
:102398009847EFF31185102282F31288BFF36F8FED
:1023A800B1E7A4F118000BF005FEACE7CDE9008910
:1023B8003246294630460CF011F9EFF31185102307
:1023C80083F31288EAE700BF241D002010B51C2201
:1023D80004460021083011F07FFE044BE36004F14D
:1023E8001403C4E90044C4E9053310BD8DFE000898
:1023F80070B5044688B0E569084645F340061146BD
:102408001A4600236FF00F05CDE90235CDE90043E8
:102418000493CDE90666024B0BF0C2FF08B070BD0D
:10242800ED2200082DE9F8431C4C1D4F4FF02408FD
:10243800BC4230D30020BDE8F8836368D4F8089024
:10244800DD1D636925F007057F35D90725F03F05B0
:1024580008D508FB06994846FFF7B8FFA369C9F8ED
:10246800203001E0002EF6D063695A0748BF43F0D8
:102478000203C9F81C30D4E90312636806FB05227D
:1024880001EBC6114846FFF7B3FF01362368B34294
:10249800D3D81C34CCE70026F8E700BF88460108EB
:1024A800A44601082DE9F04106460C46EFF31187D2
:1024B800102383F31288BFF36F8F0BF0E5F963687D
:1024C800394A216B034463609368994237D1D4E950
:1024D8000A310B6059600023C4E90A3391680A7B0A
:1024E80042F010020A73236306F1080504F1280874
:1024F800414628460DF062FD6663012128460DF02D
:1025080050FD804549D1324652F8143F93421ED0BF
:10251800EBB1283B00221946206851F8285B854218
:1025280006DC04D15D686068854200D000DC0132B9
:10253800B06981420AD09B6A43B1283BEBE701228C
:10254800002104F1100011F0D8FACDE72ABB356854
:10255800AE421DD0E5B1D5E9003213605A606A7BFE
:10256800002322F00202C5E900336A73AB6005F16B
:10257800180011F02BFC2368AB7363682B612846A5
:1025880011F053FB39463046BDE8F0410CF0CCB8A9
:10259800064A074802210EF02BF987F31188BFF38A
:1025A8006F8FBDE8F08100BF241D00207A53010819
:1025B8002C480108034A536823F0020353600020A3
:1025C800704700BF002004E0EFF31180102383F36D
:1025D8001288BFF36F8F094B1A683AB9084A116815
:1025E80041F4807111601168C905FCD51A6801327F
:1025F8001A6080F31188BFF36F8F7047800C00203A
:102608000004005838B5EFF31185102383F31288BE
:10261800BFF36F8F0E4B1A6872B90E4C237833B91B
:102628000D4A0E4802210EF0E3F80123237085F3CA
:102638001188BFF36F8F38BD012A01BF08490A68A6
:1026480022F480720A601A68013A1A60EFE700BF44
:10265800800C0020601D0020B25301085C4801086E
:1026680000040058084B1A6842F400721A601A688D
:1026780042F480621A601A6842F480721A60034B4E
:10268800034A1A60704700BF0040005894020020B7
:1026980000093D002DE9F047DFF858800446074659
:1026A8004FF0010914B93846BDE8F08794FAA4F54B
:1026B800B5FA85F509FA05F32E0108EB05156FEA59
:1026C800030A24EA03042B7B002BEBD058F80630CE
:1026D8001B694BB94644042273682846196807EAFF
:1026E8000A070EF015F8DDE7284698470028D9D1E3
:1026F800F0E700BF9448010830B51049104889B088
:10270800002211F091FB0F4D0F4900220023CDE963
:10271800062300240E23CDE90334CDE901440B4BF5
:1027280000944FF4407228460BF03AFE08492846B8
:1027380011F037FA204609B030BD00BF5D27000808
:1027480078090020F0040020801E0020792A000863
:10275800F353010801480BF02DBC00BFFC03002017
:102768002DE9F047804620480F460DF0A9FF0646A0
:10277800002832D000252846BDE8F087237B83B1A6
:102788002368DB680BB120469847636883F8069096
:1027980023681B69CBB963680422196820460DF0C9
:1027A800B7FF013610345445E8D3B8F1000FE2D032
:1027B800002DDFD02846FFF76DFF0546002FF7D024
:1027C8000021642011F090FAF2E72046984700288B
:1027D800E1D009FA06F31D43E3E7044CDFF810A043
:1027E80005464FF00109DEE7940C002094480108E3
:1027F800A4480108014B53F82000704724490108F8
:1028080008B5034608462BB1044A136000F074FC6F
:10281800002008BD6FF01500FBE700BFD0000020C6
:1028280010B5044C237813B903480BF0C3FB0123FC
:10283800237010BD611D0020FC03002010B5044664
:102848000B480DF03DFF5CB1BFF35B8F094B53E8BC
:10285800001F013943E80012002AF8D1BFF35B8F4B
:10286800054811F0EDFA0548BDE810400BF0A2BB91
:102878008C0C0020900C002078090020FC0300201C
:102888000020064BBFF35B8F014653E8000F43E877
:102898000012002AF9D1BFF35B8F70478C0C00201F
:1028A80070B5FFF7EDFF084C084E0546B44200D35B
:1028B80070BD63685B792BB123685B6813B12946E7
:1028C800204698471034F1E794480108A4480108C5
:1028D80010B5044C044920460DF06DF9034B1C60FB
:1028E80010BD00BF0803002010490108840C002017
:1028F8000D4A0E48002310B513700D4A13600D4A97
:102908004FF47A711360FFF77BFFFFF7E1FF0A4B83
:102918000A4918468B4200D310BD1A1A5C68121176
:10292800013222711033F5E7621D0020E306010829
:102938008C0C0020900C002094480108A448010841
:1029480001460022014800230DF056B90803002073
:1029580001480DF0EFB900BF08030020024B014603
:1029680018680DF03BBA00BF840C002001480DF038
:1029780070BA00BF0803002070B5264B18780028ED
:1029880046D0FFF7E5FF054600283ED1224B234CF1
:102998001B68002B12DD11F045FA0A220023FEF70E
:1029A8006FFBD4E90032C01A40F2E93361EB02014F
:1029B800984271F1000101D3FFF772FFD4E90032A8
:1029C80013F57A7342F10002C4E90032BDE87040A1
:1029D800FFF7CCBF63685B7923B1236829461B687E
:1029E800204698471034B442F4D32846FFF7B6FF80
:1029F800BFF35B8F0A4B53E8001F013943E800120D
:102A0800002AF8D1BFF35B8FC0E7064C064EEAE711
:102A180070BD00BF611D00208C0C002070090020D3
:102A2800900C002094480108A448010870B50D4D89
:102A3800297861B90120FFF793FE0B4C0B4EB44285
:102A480006D3FFF799FF0028FBD101232B7070BD37
:102A580063685B791BB1236820469B6898471034EC
:102A6800EDE700BF621D002094480108A448010852
:102A780000212DE9F0470846FFF772FE044658B3D7
:102A88004FF4FA784FF0000911F09AFB1B4B1C4ADF
:102A98001B58136033B11B4B1B68092B02DD1A4806
:102AA8000BF088FA194FDFF860A0002544B12046E2
:102AB800FFF7F0FD044618B94FF0FF384FF0FF3923
:102AC800FFF75AFF064628B9B5B942464B46504665
:102AD8000BF0AAFA3546E9E74FF0FF384FF0FF3917
:102AE800D2E72B689B691BB10022114628469847FC
:102AF8001035BD42F5D3E8E7054DFAE708000000B8
:102B0800880C0020900C0020FC030020A448010839
:102B18009448010813B518480DF0D2FD174B1B78DF
:102B280073B1EFF31184102383F31288BFF36F8F0F
:102B3800FFF722FF84F31188BFF36F8F02B010BD37
:102B48000F4B1B68002BF9D050B900220023CDE9A8
:102B580000230C4842F2107200230CF017FAEDE73C
:102B68000928EBD1074811F06BF9074802B0BDE816
:102B780010400BF01FBA00BF900C0020621D00200F
:102B8800880C002078090020FC03002010B5064BB3
:102B98001B68044698472146A06004480DF0ABF82E
:102BA800BDE81040FFF7B6BFD000002008030020A2
:102BB800044A054B9B1AB1EBD30F34BF52F83100CE
:102BC80000207047BC470108944801082DE9F04FE0
:102BD8008FB004AFC1F34A28B8600D4691467B60B8
:102BE8000C0DB8F1000F63D0002607F114034FF065
:102BF800040B4FF00A0AC7F80C80C7E907667E6223
:102C08000193CDF808B0CDF800A007F11C03F968CE
:102C180032464846FFF760F9B0F5006F03461CD30B
:102C28006C468AB0D9F8041004AB2648C3E90501FC
:102C380040F2FF71D9611A464FF400711984224B92
:102C480042F8103F214833464FF41251FFF7BEFFB8
:102C5800A5462C37BD46BDE8F08FC0F30A0804F13D
:102C68001700184420F0070080083B60FFF768FE53
:102C780068F35325044690B13B68154AC7E90836FE
:102C880000F1100107F11403F961CDE900A3CDF8B3
:102C980008B0F96807F11C034846FFF71DF968F307
:102CA80053257B68B9682A4620460DF051FDD0E7C8
:102CB80004F1170020F007008008FFF741FE0446E2
:102CC800EDE700BF0854010804000001FC470108B3
:102CD8002B0701082DE9F04F87B0DDE91279DDE90E
:102CE800105A0446039193469846BFB1CDF8009018
:102CF8003B46524610210020CDF81490FEF71AFFEB
:102D0800B0F5006F06460AD3184A194840F2FF7317
:102D1800022107B0BDE8F04F0DF073BD3E4605F146
:102D28001700304420F0070004F007048008FFF77C
:102D380007FE0BF0070BE40044EA8B1444EA462430
:102D480044EA0554054640B13FB1CDF800903B46F2
:102D5800524631461030FEF7EDFE039943462246AF
:102D6800284607B0BDE8F04F0DF0F2BC4754010803
:102D7800FC470108406820B1034BC01A40F3CF005C
:102D880070474FF0FF307047BC4701080EB403B5D9
:102D980003AB014653F8042B0448019300F02EFFBF
:102DA80002B05DF804EB03B0704700BF6D0801087E
:102DB800CA0605D48B064CBF02490349FFF7E6BF94
:102DC800704700BF805401087F5401082DE9F04F77
:102DD80089B09B46149B06939DF84CA0159B0593C0
:102DE800169B179E049304460D469046BAF1000FB1
:102DF80000F09D8006F4807307930DF087FC06F0C1
:102E08000209024600283ED091492046FFF7BEFF3E
:102E18000746B9F1000F08D016F0440F35D18D4997
:102E28002A462046FFF7B2FF074406F0010353B1D4
:102E3800894B8A4953F82A20894B2046002A08BF23
:102E48001A46FFF7A3FF06F48073002B49D006F05B
:102E58000803002B63D1B8F1000F66D081494246C0
:102E68002046FFF793FF0546069B3D44002B6DD196
:102E7800049B002B73D1F30700F1E4803146204610
:102E8800FFF796FFD8E00746C3E7774B1868002896
:102E9800CAD0764B4FF47A791B68B5FBF3F54FF43B
:102EA8006163B5FBF0F100FB115509FB05F54FF027
:102EB8003C0CB1FBF3F203FB1211B5FBF0FEB1FBC6
:102EC800FCF300FB1E550CFB131109FB05F50091E3
:102ED800B5FBF0F56649CDE901E52046FFF756FF59
:102EE800A2E706F00803EBB1624B634953F82A20C6
:102EF8002046FFF74BFF0546B8F1000F05D05949AA
:102F080042462046FFF742FF0544BBF1000FABD015
:102F18005A495A462046FFF739FF0544A4E74FF0BF
:102F2800000BE1E706F00805E6E745469CE7BBF13C
:102F3800010F069B06D1002B64D1049B002B7BD08C
:102F480000250CE0002BF8D04D485CE04D48069B6E
:102F58004D4922460CF0C7FC049B002B68D0DFF8D3
:102F68002C81DFF82C91049F3146102F204628BF72
:102F78001027FFF71DFF4FF0000B5D4545DC059B53
:102F880049461A782046FFF701FF4FF0010B1BF066
:102F9800070F03D141462046FFF7F8FE5F453BD9AE
:102FA800059B494613F80B202046FFF7EFFE0BF16F
:102FB800010BBBF1100FEAD1364920464FF0000B48
:102FC800FFF7E4FE5A46059B9A5CA2F120015F29AF
:102FD80028BF2E2230492046FFF7D8FE0BF1010BFF
:102FE800BBF1100F1DD01BF0070F03D1414620463F
:102FF800FFF7CCFE5F455A46E5D841462046FFF725
:10300800C5FEEBE71F485546A1E741462046FFF7B6
:10301800BDFE0BF1010BB0E720492046FFF7B6FED5
:10302800C5E7059B3B440593049BDB1B04939AD19E
:10303800BAF1000F7FF41FAF204609B0BDE8F04F8A
:103048000DF003BC064A05492046FFF79FFE15E729
:10305800875401088B54010834490108A95901080B
:1030680082540108B05401089C0C0020980C0020E0
:103078009454010848490108B4540108BA54010895
:10308800A30801086D080108053C0008C754010899
:10309800BF540108C9540108CB540108C55401089C
:1030A80073B542F20F738B4228BF0B4605680F4A6F
:1030B8000446052168460CF06DF863680C495B68A6
:1030C80006460B2228460DF0B2FB63683246694675
:1030D80028465B680DF0ABFB636806495B681B22FA
:1030E80028460DF0A4FB02B070BD00BF8D5D01083D
:1030F800EA540108CE540108074A002101239042EE
:1031080006D8064A01B901231360054B18607047B9
:1031180040085B000121F2E740420F00980C0020B4
:103128009C0C0020F8B5074F0D4604464618B442DB
:1031380001D12846F8BD14F8011BBB6801485B683B
:103148009847F4E72C430108014B036000207047BF
:10315800904901082DE9F047064600AF0C460029C2
:1031680036D0E9468AB0D1E90012A3686D462148F5
:10317800A8464FF0050AC5E90501C5E9072348F83F
:1031880010AF1D48424600234FF42151FFF71EFDA2
:10319800CD46D4E903126369AD461848C5F810A0B6
:1031A800C5E90501C5E907231348002342464FF442
:1031B8002151FFF70BFDCD46E369114A0E48012165
:1031C8000DF01FFBA3690F4A0B4801210DF019FBF5
:1031D800012E07D1EFF305830B4A0748103B314610
:1031E8000DF00FFB214630460AF036FCBD46BDE81F
:1031F800F08700BF30550108244801085F550108D1
:103208008E5501089D550108CB55010830BFFFF7C1
:10321800FDBF00BF2DE9F0410B4EDFF8308006EB13
:103228000807CC1B054632460949204610F046FFE0
:10323800A01942460021083C10F04EFF6C6707F1C8
:103248000800BDE8F08100BF000000000400000095
:10325800A4480108054B5A699B689A421FBF044A53
:10326800536843F080535360704700BF241D00200B
:1032780000ED00E070B5244C06460D46234824496D
:103288000DF092FBA36AD9043CD5204821490DF0E2
:103298008BFB1720A36A1A0504D51C481E490DF09C
:1032A80083FB1820184CA36A9B0512D51B491748A5
:1032B8000DF07AFBA36BA26A110409D5184A1348CA
:1032C80001210DF09EFA1EB1A36A23F40043A36204
:1032D80019200D4CA36A5A0504D50C4811490DF064
:1032E80063FB1A20A36ADB0504D508480E490DF0D4
:1032F8005BFB1B20044A936A43F47F4393620023D9
:103308002B7070BD1620C5E700ED00E024480108C9
:10331800DE550108F455010805560108185601083C
:1033280031560108465601086156010810B5204C6F
:10333800204921480DF038FBA36A990136D51E486B
:103348001E490DF031FB1E20A36ADA0104D51A4884
:103358001B490DF029FB1F20154CA36A1B0304D53C
:10336800154818490DF020FB2120A36A590304D5FC
:10337800114815490DF018FB22200D4CA36A9A0339
:1033880004D50D4811490DF00FFB2320A36ADB0378
:1033980004D509480E490DF007FB2420044A936A16
:1033A8006FEA03436FEA1343936210BD1D20CBE716
:1033B80000ED00E0795601082448010891560108FB
:1033C800A4560108BE560108DC5601080157010839
:1033D8001B5701082DE9F8432F4D804689462F4891
:1033E8002F4917460DF0E0FAAB6ADA0627D52D49C2
:1033F8002A480DF0D9FA1124AB6A1B0704D52A49CB
:1034080026480DF0D1FA1224234DAB6A9E0718D531
:10341800264922480DF0C8FA6E6BAB6A1C0637D5F0
:10342800234A1E48334601210DF0EBF9B9F1000F8C
:1034380003D0AB6A23F08003AB62132403E01024AB
:10344800DAE76FF01506144DAB6AD80704D51949A9
:1034580012480DF0A9FA1424AB6AD90602D4AB6A53
:103468009A070BD50C4B5B681B0507D541463046C0
:1034780000F0F8F910B180F309880224064A936A2B
:1034880043F0FF03936200233B702046BDE8F883B6
:103498006FF01506D1E700BF00ED00E024480108F1
:1034A800465701085C570108055601088F5701085F
:1034B800A7570108BD5701082DE9F041664B8AB0AE
:1034C800D3F8048000AF0446C8F30805002686F345
:1034D8001188BFF36F8F02F07F43B3F17F4F07D19D
:1034E80002F00C03082B12D15C495D480DF05CFA20
:1034F800002634460023FB71EB1E092B00F28A805C
:10350800DFE803F00A80837C88888888888610072B
:103518004CBF0C460126EDE7524951484E4D0DF07F
:1035280043FA0023FB71EB6A9A0705D54E494C48CC
:103538000DF03AFA002332E0EB6A002B01DA4B492E
:10354800F5E7EB6A5B00F5D5494945480DF02CFADB
:103558006B69A26943F480736B61BFF34F8FBFF34C
:103568006F8F6B6932F8022C23F480736B61BFF3A1
:103578004F8FBFF36F8F4DF602739A4208D0AB6A34
:10358800DBB273B3FA1D01212046FFF723FF37E0B2
:103598002368384A324801210DF033F92368FA7953
:1035A800DAB907F1080504F1200C206861682A4699
:1035B80003C2083464451546F7D17A6A002E45D00F
:1035C800C2F3080121B96FEA52226FEA42227A62F5
:1035D80007F108011846FFF7BDFD2837BD46BDE8CD
:1035E800F081AB6A13F47F4F04D0F91D0120FFF777
:1035F80041FE05E0AB6AB3F5803F9BD3FFF796FE2B
:103608000346CCE7FA1D0021BEE7F91D0020EEE7CE
:1036180019498CE7194A1A4B18F4F87FE8468AB01A
:1036280018BF13466A461749C2E905134FF40073D9
:103638001384103D144BD56142F8103F084800230D
:103648004FF41151FFF7C2FAC54673E722F4FF722F
:1036580022F00102BBE700BF00ED00E00A580108B4
:1036680024480108355801084C5801086D580108CC
:103678007B5801089A580108B6580108F157010803
:10368800DC570108DA58010804000001044B5A69A4
:1036980042F010025A615A6922F008025A617047D2
:1036A80000ED00E0EFF30880EFF3098101B5724601
:1036B800FFF702FF01BD00BF0A4880F30888102009
:1036C80080F3118808484FF40461401880F3098892
:1036D800EFF314800221084380F31488BFF36F8F3F
:1036E8000DF06AF9803B0020002A0020084B9B68F7
:1036F80083420BD1EFF3058343B1064B5A6842F07E
:1037080080525A605A6A22F400425A620BF030B969
:10371800241D002000ED00E014498A684FF03000B5
:103728001044EFF3098C80E8F01F102080F3128812
:10373800BFF36F8F0E4F4FF000664A698A603E6094
:10374800506F0C4C2060906F0023936780F31188B2
:1037580004B5104600F0EAF8BDE8044002F1300074
:1037680090E8F01F8CF3098870470000241D0020A2
:1037780004ED00E0CC0C00201EF0040F0CBFEFF3AA
:103788000880EFF30980816911F8021C0229FFD033
:1037980001B572460DF0FDF801BD00BF40B200282A
:1037A80007DB044A4109012300F01F00834042F867
:1037B8002130704700E100E040B200280CDB4309EB
:1037C800064900F01F0020330122824041F82320DF
:1037D800BFF34F8FBFF36F8F704700BF00E100E06A
:1037E80040B20028A8BF00F1604001F10101B8BF54
:1037F800064B4FEA0111ACBF00F5614000F00F0025
:10380800C9B2B4BF195480F80013704714ED00E032
:10381800044B054A23F07F039360BFF34F8FBFF338
:103828006F8F70470000000800ED00E042F8203C70
:10383800009B42F81C3C0A49019B42F8183C029B39
:1038480042F8143C21F001014FF0807342F8043C27
:1038580042F8081C0023203A02658367704700BFBE
:10386800B9220008094A0346906870B113F1160F8F
:10387800406E05D0A0F140029A4205D8834203D297
:10388800814228BF0020704700207047241D002077
:1038980008B51546094A0A4B9060426F1A600E46F1
:1038A80000F044F82C4686F309880020054B984719
:1038B8002046002100220023034C2047241D00201D
:1038C800CC0C0020D7090108B9220008014B1022AE
:1038D8001A61704700ED00E0044800231021C21867
:1038E80001333E2B82F80013F9D1704700E100E064
:1038F80008B5EFF30583064A103B02EBC30152F803
:10390800330049688847BDE80840FFF7A3BC00BFFB
:1039180098440108024B034A0348012100F08AB881
:10392800000001200000002090490108426E054B6C
:10393800403A1A60044A4021C3E90112184601219D
:1039480000F082B8D00C002000000B1508B5034623
:103958001048D0F89020C2F30722013A934207D9C1
:103968000D480E4A01210CF04CFF6FF0150008BD00
:10397800C0F898300A6822F01F021A4342F0100279
:10398800C0F89C208A6842F00102C0F8A0201846BE
:10399800EDE700BF00ED00E01C480108F158010800
:1039A800F0B50E4685B01F4604460025B5420DDA2F
:1039B800606810B397B1431E18420AD0104A1148E4
:1039C8002B4601210CF01DFF6FF01502104605B0C3
:1039D800F0BD1F28F2D921680B42EFD1236801936B
:1039E8000DF009F8A36801A90343D0B20393FFF7C8
:1039F800ADFF10F1160FE7D0421C01350C34D5E7A6
:103A0800175901081C480108044B0522C3F89420E3
:103A1800BFF34F8FBFF36F8F704700BF00ED00E01B
:103A2800BFF35F8F024B0022C3F89420704700BF9A
:103A380000ED00E010B5034C01232278FFF7B0FF3A
:103A4800207010BD641D002008B50B4A00231278B1
:103A5800FFF7A6FF10F1160F07D0084A0021D2F889
:103A68009030C3F30723984200DB08BDC2F89800E2
:103A7800C2F8A0100130F2E7641D002000ED00E05C
:103A88002DE9F04357485849D0F890300D68C3F3F2
:103A980007239D4285B000F2A180FFF7C1FF496866
:103AA8000022954201F10C011AD1504C504F25705B
:103AB8006846FFF749FBDFF83C81DFF83C91064692
:103AC8000025AE421FD1237846490020D1F8902026
:103AD800C2F3072293427BDBFFF796FF00204CE0FE
:103AE800C0F8982051F80C3C23F01F03134343F00F
:103AF8001003C0F89C3051F8043C43F00103C0F8AF
:103B0800A0300132CDE7009800EB05114FEA051C03
:103B1800CB683B40B3F5000F44D00AD8B3F5001F7B
:103B28002ED0B3F5800F34D0B3F5801F10D00135F7
:103B3800C7E7B3F1807F3ED0B3F1007FF7D150F8EB
:103B48000C3088684A680CF056FF40F4802009E081
:103B580050F80C3088684A680CF04DFF40F08850E7
:103B680040F43020039001A92078CDE90123FFF724
:103B7800EDFE002828DA6FF0150005B0BDE8F083E7
:103B880050F80C3088684A680CF035FF40EA0800A5
:103B9800E8E750F80C3088684A680CF02CFF40EAD7
:103BA8000900DFE750F80C3088684A680CF023FFFA
:103BB80040F08270D6E750F80C3088684A680CF0FC
:103BC8001AFF40F08870CDE7237801332370AEE701
:103BD800C1F89830C1F8A000013377E74FF0FF3003
:103BE800CBE700BF00ED00E09C490108641D002000
:103BF8000000F0FF0000081100000206F0B587B0D1
:103C080007460E4614460021102268461D4610F04D
:103C180063FA02238DF802302A46054B01932146A8
:103C28006846CDE904760BF0DFFA07B0F0BD00BFB7
:103C38001F0A010808B5024B1B689847002008BDF9
:103C4800DC0C0020034B044A1860937843F002030D
:103C580093707047DC0C0020DC00002008B5064992
:103C6800064821F00701C1F1005202F580320BF03D
:103C7800C7FD002008BD00BF07450020E00C00205C
:103C8800024B1B6803B11847FF207047F40C002053
:103C98000A4B0B4A0020C3E900000A4B1A600A4A83
:103CA8005A600A4A9A600A4ADA600A4B0A4A9860D5
:103CB800C3E90020094ADA60704700BF180D0020E8
:103CC8001D3E0008080D0020493D0008813E0008FF
:103CD800350A0108F80C0020893C0008370A010859
:103CE80030B50E4C8BB02D23054668468DF8003054
:103CF80003F0BAFF9DF904302278934200D15DB1F8
:103D0800D8B2074B20701B6803B198472378054A3F
:103D1800054803210CF075FD0BB030BD671D002070
:103D2800F00C00204959010814480108034BBFF35F
:103D38005B8F1868BFF35B8F704700BF200D0020B2
:103D48002DE9F04383B0427802AF0446C2B1104671
:103D580000F062FB6C4688B002AA294BC2E9053024
:103D68004FF400739383274B42F8103F26484FF4D3
:103D7800E2510CF05EFEA5460437BD46BDE8F0836F
:103D8800FFF7D4FFC00702D51046FFF7A9FFFFF7DA
:103D9800CDFF81070ED4237F63B1BFF35B8F1B4B2D
:103DA80053E8001F41F0020143E80012002AF7D14E
:103DB800BFF35B8F6179237F4A1E5142514141EA2B
:103DC8004301134B1D685FFA81F8002DD4D0083DDC
:103DD8004FF6FF792B88E0784B4501D083420AD112
:103DE800A16894F91030B4F90E200191217B00915B
:103DF8006E684146B047AD68002DBDD0083DE9E783
:103E0800615901080300000114480108200D002031
:103E1800180D0020B0B50446407800AF98B100F006
:103E2800FBFA6D4688B06A460E4BC2E905304FF47E
:103E3800007393830C4B42F8103F0C484FF4E25147
:103E48000CF0F7FDAD46FFF771FFC30702D5002060
:103E5800FFF746FF064B62781A7006480AF0AAF880
:103E6800BD46B0BD7C590108030000011448010893
:103E7800661D002014040020B0B58AB004464078BE
:103E880000AFE0B100F0C8FA6D4688B06A461C4B36
:103E9800C2E905304FF4007393831A4B42F8103F80
:103EA80019484FF4E2510CF0C4FDAD46174B627847
:103EB8001A7017480AF07EF82837BD46B0BD237837
:103EC800052B0FD0092B19D0012BEFD1072338462A
:103ED8003B7003F0C9FE7B680E4A0B4803210CF0C7
:103EE80090FCE3E70C4B1B6813B1617A207A984782
:103EF8000A4A054803210CF07BFCD7E7084AF8E793
:103F0800945901080300000114480108651D0020A8
:103F18002C040020AC590108EC0C0020CA590108F7
:103F2800DA590108052808B5034606D1074A084B9F
:103F3800107001221A70002008BD0648064A0121A7
:103F48000CF05FFC6FF08500F6E700BFBB020020B5
:103F5800BA02002014480108EA590108F0B59BB0DC
:103F6800044600AF4FF0FF324FF0FF336F4809F0BF
:103F780059FF01261D2307F118003B763E7703F011
:103F88008BFF257D002D70D1694B3E711B787B72AC
:103F98003423022587F8403007F140003D7203F0D2
:103FA80063FE40B3634A644831460CF021FCEA24BE
:103FB800204600F025FA6D4688B06A465F4BC2E994
:103FC80005304FF4007393835D4B5B4842F8103F14
:103FD8004FF4E2510CF02DFD2046AD4600F028FAD2
:103FE8000446002800F08A80504809F093FF2046D4
:103FF8006C37BD46F0BD7B6CA2899A8023697B64CF
:1040080087F8405007F1400003F046FF032387F884
:10401800403023687B6407F1400003F03DFF09232B
:1040280087F8403063687B6407F1400003F034FF91
:10403800082387F84030A3687B6407F1400003F049
:104048002BFF381D04F04CFA04460028B0D14FF07D
:10405800FF333C484FF0FF3209F0E6FF3A4B18783F
:1040680000284BD000F0F6F9BAE7012D5AD13523D4
:1040780087F84030354B7B6407F1400003F00CFFB4
:10408800062387F8403000237B6407F1400003F0E3
:1040980003FF072387F8403023687B6407F140005B
:1040A80003F0FAFE0C2387F84030A3687B6407F11D
:1040B800400003F0F1FE0D2387F84030A3687B64CD
:1040C80007F1400003F0E8FE0E2387F84030A368AC
:1040D8007B6407F1400003F0DFFE0F2387F84030D0
:1040E80063687B6407F1400003F0D6FE87F8405010
:1040F80087F8445007F1400003F0CEFEFFF716FEA4
:10410800C3070AD42D2387F84030094B1B7887F85A
:10411800443007F1400003F0BFFE0120FFF7E0FD47
:10412800002461E76FF015045EE700BFA4030020D8
:10413800681D0020045A0108144801081E5A010885
:10414800030000012C040020651D0020000300016D
:1041580000B58BB018B1094B1B788B4204D06FF0B7
:1041680015000BB05DF804FB2323019068468DF819
:10417800003003F091FE0028F3D0F0E7BA020020E7
:1041880010B58AB00446FFF7D1FDC30703D56FF019
:1041980015000AB010BD2D2368468DF800308DF843
:1041A800044003F079FE0028F1D1024B1C70024B49
:1041B8001C70EEE7681D0020671D002000B58BB05D
:1041C8000246FFF7B3FD00F00100824219D0BFF3A9
:1041D8005B8F124BC2B153E8001F41F0010143E865
:1041E8000012002AF7D1BFF35B8F05238DF800304A
:1041F800FFF79CFD00F001008DF80400684603F00D
:104208004BFE0BB05DF804FB53E8001F21F00101E1
:1042180043E80012002AE6D0F6E700BF200D002090
:104228002DE9F04186B0804600AF15461C460E4683
:1042380009B9002A6BD137484FF0FF324FF0FF33EE
:1042480009F0F0FD3946284603F0ACFC00283ED0C2
:1042580000F0D6F86C4688B06A462F4BC2E90530A4
:104268004FF4007393832D4B42F8103F2C484FF4C2
:10427800E2510CF0DEFB0023A5463B71FB603B825C
:104288000125381DBB7405F00DF8044668B300F02D
:10429800B7F86D4688B06A46224BC2E905304FF43C
:1042A800007393831D4B42F8103F1D484FF4E251B1
:1042B8000CF0BFFB2046AD4600F0BAF8044615489E
:1042C80009F028FE20461837BD46BDE8F08154B1F4
:1042D800012C08D0144B3D8293F9003087F80880F0
:1042E800FE600025CDE73C71F4E74FF0FF330F483F
:1042F8004FF0FF3209F098FE0D4B187808B100F026
:10430800A9F8002D044618BF6FF00A04D7E76FF02C
:104318001504D7E7B8030020335A01080300000149
:1043280014480108585A0108671D00201404002089
:10433800661D002000238360054B596800F10802C0
:1043480011B9C3E9002270470A605A60704700BF7C
:10435800180D0020B0B5214D214922488EB02A7889
:1043680000AF03F055FAC0B100F04AF86C4688B0C7
:104378006A461D4BC2E905304FF4007393831B4B0B
:104388001B4842F8103F4FF4E2510CF052FB6FF01B
:104398001500A5463837BD46B0BD03F0F9FB044605
:1043A80030B100F02DF86C4688B06A46114BE1E751
:1043B800062307F1080128783B720DF046FE0E4BE4
:1043C800C0B218700D4B187030233B7407F1100001
:1043D80014237B6103F060FD2046DBE7BB0200206D
:1043E800F80C0020080D0020705A01080300000195
:1043F80014480108915A0108681D0020671D002013
:1044080017289ABF024B53F820000248704700BF94
:10441800984A0108BF5A01080F289ABF024B53F85F
:1044280020000248704700BF584A0108CF5A0108C7
:104438001628034608D8064A52F8200030B9002B3F
:1044480018BF6FF0150070476FF01500704700BF78
:10445800FC4901080F28034608D8064A52F82000EC
:1044680030B9002B18BF6FF0150070476FF01500BA
:10447800704700BFBC490108014809F0FDBE00BFF4
:10448800EC000020014B186059607047240D002093
:10449800024B1A685B6802600B607047240D0020AD
:1044A80008B50CF0CCFA024B1B68C01A08BD00BF57
:1044B8002C0D002001480FF0C3BC00BF50030020A2
:1044C8000A2307B5A0FB032300210020CDE9000142
:1044D80002480AF05BFD03B05DF804FB50030020BE
:1044E80008B50CF0ACFA014B186008BD2C0D002083
:1044F800014B1868704700BF2C0D002010B5124CF6
:10450800BFF35B8F022354E8002F012A03D144E84C
:1045180000310029F7D1BFF35B8F0CBF01200020C9
:1045280010D10A4BDB6A9847002344F8403CBFF39C
:104538005B8F54E8002F44E800310029F9D1BFF31C
:104548005B8F012010BD00BF740D0020FC4B0108DB
:1045580010B5064B5C68FFF7D1FF30B12CB10021D4
:104568002046BDE810400AF0D1BD10BD300D002036
:1045780013B50D4BD3E901433BB10C4B5B6B019376
:10458800002002B0BDE810401847FFF7B7FF40B160
:104598003CB16FF00401204602B0BDE810400AF0BB
:1045A800B5BD02B010BD00BF300D0020FC4B0108A6
:1045B8002DE9F347284C9A46D4E9019307460D465E
:1045C800164683B1254B00205B6B9847E368CDE91D
:1045D80000A32A46D4F80880206833463946C047E5
:1045E80002B0BDE8F08704F144020223BFF35B8FF9
:1045F80052E8001F012903D142E800300028F7D112
:10460800BFF35B8F9046EBD1E36C1A78AA4288BF60
:104618001D70E36CA06C1A7839460FF04FFD236DBE
:1046280003B11E80636D0BB183F800A00B4BDB6AEE
:10463800984700216160BFF35B8F58E8003F48E866
:104648000012002AF9D1BFF35B8F484602B0BDE8DB
:10465800F0470AF05BBD00BF300D0020FC4B01089D
:10466800F8B5044600AF00680D460FF0ADF90346F3
:104678002068BBB96C4688B001686A462748C2E919
:1046880005014FF400719183254942F8101F254810
:104698004FF4E251FEF79AFA6FF01205A546284644
:1046A800BD46F8BDE38821792B43DD02D0F808E048
:1046B800D0F810C006D513F4402F03D0DA0748BF4E
:1046C80083F44023DCF80050012623F480128E4046
:1046D800DB074CBF3543B543CCF80050DEF800305B
:1046E800984705460028DAD02368196823796C466C
:1046F8008AB06A460C48C2E907354FF400739384C0
:104708000A4BC2E9050142F8103F064800234FF45E
:104718003151FEF75BFAA546C1E700BF575D0108B6
:104728000300000184480108705D010805000001CC
:1047380070B50D460F49BFF35B8F012051E8004F5C
:10474800002C03D141E80006002EF7D1BFF35B8FA0
:104758000CD1094E41F8403CD4B2736D21469847BC
:104768002846B36A21469847002070BD6FF00F00B5
:10477800FBE700BF740D0020FC4B01082DE9F04752
:104788004FF000088EB005AC264F81468A46164683
:104798004146102209A80125CDE90544CDE907883D
:1047A8000FF09AFC8DF831507B6B0D94002B35D0AF
:1047B8002346324651464846FFF7BAFF041E29DB16
:1047C800F6B2CDE901860395BB8F174C009397F895
:1047D8003A3097F8392097F83810646A2846A04785
:1047E8000A23A840A0FB0323294609A80AF036FC9F
:1047F800041E0FDA0D4A0E4829460BF0F9FFFFF7A1
:104808007DFE38B94FF0FF324FF0FF33294609A833
:104818000AF024FC20460EB0BDE8F0876FF01504BE
:10482800F8E700BF300D0020FC4B0108905D01083F
:1048380084480108F0B58DB000248DF8072003AE38
:104848000F461022214607A8CDE90366CDE90544A5
:1048580001250FF041FC274B8DF829500B96BFF32B
:104868005B8F53E8002FA24203D143E8005100298F
:10487800F7D1BFF35B8F39D10DF1070243E910641B
:104888009A601D4E149ADA60159A1A615F60FF21CA
:10489800736D28469847736B20469847DDE91223C5
:1048A800294607A80AF0DAFB041E15DAFFF726FEE8
:1048B80050B94FF0FF324FF0FF33294607A80AF0EE
:1048C800CDFB9DF8074004E00C4A0D4803210BF08E
:1048D8008FFF20460DB0F0BD069B002BF1DA094A88
:1048E800074829460BF084FF069CF2E76FF00F0497
:1048F800EFE700BF740D0020FC4B0108AC5D010818
:1049080084480108BC5D010810B529B9FFF7F6FD18
:10491800D8B96FF0150010BD0E4BBFF35B8F0120A7
:1049280053E8004F002C04D143E8000CBCF1000F01
:10493800F6D1BFF35B8F0AD1074C43E90F12636DC1
:10494800FF219847636B002098470020E3E76FF04A
:104958000F00E0E7740D0020FC4B0108F0B52C4D6A
:10496800BFF35B8F8BB00C46012755E8003F002B47
:1049780003D145E80072002AF7D1BFF35B8F43D11A
:10498800244E2068F3689847E37A4BB32346103DDA
:1049980004F11007186859682A4603C20833BB4255
:1049A8001546F7D14FF47A63089300220120237B40
:1049B8000793CDE90522CDE9032023890293A37942
:1049C800019363790093F569237994F90A10A8474C
:1049D800B36D607B9847FFF791FD00200BB0F0BDE9
:1049E8000997227BB569CDE90732CDE90533CDE9D1
:1049F80003330A2202922289CDE900323846A3798C
:104A080062792179A847E3E76FF00F00E6E700BF76
:104A1800740D0020FC4B010838B5084611461A46AB
:104A28000B4BBFF35B8F012453E8005F002D04D1CB
:104A380043E8004CBCF1000FF6D1BFF35B8F04D103
:104A4800044BDB6B9847002038BD6FF00F00FBE785
:104A5800740D0020FC4B010838B5114BBFF35B8F78
:104A6800002453E8002F43E800410029F9D1BFF39F
:104A78005B8F0C4943F8341C0B490C4D43F82C1C34
:104A88000B4943F8241C0B4943F8301C2A6843F8A7
:104A9800440CA3F134009047EB6A9847204638BD90
:104AA800740D002059450008B9450008FC4B010861
:104AB80079450008A90A01080246052101480BF0BA
:104AC800F1BF00BFCC4201080246042101480BF0A7
:104AD800E9BF00BFCC420108024A034802210BF09B
:104AE80087BE00BFD85D01087C48010810B50B4C93
:104AF800E3691BB9BDE81040FFF7EEBF00209847F7
:104B0800074B1B6E03B1984794F8203023B1BDE8DA
:104B18001040024800F020B910BD00BF880D0020E9
:104B2800FC4B010870B54FF4B011466805461E48A5
:104B3800FFF796FD18B16FF00404204670BD1B48BE
:104B48004FF4B011FFF78CFD0028F4D1184919482B
:104B58000EF0F5FF284600F009F9044628B1164A78
:104B6800164801210BF044FEE7E730680EF02CFFF1
:104B780038B9134A114801210BF03AFE6FF01204BC
:104B8800DBE7F06818B10EF01FFF0028F1D02846C7
:104B9800FFF762FF051ED0DA0A4A084801210BF028
:104BA80027FE2C46C9E700BF184B0108104B010827
:104BB800F54A0008940D0020075E01087C480108AA
:104BC800255E01083A5E0108014B93F82000704702
:104BD800880D002008B503461048042B80F82030C3
:104BE80011D005D8BBB10020FFF766FF00200EE00A
:104BF800053B022BF7D80020FFF766FFBDE8084009
:104C08000120FFF759BF0020FFF756FF0120BDE83C
:104C18000840FFF759BF0CF017F8E4E7880D0020AB
:104C2800014BD861704700BF880D002010B5044CB7
:104C380020460BF0EEFF012384F8203010BD00BFA2
:104C4800880D002010B5054C204600F07DF800B90D
:104C580010BD00210A200FF047F8F5E7880D002065
:104C680070B58CB00D46DDE91061CDE9063104ABB5
:104C7800CDE90402CDE90852009308AA02230446AC
:104C8800CDE90A61CDE9022301930CF002F90F483E
:104C9800ADB9A6B983680E491D686A463346A84768
:104CA8000028034604DA0B4A0B4801210BF0A9FD42
:104CB8002378842B01D0FFF7C5FF0CB070BD836843
:104CC80003491D68014802AB6A46E8E78C430108BE
:104CD800FC4A01085D5E01087C48010870B5124D68
:104CE80086B0284600F038F8C023ADF8043001AB90
:104CF800029302230393012402AB049305940B4807
:104D08000B49836804AA1E680023B047031E06DA0D
:104D1800084A094821460BF074FD06B070BDFFF73C
:104D280091FF85F82040F8E7880D00208C430108A2
:104D3800FC4A01085D5E01087C48010801480BF047
:104D480081BF00BF880D0020024B5869C0F34000A6
:104D5800704700BF00040058034B4FF48022C3F88B
:104D680084213220FEF71ABD00E100E0002208B5D8
:104D780011463220FEF734FD054AD2F8903043F44C
:104D88008053C2F890303220FEF708FD002008BD9D
:104D980000080058074B08491A6843F2390001FB1C
:104DA800020018606FF00043B0FBF3F3C3EBC3736A
:104DB800C01A7047FC0000206D4EC641014B1860B8
:104DC800704700BFFC00002030B530B10A4D0144E7
:104DD8004FF0FF33814201D1D84330BD10F8012B89
:104DE8005340082243F30004013A2C4092B284EA6B
:104DF8005303002AF6D1EDE72083B8ED044A13687F
:104E08000BB100215972436110600BF0FBBF00BF6A
:104E1800AC0D002037B5044601A80BF032FE6CB18A
:104E2800174D2A68134673B96368236001232381E9
:104E38006AB9FFF755FB2046FFF7E0FF01A80BF022
:104E480029FE03B030BD9C42F8D05B69EBE7FFF761
:104E580027FB236818442B6820601A689042EAD31D
:104E68005A69596911B95C616161E7E7116888425B
:104E780002D913465269F4E75C616261DEE700BF5C
:104E8800AC0D0020F8B5FFF733FB1C4C0546FFF7C7
:104E980027FB2368A3B1471B1E462D1A716929B940
:104EA8005A692260DA68197242B9FEE70A68BA429A
:104EB8008CBF521900220A607669EFE7186990479B
:104EC800002623682BB9206880B9F8BD1869904777
:104ED800F7E71D68FFF7E4FA8542F4D223685A69B8
:104EE8002260DA681E72002AF0D1FEE7437A002BAE
:104EF800EBD1BDE8F8400BF085BF00BFAC0D00203A
:104F080037B5134D044601A80BF0BBFD2B686BB1F8
:104F180064B10022A342227211D1597A5C6961B14D
:104F28005A7244B120462C600BF06CFF01A80BF0BC
:104F3800B1FD03B030BDFFF7BDFA2C60F6E71A46A5
:104F48005B69002BF2D09C42F9D163695361EDE7AC
:104F5800AC0D002007B5074B1B7840BAADF804002C
:104F68002BB9022201A940F2BC600BF007FE03B086
:104F78005DF804FB6B1D002007B5074B1B7840BA92
:104F8800ADF804002BB9022201A940F2BE600BF073
:104F9800F5FD03B05DF804FB6B1D002010B50C4B4C
:104FA8001B7804469BB94FF4D7600BF01CFEC4F382
:104FB800002100F0FE0001434FF4D7600BF0F2FD32
:104FC800E1B240F2B960BDE810400BF0EBBD10BD96
:104FD8006B1D002013B504460BF075FD04F00703A4
:104FE80014F004048DF8073008BF084B4FF0010295
:104FF8000DF107014FF0840008BF1C700BF09EFDF7
:105008000020FFF7E7FD02B010BD00BF691D0020BA
:1050180010B50446FFF70AFE2046FFF701FEFFF72A
:105028005DFE00200BF054FF0BF052FD0BF05CFD11
:10503800034B00221A70BDE810400120FFF7CABDDB
:10504800691D0020134B984207B50BD94EF6E113A2
:10505800ADF80430022201A998200BF06FFD03B0CF
:105068005DF804FB0C4B984202D94DF6D733EFE7B5
:105078000A4B984202D94CF2C153E9E7084B9842CF
:1050880002D948F27513E3E7064B9842E2D946F68F
:105098006B73DDE700E9A43580F8A9328044E52D7B
:1050A800000B6B1B40FC541937B5104D2B78044688
:1050B8001BB9FFF7C7FF01232B7043F6095241F6CE
:1050C8008463B4FBF2F102FB114403EB8433B3FBBA
:1050D800F2F3042203EB81331BBA0DEB02018620A5
:1050E80001930BF02BFD03B030BD00BF691D0020FC
:1050F80007B5064B8DF80700187001220DF107015E
:105108008A200BF01BFD03B05DF804FB6B1D00202B
:10511800014B1878704700BF6B1D002013B5224A59
:105128000446516810686B4603C3204B20781B78EF
:10513800834201D0FFF7DCFF23781BB1012B2ED06F
:1051480002B010BD62681A4BB3FBF2F31A0C8DF86B
:1051580000201A0A8DF801208DF80230A268237BFE
:105168008DF8033043F60951637BB2FBF1F08DF8FB
:10517800043001FB102241F6846303EB8233B3FB56
:10518800F1F303EB80331A0C5BBA8DF80520ADF808
:105198000630082269468B200BF0D0FCD0E7236943
:1051A80000930422F6E700BFF44801086B1D0020B5
:1051B8000000093D1FB52B4A0446D1689068127C4F
:1051C80001AB03C31A70284B20781B78834201D0A7
:1051D800FFF78EFF23781BB1012B31D004B010BD2F
:1051E800637AF12B20D14FF6FF70FFF7B3FE48F238
:1051F8000500FFF7C1FE02236288A188ADF80610FA
:1052080052BAE188ADF804208DF80B30227AA37ADF
:105218008DF80A20ADF808108DF80C30092201A984
:105228008C200BF08BFCD9E7F22BE5D141F60F501F
:10523800FFF790FE41F22100FFF79EFE0623DBE711
:10524800A3890A4A5BBAADF80430A37B13708DF8C2
:105258000630E37B8DF80730238AADF80830062244
:10526800DDE700BFF44801086B1D00206A1D00201F
:1052780037B505460C46022201A913200BF06CFC39
:105288000A4B1B78012B0DD1094B1B78012B09D137
:1052980040F202700BF0A7FC9DF8053028702370CF
:1052A80003B030BD9DF80400F6E700BF6B1D002079
:1052B8006A1D002013B50322044601A914200BF02F
:1052C8004BFC184B1A7822704AB1012A17D01322C6
:1052D8000021601C0EF000FF0F2323700DE09DF8E5
:1052E800043023719DF80530A2605B425B10A37106
:1052F8009DF806305B425B10637102B010BD9DF8EB
:1053080004305B425B1023739DF9053002339B1018
:1053180063739DF806305B425B10A373024B1B68F6
:105328002361EAE76B1D0020B00D0020034B1B68CA
:1053380013B15B6803B11847704700BFD80E00204F
:10534800034B1B6813B1DB6803B11847704700BFF4
:10535800D80E0020014B01221A7070476E1D0020E4
:1053680008B5FFF731FC0438C0B2032896BF024BDA
:105378000020185C08BD00BF875E010838B50C46E0
:10538800002340F201211A46054608460BF0CAFEE2
:10539800FFF7BEFE0C4B01280C480CBF83F8C74032
:1053A80083F8C040FFF706FF2146284600220BF08D
:1053B800B7FD074B074819680BF042FDBDE83840B8
:1053C8000448FFF727BD00BFE40D00209C0E002015
:1053D800F40E0020CC0D002038B50D461446FFF71A
:1053E80063FE2846074D0BF082FB0BF02DFE4FF4B1
:1053F8007A71284661430BF023FD2846BDE8384002
:10540800FFF708BDCC0D002073B5574D01A80BF070
:1054180038FB2C78002301A82B700BF03BFB002CE9
:1054280061D00BF094FE04460BF034FF01A80BF09A
:1054380028FBFFF783FC012808BF287001A80BF0A0
:1054480029FBE5070BD54948FFF75AFD0120FFF76F
:10545800C1FB474B1B6813B11B6803B19847A007F2
:1054680011D54448424EFFF74BFD14F0400F424B14
:105478003BD01B7813B90120FFF7ACFB336813B19D
:105488001B6903B1984721060AD50120FFF7A2FB43
:10549800374B1B6823B19B6913B1C4F300209847AD
:1054A800A2050FD5FFF790FB04284CD12F48FFF732
:1054B80027FD0120FFF78EFB2D4B1B6813B15B689E
:1054C80003B19847A3060ED52A48FFF719FD2A4BC2
:1054D8001B7813B90120FFF77DFB254B1B6813B11F
:1054E800DB6803B1984702B070BD1D7895B90120FB
:1054F800FFF770FB294640F602100BF053FB40F60D
:1055080044100BF070FB40F00201C9B240F64410A1
:105518000BF048FB194D1A48FF220DF103010BF05F
:10552800A0FE2846FFF7C6FE3368002BABD09E6866
:10553800002EA8D095F90D3095F90C209DF8031090
:105548000F48B0479FE7FFF73FFB0528BAD1094846
:10555800FFF7D6FC0120FFF73DFB054B1B68002B2E
:10556800B0D0DB68ACE700BF6E1D0020CC0D00207A
:10557800D80E0020B40D00206E1E0020DC0E002086
:105588006F1D002010B590B10A4B012219461C6806
:10559800A04206D39C68A04203D201EBC20108795D
:1055A80010BD0132162A03F10803F0D1FEE71F20CF
:1055B800F6E700BF4C4B01080128094806D1094B02
:1055C80080F8C7101970B830FFF7F4BD90F8BF30F5
:1055D800012B04D1034B80F8C0101970F3E7704712
:1055E800E40D0020BC02002000234FF6FF7110B527
:1055F8001A46044608460BF095FD34B10948214681
:105608000BF01EFC0748FFF705FC074B1B782BB176
:105618006FF07F40BDE810400BF08BBC034B18685F
:105628008001F7E7B40D00206E1E0020F00E002068
:1056380000234FF6FF7110B51A46044608460BF0D2
:1056480071FD34B1094821460BF0FAFB0748FFF712
:10565800E1FB074B1B782BB16FF07F40BDE8104092
:105668000BF0B4BC034B18688001F7E7B40D0020B9
:105678006E1E0020F00E0020F0B5BDF814409DF815
:1056880018C09DF81CE09DF8205040B1012814D0A6
:105698000122002398180138B0FBF2F0F0BD8CF01D
:1056A800010CE30003EBCC0318330EEB450503EBC9
:1056B800C5034FF47A714B43ECE7501F012803F1FF
:1056C800040304D80C2C38BF0C24002706E0C1B909
:1056D800A2F10B07012F8CBF002701272801BCF17D
:1056E800000F00EBCE000CBF14250025A0EB8200B4
:1056F800062A4FEA82062844A2F1020C08D8354649
:105708000BE00129E1D1A2F10C0047424741E5E74E
:105718000830002FF3D04FEA8C050028ACBF2E18B4
:105728002E1C701E90FBF5F003FB0044094B062A63
:105738005A5C8CBF0C340E340A2A0AD8A3000133F1
:105748004FF47A7103FA0CF34B43034951F82220C2
:10575800A0E7FFDE8B5E0108204B01080D4B10B55A
:1057680004461870587000F017F85CB134214FF4F3
:10577800E8600BF017FA4421BDE8104040F2417090
:105788000BF010BA14214FF4E8600BF00BFA242147
:10579800F2E700BF6C1D002008B50120FFF7A8FC48
:1057A800054B18785A78824204D05870BDE80840F2
:1057B800FFF7D4BF08BD00BF6C1D0020012808B545
:1057C80006D00020FFF794FC034B00225A7008BD56
:1057D800BDE80840FFF7E0BF6C1D00202DE9F04F41
:1057E80085B089469DF84C1000919DF85C109DF895
:1057F80044A0BDF84070694CDFF8A4B1BDF83C6026
:105808002170002918BF0027BAF1000F15469DF82E
:10581800482008BFFF228BF80020804620B10128CD
:1058280054D005B0BDE8F08F5E4C0BF018FC0B238C
:105838004FEA490084F8EC3084F8E080C4F8E4507A
:10584800FFF7A0FE41F60403A4F8BC309BF8003033
:1058580084F8C030009B84F8ED00002B0CBF0123B6
:10586800F22384F8C130F60001238AF0010A84F893
:10587800C23084F8B880A4F8BA6084F8BE8084F88E
:10588800BFA00BF015FD94F8E000003818BF012008
:10589800FFF794FF04F1E000FFF740FC04F1B800C3
:1058A800FFF788FC404A1068516802AB03C302A89E
:1058B8000BF005FB40F2FF10FFF770FB4FF4FA53B3
:1058C8007B43B3FBF5F3394A1360AAE70020354C54
:1058D80001930BF0C4FB3649019B11F8091084F8B9
:1058E800E080EAB284F8F020B9F1000F45D10B3D11
:1058F800012D8CBF00250125053A012A02D80C2E5E
:1059080038BF0C2684F8F230012384F8B8309BF8AD
:10591800003084F8C730009B84F8C8309DF85830B0
:1059280084F8C93084F8F11084F8F350A4F8C460FE
:1059380084F8C6A00BF0BCFC94F8E000003818BF4F
:105948000120FFF73BFF1B48FFF7E8FB1A48FFF76A
:1059580031FCF8B20BF08FFB94F8C930012B40F200
:10596800367014D10BF03FF900F0FB0140F23670AD
:105978000BF018F94FF6FF73A5E7B9F1010F04D141
:10598800A5F10C0045424541B6E70025B4E70BF008
:105998002AF940F00401C9B2E8E700BF6E1E0020F2
:1059A800BC020020E40D002005490108F00E00208B
:1059B8008B5E0108C40E00209C0E00202DE9F74FD5
:1059C8000C9DBDF838709DF83C909DF840A0884625
:1059D8009346064648B101284DD040F689000BF0A1
:1059E80002F940F00401C9B28DE0524C0B2284F850
:1059F800E000580084F8EC20C4F8E450FFF7C2FD3A
:105A080041F60403BAF1000FA4F8BC300CBF01231F
:105A1800F22384F8C130FF00012389F0010984F8DA
:105A2800C23084F8ED00C4F8E8B084F8B860A4F88F
:105A3800BA7084F8BE6084F8BF900BF039FC94F813
:105A4800E000003818BF0120FFF7B8FE04F1E000BD
:105A5800FFF764FB04F1B800FFF7ACFB364A1068A7
:105A680051686B4603C368460BF029FA40F2FF10F1
:105A7800FFF794FAB1E72F4C304984F8E000EAB216
:105A8800C95C84F8F020002B4AD10B3D012D8CBF56
:105A980000250125053A012A02D80C2F38BF0C270A
:105AA8009DF8343084F8F230012384F8B830244B60
:105AB80084F8F1101B7884F8C7309DF84C3084F8CE
:105AC800C93084F8F350A4F8C47084F8C69084F8F8
